:100000000C94590F0C94860F0C94860F0C94860F49
:100010000C94860F0C94860F0C94860F0C94860F0C
:100020000C94860F0C94860F0C94860F0C94860FFC
:100030000C94860F0C947DED0C94860F0C94860F17
:100040000C94860F0C9437880C94860F0C94860FB2
:100050000C94860F0C94860F0C94D7910C94CAE9DB
:100060000C94860F0C94EB2B0C94860F0C94860F3B
:100070000C94860F0C94860F0C94860F0C94860FAC
:100080000C94CE860C94860F0C94860F0C94860FDD
:100090000C94860F0C94860F0C94860F0C9451E6EA
:1000A0000C94860F0C94860F0C94A1860C94860FEA
:1000B0000C94860F0C94860F0C94860F0C94748607
:1000C0000C94860F0C94860F0C94860F0C94860F5C
:1000D0000C94860F0C94860F0C94860F0C94860F4C
:1000E0000C94860F084AD73B3BCE016E84BCBFFD03
:1000F000C12F3D6C74319ABD56833DDA3D00C77FF8
:1001000011BED9E4BB4C3E916BAAAABE0000008090
:100110003F05A84CCDB2D44EB93836A9020C50B91F
:10012000918688083CA6AAAA2ABE000000803F4DFE
:10013000383420582059205A2045006563686F3AAA
:100140000043616E6E6F7420656E74657220737506
:10015000626469723A20004D3234004D32332025FA
:1001600073006175746F25692E67004572726F7236
:100170003A006572726F722077726974696E6720D7
:10018000746F2066696C65004E6F74205344207054
:1001900072696E74696E67002F0053442070726933
:1001A0006E74696E67206279746520002E00446564
:1001B0006C6574696F6E206661696C65642C20469D
:1001C000696C653A200046696C652064656C6574ED
:1001D00065643A002E006F70656E206661696C651B
:1001E000642C2046696C653A200057726974696E08
:1001F0006720746F2066696C653A20002E006F706E
:10020000656E206661696C65642C2046696C653A90
:1002100020002E006F70656E206661696C65642C2D
:100220002046696C653A200046696C652073656CF0
:100230006563746564002053697A653A20004669F5
:100240006C65206F70656E65643A20002E006F70DB
:10025000656E206661696C65642C2046696C653A40
:1002600020004E6F772066726573682066696C6542
:100270003A20004E6F7720646F696E672066696C64
:10028000653A20002220706F730022207061726531
:100290006E743A2200535542524F5554494E4520F0
:1002A00043414C4C207461726765743A2200747249
:1002B00079696E6720746F2063616C6C207375625E
:1002C0002D67636F64652066696C65732077697458
:1002D0006820746F6F206D616E79206C6576656C37
:1002E000732E204D4158206C6576656C2069733AF9
:1002F0000053442063617264206F6B006F70656E01
:10030000526F6F74206661696C656400766F6C75FE
:100310006D652E696E6974206661696C6564005351
:100320004420696E6974206661696C006563686F5A
:100330003A0048617264636F646564204465666175
:10034000756C742053657474696E6773204C6F61AB
:100350006465640053746F726564207365747469B6
:100360006E677320726574726965766564002044F7
:10037000002049002020204D3330312050005049CA
:10038000442073657474696E67733A00205A0020C4
:10039000590020204D323036205800486F6D6520BE
:1003A0006F666673657420286D6D293A00204500DC
:1003B000205A0020580020420020540020204D32B6
:1003C0003035205300416476616E63656420766148
:1003D000726961626C65733A20533D4D696E2066A7
:1003E0006565647261746520286D6D2F73292C20FA
:1003F000543D4D696E2074726176656C206665654A
:10040000647261746520286D6D2F73292C20423D24
:100410006D696E696D756D207365676D656E7420AD
:1004200074696D6520286D73292C20583D6D6178A5
:10043000696D756D205859206A65726B20286D6D45
:100440002F73292C20205A3D6D6178696D756D20C0
:100450005A206A65726B20286D6D2F73292C20201D
:10046000453D6D6178696D756D2045206A65726BDB
:1004700020286D6D2F73290020540020204D32302C
:1004800034205300416363656C65726174696F6EFB
:100490003A20533D616363656C65726174696F6E88
:1004A0002C20543D726574726163742061636365CE
:1004B0006C65726174696F6E00204500205A0020DF
:1004C000590020204D3230312058004D6178696D3F
:1004D000756D20416363656C65726174696F6E2030
:1004E000286D6D2F7332293A00204500205A0020D4
:1004F000590020204D3230332058004D6178696D0D
:10050000756D2066656564726174657320286D6D14
:100510002F73293A00204500205A0020590020203E
:100520004D39322058005374657073207065722005
:10053000756E69743A0053657474696E67732053FD
:10054000746F726564006563686F3A004572726F1C
:10055000723A0053544F505045442E200050726957
:100560006E7465722073746F707065642064756555
:1005700020746F206572726F72732E204669782026
:10058000746865206572726F7220616E6420757385
:1005900065204D39393920746F207265737461722A
:1005A000742E202854656D706572617475726520B3
:1005B00069732072657365742E20536574206974A5
:1005C0002061667465722072657374617274696EFD
:1005D0006729004B494C4C45442E20005072696EEF
:1005E0007465722068616C7465642E206B696C6C34
:1005F00028292063616C6C656421006F6B00526573
:1006000073656E643A20002200556E6B6E6F776ED4
:1006100020636F6D6D616E643A2022004368616EE5
:1006200067652066696C616D656E74005A204F665F
:1006300066736574203A20007A5F6D61783A200015
:100640007A5F6D696E3A20005A204F666673657452
:10065000005A204F6666736574206F6B00486F7494
:10066000656E64206F6666736574733A0022005588
:100670006E6B6E6F776E20636F6D6D616E643A2086
:1006800022007A5F6D61783A20007A5F6D696E3A78
:100690002000795F6D61783A2000795F6D696E3A6C
:1006A0002000785F6D61783A2000785F6D696E3A5E
:1006B0002000205A3A0020593A0020436F756E748A
:1006C00020583A200020453A00205A3A0020593A52
:1006D00000583A004649524D574152455F4E414DF0
:1006E000453A4D61726C696E2056313B20537072F1
:1006F000696E7465722F6772626C206D61736875C4
:100700007020666F722067656E36204649524D57DD
:100710004152455F55524C3A687474703A2F2F66B7
:1007200069726D776172652E756C74696D616B6548
:10073000722E636F6D2050524F544F434F4C5F5693
:10074000455253494F4E3A312E30204D414348498E
:100750004E455F545950453A556C74696D616B65EF
:10076000722045585452554445525F434F554E549C
:100770003A3220555549443A3030303030303030FC
:100780002D303030302D303030302D303030302D75
:100790003030303030303030303030300A00556C4E
:1007A00074696D616B6572204F66662E00426564E8
:1007B00020646F6E652E0020423A0020453A0054B6
:1007C0003A004265642048656174696E672E00488E
:1007D000656174696E6720646F6E652E0020573AFC
:1007E0000020453A00543A0048656174696E672EEE
:1007F0002E2E002042403A0020403A00202F003A9E
:1008000000205400202F0020423A00202F006F6B60
:1008100020543A002569206D696E2C2025692073CB
:10082000656300456E642066696C65206C6973744D
:1008300000426567696E2066696C65206C69737437
:10084000004E6F206D6F76652E00526573756D6971
:100850006E67207072696E74005761697420666FEC
:100860007220757365722E2E2E00536C6565702E86
:100870002E2E00FFFFFF00004D4300004D430000FF
:1008800048430000A0400000A040000000400000DD
:100890000000000000000000000000000000000058
:1008A00000000000000000004D4300004D43000028
:1008B0004843256920686F757273202569206D692A
:1008C0006E7574657300446F6E65207072696E7426
:1008D000696E672066696C650053544F50504544FB
:1008E0002E20005072696E7465722073746F707080
:1008F00065642064756520746F206572726F727311
:100900002E2046697820746865206572726F7220A7
:10091000616E6420757365204D39393920746F20FC
:10092000726573746172742E202854656D706572DF
:1009300061747572652069732072657365742E2009
:1009400053657420697420616674657220726573E2
:1009500074617274696E6729006F6B004E6F204C72
:10096000696E65204E756D626572207769746820C6
:10097000636865636B73756D2C204C617374204CD8
:10098000696E653A20004E6F20436865636B73752E
:100990006D2077697468206C696E65206E756D6274
:1009A00065722C204C617374204C696E653A20008E
:1009B000636865636B73756D206D69736D617463D6
:1009C000682C204C617374204C696E653A20004C91
:1009D000696E65204E756D626572206973206E6F59
:1009E00074204C617374204C696E65204E756D6285
:1009F00065722B312C204C617374204C696E653A02
:100A000020004D31313000446F6E6520736176698E
:100A10006E672066696C652E006F6B004D32390081
:100A20002020506C616E6E6572427566666572421A
:100A3000797465733A20002046726565204D656DB6
:100A40006F72793A20004A616E20203820323031AE
:100A50003700436F6D70696C65643A200043452030
:100A6000636F6E66696700207C20417574686F72E1
:100A70003A20004A616E202038203230313720324F
:100A8000323A30363A303900204C61737420557058
:100A900064617465643A2000312E302E30004D615F
:100AA000726C696E0020536F6674776172652052B4
:100AB0006573657400205761746368646F672052C2
:100AC00065736574002042726F776E206F757420B5
:100AD0005265736574002045787465726E616C2090
:100AE000526573657400506F77657255700073744A
:100AF000617274002200656E717565696E672022EF
:100B0000002200656E717565696E6720220065635D
:100B1000686F3A0020746F6F206C6F6E6720657885
:100B200074727573696F6E2070726576656E746528
:100B3000640020636F6C6420657874727573696FEC
:100B40006E2070726576656E746564004141414146
:100B5000E1414143454545454949494944EE4F4FE7
:100B60004F4FEF784F555555F55954E2616161612A
:100B7000E1616163656565656969696964EE6F6F07
:100B80006F6FEFFD6F757575F5797479007C3C3E7C
:100B90005E2B3D3F2F5B5D3B2C2A225C0045303AAB
:100BA00020005A3A2000593A2000583A20004D536C
:100BB000312C4D53322050696E730A0024F404D94D
:100BC000201BC40C5C0E9804C4095F026507710108
:100BD000F405F900FB04B30048048700C103690071
:100BE0005803550003034500BE023A008402310059
:100BF00053022A002902250004022000E4011C00FF
:100C0000C8011900AF0117009801140084011300F6
:100C1000710110006101100051010E0043010D002F
:100C200036010B002B010B0020010B001501090000
:100C30000C01090003010800FB000800F300080094
:100C4000EB000700E4000600DE000600D800060006
:100C5000D2000600CC000500C7000500C200050058
:100C6000BD000400B9000400B5000400B100040098
:100C7000AD000400A9000400A5000300A2000300C9
:100C80009F0004009B0003009800030095000200F1
:100C900093000300900003008D0002008B0003000E
:100CA0008800020086000200840003008100020028
:100CB0007F0002007D0002007B000200790002003C
:100CC000770001007600020074000200720001004B
:100CD000710002006F0002006D0001006C00020054
:100CE0006A0001006900020067000100660001005F
:100CF0006500010064000200620001006100010063
:100D0000600001005F0002005D0001005C00010066
:100D10005B0001005A000100590001005800010069
:100D20005700010056000100550001005400010069
:100D30005300000053000100520001005100010067
:100D4000500001004F0001004E0000004E00010065
:100D50004D0001004C0001004B0000004B00010061
:100D60004A0001004900010048000000480001005D
:100D70004700010046000000460001004500000059
:100D80004500010044000100430000004300010051
:100D9000420000004200010041000000410001004B
:100DA000400001003F0000003F0001003E00000045
:100DB0003E0001003D0000003D0001003C0000003D
:100DC0003C0000003C0001003B0000003B00010033
:100DD0003A0000003A00010039000000390001002B
:100DE0003800000038000000380001003700000023
:100DF0003700010036000000360000003600010018
:100E0000350000003500000035000100340000000E
:100E10003400000034000100330000003300000003
:100E200033000100320000003200000032000100F7
:100E300031000000310000003100010030000000EE
:100E400030000000300001002F0000002F000000E3
:100E50002F0000002F0001002E0000002E000000D7
:100E60002E0001002D0000002D0000002D000000CC
:100E70002D0001002C0000002C0000002C000000C0
:100E80002C0001002B0000002B0000002B000000B4
:100E90002B0001002A0000002A0000002A000000A8
:100EA0002A0001002900000029000000290000009C
:100EB000290000002900010028000000280000008F
:100EC0002800000028000000280001002700000082
:100ED0002700000027000000270000002700010075
:100EE000260000002600000026000000260000006A
:100EF000260001002500000025000000250000005C
:100F0000250000002500000025000100240000004D
:100F10002400000024000000240000002400010040
:100F20002300000023000000230000002300000035
:100F30002300000023000000230001002200000025
:100F40002200000022000000220000002200000019
:100F5000220001002100000021000000210000000B
:100F600021000000210000002100000021000100FC
:100F700020000000200000002000000020000000F1
:100F800020000000200000002000000020000100E0
:100F90001F0000001F0000001F0000001F000000D5
:100FA0001F0000001F0000001F0001001E000000C5
:100FB0001E0000001E0000001E00000024F4D430BB
:100FC00050C38E20C2A24017828B7011127A910DED
:100FD000816CD90AA861E108C758660761514306C8
:100FE0001E4B5D05C145A7041A411104093D980334
:100FF000713931034036DB0265339102D43054023B
:10100000802E1D02632CEE01752AC501B028A001B7
:10101000102781018F2564012B244B01E02234012C
:10102000AC211F018D200D01801FFC00841EED00EE
:10103000971DDF00B81CD200E61BC600201BBC00B9
:10104000641AB200B219A8000A19A0006A1899001F
:10105000D117910040178B00B516840031167E0021
:10106000B31579003A157300C7146F0058146A005D
:10107000EE1366008813630025135E00C7125B0041
:101080006C12570015125400C111510070114F001D
:1010900021114B00D61049008D1047004610440026
:1010A00002104200C00F4000800F3E00420F3C0083
:1010B000060F3B00CB0E3800930E37005C0E350058
:1010C000270E3400F30D3200C10D3100900D3000B9
:1010D000600D2E00320D2D00050D2C00D90C2B00BB
:1010E000AE0C2900850C29005C0C2700350C27006C
:1010F0000E0C2600E80B2400C40B2400A00B2300D8
:101100007D0B23005A0B2100390B2100180B200006
:10111000F80A1F00D90A1E00BB0A1E009D0A1D0006
:10112000800A1D00630A1C00470A1B002C0A1B00D2
:10113000110A1A00F7091A00DD091900C40919007B
:10114000AB091900920917007B0918006309170001
:101150004C09160036091600200916000A09150068
:10116000F5081500E0081400CC081400B8081400B5
:10117000A4081400900813007D0812006B081300E7
:101180005808120046081200340811002308110004
:101190001208110001081100F0071000E00710000C
:1011A000D0071000C0071000B0070F00A107100003
:1011B00091070E0083070F0074070F0065070E00EC
:1011C00057070E0049070E003B070D002E070E00C3
:1011D00020070D0013070D0006070D00F9060C008F
:1011E000ED060D00E0060C00D4060C00C8060C004D
:1011F000BC060C00B0060C00A4060B0099060C00FF
:101200008D060B0082060B0077060B006C060B00A8
:1012100061060A0057060B004C060A0042060A0047
:1012200038060A002E060A0024060A001A060A00DA
:101230001006090007060A00FD050900F40509006B
:10124000EB050900E2050900D9050900D0050900F0
:10125000C7050900BE050900B5050800AD05080071
:10126000A50509009C050800940508008C050800E8
:10127000840508007C050800740508006C0507005B
:10128000650508005D050700560508004E050700C6
:10129000470507004005080038050700310507002D
:1012A0002A050700230507001C0506001605070090
:1012B0000F0507000805060002050700FB040600ED
:1012C000F5040700EE040600E8040600E204070047
:1012D000DB040600D5040600CF040600C90406009E
:1012E000C3040600BD040600B7040600B1040500EF
:1012F000AC040600A6040600A00405009B0406003A
:1013000095040500900406008A0405008504050084
:10131000800406007A0405007504050070040500C9
:101320006B04050066040500610405005C0405000B
:1013300057040500520405004D040500480405004B
:10134000430405003E0404003A040500350405008A
:10135000300404002C0405002704040023040500C5
:101360001E0404001A0404001604050011040400FD
:101370000D04040009040500040404000004040032
:10138000FC030400F8030400F4030400F003040069
:10139000EC030400E8030400E4030400E003040099
:1013A000DC030400D8030400D4030400D0030400C9
:1013B000CC030400C8030300C50303006563686F22
:1013C0003A00656E6473746F7073206869743A20B4
:1013D0005A00205A3A00656E6473746F7073206807
:1013E00069743A20590020593A00656E6473746F2D
:1013F0007073206869743A20580020583A00656E6E
:101400006473746F7073206869743A200045727257
:101410006F723A004572723A204D415854454D5012
:10142000204245440054656D706572617475726543
:1014300020686561746564206265642073776974EF
:1014400063686564206F66662E204D415854454D93
:1014500050207472696767657265642021210045B8
:1014600072723A204D494E54454D50003A2045780D
:10147000747275646572207377697463686564203B
:101480006F66662E204D494E54454D50207472694A
:101490006767657265642021004572723A204D418C
:1014A0005854454D50003A20457874727564657201
:1014B000207377697463686564206F66662E204DBB
:1014C000415854454D502074726967676572656470
:1014D000202100202D20496E76616C69642065789A
:1014E000747275646572206E756D6265722021007C
:1014F00070012C0190012701B0012201C0011D01E2
:10150000F00118011002130130020E0160020901FE
:1015100090020401C002FF000003FA004003F5003E
:101520008003F000D003EB002004E6007004E1002B
:10153000E004DC004005D700C005D2004006CD0025
:10154000D006C8008007C3003008BE00F008B9000C
:10155000C009B400B00AAF00B00BAA00D00CA500BF
:10156000000EA000500F9B00C0109600501291007A
:1015700000148C00C0158700B0178200B0197D00E0
:10158000D01B7800001E730040206E00902269007E
:10159000F024640040275F0090295A00E02B55009A
:1015A000102E500020304B0010324600E033410036
:1015B00090353C001037370070383200A0392D00CC
:1015C000B03A2800A03B2300603C1E00103D1900EB
:1015D000903D1400103E0F00703E0A00C03E050012
:1015E000003F0000504944204175746F74756E656A
:1015F0002066696E69736865642120507574207473
:101600006865206C617374204B702C204B692061DD
:101610006E64204B6420636F6E7374616E7473200C
:1016200066726F6D2061626F766520696E746F20DF
:10163000436F6E66696775726174696F6E2E6800BC
:10164000504944204175746F74756E6520666169F8
:101650006C6564212074696D656F75740020403A73
:10166000006F6B20543A006F6B20423A005049449F
:10167000204175746F74756E65206661696C656470
:10168000212054656D706572617475726520746F88
:101690006F206869676800204B643A2000204B691E
:1016A0003A2000204B703A200020436C617373692C
:1016B000632050494420002054753A2000204B7587
:1016C0003A2000206D61783A2000206D696E3A2042
:1016D0000020643A200020626961733A20002D2DB9
:1016E0003A2D2D002D2D2D00534400012000012006
:1016F000000120004E6F205344206361726400504B
:1017000072696E742066726F6D2053440053746F5B
:1017100070207072696E7400526573756D6520700B
:1017200072696E74005061757365207072696E74B1
:1017300000436F6E74726F6C0050726570617265F9
:101740000054756E6500496E666F2073637265653F
:101750006E00052E2E004D61696E004D3234004D35
:101760003233202573004D383420582059205A2018
:10177000450047303120583130205931302046352E
:10178000303030004D383420582059205A20450040
:101790004730312058313020593130205A313020F3
:1017A0004635303030004D363031205831302059F8
:1017B0003230205A30204C3330004D3630312058F2
:1017C000313020593230205A32204C3330004D36DF
:1017D00030312058313020593230205A3230204CAC
:1017E000333000526573746F7265206661696C7383
:1017F000616665004C6F6164206D656D6F72790084
:1018000053746F7265206D656D6F727900526574E7
:1018100072616374004D6F74696F6E0054656D7012
:1018200065726174757265004D61696E00556E5226
:10183000657420205600556E526574202056005362
:1018400020556E5265742B6D6D005320556E526598
:10185000742B6D6D00556E526574202B6D6D0055A7
:101860006E526574202B6D6D00486F70206D6D0099
:10187000486F70206D6D0052657472616374202032
:10188000560052657472616374202056005377616C
:10189000702052652E6D6D00537761702052652E59
:1018A0006D6D0052657472616374206D6D005265D8
:1018B0007472616374206D6D004F6666004F6E2018
:1018C000004F6666004F6E20004175746F5265745C
:1018D000722E00436F6E74726F6C00457374657086
:1018E000732F6D6D004573746570732F6D6D005AA5
:1018F00073746570732F6D6D005A73746570732FF8
:101900006D6D005973746570732F6D6D005973742C
:101910006570732F6D6D005873746570732F6D6DE6
:10192000005873746570732F6D6D00412D7265746E
:101930007261637400412D72657472616374004159
:101940006D6178206500416D6178206500416D61B1
:1019500078207A00416D6178207A00416D617820AD
:101960007900416D6178207900416D6178207800BF
:10197000416D61782078005654726176206D696EF1
:10198000005654726176206D696E00566D696E0066
:10199000566D696E00566D6178206500566D6178F0
:1019A000206500566D6178207A00566D6178207A46
:1019B00000566D6178207900566D61782079005667
:1019C0006D6178207800566D617820780056652D1D
:1019D0006A65726B0056652D6A65726B00567A2DCA
:1019E0006A65726B00567A2D6A65726B005678795B
:1019F0002D6A65726B005678792D6A65726B0041AD
:101A00006363656C00416363656C00436F6E747261
:101A10006F6C0050726568656174204142532063A9
:101A20006F6E66005072656865617420504C41208D
:101A3000636F6E66005049442D43005049442D4366
:101A4000005049442D44005049442D44005049441D
:101A50002D49005049442D49005049442D50005013
:101A600049442D500020022046616374002002206A
:101A700046616374002002204D6178002002204DF1
:101A80006178002002204D696E002002204D696EB1
:101A9000004F6666004F6E20004F6666004F6E2056
:101AA000004175746F74656D700046616E207370CF
:101AB0006565640046616E2073706565640042650B
:101AC0006400426564004E6F7A7A6C6532004E6F36
:101AD0007A7A6C6532004E6F7A7A6C65004E6F7A56
:101AE0007A6C6500436F6E74726F6C0053746F7222
:101AF00065206D656D6F72790042656400426564B2
:101B0000004E6F7A7A6C65004E6F7A7A6C6500468B
:101B1000616E2073706565640046616E2073706548
:101B200065640054656D706572617475726500530B
:101B3000746F7265206D656D6F7279004265640027
:101B4000426564004E6F7A7A6C65004E6F7A7A6CEB
:101B5000650046616E2073706565640046616E20A5
:101B600073706565640054656D706572617475723B
:101B700065004D6F7665206178697300436F6F6C07
:101B8000646F776E005072656865617420414253DE
:101B9000005072656865617420504C4100473238CE
:101BA000004175746F20686F6D65004D38340044D6
:101BB000697361626C65207374657070657273001F
:101BC0004D61696E004D6F766520302E316D6D0070
:101BD0004D6F766520316D6D004D6F76652031302B
:101BE0006D6D005072657061726500457874727534
:101BF000646572004D6F7665205A004D6F766520E2
:101C000059004D6F76652058004D6F7665206178DC
:101C10006973004578747275646572005A005900E2
:101C200058005072656865617420414253204265D6
:101C30006400507265686561742041425320416CB4
:101C40006C00507265686561742041425320320017
:101C500050726568656174204142532031005072B2
:101C60006570617265005072656865617420504CE2
:101C70004120426564005072656865617420504C73
:101C80004120416C6C005072656865617420504C55
:101C9000412032005072656865617420504C4120CB
:101CA000310050726570617265004D36303000430E
:101CB00068616E67652066696C616D656E7400466B
:101CC0006C6F77203100466C6F77203100466C6F67
:101CD00077203000466C6F77203000466C6F7700BD
:101CE000466C6F770046616E2073706565640046D0
:101CF000616E2073706565640042656400426564CE
:101D0000004E6F7A7A6C6532004E6F7A7A6C65326B
:101D1000004E6F7A7A6C65004E6F7A7A6C6500536C
:101D200070656564005370656564004D61696E009F
:101D3000436172642072656D6F7665640043617201
:101D40006420696E7365727465640000002100246C
:101D50000027002A002D003000330001010000049C
:101D60000107010A0100002200250028002B002E97
:101D7000003100340002010000050108010B0100E0
:101D80000020002300260029002C002F0032000034
:101D90000100000301060109010505050507050805
:101DA000080808020202020A0A08080404040401DE
:101DB0000101010101010103030303030303030400
:101DC0000707070C0C0C0C0C0C0C0C020202020690
:101DD000060606060606060B0B0B0B0B0B0B0B0180
:101DE000021020200808102040102040800201022C
:101DF00001080402010102040810204080804020F4
:101E0000100804020180040201804020100804022E
:101E100001080402010102040810204080010204AC
:101E200008102040800000090A02080B0C0D07066C
:101E3000030401000000000000000000000000009A
:101E40000000000000000000000000000000000092
:101E50000011100F00000000000000000000000052
:101E6000000000000000000000000002494E46494A
:101E70004E4954594E414ECDCCCC3D0AD7233C1748
:101E8000B7D13877CC2B329595E6241FB14F0A0095
:101E90000020410000C84200401C4620BCBE4CCA85
:101EA0001B0E5AAEC59D74007F2C302F69A4C0E56F
:101EB0002B2F11241FBECFEFD1E2DEBFCDBF00E03C
:101EC0000CBF15E0A0E0B2E0E0E1FDEE01E00BBFE9
:101ED00002C007900D92AA31B107D9F71BBE14E1D9
:101EE000AAE1B5E001C01D92AC35B107E1F71EE1F2
:101EF000C0EBDEE104C02297FE010E942EF6C83A34
:101F0000D107C9F70E94D7EC0C947CF60C94000022
:101F1000A0E0B0E0EEE8FFE00C944BF6EC015B01D2
:101F20006115710519F0FB0191838083F9908F2D64
:101F300090E00E9432F6892BC9F7FDE2FF1621F4EA
:101F4000F990EE24E39405C02BE2F21609F4F9901F
:101F5000EE248E0101501040C8016CE67EE143E0A2
:101F600050E072D2892BF9F48E010E5F1F4FC80129
:101F70006FE67EE145E050E067D2892B19F48E01CF
:101F8000095F1F4FA114B10419F0F50111830083FB
:101F9000E0FC04C070E090E080E813C070E090E0E6
:101FA00080E86FEF07C1C80164E77EE143E050E0DD
:101FB0004BD2892B69F4A114B10429F470E090E0AC
:101FC00080EC6FE7F7C02296F501D183C083F6CF8E
:101FD0008824992440E050E060E070E0EF2DE05369
:101FE000EA30A0F5F2E0EF2A8E2D90E09C012870F7
:101FF0003070E2FE06C0232B79F50894811C911CF9
:102000002BC0232B19F0089481089108DB01CA0129
:1020100012E0880F991FAA1FBB1F1A95D1F7480F0E
:10202000591F6A1F7B1F440F551F661F771F4E0FD6
:10203000511D611D711D483929E9520729E96207BF
:1020400029E1720748F084E0E82A06C0EE3F31F447
:10205000E3FC39C098E0E92AF990C0CFE53311F0EC
:10206000E53189F529912D3219F4E0E1EE2A05C018
:102070002B3219F081E090E003C0299182E090E0DA
:10208000E22FE053EA3018F0C81BD90B1CC020E047
:1020900030E0FCE020383F075CF4C901880F991F4D
:1020A000880F991F280F391F220F331F2E0F311D44
:1020B000E991E053EA3068F3E4FE03C030952195DE
:1020C0003F4F820E931ECE2CDD24E1FE07C0A114EB
:1020D000B10421F02197F501D183C083CB01BA016E
:1020E0000E948BF27B018C01F3E0CF22DD2423E000
:1020F000C216D10421F417FB109517F9109557015A
:102100006801C801B70120E030E040E050E00E94E3
:10211000EBF1882309F44AC097FE0DC02BE8E22EAC
:102120002EE1F22E9094819491089394C0E2D0E035
:1021300000E010E012C093EAE92E9EE1F92EF6CFFE
:10214000F7012591359145915491C601B5010E9441
:10215000CBF45B016C018C1A9D0A8C169D0684F7EA
:10216000D595C7950F5F1F4F0630110529F08CEFED
:102170009FEFE80EF91EF1CFC501D6017C018D015C
:102180008C2D880F8D2D881F8F3F51F0C601B50112
:1021900020E030E040E050E00E94EBF1882331F491
:1021A00082E290E090935B1480935A147E2D9F2DD1
:1021B000802F612F272F392F482F562FB901CA01A1
:1021C000CDB7DEB7ECE00C9467F62F923F925F92AA
:1021D0006F927F928F929F92AF92BF92CF92DF9237
:1021E000EF92FF920F931F93CF93DF938C011B010C
:1021F000EA016115710519F0FB0191838083209735
:1022000049F0CE010297839728F020E030E040E0CB
:1022100050E0F6C0F801A1908F018A2D90E00E9455
:1022200032F6892BB9F7FDE2AF1631F4F801A1902F
:102230008F015524539407C0FBE2AF1619F4F8013F
:10224000A1908F015524209719F0C031D105C1F418
:10225000F0E3AF1679F4F8018081883711F0883502
:1022600049F4F801A1800E5F1F4FF2E05F2AC0E140
:10227000D0E006C0209721F480E3A816E9F427C037
:10228000C830D10531F1C930D10524F4C230D105AF
:1022900031F50CC0CA30D10589F0C031D105F9F44F
:1022A000C12CD12CE12CB8E0FB2E28C0C12CD12CA4
:1022B000E12CA0E4FA2E22C0CAE0D0E0FCECCF2E44
:1022C000FCECDF2EFCECEF2EFCE0FF2E17C0C8E08C
:1022D000D0E0C12CD12CE12CE0E1FE2E0FC09E01FC
:1022E000442737FD4095542F60E070E080E090E88F
:1022F0000E94EFF5C901DA016C017D0120E030E0B8
:1023000040E050E060E03E01882477FC8094982C07
:1023100070EDB72EBA0CE9E0EB1570F48A2D8154FC
:102320008A3118F499ECB92E06C08A2D81568A316B
:1023300050F589EAB82EBA0C8B2D90E08C179D07CA
:1023400014F56F3FE1F0C216D306E406F506B0F0CF
:10235000CA01B901A40193010E949DF59B01AC0142
:102360002B0D311D411D511D2130F0E03F07F0E0E4
:102370004F07F0E85F0710F461E001C06FEFF8016C
:10238000A1908F01C5CF2114310481F0662331F073
:1023900001501040F1011183008308C051FE1AC0A2
:1023A00002501040F1011183008314C067FF12C076
:1023B00050FC05C02FEF3FEF4FEF5FE704C020E078
:1023C00030E040E050E882E290E090935B1480932C
:1023D0005A1416C050FE08C050954095309521956E
:1023E0003F4F4F4F5F4F0CC057FF0AC082E290E053
:1023F00090935B1480935A142FEF3FEF4FEF5FE7FA
:10240000B901CA01DF91CF911F910F91FF90EF9019
:10241000DF90CF90BF90AF909F908F907F906F9004
:102420005F903F902F900895FB01DC0105900D9285
:102430000020E1F70895FC0105900020E9F7809560
:1024400090958E0F9F1F0895FB01DC014150504075
:1024500088F08D9181341CF08B350CF4805E659191
:1024600061341CF06B350CF4605E861B611171F3F6
:10247000990B0895881BFCCFFB01DC0141505040B3
:1024800048F005900D920020C9F701C01D924150FF
:102490005040E0F70895FB0155915523A9F0BF0185
:1024A000DC014D9145174111E1F759F4CD0105903B
:1024B000002049F04D9140154111C9F3FB01411134
:1024C000EFCF81E090E001970895FB01DC0104C0AB
:1024D0008D910190801921F441505040C8F7881B1C
:1024E000990B0895FB01DC0102C001900D9241504F
:1024F0005040D8F70895FB01DC010D900020E9F76A
:10250000119701900D920020E1F70895FC0181914F
:10251000861721F08823D9F7992708953197CF019D
:102520000895FB01DC018D91019080190110D9F310
:10253000990B0895FB01DC0101900D920020E1F759
:102540000895FB01DC014150504030F08D91019025
:10255000801919F40020B9F7881B990B0895FB0125
:10256000DC014150504048F001900D920020C9F725
:1025700001C01D9241505040E0F70895AEE0B0E038
:10258000E4ECF2E10C9453F60E891F898EE08C8303
:102590001A8309838FEF9FE79E838D839E01265EBA
:1025A0003F4FCE010196688D798DA9010AD02F8108
:1025B0003885020F131FF80110822E96E4E00C9468
:1025C0006FF6ABE0B0E0E7EEF2E10C9445F63C01CB
:1025D0002B015A01FC0117821682838181FD03C001
:1025E0006FEF7FEFB9C19AE0892E1E010894211C7C
:1025F000311CF3012381F20123FD859123FF819199
:102600002F01882309F4A5C1853239F423FD859172
:1026100023FF81912F01853221F490E0B301B7D1DE
:10262000E8CF982FFF24EE249924FFE1FF15D0F086
:102630009B3269F09C3228F4903259F0933291F435
:102640000EC09D3249F0903369F441E024C052E05D
:10265000F52A84E0F82A28C098E0F92A25C0E0E1AC
:10266000FE2A22C0F7FC29C0892F80538A3070F4DB
:10267000F6FE05C0989C902C1124980E15C0E89C7D
:10268000E02C1124E80EF0E2FF2A0EC09E3229F45D
:10269000F6FC5FC140E4F42A07C09C3619F450E808
:1026A000F52A02C0983649F4F20123FD959123FFE3
:1026B00091912F01992309F0B8CF892F8554833048
:1026C00018F08052833038F444E050E0A40EB51E78
:1026D0005FE359830FC0933631F0933779F0933528
:1026E00009F052C01FC0F5018081898342E050E0AB
:1026F000A40EB51E610101E010E011C0F501C0801B
:10270000D180F6FC03C06FEF7FEF02C0692D70E04F
:1027100042E050E0A40EB51EC6012ED18C015FE749
:10272000F52213C0F501C080D180F6FC03C06FEF25
:102730007FEF02C0692D70E042E050E0A40EB51EAC
:10274000C6010FD18C0150E8F52AF3FE06C018C06F
:1027500080E290E0B3011BD1EA948E2D90E008173F
:102760001907B0F30DC0F601F7FC8591F7FE8191D2
:102770006F0190E0B3010BD1E110EA9401501040D9
:102780000115110581F7E2C0943611F0993661F513
:10279000F7FE08C0F501208131814281538184E038
:1027A00090E00AC0F501808191819C01442737FDAA
:1027B0004095542F82E090E0A80EB91E9FE6F922C2
:1027C00057FF09C050954095309521953F4F4F4F89
:1027D0005F4FE0E8FE2ACA01B901A1012AE030E01A
:1027E00002D1D82ED2183FC0953729F41F2D1F7E55
:1027F0002AE030E01DC01F2D197F9F3661F0903711
:1028000020F4983509F0A5C00FC0903739F09837FB
:1028100009F09FC004C028E030E00AC0106114FD38
:10282000146020E130E004C014FD166020E132E0C5
:1028300017FF08C0F501608171818281938144E0B6
:1028400050E008C0F50180819181BC0180E090E0FA
:1028500042E050E0A40EB51EA101C5D0D82ED2187A
:102860008FE7F82EF122F6FE0BC05EEFF522D914A9
:1028700038F4F4FE07C0F2FC05C08FEEF82202C067
:102880001D2D01C0192DF4FE0DC0FE01ED0DF11D31
:102890008081803319F499EEF92208C01F5FF2FE9F
:1028A00005C003C08F2D867809F01F5F0F2DF3FC44
:1028B00013C0F0FE0EC01E1510F09D2C0AC09D2CFA
:1028C0009E0C911A1E2D05C080E290E0B3015FD0EE
:1028D0001F5F1E15C8F304C01E1510F4E11A01C0D5
:1028E000EE2404FF0EC080E390E0B30150D002FF5D
:1028F0001BC001FD03C088E790E00EC088E590E0B2
:102900000BC0802F867881F001FF02C08BE201C0EE
:1029100080E2F7FC8DE290E0B30139D005C080E39E
:1029200090E0B30134D09A94D914C8F3DA94F10149
:10293000ED0DF11D808190E0B30129D0DD20B1F7CC
:1029400005C080E290E0B30122D0EA94EE20C9F7FE
:1029500050CEF30166817781CB012B96E2E10C9496
:1029600061F6FC010590615070400110D8F7809528
:1029700090958E0F9F1F0895FC016150704001904B
:102980000110D8F7809590958E0F9F1F08950F9393
:102990001F93CF93DF938C01EB018B8181FF1BC0D1
:1029A00082FF0DC02E813F818C819D8128173907C0
:1029B00064F4E881F9810193F983E88306C0E8852E
:1029C000F985802F1995892B31F48E819F8101968D
:1029D0009F838E8302C00FEF1FEFC801DF91CF915D
:1029E0001F910F910895FA01AA27283051F1203143
:1029F00081F1E8946F936E7F6E5F7F4F8F4F9F4F93
:102A0000AF4FB1E03ED0B4E03CD0670F781F891FD4
:102A10009A1FA11D680F791F8A1F911DA11D6A0FA2
:102A2000711D811D911DA11D20D009F468943F9155
:102A30002AE0269F11243019305D3193DEF6CF0154
:102A40000895462F4770405D4193B3E00FD0C9F71A
:102A5000F6CF462F4F70405D4A3318F0495D31FD87
:102A60004052419302D0A9F7EACFB4E0A6959795DA
:102A7000879577956795BA95C9F7009761057105B0
:102A800008959B01AC010A2E0694579547953795FA
:102A90002795BA95C9F7620F731F841F951FA01D54
:102AA0000895FC011282138214820895FC0184812E
:102AB000882319F081E0828313820895FC018281CA
:102AC000882311F081E083830895CF93DF93DC01A5
:102AD000FC01EA55FE4F808191810097C9F1019771
:102AE00091838083ED01CB5ADF4FFD01EC58FF4FFE
:102AF0008BE1019009928150E1F7FD01ED5AFF4F02
:102B0000AE58BF4F8D919C911197A257B0409183C1
:102B10008083FD01EC58FF4F20E030E0AD014A55C5
:102B20005E4F10C02F5F3F4FEF01DF015F968BE1DB
:102B30000D9009928150E1F7858D968D32979183A2
:102B40008083B196DA018D919C912817390750F353
:102B5000DF91CF910895FC0180EB94E09183808315
:102B60008781882321F0CF0104960C947F75089506
:102B7000CF92DF92EF92FF920F931F93DF93CF9349
:102B8000CDB7DEB76F970FB6F894DEBF0FBECDBFDF
:102B90008C016B01085A1F4FD8018C9108551040C9
:102BA000882321F420E3E22EF12C03C091E5E92EE5
:102BB000F12CE00EF11E80EB94E09A8389831C8255
:102BC0001B8218861D82B7016C5F7F4FCE01059670
:102BD000A60121E00E94207E882391F5EBE3F1E03D
:102BE000949108C08091C00085FFFCCF9093C600EF
:102BF000319694919923B1F7E1E4F1E0949108C002
:102C00008091C00085FFFCCF9093C60031969491CF
:102C10009923B1F709C08091C00085FFFCCF0894CB
:102C2000C11CD11C9093C600F6019081992399F79D
:102C30008091C00085FFFCCF8AE08093C6005AC017
:102C4000F801EA55FE4F208131812A30310508F024
:102C500040C02F5F3F4F3183208321503040F90126
:102C600085E0EE0FFF1F8A95E1F7E21BF30BEC58AE
:102C7000FF4FE00FF11F13C0AF01415E5F4FBF0177
:102C80008BE1DB010D90BD01DA010D92AD018150A8
:102C9000C1F7929182913296968F858F7F972150BE
:102CA0003040BFEF2E3F3B0739F7D801AC58BF4F3C
:102CB000F70134968BE101900D928150E1F70E58A7
:102CC0001F4FF70182819381D8018D939C93025706
:102CD0001040D801AB5ABF4FFE0135968BE10190F1
:102CE0000D928150E1F70D5A1F4F8B819C81F801A5
:102CF00091838083CE0101962EDF6F960FB6F894F4
:102D0000DEBF0FBECDBFCF91DF911F910F91FF901E
:102D1000EF90DF90CF900895EF92FF920F931F9363
:102D20008C013FECE32E31E0F32EE80EF91EC701D3
:102D30000E943075C7010E947F75F80110821182D0
:102D40001F910F91FF90EF900895CF92DF92EF9235
:102D5000FF920F931F93CF93DF937C016B01DB01F5
:102D60000D900020E9F78D0101501040061B170B54
:102D7000EFECF1E0EE0EFF1ED7011C92E1E3FEEF57
:102D8000EE0EFF1ECB016EE470E0C0DBEC0100979D
:102D900031F4F8013197EC0DFD1D86010CC060E2A5
:102DA00070E0B4DB8C010F5F1F4FCE016AE270E070
:102DB000ADDBFC0131978DE081838AE08283138251
:102DC000C70185539E4FB8010E941E7F8FEC91E092
:102DD000E80EF91ED7018C91882319F1EBE6F1E09A
:102DE000949108C08091C00085FFFCCF9093C600ED
:102DF000319694919923B1F7E2E7F1E0949108C0FC
:102E00008091C00085FFFCCF9093C60031969491CD
:102E10009923B1F78091C00085FFFCCF8AE08093B1
:102E2000C600DF91CF911F910F91FF90EF90DF903F
:102E3000CF900895CF93DF93EC018C81882309F420
:102E40003BC0EAE9F1E0949108C08091C00085FFA1
:102E5000FCCF9093C600319694919923B1F7CC574B
:102E6000DD4F488159816A817B81C458D2408EE907
:102E700095E02AE030E00E94182DE8E9F1E0949115
:102E800008C08091C00085FFFCCF9093C6003196AA
:102E900094919923B1F7C458DD4F488159816A81D3
:102EA0007B818EE995E02AE030E00E94182D809128
:102EB000C00085FFFCCF12C0E8E8F1E0949108C0A3
:102EC0008091C00085FFFCCF9093C600319694910D
:102ED0009923B1F78091C00085FFFCCF8AE08093F1
:102EE000C600DF91CF9108952F923F924F925F924B
:102EF0006F927F928F929F92AF92BF92CF92DF920A
:102F0000EF92FF920F931F93DF93CF93CDB7DEB76E
:102F1000AC970FB6F894DEBF0FBECDBF5C014B017E
:102F2000FC018481882309F435C1C50181539E4F7A
:102F30000E947F75F501128213821A8A1D8A198AEE
:102F4000188A80EB94E09F878E875FE4C52ED12C92
:102F5000CA0CDB1C20E330E0A20EB31EF601B182E6
:102F6000A08220ED3FEFA20EB31EF40180818F32CC
:102F700009F08DC0C4016FE270E0C8DA7C010894EA
:102F8000E11CF11C3E010894611C711C260142E108
:102F9000242E312C2C0E3D1E75C0C7016FE270E04F
:102FA000B5DA6C01009709F480C0E816F90608F05C
:102FB0007CC08C010E191F09C301B701A801CFDA2B
:102FC000060D171DF8011082F30107C08091C000A3
:102FD00085FFFCCF31969093C60090819923B1F77D
:102FE0008091C00085FFFCCFFAE0F093C600F201AB
:102FF000608171816115710519F460E070E002C0B3
:103000006C5F7F4FC101A30121E00E94207E8823D5
:1030100071F5E6EDF1E0949108C08091C00085FF64
:10302000FCCF9093C600319694919923B1F7FE019D
:10303000319607C08091C00085FFFCCF31969093F8
:10304000C60090819923B1F7E4EDF1E0949108C0B6
:103050008091C00085FFFCCF9093C600319694917B
:103060009923B1F78091C00085FFFCCF8DC02EE081
:1030700030E02C0F3D1FF20131832083760108944C
:10308000E11CF11CE114F10409F087CF0BC081E5CC
:1030900090E0A80EB91EF601B182A0822FEA3FEFA0
:1030A000A20EB31ED82C092D02C0DE2C0F2D8FE4EA
:1030B00090E0A80EB91EF5018081918121EB3FEFD0
:1030C000A20EB31E009719F480E090E001C00496B0
:1030D0006D2D702F0E94EF7E882339F1E6ECF1E030
:1030E000949108C08091C00085FFFCCF9093C600EA
:1030F000319694919923B1F78D2D902F9C01F90170
:1031000007C08091C00085FFFCCF31969093C60028
:1031100090819923B1F784E892E0A80EB91EF501D9
:10312000108211821282138232C0EEEAF1E0949191
:1031300008C08091C00085FFFCCF9093C6003196F7
:1031400094919923B1F78D2D902F9C01F90107C01F
:103150008091C00085FFFCCF31969093C60090818E
:103160009923B1F7ECEAF1E0949108C08091C00096
:1031700085FFFCCF9093C600319694919923B1F7C7
:103180008091C00085FFFCCF8AE08093C600CE010D
:103190000E96E1DCAC960FB6F894DEBF0FBECDBF45
:1031A000CF91DF911F910F91FF90EF90DF90CF9023
:1031B000BF90AF909F908F907F906F905F904F9057
:1031C0003F902F900895BF92CF92DF92EF92FF929F
:1031D0000F931F93CF93DF938C01EB018FE28993C1
:1031E000EE24E394FF2476EAC72E71E0D72EC00EBA
:1031F000D11E6FE1B62E14C0FB9CC00111248C5867
:103200009F4F800F911FBE010E948F7502C02196B3
:10321000E3948881882319F08CE88E15C0F7F39425
:103220002F2D30E0F601808191812817390720F396
:10323000E7FC07C0C80181539E4FBE010E948F75F5
:1032400001C01882DF91CF911F910F91FF90EF90F5
:10325000DF90CF90BF9008952F923F924F925F9250
:103260006F927F928F929F92AF92BF92CF92DF9296
:10327000EF92FF920F931F93DF93CF93CDB7DEB7FB
:10328000AD970FB6F894DEBF0FBECDBF6C014B01FA
:103290004DA7DC0114968C91882309F44BC3E2ED11
:1032A000F1E0CE0EDF1ED6018C91EEE2FEEFCE0EE7
:1032B000DF1E882309F418C1222309F0E0C02AEE9A
:1032C00031E0C20ED31ED6018C91E6E1FEEFCE0EA8
:1032D000DF1E882371F1EBE6F1E0949108C0809144
:1032E000C00085FFFCCF9093C6003196949199233E
:1032F000B1F7EEEAF2E0949108C08091C00085FF3A
:10330000FCCF9093C600319694919923B1F78EE942
:1033100095E061E070E04AE050E00E94672D809106
:10332000C00085FFFCCF8AE08093C6000E94772F03
:1033300001C3EBE3F1E0949108C08091C00085FFE8
:10334000FCCF9093C600319694919923B1F7E5E9AB
:10335000F2E0949108C08091C00085FFFCCF90936B
:10336000C600319694919923B1F7F40107C080917A
:10337000C00085FFFCCF31969093C60090819923C1
:10338000B1F7EAE8F2E0949108C08091C00085FFAF
:10339000FCCF9093C600319694919923B1F7C60162
:1033A0002FEE31E0C20ED31EB6010DDF4BEF5FEF03
:1033B000C40ED51ED6019C91E6E1FEEFCE0EDF1EB7
:1033C0008DE8989FF0011124E151FE4FEC0DFD1D99
:1033D00007C08091C00085FFFCCF31969093C60056
:1033E00090819923B1F7E4E8F2E0949108C08091CC
:1033F000C00085FFFCCF9093C6003196949199232D
:10340000B1F724E832E0C20ED31ED6014D915D9192
:103410006D917C91ECE7FDEFCE0EDF1E8EE995E01D
:103420002AE030E00E94182D8091C00085FFFCCF7B
:103430008AE08093C600A60146515E4FDA012C91C6
:10344000E22FF0E0EE0FFF1FEE0FFF1FEC0DFD1D52
:10345000E551FE4F84E892E0C80ED91ED6014D908A
:103460005D906D907C908CE79DEFC80ED91E4082D8
:103470005182628273822F5FDA012C932FC0EBE3BB
:10348000F1E0949108C08091C00085FFFCCF90933B
:10349000C600319694919923B1F7E3E7F2E0949155
:1034A00008C08091C00085FFFCCF9093C600319684
:1034B00094919923B1F7F40107C08091C00085FF72
:1034C000FCCF31969093C60090819923B1F78091FB
:1034D000C00085FFFCCF8AE08093C600C6018153FF
:1034E0009E4F0E947F7539C0EAEEF1E0CE0EDF1EDE
:1034F000D6011C92E6E1FEEFCE0EDF1EEBE3F1E01B
:10350000949108C08091C00085FFFCCF9093C600C5
:10351000319694919923B1F7E2E6F2E0949108C0D4
:103520008091C00085FFFCCF9093C60031969491A6
:103530009923B1F7F40107C08091C00085FFFCCF4B
:1035400031969093C60090819923B1F78091C00085
:1035500085FFFCCF8AE08093C600D60112961C92AC
:10356000129713961C921A8A1D8A198A188A80EB60
:1035700094E09F878E87FFE4AF2EB12CAC0CBD1C6E
:10358000E0E3F0E0CE0EDF1ED501CD92DC92E0ED5F
:10359000FFEFCE0EDF1ED4018C918F3209F090C068
:1035A000C4016FE270E00E9486127C010894E11C65
:1035B000F11C3E010894611C711C2501E2E12E2ED4
:1035C000312C2C0E3D1E77C0C7016FE270E00E94C7
:1035D00086125C01009709F481C0E816F90608F02C
:1035E0007DC08C010E191F09C301B701A8010E94FB
:1035F000AF12060D171DF8011082F30107C080916C
:10360000C00085FFFCCF31969093C600908199232E
:10361000B1F78091C00085FFFCCFFAE0F093C600BF
:10362000D2016D917C916115710519F460E070E033
:1036300002C06C5F7F4FC101A30121E00E94207E88
:10364000882371F5EEE4F2E0949108C08091C00007
:1036500085FFFCCF9093C600319694919923B1F7E2
:10366000FE01319607C08091C00085FFFCCF3196E6
:103670009093C60090819923B1F7ECE4F2E0949125
:1036800008C08091C00085FFFCCF9093C6003196A2
:1036900094919923B1F78091C00085FFFCCF1BC1A5
:1036A0002EE030E02C0F3D1FF201318320837501A5
:1036B0000894E11CF11CE114F10409F085CF0BC062
:1036C00041E550E0C40ED51ED501CD92DC92EFEA63
:1036D000FFEFCE0EDF1E082DF92C01C00E2DF601D6
:1036E000E15BFF4F2DA5222309F4B1C060817181F8
:1036F0006115710519F460E070E002C06C5F7F4FE6
:10370000C60181539E4F402F5F2D21E00E94207EF5
:10371000882309F46CC040EE51E0C40ED51ED601DA
:103720004D915D916D917C91ECE9F0E0CE0EDF1E44
:10373000D6014D935D936D937C931397E4E8FDEF71
:10374000CE0EDF1EEEE3F2E0949108C08091C0003F
:1037500085FFFCCF9093C600319694919923B1F7E1
:10376000802F9F2D9C01F90107C08091C00085FF2B
:10377000FCCF31969093C60090819923B1F7E6E390
:10378000F2E0949108C08091C00085FFFCCF909337
:10379000C600319694919923B1F78EE995E02AE01D
:1037A00030E00E94182D8091C00085FFFCCF8AE098
:1037B0008093C60024E832E0C20ED31ED6011D92CB
:1037C0001D921D921C921397E8E2F2E0949108C0BA
:1037D0008091C00085FFFCCF9093C60031969491F4
:1037E0009923B1F78091C00085FFFCCF99C0E4E137
:1037F000F2E0949108C08091C00085FFFCCF9093C7
:10380000C600319694919923B1F7802F9F2D9C018A
:10381000F90107C08091C00085FFFCCF31969093DD
:10382000C60090819923B1F7E2E1F2E0949108C0DB
:103830008091C00085FFFCCF9093C6003196949193
:103840009923B1F78091C00085FFFCCF44C060810F
:1038500071816115710519F460E070E002C06C5F60
:103860007F4FC60181539E4F402F5F2D26E50E945A
:10387000207E882309F033C0EEEFF1E0949108C078
:103880008091C00085FFFCCF9093C6003196949143
:103890009923B1F7802F9F2D9C01F90107C08091DA
:1038A000C00085FFFCCF31969093C600908199238C
:1038B000B1F7ECEFF1E0949108C08091C00085FF72
:1038C000FCCF9093C600319694919923B1F78091E3
:1038D000C00085FFFCCF8AE08093C60028C081E04D
:1038E000F6018083EAEEF1E0949108C08091C00077
:1038F00085FFFCCF9093C600319694919923B1F740
:10390000F40107C08091C00085FFFCCF31969093F1
:10391000C60090819923B1F78091C00085FFFCCF4C
:103920008AE08093C600802F9F2D0E94C6A4CE01FE
:103930000E9611D9AD960FB6F894DEBF0FBECDBF6F
:10394000CF91DF911F910F91FF90EF90DF90CF907B
:10395000BF90AF909F908F907F906F905F904F90AF
:103960003F902F900895EF92FF920F931F93CF9364
:10397000DF93EC010E9415888E0106511E4FD8017D
:103980008C919FECE92E91E0F92EEC0EFD1E882320
:10399000A1F1C7010E947F75F801608161506083C9
:1039A0008DE8689FB001112461517E4F6C0F7D1F1F
:1039B000CE0141E021E050DCD801EC91F0E0EE0FC7
:1039C000FF1FEE0FFF1FEC0FFD1FE551FE4F408163
:1039D000518162817381CC57DD4F488359836A835B
:1039E0007B83C458D240C7010E9466748C818823AF
:1039F00099F181E08A831B822FC00E94F287C70160
:103A00000E947F751A821B828FE291E00E94AD595D
:103A10008091CF0A882301F11092CF0A8091730818
:103A2000C82FD0E0CC0FDD1FCA57DD4E68817981E9
:103A3000882777FD8095982F0E948DF22091F403BE
:103A40003091F5034091F6035091F7030E94F9F38A
:103A5000181614F419821882DF91CF911F910F91DB
:103A6000FF90EF900895FC0181E08183CF0140E059
:103A700021E0F2CBEF92FF920F931F93CF93DF934E
:103A80008C01FC01148287A9882321F0C801C49607
:103A90000E947F7528EAE22E21E0F22EE00EF11E50
:103AA000C70160E045E30E942C73882309F5EBE32E
:103AB000F1E0949108C08091C00085FFFCCF909305
:103AC000C600319694919923B1F7EFE1F3E0949118
:103AD00008C08091C00085FFFCCF9093C60031964E
:103AE00094919923B1F78091C00085FFFCCF7DC0F0
:103AF000E801C355DE4FCE01B70141E00E94AF7F20
:103B0000882341F5CE01B70140E00E94AF7F8823B2
:103B100009F5EBE6F1E0949108C08091C00085FFC3
:103B2000FCCF9093C600319694919923B1F7ECE0C5
:103B3000F3E0949108C08091C00085FFFCCF909382
:103B4000C600319694919923B1F78091C00085FF0A
:103B5000FCCF4BC0C801C496BE010E94247A8823C2
:103B600009F5EBE6F1E0949108C08091C00085FF73
:103B7000FCCF9093C600319694919923B1F7ECEF66
:103B8000F2E0949108C08091C00085FFFCCF909333
:103B9000C600319694919923B1F78091C00085FFBA
:103BA000FCCF23C081E0F8018483EBE3F1E0949142
:103BB00008C08091C00085FFFCCF9093C60031966D
:103BC00094919923B1F7E1EFF2E0949108C08091CC
:103BD000C00085FFFCCF9093C60031969491992345
:103BE000B1F78091C00085FFFCCF8AE08093C600CA
:103BF000D801AB5ABF4FF801F4968BE101900D92BA
:103C00008150E1F7F80182A993A90D5A1F4FF801DD
:103C10009183808303551040C801C096015B1F4FFC
:103C2000F80191838083DF91CF911F910F91FF90D5
:103C3000EF9008952F923F924F925F926F927F92F2
:103C40009F92AF92BF92CF92DF92EF92FF920F932B
:103C50001F93DF93CF93CDB7DEB7CC55D0400FB6CF
:103C6000F894DEBF0FBECDBF6C01662311F528E8C6
:103C700032E0C20ED31ED6018C91E8E7FDEFCE0EE6
:103C8000DF1E882309F4E3C020E832E0C20ED31E11
:103C9000D601ED90FD900D911C91E0E8FDEFCE0E68
:103CA000DF1E0E9412EAE616F7060807190708F455
:103CB000CEC028E832E0C20ED31ED6011C92E8E73F
:103CC000FDEFCE0EDF1ED60114968C91882339F4B9
:103CD000C601D0DEF6018481882309F4B8C000D083
:103CE00000D0EDB7FEB731967E010894E11CF11CBF
:103CF000ADB7BEB71296FC92EE92119782E691E0B4
:103D000093838283D6019E968D919C919F979583F4
:103D100084830E94BE128701EDB7FEB736960FB6B8
:103D2000F894FEBF0FBEEDBF57010AC0D8018C91B9
:103D3000992787FD90950E943AF6F80181938F01AB
:103D4000F50101900020E9F73197EA19FB09802F6E
:103D50008E198E175CF364E3A62EB12CAC0CBD1C3F
:103D6000C50140E050E060E070E00E946674992474
:103D70005DE3E52EF12CEC0EFD1E2E010894411C96
:103D8000511C4FE1642E712C6C0E7D1E3BE5232EE1
:103D900031E0332E42C0D8018C9190E00E943AF677
:103DA000F80181938F01D7010D900020E9F7119759
:103DB000AE19BF09802F8E198A176CF327968FAD25
:103DC00027978E3751F1C701B20145E050E00E94BC
:103DD000A112009711F500D000D0EDB7FEB73196D3
:103DE000ADB7BEB712967C926E9211973382228243
:103DF000558244820E94BE12EDB7FEB736960FB6CA
:103E0000F894FEBF0FBEEDBFC3010E94265A87E59E
:103E100091E00E94AD5999249394C501B70140E007
:103E200050E00E949177181614F48701BCCF9920B6
:103E300041F48FEF9FEFD6019F969C938E939E97B0
:103E400006C0F60186A597A5019697A786A7C45A2E
:103E5000DF4F0FB6F894DEBF0FBECDBFCF91DF911D
:103E60001F910F91FF90EF90DF90CF90BF90AF9098
:103E70009F907F906F905F904F903F902F9008950C
:103E80002F923F924F925F926F927F928F929F926A
:103E9000AF92BF92CF92DF92EF92FF920F931F9358
:103EA000DF93CF93CDB7DEB7CF58D0400FB6F8949D
:103EB000DEBF0FBECDBF8C013B016A0184E090E004
:103EC000C80ED91EF8017296C757DF4FF983E883F1
:103ED000C958D040C8010596CA57DF4F99838883D7
:103EE000C658D040C857DF4F1882C858D040B6E6F1
:103EF000EB2EF12CEC0EFD1EF7013B96C557DF4F64
:103F0000F983E883CB58D040A9E88A2EA2E09A2E04
:103F1000800E911EFBE8AF2EF2E0BF2EA00EB11E68
:103F2000EEE02E2E312C2C0E3D1E77E4472E512C28
:103F30004C0E5D1EC2010496C357DF4F99838883E0
:103F4000CD58D040EBE3F1E09491C157DF4F988317
:103F5000CF58D0404EC1F7018385482F50E0BA01B9
:103F6000687170706031710509F051C1F4012081F0
:103F700031812130310509F44AC12230310509F47B
:103F800046C1F701DE0111969081903239F08E2FF3
:103F90008E19883011F48EE28D939D933196C5571A
:103FA000DF4F88819981CB58D040E817F90761F736
:103FB0001C921E86F3018081882329F4C10160E0F0
:103FC00072E00E947B12C101B3010E947B12C10109
:103FD000BE016F5F7F4F0E947B12C10160E072E003
:103FE0000E947B121CA61FA61BA61AA680EB94E0BB
:103FF00099A788A7CE018C96B601AE014F5F5F4F9F
:1040000021E00E94207E882309F03FC0F4018081D6
:104010009181892BD1F5C157DF4F9881CF58D0407E
:10402000EBE3F1E008C08091C00085FFFCCF9093E6
:10403000C600319694919923B1F7E2E0F2E007C00F
:104040008091C00085FFFCCF31969093C60090818F
:104050009923B1F78091C00085FFFCCFFAE0F0937F
:10406000C600FE01319607C08091C00085FFFCCFDD
:1040700031969093C60090819923B1F78091C0004A
:1040800085FFFCCF8AE08093C600C357DF4FA8812D
:10409000B981CD58D040FE01BC968BE101900D92C4
:1040A0008150E1F78AA59BA5F2019383828380EB7F
:1040B00094E091838083C801B101A201E1DEC201D5
:1040C0000E94AB15CE0188960E94AB1592C0953E1A
:1040D00009F48FC09E3209F48CC09F3509F489C061
:1040E000F8019289992331F09E3209F482C09F35FC
:1040F00009F47FC043FD7DC080E06031710509F4A3
:1041000081E0F80185A7882349F4F7018085873489
:1041100009F06FC081858E3709F46BC0CA57DF4F35
:10412000A881B981C658D040F7018081803241F022
:104130008E2F8E19883011F48EE28D9380818D93AD
:104140003196C557DF4F88819981CB58D040E81709
:10415000F90759F71C92F40180819181009729F5A4
:10416000F30107C08091C00085FFFCCF319690938A
:10417000C60090819923B1F7CA57DF4FE881F981D2
:10418000C658D04007C08091C00085FFFCCF319653
:104190009093C60090819923B1F78091C00085FF6C
:1041A000FCCFFAE0F093C60024C08130910539F4C9
:1041B000F501808191810196918380831AC00297D5
:1041C000C1F4C857DF4FF881C858D0402F2F30E0D6
:1041D000F5018081918128173907F1F0C857DF4F29
:1041E000F881C858D040FF5FC857DF4FF883C858E0
:1041F000D040C601B701C757DF4F48815981C95820
:10420000D0400E94917718160CF4A5CE05C0F70196
:104210009081992309F05BCFC157DF4F0FB6F89417
:10422000DEBF0FBECDBFCF91DF911F910F91FF90E9
:10423000EF90DF90CF90BF90AF909F908F907F9046
:104240006F905F904F903F902F900895EF92FF9264
:104250000F931F93DF93CF93CDB7DEB76F970FB652
:10426000F894DEBF0FBECDBF7C018C01015B1F4FF8
:104270008F5A9F4FF8019183808329E832E0E20E44
:10428000F31E21E030E0F701219331937F01118289
:10429000108225E73DEFE20EF31E049640E050E069
:1042A00060E070E00E946674F80120813181DE01D7
:1042B0001596F90134968BE101900D928150E1F74A
:1042C000F901828193819C838B8380EB94E09A83B4
:1042D0008983C70165E172E08E010F5F1F4FA8015E
:1042E000CFDDC8010E94AB15F701E557FD4F808176
:1042F00091816F960FB6F894DEBF0FBECDBFCF9100
:10430000DF911F910F91FF90EF900895EF92FF9230
:104310000F931F93DF93CF93CDB7DEB76F970FB691
:10432000F894DEBF0FBECDBF7C018C01015B1F4F37
:104330008F5A9F4FF8019183808329E832E0E20E83
:10434000F31E22E030E0F7013183208327E73DEFC1
:10435000E20EF31EF701E557FD4F608311820496CC
:1043600040E050E060E070E00E946674F801208157
:104370003181DE011596F90134968BE101900D92A1
:104380008150E1F7F901828193819C838B8380EBDB
:1043900094E09A838983C70165E172E08E010F5F23
:1043A0001F4FA8016DDDC8010E94AB156F960FB6B7
:1043B000F894DEBF0FBECDBFCF91DF911F910F915B
:1043C000FF90EF900895EF92FF920F931F93DF936A
:1043D000CF93CDB7DEB76F970FB6F894DEBF0FBEA1
:1043E000CDBF7C0189E892E0E80EF91EF701118249
:1043F000108287E79DEFE80EF91E87010C5C1F4FC6
:10440000C80140E050E060E070E00E946674DE01A8
:104410001596F8018BE101900D928150E1F7F701BB
:1044200082A993A99C838B8380EB94E09A838983F0
:10443000C70165E172E08E010F5F1F4FA80120DD0B
:10444000C8010E94AB156F960FB6F894DEBF0FBE81
:10445000CDBFCF91DF911F910F91FF90EF90089505
:104460000F931F93CF93DF93DC01D4961C92D497C4
:10447000D7961C92D797D3961C921E92D29780EB18
:1044800094E0D1969C938E93D097AB5ABF4F1C92D9
:1044900013961C92A855B040FD01EF5AFF4FAD5A3C
:1044A000BF4F11961C921E92A355B04091838083FA
:1044B000ED01C059DF4FFE0120E030E0482F1482AB
:1044C00017821382128240839183215E3F4F7F9631
:1044D00081E02633380799F7A755BE4F89E18C93C1
:1044E00013961C9258961C921B961C9213961C9223
:1044F000A25DB140FD01E553FE4FA353BE4F11969F
:104500001C921E9240839183A155BF4F1D921D9214
:104510001D921C92139718961D921D921D921C922B
:104520001397A458B24012961C92129713961C929D
:10453000139714961C9214971C9211961C92119723
:104540008D0100581D4FF8011082118212821382D2
:10455000AA55BE4F11961C921E92AC5BBF4F1C9287
:10456000FE01C90111920197E9F7A256BF4F81E000
:104570008C93A858B2409F961C921E929E970E94C0
:1045800012EA68577C4E8F4F9F4FF801608371830A
:1045900082839383DF91CF911F910F910895DF93D1
:1045A000CF93CDB7DEB72A970FB6F894DEBF0FBE14
:1045B000CDBF8091160290911702A0911802B09180
:1045C00019028B839C83AD83BE83FE01339624E660
:1045D00030E08081F999FECF1FBA32BD21BD80BD88
:1045E0000FB6F894FA9AF99A0FBE2F5F3F4F28360C
:1045F000310511F03196EDCFE3E7FAE08081F999CA
:10460000FECF1FBA32BD21BD80BD0FB6F894FA9A15
:10461000F99A0FBE2F5F3F4F2837310511F03196C1
:10462000EDCFE3E6FAE08081F999FECF1FBA32BD03
:1046300021BD80BD0FB6F894FA9AF99A0FBE2F5F8C
:104640003F4F2838310511F03196EDCFE3E8FAE01D
:104650008081F999FECF1FBA32BD21BD80BD0FB652
:10466000F894FA9AF99A0FBE2F5F3F4F2839310517
:1046700011F03196EDCFE7E9FAE08081F999FECFAC
:104680001FBA32BD21BD80BD0FB6F894FA9AF99ACF
:104690000FBE2F5F3F4F2C39310511F03196EDCF12
:1046A000EBE9FAE08081F999FECF1FBA32BD21BD56
:1046B00080BD0FB6F894FA9AF99A0FBE2F5F3F4F5C
:1046C000203A310511F03196EDCFE3E9FAE080812F
:1046D000F999FECF1FBA32BD21BD80BD0FB6F89447
:1046E000FA9AF99A0FBE2F5F3F4F243A310511F025
:1046F0003196EDCFEBEAFAE08081F999FECF1FBA4F
:1047000032BD21BD80BD0FB6F894FA9AF99A0FBE5A
:104710002F5F3F4F283A310511F03196EDCFEFE58D
:10472000FAE08081F999FECF1FBA32BD21BD80BD6C
:104730000FB6F894FA9AF99A0FBE2F5F3F4F2C3AB2
:10474000310511F03196EDCFEFE9FAE08081F9996A
:10475000FECF1FBA32BD21BD80BD0FB6F894FA9AC4
:10476000F99A0FBE2F5F3F4F203B310511F0319674
:10477000EDCFE3EAFAE08081F999FECF1FBA32BDAE
:1047800021BD80BD0FB6F894FA9AF99A0FBE2F5F3B
:104790003F4F243B310511F03196EDCFE7EAFAE0C7
:1047A0008081F999FECF1FBA32BD21BD80BD0FB601
:1047B000F894FA9AF99A0FBE2F5F3F4F283B3105C4
:1047C00011F03196EDCFE4E4F8E08081F999FECF65
:1047D0001FBA32BD21BD80BD0FB6F894FA9AF99A7E
:1047E0000FBE2F5F3F4F243C310511F03196EDCFC6
:1047F000E7E0F3E18081F999FECF1FBA32BD21BD18
:1048000080BD0FB6F894FA9AF99A0FBE2F5F3F4F0A
:10481000263C310511F03196EDCFE9E0F3E18081DE
:10482000F999FECF1FBA32BD21BD80BD0FB6F894F5
:10483000FA9AF99A0FBE2F5F3F4F283C310511F0CD
:104840003196EDCFEBE0F3E18081F999FECF1FBA0D
:1048500032BD21BD80BD0FB6F894FA9AF99A0FBE09
:104860002F5F3F4F2A3C310511F03196EDCFEDE03F
:10487000F3E18081F999FECF1FBA32BD21BD80BD21
:104880000FB6F894FA9AF99A0FBE2F5F3F4F2C3C5F
:10489000310511F03196EDCFEFE0F3E18081F99928
:1048A000FECF1FBA32BD21BD80BD0FB6F894FA9A73
:1048B000F99A0FBE2F5F3F4F2E3C310511F0319614
:1048C000EDCFE1E1F3E18081F999FECF1FBA32BD6E
:1048D00021BD80BD0FB6F894FA9AF99A0FBE2F5FEA
:1048E0003F4F203D310511F03196EDCFEFE5F8E077
:1048F0008081F999FECF1FBA32BD21BD80BD0FB6B0
:10490000F894FA9AF99A0FBE2F5F3F4F243D310574
:1049100011F03196EDCFE5E0F4E08081F999FECF1A
:104920001FBA32BD21BD80BD0FB6F894FA9AF99A2C
:104930000FBE2F5F3F4F283D310511F03196EDCF6F
:10494000E9E0F4E08081F999FECF1FBA32BD21BDC4
:1049500080BD0FB6F894FA9AF99A0FBE2F5F3F4FB9
:104960002C3D310511F03196EDCFEDE0F4E0808182
:10497000F999FECF1FBA32BD21BD80BD0FB6F894A4
:10498000FA9AF99A0FBE2F5F3F4F203E310511F082
:104990003196EDCF80E290E09A838983FE013196D3
:1049A0008081F999FECF1FBA32BD21BD80BD0FB6FF
:1049B000F894FA9AF99A0FBE213E310521F031960A
:1049C00021EE30E0EDCF80911A0290911B02A09170
:1049D0001C02B0911D028F839887A987BA87FE01B8
:1049E000379684E690E02081F999FECF1FBA92BDF8
:1049F00081BD20BD0FB6F894FA9AF99A0FBE87369A
:104A0000910519F001963196EECFECE2F3E0949126
:104A100008C08091C00085FFFCCF9093C6003196FE
:104A200094919923B1F7E6E3F5E0949108C0809161
:104A3000C00085FFFCCF9093C600319694919923D6
:104A4000B1F78091C00085FFFCCF8AE08093C6005B
:104A50002A960FB6F894DEBF0FBECDBFCF91DF917F
:104A60000895DF93CF93CDB7DEB7E0970FB6F894F4
:104A7000DEBF0FBECDBFDE011196E8E5F4E080E1B8
:104A800001900D928150E1F7DE015196E8E4F4E0E7
:104A900080E101900D928150E1F7DE019196E8E30B
:104AA000F4E080E101900D928150E1F789819A81D3
:104AB000AB81BC818093730A9093740AA093750AAA
:104AC000B093760A89899A89AB89BC898093630AF5
:104AD0009093640AA093650AB093660A89A19AA18B
:104AE000ABA1BCA18093830A9093840AA093850A0A
:104AF000B093860A8D819E81AF81B8858093770AB5
:104B00009093780AA093790AB0937A0A8D899E8946
:104B1000AF89B88D8093670A9093680AA093690A59
:104B2000B0936A0A8DA19EA1AFA1B8A58093870A10
:104B30009093880AA093890AB0938A0A89859A85F6
:104B4000AB85BC8580937B0A90937C0AA0937D0AF9
:104B5000B0937E0A898D9A8DAB8DBC8D80936B0A44
:104B600090936C0AA0936D0AB0936E0A89A59AA5DA
:104B7000ABA5BCA580938B0A90938C0AA0938D0A59
:104B8000B0938E0A8D859E85AF85B88980937F0A04
:104B90009093800AA093810AB093820A8D8D9E8D96
:104BA000AF8DB8A180936F0A9093700AA093710A99
:104BB000B093720A8DA59EA5AFA5B8A980938F0A60
:104BC0009093900AA093910AB093920A0E944A5F30
:104BD00080E090E8ABE3B5E48093970A9093980A5D
:104BE000A093990AB0939A0A80939B0A90939C0A87
:104BF000A0939D0AB0939E0A20E030E040E050E090
:104C00002093930A3093940A4093950A5093960AFE
:104C100080E29EE4A0E0B0E080935F0A9093600A97
:104C2000A093610AB093620A2093AB0A3093AC0A56
:104C30004093AD0A5093AE0A80E090E0A0EAB1E460
:104C400080939F0A9093A00AA093A10AB093A20A0E
:104C50008DEC9CECACECBEE38093A30A9093A40A89
:104C6000A093A50AB093A60A80E090E0A0EAB0E481
:104C70008093A70A9093A80AA093A90AB093AA0ABE
:104C800020934C0830934D0840934E0850934F08A2
:104C9000209348083093490840934A0850934B08A2
:104CA00020934408309345084093460850934708A2
:104CB00084EB90E0909308138093071387E390E0D0
:104CC00090930A138093091310920C1310920B13F4
:104CD00080EF90E090930E1380930D1384E690E0A4
:104CE0009093101380930F131092121310921113BC
:104CF0008AE999E9A1EBB1E4809305049093060455
:104D0000A0930704B093080461E77DE38AE89FE37A
:104D10000E940D916093090470930A0480930B0420
:104D200090930C0460E070E084EE92E40E9419918C
:104D300060930D0470930E0480930F0490931004FD
:104D40000E94189080E090E0A0E8BFE380931104F7
:104D500090931204A0931304B0931404ECE2F3E0D4
:104D6000949108C08091C00085FFFCCF9093C6004D
:104D7000319694919923B1F7E2E3F3E0949108C05E
:104D80008091C00085FFFCCF9093C600319694912E
:104D90009923B1F78091C00085FFFCCF8AE0809312
:104DA000C600E0960FB6F894DEBF0FBECDBFCF9120
:104DB000DF910895CF93DF93CCE2D3E0FE0194918D
:104DC00008C08091C00085FFFCCF9093C60031964B
:104DD00094919923B1F7E6E2F5E0949108C08091AF
:104DE000C00085FFFCCF9093C60031969491992323
:104DF000B1F78091C00085FFFCCF8AE08093C600A8
:104E0000FE019491ECE2F3E008C08091C00085FFC0
:104E1000FCCF9093C600319694919923B1F74091BD
:104E2000730A5091740A6091750A7091760A8EE146
:104E300095E00E946A334091770A5091780A609118
:104E4000790A70917A0A8BE195E00E946A33409169
:104E50007B0A50917C0A60917D0A70917E0A88E1FC
:104E600095E00E946A3340917F0A5091800A6091D8
:104E7000810A7091820A85E195E00E946A33EEE131
:104E8000F2E007C08091C00085FFFCCF319690937F
:104E9000C60090819923B1F78091C00085FFFCCFB7
:104EA0008AE08093C600FE019491ECE2F3E008C032
:104EB0008091C00085FFFCCF9093C60031969491FD
:104EC0009923B1F7EBEFF4E0949108C08091C00012
:104ED00085FFFCCF9093C600319694919923B1F74A
:104EE0008091C00085FFFCCF8AE08093C600FE0160
:104EF0009491ECE2F3E008C08091C00085FFFCCF04
:104F00009093C600319694919923B1F74091630A2A
:104F10005091640A6091650A7091660A82EF94E08C
:104F20000E946A334091670A5091680A6091690A49
:104F300070916A0A8FEE94E00E946A3340916B0A86
:104F400050916C0A60916D0A70916E0A8CEE94E03B
:104F50000E946A3340916F0A5091700A6091710A01
:104F60007091720A89EE94E00E946A33EEE1F2E0F9
:104F700007C08091C00085FFFCCF31969093C6009A
:104F800090819923B1F78091C00085FFFCCF8AE022
:104F90008093C600FE019491ECE2F3E008C080919A
:104FA000C00085FFFCCF9093C60031969491992361
:104FB000B1F7EBECF4E0949108C08091C00085FF5C
:104FC000FCCF9093C600319694919923B1F78091CC
:104FD000C00085FFFCCF8AE08093C600FE0194915B
:104FE000ECE2F3E008C08091C00085FFFCCF909315
:104FF000C600319694919923B1F74091830A50915C
:10500000840A6091850A7091860A82EC94E00E947D
:105010007C334091870A5091880A6091890A709187
:105020008A0A8FEB94E00E947C3340918B0A509166
:105030008C0A60918D0A70918E0A8CEB94E00E942C
:105040007C3340918F0A5091900A6091910A70913F
:10505000920A89EB94E00E947C33EEE1F2E007C013
:105060008091C00085FFFCCF31969093C60090815F
:105070009923B1F78091C00085FFFCCF8AE080932F
:10508000C600FE019491ECE2F3E008C08091C000FC
:1050900085FFFCCF9093C600319694919923B1F788
:1050A000E4E8F4E0949108C08091C00085FFFCCF53
:1050B0009093C600319694919923B1F78091C000E6
:1050C00085FFFCCF8AE08093C600FE019491ECE25C
:1050D000F3E008C08091C00085FFFCCF9093C6002C
:1050E000319694919923B1F74091970A5091980A7B
:1050F0006091990A70919A0A8BE794E00E946A3352
:1051000040919B0A50919C0A60919D0A70919E0A61
:1051100088E794E00E946A33EEE1F2E007C08091F4
:10512000C00085FFFCCF31969093C60090819923F3
:10513000B1F78091C00085FFFCCF8AE08093C60064
:10514000FE019491ECE2F3E008C08091C00085FF7D
:10515000FCCF9093C600319694919923B1F7E5EC7A
:10516000F3E0949108C08091C00085FFFCCF90933C
:10517000C600319694919923B1F78091C00085FFC4
:10518000FCCF8AE08093C600FE019491ECE2F3E04C
:1051900008C08091C00085FFFCCF9093C600319677
:1051A00094919923B1F74091930A5091940A609198
:1051B000950A7091960A8CEB93E00E946A334091B5
:1051C000AB0A5091AC0A6091AD0A7091AE0A89EBBE
:1051D00093E00E946A3340915F0A5091600A6091A7
:1051E000610A7091620A86EB93E00E947C334091E1
:1051F0009F0A5091A00A6091A10A7091A20A83EBC4
:1052000093E00E946A334091A30A5091A40A6091EE
:10521000A50A7091A60A80EB93E00E946A33409140
:10522000A70A5091A80A6091A90A7091AA0A8DEA6A
:1052300093E00E946A33EEE1F2E007C08091C00083
:1052400085FFFCCF31969093C60090819923B1F7EA
:105250008091C00085FFFCCF8AE08093C600FE01EC
:105260009491ECE2F3E008C08091C00085FFFCCF90
:105270009093C600319694919923B1F7EBE9F3E04E
:10528000949108C08091C00085FFFCCF9093C60028
:10529000319694919923B1F78091C00085FFFCCF9E
:1052A0008AE08093C600FE019491ECE2F3E008C02E
:1052B0008091C00085FFFCCF9093C60031969491F9
:1052C0009923B1F7409144085091450860914608F0
:1052D0007091470882E993E00E946A334091480840
:1052E0005091490860914A0870914B088FE893E00B
:1052F0000E946A3340914C0850914D0860914E08CD
:1053000070914F088CE893E00E946A33EEE1F2E07E
:1053100007C08091C00085FFFCCF31969093C600F6
:1053200090819923B1F78091C00085FFFCCF8AE07E
:105330008093C600FE019491ECE2F3E008C08091F6
:10534000C00085FFFCCF9093C600319694919923BD
:10535000B1F7EEE7F3E0949108C08091C00085FFBB
:10536000FCCF9093C600319694919923B1F7809128
:10537000C00085FFFCCF8AE08093C600FE019491B7
:10538000ECE2F3E008C08091C00085FFFCCF909371
:10539000C600319694919923B1F74091050450913C
:1053A0000604609107047091080484E793E00E946A
:1053B0006A336091090470910A0480910B04909102
:1053C0000C040E941391AB01BC0181E793E00E94A1
:1053D0006A3360910D0470910E0480910F049091D6
:1053E00010040E941F91AB01BC018EE693E00E9465
:1053F0006A33EEE1F2E007C08091C00085FFFCCF88
:1054000031969093C60090819923B1F78091C000A6
:1054100085FFFCCF8AE08093C600DF91CF9108958D
:105420000F931F93DF93CF93CDB7DEB72A970FB6B5
:10543000F894DEBF0FBECDBF80911A0290911B027F
:10544000A0911C02B0911D028F839887A987BA870B
:10545000FE01339604E610E0F999FECF12BD01BDBE
:10546000F89A80B580830F5F1F4F0836110511F041
:105470003196F2CFCE010796BE016D5F7F4F43E0BC
:1054800050E00E94A112009709F098C1E3E7FAE00A
:10549000F999FECF12BD01BDF89A80B580830F5FE8
:1054A0001F4F0837110511F03196F2CFE3E6FAE00D
:1054B000F999FECF12BD01BDF89A80B580830F5FC8
:1054C0001F4F0838110511F03196F2CFE3E8FAE0EA
:1054D000F999FECF12BD01BDF89A80B580830F5FA8
:1054E0001F4F0839110511F03196F2CF0E944A5F23
:1054F000E7E9FAE0F999FECF12BD01BDF89A80B54F
:1055000080830F5F1F4F0C39110511F03196F2CFD8
:10551000EBE9FAE0F999FECF12BD01BDF89A80B52A
:1055200080830F5F1F4F003A110511F03196F2CFC3
:10553000E3E9FAE0F999FECF12BD01BDF89A80B512
:1055400080830F5F1F4F043A110511F03196F2CF9F
:10555000EBEAFAE0F999FECF12BD01BDF89A80B5E9
:1055600080830F5F1F4F083A110511F03196F2CF7B
:10557000EFE5FAE0F999FECF12BD01BDF89A80B5CA
:1055800080830F5F1F4F0C3A110511F03196F2CF57
:10559000EFE9FAE0F999FECF12BD01BDF89A80B5A6
:1055A00080830F5F1F4F003B110511F03196F2CF42
:1055B000E3EAFAE0F999FECF12BD01BDF89A80B591
:1055C00080830F5F1F4F043B110511F03196F2CF1E
:1055D000E7EAFAE0F999FECF12BD01BDF89A80B56D
:1055E00080830F5F1F4F083B110511F03196F2CFFA
:1055F000E4E4F8E0F999FECF12BD01BDF89A80B558
:1056000080830F5F1F4F043C110511F03196F2CFDC
:10561000E7E0F3E1F999FECF12BD01BDF89A80B53C
:1056200080830F5F1F4F063C110511F03196F2CFBA
:10563000E9E0F3E1F999FECF12BD01BDF89A80B51A
:1056400080830F5F1F4F083C110511F03196F2CF98
:10565000EBE0F3E1F999FECF12BD01BDF89A80B5F8
:1056600080830F5F1F4F0A3C110511F03196F2CF76
:10567000EDE0F3E1F999FECF12BD01BDF89A80B5D6
:1056800080830F5F1F4F0C3C110511F03196F2CF54
:10569000EFE0F3E1F999FECF12BD01BDF89A80B5B4
:1056A00080830F5F1F4F0E3C110511F03196F2CF32
:1056B000E1E1F3E1F999FECF12BD01BDF89A80B5A1
:1056C00080830F5F1F4F003D110511F03196F2CF1F
:1056D000EFE5F8E0F999FECF12BD01BDF89A80B56B
:1056E00080830F5F1F4F043D110511F03196F2CFFB
:1056F000E5E0F4E0F999FECF12BD01BDF89A80B55E
:1057000080830F5F1F4F083D110511F03196F2CFD6
:10571000E9E0F4E0F999FECF12BD01BDF89A80B539
:1057200080830F5F1F4F0C3D110511F03196F2CFB2
:10573000EDE0F4E0F999FECF12BD01BDF89A80B515
:1057400080830F5F1F4F003E110511F03196F2CF9D
:10575000FE013196F999FECF12BD01BDF89A80B5D0
:105760008083013E110521F0319601EE10E0F2CF69
:105770000E941890ECE2F3E0949108C08091C00080
:1057800085FFFCCF9093C600319694919923B1F791
:10579000E4E5F3E0949108C08091C00085FFFCCF60
:1057A0009093C600319694919923B1F78091C000EF
:1057B00085FFFCCF8AE08093C60001C052D9FADA97
:1057C0002A960FB6F894DEBF0FBECDBFCF91DF9102
:1057D0001F910F9108951F920F920FB60F920BB663
:1057E0000F9211242F933F934F938F939F93EF9397
:1057F000FF934091C600E0919A05F0919B05319688
:105800009F012F773070319780919C0590919D0575
:105810002817390739F0E65EFA4F408330939B052D
:1058200020939A05FF91EF919F918F914F913F9116
:105830002F910F900BBE0F900FBE0F901F901895D9
:105840009A01AB01203081EE380780E0480780E004
:10585000580749F182E08093C00060E079E08DE371
:1058600090E00E9411F62150304040405040CA0163
:10587000B90122E030E040E050E00E9411F63093A0
:10588000C5002093C4008091C10080618093C10055
:105890008091C10088608093C1008091C1008068C0
:1058A0008093C10008951092C00020E130E0E7CF5E
:1058B00020919C0530919D0580919A0590919B05C2
:1058C0008217930719F42FEF3FEF0EC0F901E65E40
:1058D000FA4F80812F5F3F4F2F77307030939D05B7
:1058E00020939C05282F30E0C901089580919C05E4
:1058F00090919D0590939B0580939A050895089536
:105900002F923F924F925F926F927F928F929F92CF
:10591000AF92BF92CF92DF92EF92FF920F931F93BD
:10592000DF93CF93CDB7DEB7A0970FB6F894DEBF65
:105930000FBECDBF1C016A017B01411551056105F8
:10594000710541F440E350E060E070E020E030E0B9
:105950008BD055C0882499245401422E55246624A6
:10596000772401E010E00C0F1D1F080D191DC70161
:10597000B601A30192010E94EFF5F801608308943B
:10598000811C911CA11CB11CC701B601A30192018D
:105990000E94EFF5C901DA016C017D01C114D10447
:1059A000E104F104F1F681E0E82EF12CEC0EFD1E8D
:1059B000E80CF91C3E010894611C711CD501C4015E
:1059C0000197A109B1096C01C818D90815C0F601E1
:1059D000EE0DFF1D40814A3010F4405D01C0495C6E
:1059E000552747FD5095652F752FC10120E030E008
:1059F0003BD00894E108F1086E147F0441F7A096AB
:105A00000FB6F894DEBF0FBECDBFCF91DF911F91CF
:105A10000F91FF90EF90DF90CF90BF90AF909F904D
:105A20008F907F906F905F904F903F902F90089550
:105A30002115310539F48091C00085FFFCCF4093DA
:105A4000C60008955DCFEF92FF920F931F939A01C6
:105A5000E62EFF2400E010E0B801A701E9DF1F9166
:105A60000F91FF90EF900895EF92FF920F931F9385
:105A7000CF93DF93EC017A018B012115310539F4C5
:105A80008091C00085FFFCCFE092C60019C02A308B
:105A90003105A9F477FF0FC04DE250E060E070E0FF
:105AA00020E030E0E1DF10950095F094E094E11CF7
:105AB000F11C011D111DCE01B801A7012AE020DF54
:105AC000DF91CF911F910F91FF90EF900895EF928A
:105AD000FF920F931F937B019A010027F7FC00951B
