:100000000C941B0F0C94480F0C94480F0C94480F41
:100010000C94480F0C94480F0C94480F0C94480F04
:100020000C94480F0C94480F0C94480F0C94480FF4
:100030000C94480F0C9441E30C94480F0C94480F17
:100040000C94480F0C94217E0C94480F0C94480F8C
:100050000C94480F0C94480F0C94C8870C94D9DE6C
:100060000C94480F0C941D270C94480F0C94480FC7
:100070000C94480F0C94480F0C94480F0C94480FA4
:100080000C94480F0C94480F0C94480F0C94480F94
:100090000C94480F0C94480F0C94480F0C9448DBB8
:1000A0000C94480F0C94480F0C94480F0C94480F74
:1000B0000C94480F0C94480F0C94480F0C94480F64
:1000C0000C94480F0C94480F0C94480F0C94480F54
:1000D0000C94480F0C94480F0C94480F0C94480F44
:1000E0000C94480F084AD73B3BCE016E84BCBFFD41
:1000F000C12F3D6C74319ABD56833DDA3D00C77FF8
:1001000011BED9E4BB4C3E916BAAAABE0000008090
:100110003F05A84CCDB2D44EB93836A9020C50B91F
:10012000918688083CA6AAAA2ABE000000803F4DFE
:10013000383420582059205A2045006563686F3AAA
:100140000043616E6E6F7420656E74657220737506
:10015000626469723A20004D3234004D32332025FA
:1001600073006175746F25692E67004572726F7236
:100170003A006572726F722077726974696E6720D7
:10018000746F2066696C65004E6F74205344207054
:1001900072696E74696E67002F0053442070726933
:1001A0006E74696E67206279746520002E00446564
:1001B0006C6574696F6E206661696C65642C20469D
:1001C000696C653A200046696C652064656C6574ED
:1001D00065643A002E006F70656E206661696C651B
:1001E000642C2046696C653A200057726974696E08
:1001F0006720746F2066696C653A20002E006F706E
:10020000656E206661696C65642C2046696C653A90
:1002100020002E006F70656E206661696C65642C2D
:100220002046696C653A200046696C652073656CF0
:100230006563746564002053697A653A20004669F5
:100240006C65206F70656E65643A20002E006F70DB
:10025000656E206661696C65642C2046696C653A40
:1002600020004E6F772066726573682066696C6542
:100270003A20004E6F7720646F696E672066696C64
:10028000653A20002220706F730022207061726531
:100290006E743A2200535542524F5554494E4520F0
:1002A00043414C4C207461726765743A2200747249
:1002B00079696E6720746F2063616C6C207375625E
:1002C0002D67636F64652066696C65732077697458
:1002D0006820746F6F206D616E79206C6576656C37
:1002E000732E204D4158206C6576656C2069733AF9
:1002F0000053442063617264206F6B006F70656E01
:10030000526F6F74206661696C656400766F6C75FE
:100310006D652E696E6974206661696C6564005351
:100320004420696E6974206661696C006563686F5A
:100330003A0048617264636F646564204465666175
:10034000756C742053657474696E6773204C6F61AB
:10035000646564002044002049002020204D333093
:10036000312050005049442073657474696E67737E
:100370003A00205A0020590020204D3230362058B3
:1003800000486F6D65206F666673657420286D6D1B
:10039000293A00204500205A002058002042002021
:1003A000540020204D323035205300416476616E78
:1003B000636564207661726961626C65733A20538B
:1003C0003D4D696E20666565647261746520286DB7
:1003D0006D2F73292C20543D4D696E207472617607
:1003E000656C20666565647261746520286D6D2F8B
:1003F00073292C20423D6D696E696D756D207365A2
:10040000676D656E742074696D6520286D73292C85
:1004100020583D6D6178696D756D205859206A6569
:10042000726B20286D6D2F73292C20205A3D6D6131
:1004300078696D756D205A206A65726B20286D6D24
:100440002F73292C2020453D6D6178696D756D20D5
:1004500045206A65726B20286D6D2F73290020542A
:100460000020204D323034205300416363656C65B9
:10047000726174696F6E3A20533D616363656C65A8
:10048000726174696F6E2C20543D72657472616381
:100490007420616363656C65726174696F6E0020BE
:1004A0004500205A0020590020204D32303120587C
:1004B000004D6178696D756D20416363656C65728F
:1004C0006174696F6E20286D6D2F7332293A002098
:1004D0004500205A0020590020204D32303320584A
:1004E000004D6178696D756D206665656472617433
:1004F000657320286D6D2F73293A00204500205A1E
:100500000020590020204D39322058005374657066
:10051000732070657220756E69743A006563686F48
:100520003A004572726F723A0053544F505045442E
:100530002E20005072696E7465722073746F707033
:1005400065642064756520746F206572726F7273C4
:100550002E2046697820746865206572726F72205B
:10056000616E6420757365204D39393920746F20B0
:10057000726573746172742E202854656D70657293
:1005800061747572652069732072657365742E20BD
:100590005365742069742061667465722072657396
:1005A00074617274696E6729004B494C4C45442E46
:1005B00020005072696E7465722068616C746564A5
:1005C0002E206B696C6C28292063616C6C6564213A
:1005D000006F6B00526573656E643A20002200550F
:1005E0006E6B6E6F776E20636F6D6D616E643A2017
:1005F00022004368616E67652066696C616D656E97
:1006000074005A204F6666736574203A20007A5F42
:100610006D61783A20007A5F6D696E3A20005A2049
:100620004F6666736574005A204F66667365742062
:100630006F6B00486F74656E64206F6666736574D7
:10064000733A002200556E6B6E6F776E20636F6D8C
:100650006D616E643A2022007A5F6D61783A200005
:100660007A5F6D696E3A2000795F6D61783A20009B
:10067000795F6D696E3A2000785F6D61783A20008D
:10068000785F6D696E3A2000205A3A0020593A008E
:1006900020436F756E7420583A200020453A0020A0
:1006A0005A3A0020593A00583A004649524D5741AB
:1006B00052455F4E414D453A4D61726C696E205610
:1006C000313B20537072696E7465722F6772626C71
:1006D000206D617368757020666F722067656E3675
:1006E000204649524D574152455F55524C3A687425
:1006F00074703A2F2F6669726D776172652E756C12
:1007000074696D616B65722E636F6D2050524F542A
:100710004F434F4C5F56455253494F4E3A312E305E
:10072000204D414348494E455F545950453A556C18
:1007300074696D616B657220455854525544455239
:100740005F434F554E543A3220555549443A303064
:100750003030303030302D303030302D303030309F
:100760002D303030302D303030303030303030308F
:1007700030300A00556C74696D616B6572204F668C
:10078000662E00556C74696D616B657220726561CF
:1007900064792E0042656420646F6E652E002042ED
:1007A0003A0020453A00543A0042656420486561A9
:1007B00074696E672E0048656174696E6720646FA6
:1007C0006E652E0020573A0020453A00543A004802
:1007D000656174696E672E2E2E002042403A00201B
:1007E000403A00202F003A00205400202F002042E1
:1007F0003A00202F006F6B20543A002569206D6964
:100800006E2C2025692073656300456E642066693F
:100810006C65206C69737400426567696E20666957
:100820006C65206C697374004E6F206D6F76652E59
:1008300000526573756D696E67207072696E740021
:100840005761697420666F7220757365722E2E2E43
:1008500000536C6565702E2E2E00FFFFFF00004DCB
:100860004300004D43000048430000A0400000A0AA
:1008700040000000400000000000000000000000F8
:100880000000000000000000000000000000004D1B
:100890004300004D4300004843256920686F75728E
:1008A00073202569206D696E7574657300446F6EE1
:1008B00065207072696E74696E672066696C650088
:1008C00053544F505045442E20005072696E746549
:1008D000722073746F707065642064756520746F26
:1008E000206572726F72732E204669782074686575
:1008F000206572726F7220616E6420757365204D81
:1009000039393920746F20726573746172742E20C6
:100910002854656D70657261747572652069732005
:1009200072657365742E2053657420697420616646
:100930007465722072657374617274696E672900E0
:100940006F6B004E6F204C696E65204E756D626551
:1009500072207769746820636865636B73756D2CAA
:10096000204C617374204C696E653A20004E6F20F4
:10097000436865636B73756D2077697468206C6973
:100980006E65206E756D6265722C204C61737420EB
:100990004C696E653A2000636865636B73756D2002
:1009A0006D69736D617463682C204C617374204CA5
:1009B000696E653A20004C696E65204E756D626502
:1009C00072206973206E6F74204C617374204C69BF
:1009D0006E65204E756D6265722B312C204C6173F3
:1009E00074204C696E653A20004D31313000446FFF
:1009F0006E6520736176696E672066696C652E008E
:100A00006F6B004D3239002020506C616E6E657244
:100A100042756666657242797465733A20002046B5
:100A2000726565204D656D6F72793A20004A756E6A
:100A3000203235203230313500436F6D70696C657E
:100A4000643A2000286E6F6E652C206465666175BF
:100A50006C7420636F6E6669672900207C20417585
:100A600074686F723A20004A756E20323520323039
:100A700031352031363A34383A323300204C617304
:100A80007420557064617465643A2000312E302EF4
:100A900030004D61726C696E0020536F667477612F
:100AA00072652052657365740020576174636864D1
:100AB0006F67205265736574002042726F776E20F5
:100AC0006F75742052657365740020457874657283
:100AD0006E616C20526573657400506F7765725556
:100AE00070007374617274002200656E71756569BF
:100AF0006E672022002200656E717565696E672041
:100B000022006563686F3A0020746F6F206C6F6E0F
:100B10006720657874727573696F6E207072657680
:100B2000656E7465640020636F6C64206578747210
:100B30007573696F6E2070726576656E746564009A
:100B40007C3C3E5E2B3D3F2F5B5D3B2C2A225C00B4
:100B500045303A20005A3A2000593A2000583A20AD
:100B6000004D53312C4D53322050696E730A0024CE
:100B7000F404D9201BC40C5C0E9804C4095F026500
:100B8000077101F405F900FB04B30048048700C1B4
:100B90000369005803550003034500BE023A008470
:100BA00002310053022A002902250004022000E439
:100BB000011C00C8011900AF01170098011400843E
:100BC000011300710110006101100051010E00437A
:100BD000010D0036010B002B010B0020010B00154D
:100BE0000109000C01090003010800FB000800F3E3
:100BF000000800EB000700E4000600DE000600D855
:100C0000000600D2000600CC000500C7000500C2A7
:100C1000000500BD000400B9000400B5000400B1E7
:100C2000000400AD000400A9000400A5000300A218
:100C30000003009F0004009B000300980003009540
:100C400000020093000300900003008D0002008B5F
:100C50000003008800020086000200840003008177
:100C60000002007F0002007D0002007B000200798C
:100C7000000200770001007600020074000200729A
:100C8000000100710002006F0002006D0001006CA5
:100C90000002006A000100690002006700010066AE
:100CA00000010065000100640002006200010061B3
:100CB000000100600001005F0002005D0001005CB7
:100CC0000001005B0001005A0001005900010058BA
:100CD00000010057000100560001005500010054BA
:100CE00000010053000000530001005200010051B8
:100CF000000100500001004F0001004E0000004EB6
:100D00000001004D0001004C0001004B0000004BB1
:100D10000001004A000100490001004800000048AD
:100D200000010047000100460000004600010045A8
:100D300000000045000100440001004300000043A2
:100D4000000100420000004200010041000000419B
:100D5000000100400001003F0000003F0001003E94
:100D60000000003E0001003D0000003D0001003C8D
:100D70000000003C0000003C0001003B0000003B84
:100D80000001003A0000003A00010039000000397B
:100D90000001003800000038000000380001003772
:100DA0000000003700010036000000360000003669
:100DB000000100350000003500000035000100345E
:100DC0000000003400000034000100330000003354
:100DD0000000003300010032000000320000003249
:100DE000000100310000003100000031000100303E
:100DF00000000030000000300001002F0000002F34
:100E00000000002F0000002F0001002E0000002E27
:100E10000000002E0001002D0000002D0000002D1C
:100E20000000002D0001002C0000002C0000002C10
:100E30000000002C0001002B0000002B0000002B04
:100E40000000002B0001002A0000002A0000002AF8
:100E50000000002A000100290000002900000029EC
:100E600000000029000000290001002800000028DF
:100E700000000028000000280000002800010027D2
:100E800000000027000000270000002700000027C6
:100E900000010026000000260000002600000026B9
:100EA00000000026000100250000002500000025AC
:100EB000000000250000002500000025000100249E
:100EC0000000002400000024000000240000002492
:100ED0000001002300000023000000230000002385
:100EE0000000002300000023000000230001002276
:100EF000000000220000002200000022000000226A
:100F0000000000220001002100000021000000215B
:100F1000000000210000002100000021000000214D
:100F20000001002000000020000000200000002040
:100F30000000002000000020000000200000002031
:100F40000001001F0000001F0000001F0000001F24
:100F50000000001F0000001F0000001F0001001E15
:100F60000000001E0000001E0000001E0000002403
:100F7000F4D43050C38E20C2A24017828B7011125D
:100F80007A910D816CD90AA861E108C7586607619A
:100F90005143061E4B5D05C145A7041A41110409C2
:100FA0003D9803713931034036DB0265339102D439
:100FB000305402802E1D02632CEE01752AC501B04B
:100FC00028A001102781018F2564012B244B01E00B
:100FD000223401AC211F018D200D01801FFC0084F3
:100FE0001EED00971DDF00B81CD200E61BC60020D6
:100FF0001BBC00641AB200B219A8000A19A0006A4A
:10100000189900D117910040178B00B51684003154
:10101000167E00B31579003A157300C7146F005897
:10102000146A00EE1366008813630025135E00C780
:10103000125B006C12570015125400C11151007060
:10104000114F0021114B00D61049008D104700466A
:1010500010440002104200C00F4000800F3E0042CA
:101060000F3C00060F3B00CB0E3800930E37005CA0
:101070000E3500270E3400F30D3200C10D31009003
:101080000D3000600D2E00320D2D00050D2C00D905
:101090000C2B00AE0C2900850C29005C0C270035B8
:1010A0000C27000E0C2600E80B2400C40B2400A023
:1010B0000B23007D0B23005A0B2100390B21001854
:1010C0000B2000F80A1F00D90A1E00BB0A1E009D53
:1010D0000A1D00800A1D00630A1C00470A1B002C21
:1010E0000A1B00110A1A00F7091A00DD091900C4C9
:1010F000091900AB091900920917007B0918006350
:101100000917004C09160036091600200916000AB6
:10111000091500F5081500E0081400CC081400B803
:10112000081400A4081400900813007D0812006B36
:101130000813005808120046081200340811002352
:101140000811001208110001081100F0071000E05A
:10115000071000D0071000C0071000B0070F00A153
:1011600007100091070E0083070F0074070F00653A
:10117000070E0057070E0049070E003B070D002E13
:10118000070E0020070D0013070D0006070D00F9DC
:10119000060C00ED060D00E0060C00D4060C00C89D
:1011A000060C00BC060C00B0060C00A4060B00994F
:1011B000060C008D060B0082060B0077060B006CF8
:1011C000060B0061060A0057060B004C060A004297
:1011D000060A0038060A002E060A0024060A001A2B
:1011E000060A001006090007060A00FD050900F4BA
:1011F000050900EB050900E2050900D9050900D041
:10120000050900C7050900BE050900B5050800ADC0
:10121000050800A50509009C050800940508008C38
:10122000050800840508007C050800740508006CAA
:10123000050700650508005D050700560508004E16
:10124000050700470507004005080038050700317D
:101250000507002A050700230507001C05060016E0
:101260000507000F0507000805060002050700FB3B
:10127000040600F5040700EE040600E8040600E298
:10128000040700DB040600D5040600CF040600C9ED
:10129000040600C3040600BD040600B7040600B13E
:1012A000040500AC040600A6040600A00405009B8B
:1012B00004060095040500900406008A04050085D4
:1012C000040500800406007A04050075040500701A
:1012D0000405006B04050066040500610405005C5C
:1012E00004050057040500520405004D040500489C
:1012F000040500430405003E0404003A04050035DB
:10130000040500300404002C040500270404002315
:101310000405001E0404001A04040016040500114C
:101320000404000D04040009040500040404000082
:10133000040400FC030400F8030400F4030400F0B8
:10134000030400EC030400E8030400E4030400E0E9
:10135000030400DC030400D8030400D4030400D019
:10136000030400CC030400C8030300C503030065A5
:1013700063686F3A00656E6473746F707320686998
:10138000743A205A00205A3A00656E6473746F7084
:1013900073206869743A20590020593A00656E64D8
:1013A00073746F7073206869743A20580020583A3B
:1013B00000656E6473746F7073206869743A2000FE
:1013C0004572726F723A004572723A204D4158541C
:1013D000454D50204245440054656D7065726174FE
:1013E0007572652068656174656420626564207348
:1013F00077697463686564206F66662E204D415876
:1014000054454D5020747269676765726564202188
:1014100021004572723A204D494E54454D50003AD4
:101420002045787472756465722073776974636897
:101430006564206F66662E204D494E54454D502000
:101440007472696767657265642021004572723A3B
:10145000204D415854454D50003A204578747275DE
:10146000646572207377697463686564206F66666B
:101470002E204D415854454D502074726967676560
:10148000726564202100202D20496E76616C6964AC
:10149000206578747275646572206E756D62657210
:1014A00020210070012C0190012701B0012201C010
:1014B000011D01F00118011002130130020E01603C
:1014C00002090190020401C002FF000003FA00407B
:1014D00003F5008003F000D003EB002004E6007069
:1014E00004E100E004DC004005D700C005D2004064
:1014F00006CD00D006C8008007C3003008BE00F04B
:1015000008B900C009B400B00AAF00B00BAA00D0FF
:101510000CA500000EA000500F9B00C010960050BC
:1015200012910000148C00C0158700B0178200B023
:10153000197D00D01B7800001E730040206E0090C3
:10154000226900F024640040275F0090295A00E0DF
:101550002B5500102E500020304B0010324600E07A
:1015600033410090353C001037370070383200A00E
:10157000392D00B03A2800A03B2300603C1E00102B
:101580003D1900903D1400103E0F00703E0A00C04F
:101590003E0500003F0000504944204175746F74BF
:1015A000756E652066696E69736865642120507583
:1015B0007420746865206C617374204B702C204B10
:1015C0006920616E64204B6420636F6E7374616E7A
:1015D00074732066726F6D2061626F766520696E2C
:1015E000746F20436F6E66696775726174696F6EA0
:1015F0002E6800504944204175746F74756E6520E3
:101600006661696C6564212074696D656F7574002D
:1016100020403A006F6B20543A006F6B20423A0032
:10162000504944204175746F74756E652066616918
:101630006C6564212054656D7065726174757265A6
:1016400020746F6F206869676800204B643A20003F
:10165000204B693A2000204B703A200020436C61F7
:10166000737369632050494420002054753A200068
:10167000204B753A2000206D61783A2000206D697A
:101680006E3A200020643A200020626961733A209B
:10169000002D2D3A2D2D002D2D2D0053440001201D
:1016A000000120000120004E6F205344206361722E
:1016B00064005072696E742066726F6D205344002E
:1016C00053746F70207072696E7400526573756D1B
:1016D00065207072696E7400506175736520707258
:1016E000696E7400436F6E74726F6C005072657037
:1016F0006172650054756E6500496E666F20736394
:101700007265656E00052E2E004D61696E004D32CA
:1017100034004D3233202573004D38342058205981
:10172000205A204500473238205830205930204672
:1017300035303030004D363031205831302059327C
:1017400030205A30204C3330004D36303120583163
:101750003020593230205A32204C3330004D363050
:10176000312058313020593230205A3230204C3319
:101770003000526573746F7265206661696C7361C5
:1017800066650052657472616374004D6F74696FB1
:101790006E0054656D7065726174757265004D619F
:1017A000696E00556E52657420205600556E526564
:1017B00074202056005320556E5265742B6D6D00B9
:1017C0005320556E5265742B6D6D00556E526574C5
:1017D000202B6D6D00556E526574202B6D6D004889
:1017E0006F70206D6D00486F70206D6D00526574D4
:1017F00072616374202056005265747261637420B4
:10180000205600537761702052652E6D6D0053771E
:1018100061702052652E6D6D005265747261637443
:10182000206D6D0052657472616374206D6D004FA0
:101830006666004F6E20004F6666004F6E200041C6
:1018400075746F526574722E00436F6E74726F6C94
:10185000004573746570732F6D6D0045737465700A
:10186000732F6D6D005A73746570732F6D6D005A10
:1018700073746570732F6D6D005973746570732F79
:101880006D6D005973746570732F6D6D00587374AE
:101890006570732F6D6D005873746570732F6D6D67
:1018A00000412D7265747261637400412D7265741C
:1018B0007261637400416D6178206500416D6178EB
:1018C000206500416D6178207A00416D6178207A51
:1018D00000416D6178207900416D61782079004187
:1018E0006D6178207800416D6178207800565472DF
:1018F0006176206D696E005654726176206D696E56
:1019000000566D696E00566D696E00566D617820E7
:101910006500566D6178206500566D6178207A000B
:10192000566D6178207A00566D6178207900566D89
:101930006178207900566D6178207800566D617865
:1019400020780056652D6A65726B0056652D6A65B4
:10195000726B00567A2D6A65726B00567A2D6A6535
:10196000726B005678792D6A65726B005678792D06
:101970006A65726B00416363656C00416363656C0B
:1019800000436F6E74726F6C0050726568656174AD
:101990002041425320636F6E660050726568656136
:1019A0007420504C4120636F6E66005049442D43B3
:1019B000005049442D43005049442D4400504944AF
:1019C0002D44005049442D49005049442D490050B0
:1019D00049442D50005049442D50002002204661BA
:1019E00063740020022046616374002002204D6170
:1019F00078002002204D6178002002204D696E00A1
:101A00002002204D696E004F6666004F6E20004F29
:101A10006666004F6E20004175746F74656D7000CE
:101A200046616E2073706565640046616E20737058
:101A30006565640042656400426564004E6F7A7AB1
:101A40006C6532004E6F7A7A6C6532004E6F7A7A2E
:101A50006C65004E6F7A7A6C6500436F6E74726FBE
:101A60006C0042656400426564004E6F7A7A6C6572
:101A7000004E6F7A7A6C650046616E207370656502
:101A8000640046616E2073706565640054656D7016
:101A90006572617475726500426564004265640038
:101AA0004E6F7A7A6C65004E6F7A7A6C650046618B
:101AB0006E2073706565640046616E2073706565A5
:101AC000640054656D7065726174757265004D6F68
:101AD00076652061786973004D38300053776974FA
:101AE000636820706F776572206F6E004D3831002B
:101AF00053776974636820706F776572206F6666CC
:101B000000436F6F6C646F776E005072656865613B
:101B10007420414253005072656865617420504CD6
:101B20004100473238004175746F20686F6D650061
:101B30004D38340044697361626C6520737465705C
:101B400070657273004D61696E004D6F766520306F
:101B50002E316D6D004D6F766520316D6D004D6FCE
:101B600076652031306D6D00507265706172650070
:101B70004578747275646572004D6F7665205A0001
:101B80004D6F76652059004D6F76652058004D6F7A
:101B90007665206178697300457874727564657242
:101BA000005A005900580050726568656174204100
:101BB000425320426564005072656865617420413B
:101BC000425320416C6C005072656865617420411D
:101BD000425320320050726568656174204142535F
:101BE00020310050726570617265005072656865E1
:101BF000617420504C4120426564005072656865F4
:101C0000617420504C4120416C6C005072656865D5
:101C1000617420504C4120320050726568656174D7
:101C200020504C4120310050726570617265004D4A
:101C3000363030004368616E67652066696C616D9F
:101C4000656E7400466C6F77203100466C6F7720AC
:101C50003100466C6F77203000466C6F7720300083
:101C6000466C6F7700466C6F770046616E2073702C
:101C70006565640046616E20737065656400426549
:101C80006400426564004E6F7A7A6C6532004E6F74
:101C90007A7A6C6532004E6F7A7A6C65004E6F7A94
:101CA0007A6C650053706565640053706565640007
:101CB0004D61696E00436172642072656D6F766577
:101CC00064004361726420696E73657274656400B8
:101CD0000200002100240027002A002D00300033DC
:101CE0000001010000040107010A01000022002593
:101CF0000028002B002E00310034000201000005F6
:101D00000108010B01000020002300260029002CFF
:101D1000002F003200000100000301060109010547
:101D2000050505070508080808020202020A0A0854
:101D3000080404040401010101010101010303037A
:101D40000303030303040707070C0C0C0C0C0C0C17
:101D50000C0202020206060606060606060B0B0B1E
:101D60000B0B0B0B0B010210202008081020401059
:101D7000204080020102010804020101020408104F
:101D8000204080804020100804020180040201806D
:101D90004020100804020108040201010204081096
:101DA00020408001020408102040800000090A023F
:101DB000080B0C0D070603040100000000000000E2
:101DC0000000000000000000000000000000000013
:101DD00000000000000000100F0E000000000000D6
:101DE00000000000000000000000000000000000F3
:101DF00000494E46494E4954594E414ECDCCCC3DFA
:101E00000AD7233C17B7D13877CC2B329595E624E7
:101E10001FB14F0A000020410000C84200401C468C
:101E200020BCBE4CCA1B0E5AAEC59D74B127702A89
:101E3000F69A47DB692A11241FBECFEFD1E2DEBF3D
:101E4000CDBF00E00CBF14E0A0E0B2E0EEE0F8EDA2
:101E500001E00BBF02C007900D92A63CB107D9F775
:101E60001BBE13E1A6ECB4E001C01D92A632B1077F
:101E7000E1F71EE1C4E3DEE104C02297FE010E9407
:101E8000ACEBCC32D107C9F70E94CDE10C94FAEB50
:101E90000C940000A0E0B0E0E0E5FFE00C94C9EB9A
:101EA000EC015B016115710519F0FB0191838083E1
:101EB000F9908F2D90E00E94B0EB892BC9F7FDE2DD
:101EC000FF1621F4F990EE24E39405C02BE2F216FC
:101ED00009F4F990EE248E0101501040C80161EF21
:101EE0007DE143E050E00E94E911892B01F58E016C
:101EF0000E5F1F4FC80164EF7DE145E050E00E9496
:101F0000E911892B19F48E01095F1F4FA114B10447
:101F100019F0F50111830083E0FC04C070E090E04B
:101F200080E814C070E090E080E86FEF08C1C8015D
:101F300069EF7DE143E050E00E94E911892B69F4EB
:101F4000A114B10429F470E090E080EC6FE7F7C0D1
:101F50002296F501D183C083F6CF8824992440E0EE
:101F600050E060E070E0EF2DE053EA30A0F5F2E0E1
:101F7000EF2A8E2D90E09C0128703070E2FE06C0A2
:101F8000232B79F50894811C911C2BC0232B19F06D
:101F9000089481089108DB01CA0112E0880F991F9B
:101FA000AA1FBB1F1A95D1F7480F591F6A1F7B1F25
:101FB000440F551F661F771F4E0F511D611D711D68
:101FC000483929E9520729E9620729E1720748F0EF
:101FD00084E0E82A06C0EE3F31F4E3FC39C098E023
:101FE000E92AF990C0CFE53311F0E53189F529915F
:101FF0002D3219F4E0E1EE2A05C02B3219F081E010
:1020000090E003C0299182E090E0E22FE053EA30B3
:1020100018F0C81BD90B1CC020E030E0FCE02038D1
:102020003F075CF4C901880F991F880F991F280F7B
:10203000391F220F331F2E0F311DE991E053EA3073
:1020400068F3E4FE03C0309521953F4F820E931E46
:10205000CE2CDD24E1FE07C0A114B10421F02197AC
:10206000F501D183C083CB01BA010E9415E87B0141
:102070008C01F3E0CF22DD2423E0C216D10421F449
:1020800017FB109517F9109557016801C801B701A2
:1020900020E030E040E050E00E9475E7882309F43A
:1020A0004AC097FE0DC020E1E22E2EE1F22E909460
:1020B000819491089394C0E2D0E000E010E012C057
:1020C00098E2E92E9EE1F92EF6CFF70125913591A0
:1020D00045915491C601B5010E9455EA5B016C011E
:1020E0008C1A9D0A8C169D0684F7D595C7950F5FAF
:1020F0001F4F0630110529F08CEF9FEFE80EF91EF7
:10210000F1CFC501D6017C018D018C2D880F8D2D5D
:10211000881F8F3F51F0C601B50120E030E040E05C
:1021200050E00E9475E7882331F482E290E09093BA
:102130002513809324137E2D9F2D802F612F272F11
:10214000392F482F562FB901CA01CDB7DEB7ECE0C1
:102150000C94E5EB2F923F925F926F927F928F9259
:102160009F92AF92BF92CF92DF92EF92FF920F9326
:102170001F93CF93DF938C011B01EA016115710559
:1021800019F0FB0191838083209749F0CE010297DB
:10219000839728F020E030E040E050E0F6C0F801FE
:1021A000A1908F018A2D90E00E94B0EB892BB9F7A6
:1021B000FDE2AF1631F4F801A1908F01552453943C
:1021C00007C0FBE2AF1619F4F801A1908F01552466
:1021D000209719F0C031D105C1F4F0E3AF1679F4BE
:1021E000F8018081883711F0883549F4F801A18021
:1021F0000E5F1F4FF2E05F2AC0E1D0E006C02097DB
:1022000021F480E3A816E9F427C0C830D10531F1E4
:10221000C930D10524F4C230D10531F50CC0CA3023
:10222000D10589F0C031D105F9F4C12CD12CE12CB4
:10223000B8E0FB2E28C0C12CD12CE12CA0E4FA2E52
:1022400022C0CAE0D0E0FCECCF2EFCECDF2EFCEC90
:10225000EF2EFCE0FF2E17C0C8E0D0E0C12CD12C3F
:10226000E12CE0E1FE2E0FC09E01442737FD409592
:10227000542F60E070E080E090E80E946DEBC901AF
:10228000DA016C017D0120E030E040E050E060E0E8
:102290003E01882477FC8094982C70EDB72EBA0C00
:1022A000E9E0EB1570F48A2D81548A3118F499EC29
:1022B000B92E06C08A2D81568A3150F589EAB82E8A
:1022C000BA0C8B2D90E08C179D0714F56F3FE1F051
:1022D000C216D306E406F506B0F0CA01B901A4019E
:1022E00093010E9427EB9B01AC012B0D311D411D79
:1022F000511D2130F0E03F07F0E04F07F0E85F07A5
:1023000010F461E001C06FEFF801A1908F01C5CF1B
:102310002114310481F0662331F001501040F101A5
:102320001183008308C051FE1AC002501040F10111
:102330001183008314C067FF12C050FC05C02FEF4B
:102340003FEF4FEF5FE704C020E030E040E050E8AF
:1023500082E290E0909325138093241316C050FEE0
:1023600008C050954095309521953F4F4F4F5F4F96
:102370000CC057FF0AC082E290E09093251380932F
:1023800024132FEF3FEF4FEF5FE7B901CA01DF9151
:10239000CF911F910F91FF90EF90DF90CF90BF9062
:1023A000AF909F908F907F906F905F903F902F9015
:1023B0000895FB01DC0105900D920020E1F70895DE
:1023C000FC0105900020E9F7809590958E0F9F1FE6
:1023D0000895FB01DC014150504088F08D9181341B
:1023E0001CF08B350CF4805E659161341CF06B350C
:1023F0000CF4605E861B611171F3990B0895881BC4
:10240000FCCFFB01DC014150504048F005900D929B
:102410000020C9F701C01D9241505040E0F70895D7
:10242000FB0155915523A9F0BF01DC014D914517E2
:102430004111E1F759F4CD010590002049F04D918B
:1024400040154111C9F3FB014111EFCF81E090E04C
:1024500001970895FB01DC0104C08D910190801962
:1024600021F441505040C8F7881B990B0895FB0197
:10247000DC0102C001900D9241505040D8F7089500
:10248000FB01DC010D900020E9F7119701900D92FE
:102490000020E1F70895FC018191861721F088233F
:1024A000D9F7992708953197CF010895FB01DC01F1
:1024B0008D91019080190110D9F3990B0895FB01BA
:1024C000DC0101900D920020E1F70895FB01DC0191
:1024D0004150504030F08D910190801919F4002046
:1024E000B9F7881B990B0895FB01DC01415050405E
:1024F00048F001900D920020C9F701C01D92415093
:102500005040E0F70895AEE0B0E0E9E8F2E10C9465
:10251000D1EB0E891F898EE08C831A8309838FEF9C
:102520009FE79E838D839E01265E3F4FCE010196DD
:10253000688D798DA9010E94A7122F813885020F1D
:10254000131FF80110822E96E4E00C94EDEBABE043
:10255000B0E0EDEAF2E10C94C3EB3C012B015A012F
:10256000FC0117821682838181FD03C06FEF7FEF2C
:10257000C6C19AE0892E1E010894211C311CF3016A
:102580002381F20123FD859123FF81912F0188236F
:1025900009F4B2C1853239F423FD859123FF81917D
:1025A0002F01853229F490E0B3010E949A14E7CFFD
:1025B000982FFF24EE249924FFE1FF15D0F09B32E1
:1025C00069F09C3228F4903259F0933291F40EC0A5
:1025D0009D3249F0903369F441E024C052E0F52A7D
:1025E00084E0F82A28C098E0F92A25C0E0E1FE2A14
:1025F00022C0F7FC29C0892F80538A3070F4F6FE80
:1026000005C0989C902C1124980E15C0E89CE02CD5
:102610001124E80EF0E2FF2A0EC09E3229F4F6FCE7
:102620006BC140E4F42A07C09C3619F450E8F52A3F
:1026300002C0983649F4F20123FD959123FF919150
:102640002F01992309F0B8CF892F8554833018F0D2
:102650008052833038F444E050E0A40EB51E5FE3AE
:1026600059830FC0933631F0933779F0933509F0E1
:1026700056C020C0F5018081898342E050E0A40E5D
:10268000B51E610101E010E012C0F501C080D180EB
:10269000F6FC03C06FEF7FEF02C0692D70E042E0EF
:1026A00050E0A40EB51EC6010E948F148C015FE796
:1026B000F52214C0F501C080D180F6FC03C06FEF95
:1026C0007FEF02C0692D70E042E050E0A40EB51E1D
:1026D000C6010E9484148C0150E8F52AF3FE07C05D
:1026E0001AC080E290E0B3010E949A14EA948E2D01
:1026F00090E008171907A8F30EC0F601F7FC8591C2
:10270000F7FE81916F0190E0B3010E949A14E110ED
:10271000EA94015010400115110579F7EAC094368A
:1027200011F0993669F5F7FE08C0F5012081318175
:102730004281538184E090E00AC0F501808191815B
:102740009C01442737FD4095542F82E090E0A80E6D
:10275000B91E9FE6F92257FF09C050954095309564
:1027600021953F4F4F4F5F4FE0E8FE2ACA01B90164
:10277000A1012AE030E00E94C614D82ED21840C031
:10278000953729F41F2D1F7E2AE030E01DC01F2D34
:10279000197F9F3661F0903720F4983509F0ACC06E
:1027A0000FC0903739F0983709F0A6C004C028E070
:1027B00030E00AC0106114FD146020E130E004C074
:1027C00014FD166020E132E017FF08C0F5016081BA
:1027D00071818281938144E050E008C0F5018081DD
:1027E0009181BC0180E090E042E050E0A40EB51E73
:1027F000A1010E94C614D82ED2188FE7F82EF1221C
:10280000F6FE0BC05EEFF522D91438F4F4FE07C0D3
:10281000F2FC05C08FEEF82202C01D2D01C0192D5B
:10282000F4FE0DC0FE01ED0DF11D8081803319F421
:1028300099EEF92208C01F5FF2FE05C003C08F2D7C
:10284000867809F01F5F0F2DF3FC14C0F0FE0FC057
:102850001E1510F09D2C0BC09D2C9E0C911A1E2D48
:1028600006C080E290E0B3010E949A141F5F1E151B
:10287000C0F304C01E1510F4E11A01C0EE2404FFD9
:102880000FC080E390E0B3010E949A1402FF1DC0C4
:1028900001FD03C088E790E00EC088E590E00BC022
:1028A000802F867891F001FF02C08BE201C080E2A8
:1028B000F7FC8DE290E0B3010E949A1406C080E319
:1028C00090E0B3010E949A149A94D914C0F3DA9458
:1028D000F101ED0DF11D808190E0B3010E949A1489
:1028E000DD20A9F706C080E290E0B3010E949A14AF
:1028F000EA94EE20C1F743CEF30166817781CB01E4
:102900002B96E2E10C94DFEBFC01059061507040E6
:102910000110D8F7809590958E0F9F1F0895FC01A8
:102920006150704001900110D8F7809590958E0FFE
:102930009F1F08950F931F93CF93DF938C01EB019B
:102940008B8181FF1BC082FF0DC02E813F818C8156
:102950009D812817390764F4E881F9810193F9838F
:10296000E88306C0E885F985802F1995892B31F415
:102970008E819F8101969F838E8302C00FEF1FEF90
:10298000C801DF91CF911F910F910895FA01AA27F5
:10299000283051F1203181F1E8946F936E7F6E5FA2
:1029A0007F4F8F4F9F4FAF4FB1E03ED0B4E03CD050
:1029B000670F781F891F9A1FA11D680F791F8A1F33
:1029C000911DA11D6A0F711D811D911DA11D20D09A
:1029D00009F468943F912AE0269F11243019305D54
:1029E0003193DEF6CF010895462F4770405D419345
:1029F000B3E00FD0C9F7F6CF462F4F70405D4A3392
:102A000018F0495D31FD4052419302D0A9F7EACF59
:102A1000B4E0A6959795879577956795BA95C9F788
:102A200000976105710508959B01AC010A2E06947B
:102A30005795479537952795BA95C9F7620F731F34
:102A4000841F951FA01D0895FC0112821382148219
:102A50000895FC018481882319F081E08283138228
:102A60000895FC018281882311F081E08383089519
:102A7000CF93DF93FC01E257FE4F20813181211576
:102A8000310549F12150304031832083DC01AF5AB8
:102A9000BF4FFC01E259FF4F2BE101900D922150F5
:102AA000E1F79C0125573F4F40E050E0EC01C25751
:102AB000DE4F0CC04F5F5F4FD9015D97F9018BE18D
:102AC00001900D928150E1F7235E3F4F88819981FB
:102AD0004817590778F3DF91CF910895FC0188E6F4
:102AE00094E0918380838581882321F0CF01029631
:102AF0000E9403700895CF92DF92EF92FF920F939E
:102B00001F93DF93CF93CDB7DEB76D970FB6F894D1
:102B1000DEBF0FBECDBF8C016B010C5A1F4FF801F9
:102B2000808104551040882321F490E3E92EF12C94
:102B300003C08FE4E82EF12CE00EF11E88E694E04D
:102B40009A8389831E821B82B7016E5F7F4FCE01FD
:102B50000396A60121E00E941077882391F5EBE30C
:102B6000F1E0949108C08091C00085FFFCCF909364
:102B7000C600319694919923B1F7E1E4F1E0949184
:102B800008C08091C00085FFFCCF9093C6003196AD
:102B900094919923B1F709C08091C00085FFFCCFC3
:102BA0000894C11CD11C9093C600F6019081992312
:102BB00099F78091C00085FFFCCF8AE08093C60022
:102BC0003FC0F801E257FE4F608171816A307105A4
:102BD00068F59B012F5F3F4F318320838DE190E0AB
:102BE000289FA001299F500D389F500D1124425954
:102BF0005F4F400F511F0AC0DA01FA017D978BE148
:102C000001900D928150E1F74D515040615070405C
:102C1000FFEF6E3F7F0781F7D801A259BF4FF70141
:102C200032968BE101900D928150E1F7D801AF5AB5
:102C3000BF4FFE0133968BE101900D928150E1F779
:102C4000CE0101960E946E156D960FB6F894DEBF08
:102C50000FBECDBFCF91DF911F910F91FF90EF90ED
:102C6000DF90CF900895EF92FF920F931F938C0106
:102C700025EBE22E21E0F22EE80EF91EC7010E949C
:102C8000B56FC7010E940370F801108211821F9175
:102C90000F91FF90EF900895CF92DF92EF92FF9205
:102CA0000F931F93CF93DF937C016B01DB010D909A
:102CB0000020E9F78D0101501040061B170BE5EBD2
:102CC000F1E0EE0EFF1ED7011C92EBE4FEEFEE0EDC
:102CD000FF1ECB016EE470E00E944B12EC010097E6
:102CE00031F4F8013197EC0DFD1D86010EC060E254
:102CF00070E00E944B128C010F5F1F4FCE016AE201
:102D000070E00E944B12FC0131978DE081838AE0D4
:102D100082831382C7018D549E4FB8010E9412789E
:102D200085EB91E0E80EF91ED7018C91882319F10B
:102D3000EBE6F1E0949108C08091C00085FFFCCFE4
:102D40009093C600319694919923B1F7E2E7F1E0B0
:102D5000949108C08091C00085FFFCCF9093C6007D
:102D6000319694919923B1F78091C00085FFFCCFF3
:102D70008AE08093C600DF91CF911F910F91FF9061
:102D8000EF90DF90CF900895CF93DF93EC018C818B
:102D9000882309F43BC0EAE9F1E0949108C08091EE
:102DA000C00085FFFCCF9093C60031969491992383
:102DB000B1F7C659DD4F488159816A817B81CA5676
:102DC000D2408AE495E02AE030E00E944C28E8E90D
:102DD000F1E0949108C08091C00085FFFCCF9093F2
:102DE000C600319694919923B1F7CE59DD4F4881B1
:102DF00059816A817B818AE495E02AE030E00E9473
:102E00004C288091C00085FFFCCF12C0E8E8F1E0BB
:102E1000949108C08091C00085FFFCCF9093C600BC
:102E2000319694919923B1F78091C00085FFFCCF32
:102E30008AE08093C600DF91CF9108952F923F9250
:102E40004F925F926F927F928F929F92AF92BF92BA
:102E5000CF92DF92EF92FF920F931F93DF93CF9366
:102E6000CDB7DEB7AA970FB6F894DEBF0FBECDBFC1
:102E70005C014B01FC018481882309F437C1C50141
:102E80008B549E4F0E940370F50112821382188AA0
:102E90001B8A88E694E09F878E874DE4C42ED12C50
:102EA000CA0CDB1C20E330E0A20EB31EF601B18297
:102EB000A08220ED3FEFA20EB31EF40180818F327D
:102EC00009F090C0C4016FE270E00E944B127C01D7
:102ED0000894E11CF11C3E010894611C711C260140
:102EE00030E1232E312C2C0E3D1E77C0C7016FE23E
:102EF00070E00E944B126C01009709F481C0E81643
:102F0000F90608F07DC08C010E191F09C301B70135
:102F1000A8010E947412060D171DF8011082F3011A
:102F200007C08091C00085FFFCCF31969093C6000A
:102F300090819923B1F78091C00085FFFCCFFAE022
:102F4000F093C600F201608171816115710519F479
:102F500060E070E002C06E5F7F4FC101A30121E01D
:102F60000E941077882371F5E6EDF1E0949108C096
:102F70008091C00085FFFCCF9093C600319694915C
:102F80009923B1F7FE01319607C08091C00085FFFB
:102F9000FCCF31969093C60090819923B1F7E4ED70
:102FA000F1E0949108C08091C00085FFFCCF909320
:102FB000C600319694919923B1F78091C00085FFA6
:102FC000FCCF8DC02EE030E02C0F3D1FF20131838D
:102FD000208376010894E11CF11CE114F10409F04E
:102FE00085CF0BC08FE490E0A80EB91EF601B18228
:102FF000A08221EB3FEFA20EB31ED82C092D02C0F8
:10300000DE2C0F2D8DE490E0A80EB91EF501808115
:10301000918123EB3FEFA20EB31E009719F480E0DD
:1030200090E001C002966D2D702F0E94E2778823F8
:1030300039F1E6ECF1E0949108C08091C00085FF81
:10304000FCCF9093C600319694919923B1F78D2DC2
:10305000902F9C01F90107C08091C00085FFFCCF33
:1030600031969093C60090819923B1F78AE692E059
:10307000A80EB91EF501108211821282138232C08D
:10308000EEEAF1E0949108C08091C00085FFFCCF8A
:103090009093C600319694919923B1F78D2D902F7E
:1030A0009C01F90107C08091C00085FFFCCF3196DB
:1030B0009093C60090819923B1F7ECEAF1E09491E6
:1030C00008C08091C00085FFFCCF9093C600319668
:1030D00094919923B1F78091C00085FFFCCF8AE0DD
:1030E0008093C600CE010E960E946E15AA960FB66A
:1030F000F894DEBF0FBECDBFCF91DF911F910F912E
:10310000FF90EF90DF90CF90BF90AF909F908F9007
:103110007F906F905F904F903F902F900895BF9257
:10312000CF92DF92EF92FF920F931F93CF93DF9393
:103130008C01EB018FE28993EE24E394FF246EE887
:10314000C62E61E0D62EC00ED11E5DE1B52E14C094
:10315000FB9CC001112482599F4F800F911FBE011B
:103160000E94157002C02196E3948881882319F08B
:103170008CE88E15C0F7F3942F2D30E0F601808196
:1031800091812817390720F3E7FC07C0C8018B5449
:103190009E4FBE010E94157001C01882DF91CF9131
:1031A0001F910F91FF90EF90DF90CF90BF90089507
:1031B0002F923F924F925F926F927F928F929F9247
:1031C000AF92BF92CF92DF92EF92FF920F931F9335
:1031D000DF93CF93CDB7DEB7AB970FB6F894DEBFD2
:1031E0000FBECDBF6C014B014BA7DC0114968C9137
:1031F000882309F44BC3E8EBF1E0CE0EDF1ED601C5
:103200008C91E8E4FEEFCE0EDF1E882309F419C18D
:10321000222309F0E1C020ED31E0C20ED31ED60119
:103220008C91E0E3FEEFCE0EDF1E882371F1EBE61A
:10323000F1E0949108C08091C00085FFFCCF90938D
:10324000C600319694919923B1F7EEEAF2E0949199
:1032500008C08091C00085FFFCCF9093C6003196D6
:1032600094919923B1F78AE495E061E070E04AE037
:1032700050E00E94A0288091C00085FFFCCF8AE02A
:103280008093C6000E94B92A01C3EBE3F1E0949158
:1032900008C08091C00085FFFCCF9093C600319696
:1032A00094919923B1F7E5E9F2E0949108C08091F7
:1032B000C00085FFFCCF9093C6003196949199236E
:1032C000B1F7F40107C08091C00085FFFCCF3196B3
:1032D0009093C60090819923B1F7EAE8F2E09491C7
:1032E00008C08091C00085FFFCCF9093C600319646
:1032F00094919923B1F7C60125ED31E0C20ED31E9A
:10330000B6010E948F184BEF5FEFC40ED51ED60199
:103310009C91E0E3FEEFCE0EDF1E8DE8989FF0015A
:103320001124EB52FE4FEC0DFD1D07C08091C00033
:1033300085FFFCCF31969093C60090819923B1F719
:10334000E4E8F2E0949108C08091C00085FFFCCFD2
:103350009093C600319694919923B1F72AE632E012
:10336000C20ED31ED6014D915D916D917C91E6E91F
:10337000FDEFCE0EDF1E8AE495E02AE030E00E94E9
:103380004C288091C00085FFFCCF8AE08093C60066
:10339000A60140535E4FDA012C91E22FF0E0EE0FD0
:1033A000FF1FEE0FFF1FEC0DFD1DEF52FE4F8AE6D3
:1033B00092E0C80ED91ED6014D905D906D907C9024
:1033C00086E99DEFC80ED91E4082518262827382C7
:1033D0002F5FDA012C932FC0EBE3F1E0949108C04A
:1033E0008091C00085FFFCCF9093C60031969491E8
:1033F0009923B1F7E3E7F2E0949108C08091C0000F
:1034000085FFFCCF9093C600319694919923B1F734
:10341000F40107C08091C00085FFFCCF31969093E6
:10342000C60090819923B1F78091C00085FFFCCF41
:103430008AE08093C600C6018B549E4F0E940370A1
:1034400039C0E0EDF1E0CE0EDF1ED6011C92E0E3C4
:10345000FEEFCE0EDF1EEBE3F1E0949108C0809109
:10346000C00085FFFCCF9093C600319694919923BC
:10347000B1F7E2E6F2E0949108C08091C00085FFC8
:10348000FCCF9093C600319694919923B1F7F40143
:1034900007C08091C00085FFFCCF31969093C60095
:1034A00090819923B1F78091C00085FFFCCF8AE01D
:1034B0008093C600D60112961C92129713961C9206
:1034C000188A1B8A88E694E09F878E87EDE4AE2EEB
:1034D000B12CAC0CBD1CE0E3F0E0CE0EDF1ED5013C
:1034E000CD92DC92E0EDFFEFCE0EDF1ED4018C9189
:1034F0008F3209F090C0C4016FE270E00E944B125D
:103500007C010894E11CF11C3E010894611C711CB3
:10351000250170E1272E312C2C0E3D1E77C0C701EE
:103520006FE270E00E944B125C01009709F481C0C9
:10353000E816F90608F07DC08C010E191F09C301B9
:10354000B701A8010E947412060D171DF801108220
:10355000F30107C08091C00085FFFCCF31969093A6
:10356000C60090819923B1F78091C00085FFFCCF00
:10357000FAE0F093C600D2016D917C91611571055E
:1035800019F460E070E002C06E5F7F4FC101A301DB
:1035900021E00E941077882371F5EEE4F2E0949127
:1035A00008C08091C00085FFFCCF9093C600319683
:1035B00094919923B1F7FE01319607C08091C00024
:1035C00085FFFCCF31969093C60090819923B1F787
:1035D000ECE4F2E0949108C08091C00085FFFCCF3C
:1035E0009093C600319694919923B1F78091C000D1
:1035F00085FFFCCF1BC12EE030E02C0F3D1FF201F8
:103600003183208375010894E11CF11CE114F1045D
:1036100009F085CF0BC04FE450E0C40ED51ED50194
:10362000CD92DC92E1EBFFEFCE0EDF1E082DF92CE0
:1036300001C00E2DF601E35BFF4F2BA5222309F4F9
:10364000B1C0608171816115710519F460E070E0AD
:1036500002C06E5F7F4FC6018B549E4F402F5F2D7F
:1036600021E00E941077882309F46CC046EC51E0F9
:10367000C40ED51ED6014D915D916D917C91ECE902
:10368000F0E0CE0EDF1ED6014D935D936D937C93DB
:103690001397EEE9FDEFCE0EDF1EEEE3F2E094911C
:1036A00008C08091C00085FFFCCF9093C600319682
:1036B00094919923B1F7802F9F2D9C01F90107C0A8
:1036C0008091C00085FFFCCF31969093C600908119
:1036D0009923B1F7E6E3F2E0949108C08091C0002D
:1036E00085FFFCCF9093C600319694919923B1F752
:1036F0008AE495E02AE030E00E944C288091C000E6
:1037000085FFFCCF8AE08093C6002AE632E0C20E35
:10371000D31ED6011D921D921D921C921397E8E2B2
:10372000F2E0949108C08091C00085FFFCCF909397
:10373000C600319694919923B1F78091C00085FF1E
:10374000FCCF99C0E4E1F2E0949108C08091C00000
:1037500085FFFCCF9093C600319694919923B1F7E1
:10376000802F9F2D9C01F90107C08091C00085FF2B
:10377000FCCF31969093C60090819923B1F7E2E196
:10378000F2E0949108C08091C00085FFFCCF909337
:10379000C600319694919923B1F78091C00085FFBE
:1037A000FCCF44C0608171816115710519F460E03E
:1037B00070E002C06E5F7F4FC6018B549E4F402F5A
:1037C0005F2D26E50E941077882309F033C0EEEFC5
:1037D000F1E0949108C08091C00085FFFCCF9093E8
:1037E000C600319694919923B1F7802F9F2D9C01AB
:1037F000F90107C08091C00085FFFCCF31969093FE
:10380000C60090819923B1F7ECEFF1E0949108C0E4
:103810008091C00085FFFCCF9093C60031969491B3
:103820009923B1F78091C00085FFFCCF8AE0809397
:10383000C60028C081E0F6018083EAEEF1E09491B1
:1038400008C08091C00085FFFCCF9093C6003196E0
:1038500094919923B1F7F40107C08091C00085FFCE
:10386000FCCF31969093C60090819923B1F7809157
:10387000C00085FFFCCF8AE08093C600802F9F2D7B
:103880000E94569BCE010E960E946E15AB960FB607
:10389000F894DEBF0FBECDBFCF91DF911F910F9186
:1038A000FF90EF90DF90CF90BF90AF909F908F9060
:1038B0007F906F905F904F903F902F900895EF9280
:1038C000FF920F931F93CF93DF93EC010E94FE7D35
:1038D0008E0100531E4FD8018C9195EBE92E91E09B
:1038E000F92EEC0EFD1E8823A9F1C7010E9403707A
:1038F000F8016081615060838DE8689FB0011124F8
:103900006B527E4F6C0F7D1FCE0141E021E00E9483
:10391000D818D801EC91F0E0EE0FFF1FEE0FFF1F5B
:10392000EC0FFD1FEF52FE4F408151816281738188
:10393000C659DD4F488359836A837B83CA56D24078
:10394000C7010E94EB6E8C81882399F181E08A8304
:103950001B822FC00E94DB7DC7010E9403701A8268
:103960001B828FE291E00E940D5480915E0A8823B1
:1039700001F110925E0A80910508C82FD0E0CC0FAB
:10398000DD1FCB55DE4E68817981882777FD8095D4
:10399000982F0E9417E82091AC033091AD0340911D
:1039A000AE035091AF030E9483E9181614F41982F4
:1039B0001882DF91CF911F910F91FF90EF900895A2
:1039C000FC0181E08183CF0140E021E00E94D81812
:1039D0000895EF92FF920F931F93CF93DF937C0193
:1039E000FC01148285A9882321F0C701C2960E9498
:1039F0000370870100571E4FC80160E045E30E9435
:103A0000A96D882309F5EBE3F1E0949108C080915A
:103A1000C00085FFFCCF9093C60031969491992306
:103A2000B1F7EFE1F3E0949108C08091C00085FF09
:103A3000FCCF9093C600319694919923B1F7809171
:103A4000C00085FFFCCF7DC0E701CB56DE4FCE0125
:103A5000B80141E00E94A778882341F5CE01B80162
:103A600040E00E94A778882309F5EBE6F1E0949105
:103A700008C08091C00085FFFCCF9093C6003196AE
:103A800094919923B1F7ECE0F3E0949108C0809110
:103A9000C00085FFFCCF9093C60031969491992386
:103AA000B1F78091C00085FFFCCF4BC0C701C29623
:103AB000BE010E940473882309F5EBE6F1E09491BE
:103AC00008C08091C00085FFFCCF9093C60031965E
:103AD00094919923B1F7ECEFF2E0949108C08091B2
:103AE000C00085FFFCCF9093C60031969491992336
:103AF000B1F78091C00085FFFCCF23C081E0F701C2
:103B00008483EBE3F1E0949108C08091C00085FFCD
:103B1000FCCF9093C600319694919923B1F7E1EFD1
:103B2000F2E0949108C08091C00085FFFCCF909393
:103B3000C600319694919923B1F78091C00085FF1A
:103B4000FCCF8AE08093C600D701AF5ABF4FF70180
:103B5000F2968BE101900D928150E1F7C701C0967A
:103B60002DE430E0E20EF31EF70191838083DF91B4
:103B7000CF911F910F91FF90EF9008952F923F9258
:103B80004F925F926F927F929F92AF92BF92CF922D
:103B9000DF92EF92FF920F931F93DF93CF93CDB7F6
:103BA000DEB7CC55D0400FB6F894DEBF0FBECDBF08
:103BB0006C01662311F52EE632E0C20ED31ED6014B
:103BC0008C91E2E9FDEFCE0EDF1E882309F4E4C0FC
:103BD00026E632E0C20ED31ED601ED90FD900D9187
:103BE0001C91EAE9FDEFCE0EDF1E0E9421DFE616F2
:103BF000F7060807190708F4CFC02EE632E0C20E18
:103C0000D31ED6011C92E2E9FDEFCE0EDF1ED601D7
:103C100014968C91882341F4C6010E94E91CF60198
:103C20008481882309F4B8C000D000D0EDB7FEB776
:103C300031967E010894E11CF11CADB7BEB7129617
:103C4000FC92EE92119782E691E093838283D601F3
:103C50009E968D919C919F97958384830E94831259
:103C60008701EDB7FEB736960FB6F894FEBF0FBECC
:103C7000EDBF57010AC0D8018C91992787FD909517
:103C80000E94B8EBF80181938F01F50101900020AB
:103C9000E9F73197EA19FB09802F8E198E175CF32B
:103CA00052E3A52EB12CAC0CBD1CC50140E050E088
:103CB00060E070E00E94EB6E99244DE3E42EF12C5D
:103CC000EC0EFD1E2E010894411C511C3FE1632E99
:103CD000712C6C0E7D1E2BE5222E21E0322E42C06F
:103CE000D8018C9190E00E94B8EBF80181938F018C
:103CF000D7010D900020E9F71197AE19BF09802F69
:103D00008E198A176CF327968FAD27978E3751F14E
:103D1000C701B20145E050E00E946612009711F51C
:103D200000D000D0EDB7FEB73196ADB7BEB7129652
:103D30007C926E92119733822282558244820E9435
:103D40008312EDB7FEB736960FB6F894FEBF0FBEDE
:103D5000EDBFC3010E94865487E591E00E940D5497
:103D600099249394C501B70140E050E00E9420726D
:103D7000181614F48701BCCF992041F48FEF9FEF00
:103D8000D6019F969C938E939E9706C0F60186A5BA
:103D900097A5019697A786A7C45ADF4F0FB6F89448
:103DA000DEBF0FBECDBFCF91DF911F910F91FF906E
:103DB000EF90DF90CF90BF90AF909F907F906F90EB
:103DC0005F904F903F902F9008952F923F924F9287
:103DD0005F926F927F928F929F92AF92BF92CF929B
:103DE000DF92EF92FF920F931F93DF93CF93CDB7A4
:103DF000DEB7CB58D0400FB6F894DEBF0FBECDBFB4
:103E00008C013B016A0182E090E0C80ED91EF801E6
:103E10007296CB57DF4FF983E883C558D040C8016D
:103E20000596CE57DF4F99838883C258D040CC5730
:103E3000DF4F1882C458D040A2E6EA2EF12CEC0ED7
:103E4000FD1EF7013B96C957DF4FF983E883C7583A
:103E5000D040FFE68F2EF2E09F2E800E911EE1E70C
:103E6000AE2EE2E0BE2EA00EB11E7EE0472E512CFB
:103E70004C0E5D1E65E4262E312C2C0E3D1EC1011C
:103E80000296C757DF4F99838883C958D040EBE328
:103E9000F1E09491C557DF4F9883CB58D04049C18A
:103EA000F7018385482F50E0BA0168717070603166
:103EB000710509F04CC1F4012081318121303105B7
:103EC00009F445C12230310509F441C1F701DE0191
:103ED00011969081903239F08E2F8E19883011F41E
:103EE0008EE28D939D933196C957DF4F88819981DA
:103EF000C758D040E817F90761F71C921E86F301F6
:103F00008081882329F4C20160E072E00E9440129F
:103F1000C201B3010E944012C201BE016F5F7F4F18
:103F20000E944012C20160E072E00E9440121AA694
:103F30001DA688E694E099A788A7CE018A96B601C7
:103F4000AE014F5F5F4F21E00E941077882309F098
:103F50003FC0F40180819181892BD1F5C557DF4F96
:103F60009881CB58D040EBE3F1E008C08091C000CD
:103F700085FFFCCF9093C600319694919923B1F7B9
:103F8000E2E0F2E007C08091C00085FFFCCF3196EF
:103F90009093C60090819923B1F78091C00085FF6E
:103FA000FCCFFAE0F093C600FE01319607C0809185
:103FB000C00085FFFCCF31969093C6009081992375
:103FC000B1F78091C00085FFFCCF8AE08093C600E6
:103FD000C757DF4FA881B981C958D040FE01BA96B2
:103FE0008BE101900D928150E1F788E694E0F101B8
:103FF00091838083C801B201A1010E94E51EC10125
:104000000E946E15CE0188960E946E1592C0953E54
:1040100009F48FC09E3209F48CC09F3509F489C021
:10402000F8019289992331F09E3209F482C09F35BC
:1040300009F47FC043FD7DC080E06031710509F463
:1040400081E0F80185A7882349F4F701808587344A
:1040500009F06FC081858E3709F46BC0CE57DF4FF2
:10406000A881B981C258D040F7018081803241F0E7
:104070008E2F8E19883011F48EE28D9380818D936E
:104080003196C957DF4F88819981C758D040E817CA
:10409000F90759F71C92F40180819181009729F565
:1040A000F30107C08091C00085FFFCCF319690934B
:1040B000C60090819923B1F7CE57DF4FE881F9818F
:1040C000C258D04007C08091C00085FFFCCF319618
:1040D0009093C60090819923B1F78091C00085FF2D
:1040E000FCCFFAE0F093C60024C08130910539F48A
:1040F000F501808191810196918380831AC0029796
:10410000C1F4CC57DF4FF881C458D0402F2F30E096
:10411000F5018081918128173907F1F0CC57DF4FE5
:10412000F881C458D040FF5FCC57DF4FF883C458A4
:10413000D040C601B701CB57DF4F48815981C558E0
:10414000D0400E94207218160CF4AACE05C0F701C8
:104150009081992309F05BCFC557DF4F0FB6F894D4
:10416000DEBF0FBECDBFCF91DF911F910F91FF90AA
:10417000EF90DF90CF90BF90AF909F908F907F9007
:104180006F905F904F903F902F900895EF92FF9225
:104190000F931F93DF93CF93CDB7DEB76D970FB615
:1041A000F894DEBF0FBECDBF7C018C01035B1F4FB7
:1041B000815B9F4FD8018D939C93EFE6F2E0EE0E6A
:1041C000FF1E21E030E0D7012D933D937D011D922C
:1041D0001C92EFE8FDEFEE0EFF1E029640E050E06D
:1041E00060E070E00E94EB6ED801ED91FC91DE0181
:1041F000139632968BE101900D928150E1F788E69B
:1042000094E09A838983C70165E172E08E010F5FB4
:104210001F4FA8010E94E51EC8010E946E15F701FC
:10422000EF58FD4F808191816D960FB6F894DEBFF7
:104230000FBECDBFCF91DF911F910F91FF90EF90F7
:104240000895EF92FF920F931F93DF93CF93CDB713
:10425000DEB76D970FB6F894DEBF0FBECDBF7C0101
:104260008C01035B1F4F815B9F4FD8018D939C9303
:10427000EFE6F2E0EE0EFF1E22E030E0D7012D93D4
:104280003C93E1E9FDEFEE0EFF1EF701EF58FD4F05
:1042900060831182029640E050E060E070E00E948E
:1042A000EB6ED801ED91FC91DE01139632968BE115
:1042B00001900D928150E1F788E694E09A8389831A
:1042C000C70165E172E08E010F5F1F4FA8010E94D8
:1042D000E51EC8010E946E156D960FB6F894DEBFFC
:1042E0000FBECDBFCF91DF911F910F91FF90EF9047
:1042F0000895EF92FF920F931F93DF93CF93CDB763
:10430000DEB76D970FB6F894DEBF0FBECDBF7C0150
:104310008FE692E0E80EF91EF7011182108281E922
:104320009DEFE80EF91E87010E5C1F4FC80140E0AB
:1043300050E060E070E00E94EB6EDE011396F80141
:104340008BE101900D928150E1F788E694E09A8329
:104350008983C70165E172E08E010F5F1F4FA801DD
:104360000E94E51EC8010E946E156D960FB6F89466
:10437000DEBF0FBECDBFCF91DF911F910F91FF9098
:10438000EF9008950F931F93CF93DF93FC0112AA30
:1043900015AA88E694E091AB80ABEF5AFF4F1082EC
:1043A00033961082359791838083EF54F040EF016C
:1043B000C459DF4FDE0120E030E0482F12961C92F6
:1043C000129715961C9215974C9311969C931197E2
:1043D000235E3F4F5D9681E02232380779F7EF5632
:1043E000FE4F89E180833396108278961082399649
:1043F000108233961082359740839183E155FF4FA9
:1044000010821182128213823896108211821282D7
:104410001382EA56F24012821382148210821182B1
:104420008F010A591D4FD8011D921D921D921C9299
:104430001397E257FE4F11821082EE5BFF4F1082FE
:10444000DE01C9011D920197E9F7E256FF4F81E0B5
:104450008083EE56F24017A616A60E9421DF685709
:104460007C4E8F4F9F4FD8016D937D938D939C937E
:104470001397DF91CF911F910F910895DF93CF9301
:10448000CDB7DEB7E0970FB6F894DEBF0FBECDBF55
:10449000DE011196E0E1F4E080E101900D9281509F
:1044A000E1F7DE015196E0E0F4E080E101900D9249
:1044B0008150E1F7DE019196E0EFF3E080E10190B9
:1044C0000D928150E1F789819A81AB81BC81809303
:1044D000020A9093030AA093040AB093050A8989FB
:1044E0009A89AB89BC898093F2099093F309A093D0
:1044F000F409B093F50989A19AA1ABA1BCA180935D
:10450000120A9093130AA093140AB093150A8D818E
:104510009E81AF81B8858093060A9093070AA09385
:10452000080AB093090A8D899E89AF89B88D809356
:10453000F6099093F709A093F809B093F9098DA1B2
:104540009EA1AFA1B8A58093160A9093170AA093D5
:10455000180AB093190A89859A85AB85BC85809322
:104560000A0A90930B0AA0930C0AB0930D0A898D46
:104570009A8DAB8DBC8D8093FA099093FB09A09323
:10458000FC09B093FD0989A59AA5ABA5BCA58093AC
:104590001A0A90931B0AA0931C0AB0931D0A8D85DA
:1045A0009E85AF85B88980930E0A90930F0AA093D9
:1045B000100AB093110A8D8D9E8DAF8DB8A1809396
:1045C000FE099093FF09A093000AB093010A8DA5FC
:1045D0009EA5AFA5B8A980931E0A90931F0AA09329
:1045E000200AB093210A0E94AC5980E090E8ABE326
:1045F000B5E48093260A9093270AA093280AB093E3
:10460000290A80932A0A90932B0AA0932C0AB0932C
:104610002D0A20E030E040E050E02093220A309361
:10462000230A4093240A5093250A80E29EE4A0E0E6
:10463000B0E08093EE099093EF09A093F009B09356
:10464000F10920933A0A30933B0A40933C0A509375
:104650003D0A80E090E0A0EAB1E480932E0A9093B6
:104660002F0AA093300AB093310A8DEC9CECACEC8D
:10467000BEE38093320A9093330AA093340AB09336
:10468000350A80E090E0A0EAB0E48093360A909387
:10469000370AA093380AB093390A2093DE07309383
:1046A000DF074093E0075093E1072093DA07309348
:1046B000DB074093DC075093DD072093D607309348
:1046C000D7074093D8075093D90784EB90E0909395
:1046D00027128093261287E390E09093291280930B
:1046E000281210922B1210922A1280EF90E09093D1
:1046F0002D1280932C1284E690E090932F128093D9
:104700002E1210923112109230128AE999E9A1EB1F
:10471000B1E48093BD039093BE03A093BF03B09315
:10472000C00361E77DE38AE89FE30E94F786609318
:10473000C1037093C2038093C3039093C40360E0EA
:1047400070E084EE92E40E9405876093C503709345
:10475000C6038093C7039093C8030E94028680E03B
:1047600090E0A0E8BFE38093C9039093CA03A093AD
:10477000CB03B093CC03ECE2F3E0949108C08091BA
:10478000C00085FFFCCF9093C60031969491992389
:10479000B1F7E2E3F3E0949108C08091C00085FF97
:1047A000FCCF9093C600319694919923B1F78091F4
:1047B000C00085FFFCCF8AE08093C600E0960FB66C
:1047C000F894DEBF0FBECDBFCF91DF910895CF9398
:1047D000DF93CCE2D3E0FE01949108C08091C00049
:1047E00085FFFCCF9093C600319694919923B1F741
:1047F000ECE0F5E0949108C08091C00085FFFCCF0B
:104800009093C600319694919923B1F78091C0009E
:1048100085FFFCCF8AE08093C600FE019491ECE214
:10482000F3E008C08091C00085FFFCCF9093C600E4
:10483000319694919923B1F74091020A5091030A5D
:104840006091040A7091050A84E095E00E94463068
:104850004091060A5091070A6091080A7091090A6E
:1048600081E095E00E94463040910A0A50910B0A7F
:1048700060910C0A70910D0A8EEF94E00E94463010
:1048800040910E0A50910F0A6091100A7091110A1E
:104890008BEF94E00E944630E6E1F2E007C08091A1
:1048A000C00085FFFCCF31969093C600908199237C
:1048B000B1F78091C00085FFFCCF8AE08093C600ED
:1048C000FE019491ECE2F3E008C08091C00085FF06
:1048D000FCCF9093C600319694919923B1F7E1EE05
:1048E000F4E0949108C08091C00085FFFCCF9093C4
:1048F000C600319694919923B1F78091C00085FF4D
:10490000FCCF8AE08093C600FE019491ECE2F3E0D4
:1049100008C08091C00085FFFCCF9093C6003196FF
:1049200094919923B1F74091F2095091F309609164
:10493000F4097091F50988ED94E00E9446304091A9
:10494000F6095091F7096091F8097091F90985ED20
:1049500094E00E9446304091FA095091FB09609121
:10496000FC097091FD0982ED94E00E94463040916F
:10497000FE095091FF096091000A7091010A8FECC5
:1049800094E00E944630E6E1F2E007C08091C0006A
:1049900085FFFCCF31969093C60090819923B1F7A3
:1049A0008091C00085FFFCCF8AE08093C600FE01A5
:1049B0009491ECE2F3E008C08091C00085FFFCCF49
:1049C0009093C600319694919923B1F7E1EBF4E00E
:1049D000949108C08091C00085FFFCCF9093C600E1
:1049E000319694919923B1F78091C00085FFFCCF57
:1049F0008AE08093C600FE019491ECE2F3E008C0E7
:104A00008091C00085FFFCCF9093C60031969491B1
:104A10009923B1F74091120A5091130A6091140A38
:104A20007091150A88EA94E00E945A304091160A63
:104A30005091170A6091180A7091190A85EA94E05A
:104A40000E945A3040911A0A50911B0A60911C0A28
:104A500070911D0A82EA94E00E945A3040911E0A29
:104A600050911F0A6091200A7091210A8FE994E009
:104A70000E945A30E6E1F2E007C08091C00085FF55
:104A8000FCCF31969093C60090819923B1F7809125
:104A9000C00085FFFCCF8AE08093C600FE019491A0
:104AA000ECE2F3E008C08091C00085FFFCCF90935A
:104AB000C600319694919923B1F7EAE6F4E0949117
:104AC00008C08091C00085FFFCCF9093C60031964E
:104AD00094919923B1F78091C00085FFFCCF8AE0C3
:104AE0008093C600FE019491ECE2F3E008C080914F
:104AF000C00085FFFCCF9093C60031969491992316
:104B0000B1F74091260A5091270A6091280A7091C6
:104B1000290A81E694E00E94463040912A0A509189
:104B20002B0A60912C0A70912D0A8EE594E00E9468
:104B30004630E6E1F2E007C08091C00085FFFCCF7F
:104B400031969093C60090819923B1F78091C0006F
:104B500085FFFCCF8AE08093C600FE019491ECE2D1
:104B6000F3E008C08091C00085FFFCCF9093C600A1
:104B7000319694919923B1F7EBEAF3E0949108C050
:104B80008091C00085FFFCCF9093C6003196949130
:104B90009923B1F78091C00085FFFCCF8AE0809314
:104BA000C600FE019491ECE2F3E008C08091C000E1
:104BB00085FFFCCF9093C600319694919923B1F76D
:104BC0004091220A5091230A6091240A7091250A8B
:104BD00082EA93E00E94463040913A0A50913B0AA3
:104BE00060913C0A70913D0A8FE993E00E94463043
:104BF0004091EE095091EF096091F0097091F1092F
:104C00008CE993E00E945A3040912E0A50912F0A6D
:104C10006091300A7091310A89E993E00E94463030
:104C20004091320A5091330A6091340A7091350AEA
:104C300086E993E00E9446304091360A5091370A47
:104C40006091380A7091390A83E993E00E944630F6
:104C5000E6E1F2E007C08091C00085FFFCCF31960D
:104C60009093C60090819923B1F78091C00085FF91
:104C7000FCCF8AE08093C600FE019491ECE2F3E061
:104C800008C08091C00085FFFCCF9093C60031968C
:104C900094919923B1F7E1E8F3E0949108C08091F1
:104CA000C00085FFFCCF9093C60031969491992364
:104CB000B1F78091C00085FFFCCF8AE08093C600E9
:104CC000FE019491ECE2F3E008C08091C00085FF02
:104CD000FCCF9093C600319694919923B1F74091FF
:104CE000D6075091D7076091D8077091D90788E708
:104CF00093E00E9446304091DA075091DB076091C3
:104D0000DC077091DD0785E793E00E944630409113
:104D1000DE075091DF076091E0077091E10782E7BD
:104D200093E00E944630E6E1F2E007C08091C000C7
:104D300085FFFCCF31969093C60090819923B1F7FF
:104D40008091C00085FFFCCF8AE08093C600FE0101
:104D50009491ECE2F3E008C08091C00085FFFCCFA5
:104D60009093C600319694919923B1F7E4E6F3E06D
:104D7000949108C08091C00085FFFCCF9093C6003D
:104D8000319694919923B1F78091C00085FFFCCFB3
:104D90008AE08093C600FE019491ECE2F3E008C043
:104DA0008091C00085FFFCCF9093C600319694910E
:104DB0009923B1F74091BD035091BE036091BF03A9
:104DC0007091C0038AE593E00E9446306091C10370
:104DD0007091C2038091C3039091C4030E94FE8628
:104DE000AB01BC0187E593E00E9446306091C503AA
:104DF0007091C6038091C7039091C8030E940C87ED
:104E0000AB01BC0184E593E00E944630E6E1F2E0AC
:104E100007C08091C00085FFFCCF31969093C600FB
:104E200090819923B1F78091C00085FFFCCF8AE083
:104E30008093C600DF91CF9108951F920F920FB615
:104E40000F920BB60F9211242F933F934F938F9392
:104E50009F93EF93FF934091C600E0914605F09138
:104E6000470531969F012F77307031978091480523
:104E7000909149052817390739F0EA53FB4F4083D1
:104E80003093470520934605FF91EF919F918F91B5
:104E90004F913F912F910F900BBE0F900FBE0F902F
:104EA0001F9018959A01AB01203081EE380780E001
:104EB000480780E0580749F182E08093C00060E035
:104EC00079E08DE390E00E948FEB2150304040402C
:104ED0005040CA01B90122E030E040E050E00E94B9
:104EE0008FEB3093C5002093C4008091C100806196
:104EF0008093C1008091C10088608093C10080913F
:104F0000C10080688093C10008951092C00020E124
:104F100030E0E7CF20914805309149058091460562
:104F2000909147058217930719F42FEF3FEF0EC0BA
:104F3000F901EA53FB4F80812F5F3F4F2F7730708D
:104F40003093490520934805282F30E0C901089582
:104F500080914805909149059093470580934605B7
:104F6000089508952F923F924F925F926F927F9291
:104F70008F929F92AF92BF92CF92DF92EF92FF9269
:104F80000F931F93DF93CF93CDB7DEB7A0970FB6E4
:104F9000F894DEBF0FBECDBF1C016A017B01411535
:104FA00051056105710549F440E350E060E070E0AF
:104FB00020E030E00E946B2856C0882499245401D8
:104FC000422E55246624772401E010E00C0F1D1FAB
:104FD000080D191DC701B601A30192010E946DEBD6
:104FE000F80160830894811C911CA11CB11CC701AD
:104FF000B601A30192010E946DEBC901DA016C01B7
:105000007D01C114D104E104F104F1F681E0E82E40
:10501000F12CEC0EFD1EE80CF91C3E010894611CFD
:10502000711CD501C4010197A109B1096C01C8180F
:10503000D90816C0F601EE0DFF1D40814A3010F46C
:10504000405D01C0495C552747FD5095652F752F80
:10505000C10120E030E00E946B280894E108F108CB
:105060006E147F0439F7A0960FB6F894DEBF0FBE1A
:10507000CDBFCF91DF911F910F91FF90EF90DF9007
:10508000CF90BF90AF909F908F907F906F905F90E8
:105090004F903F902F9008952115310539F480915C
:1050A000C00085FFFCCF4093C60008950E94B22740
:1050B0000895EF92FF920F931F939A01E62EFF241B
:1050C00000E010E0B801A7010E944C281F910F9149
:1050D000FF90EF900895EF92FF920F931F93CF935D
:1050E000DF93EC017A018B012115310539F48091B0
:1050F000C00085FFFCCFE092C6001BC02A303105FE
:10510000B1F477FF10C04DE250E060E070E020E0C5
:1051100030E00E946B2810950095F094E094E11C1B
:10512000F11C011D111DCE01B801A7012AE00E944A
:10513000B227DF91CF911F910F91FF90EF900895CB
:10514000EF92FF920F931F937B019A010027F7FCC8
:105150000095102FB801A7010E946B281F910F9195
:10516000FF90EF9008950F931F938C014DE050E056
:1051700060E070E020E030E00E946B28C8014AE067
:1051800050E060E070E020E030E00E946B281F916A
:105190000F910895CF92DF92EF92FF920F931F939A
:1051A0008C019A016B01EE24FF24B701A6010E9435
:1051B0004C28C8010E94B3281F910F91FF90EF90D7
:1051C000DF90CF9008959F92AF92BF92CF92DF92DF
:1051D000EF92FF920F931F93CF93DF93EC017A012D
:1051E0008B01922ECB01BA0120E030E040E050E08C
:1051F0000E9475E788236CF4CE014DE250E060E038
:1052000070E020E030E00E946B2817FB109517F942
:10521000109520E030E040E05FE3AA240BC0CA0113
:10522000B90120E030E040E251E40E947CE79B01BC
:10523000AC01A394A91498F3C801B7010E949CE69D
:105240007B018C010E94E9E75B016C010E9415E87B
:105250009B01AC01C801B7010E949BE67B018C0158
:10526000CE01B601A5012AE030E00E944C28992029
:10527000A1F1E7E1F2E007C08091C00085FFFCCF1B
:1052800031969093C60090819923B1F726C0C8014A
:10529000B70120E030E040E251E40E9455EA7B0192
:1052A0008C010E94E4E75B016C01CC24B7FCC09444
:1052B000DC2CCE01B601A5012AE030E00E946B286B
:1052C000C601B5010E9417E89B01AC01C801B701F6
:1052D0000E949BE67B018C019A949920C1F6DF9194
:1052E000CF911F910F91FF90EF90DF90CF90BF90E3
:1052F000AF909F9008950E94E3280895EF92FF9247
:105300000F931F93CF93DF93EC01E090E207F090AF
:10531000E3070091E4071091E507688179818A81AC
:105320009B81A80197010E9475E7882324F4E882F5
:10533000F9820A831B83E090E607F090E70700916B
:10534000E8071091E9076C817D818E819F81A8011A
:1053500097010E9475E7882324F4EC82FD820E8376
:105360001F83E090EA07F090EB070091EC071091A3
:10537000ED07688579858A859B85A80197010E943C
:1053800075E7882324F4E886F9860A871B87E0906E
:105390008103F0908203009183031091840368815C
:1053A00079818A819B81A80197010E9483E918165F
:1053B00024F4E882F9820A831B83E0908503F0904D
:1053C000860300918703109188036C817D818E8113
:1053D0009F81A80197010E9483E9181624F4EC82AA
:1053E000FD820E831F83E0908903F0908A03009171
:1053F0008B0310918C03688579858A859B85A8012C
:1054000097010E9483E9181624F4E886F9860A8732
:105410001B87DF91CF911F910F91FF90EF9008951F
:105420008091210808950F931F93CF93DF938130CC
:10543000910549F46F5F7F4F09F046C08BE495E01A
:105440000E94C22141C0892B09F03EC06F5F7F4F8F
:10545000D9F588E694E09093FF068093FE0680914C
:105460000307882321F080E097E00E940370CCEBD3
:10547000D6E008E614E005C06D9785E0CA39D80784
:1054800051F0198308838D818823B1F3CE010296F0
:105490000E940370F1CF88E694E0998388838D8120
:1054A000882321F0CE0102960E94037088E694E0E2
:1054B00090937C0580937B0580918005882321F063
:1054C0008DE795E00E940370DF91CF911F910F91BE
:1054D000089580E090E06FEF7FEF0E94132A089517
:1054E00081E090E06FEF7FEF0E94132A08950E9401
:1054F000E18680912108882309F03AC081E08093F9
:1055000021088091240890912508A0912608B09147
:1055100027088093280890932908A0932A08B0931D
:105520002B08E2E2F5E0949108C08091C00085FF6D
:10553000FCCF9093C600319694919923B1F7E3E3A1
:10554000F5E0949108C08091C00085FFFCCF909356
:10555000C600319694919923B1F78091C00085FFE0
:10556000FCCF8AE08093C60089E295E00E94339BDD
:105570000895F8940E94E186159A1092EE07179A02
:105580001092EF07429A1092F007A09A8FB7F89402
:1055900090910B01926090930B018FBF8CE060E0C3
:1055A0000E94CFE0E2E2F5E0949108C08091C00053
:1055B00085FFFCCF9093C600319694919923B1F763
:1055C000E2EBF5E0949108C08091C00085FFFCCF2C
:1055D0009093C600319694919923B1F78091C000C1
:1055E00085FFFCCF8AE08093C60089EA95E00E949F
:1055F000429B809A8898FFCF0E9421DF60932E08FB
:1056000070932F088093300890933108E0915708E9
:10561000F0915808E75AF74F80818823A9F4E1ED0B
:10562000F5E0949108C08091C00085FFFCCF909375
:10563000C600319694919923B1F78091C00085FFFF
:10564000FCCF8AE08093C60008950E9421DF60931A
:105650002E0870932F088093300890933108089596
:105660006F927F928F929F92AF92BF92CF92DF9272
:10567000EF92FF920F931F93F82E6091360870916E
:105680003708809138089091390820913A08309174
:105690003B0840913C0850913D080E9490E93B0135
:1056A0004C0100D000D00DB71EB70F5F1F4F6091A7
:1056B000710370917203882777FD8095982F0E945F
:1056C00017E82091A3033091A4034091A5035091C2
:1056D000A6030E9455EA20E030E040E752E40E9431
:1056E0007CE720E030E048EC52E40E947CE75B017C
:1056F0006C01F8016082718282829382F4828091CF
:105700000508858386EC97E062E478E046E358E09C
:1057100020E001E032E0E32E0E94FF548091420835
:1057200090914308A0914408B09145088093C60722
:105730009093C707A093C807B093C9078091460804
:1057400090914708A0914808B09149088093CA07F2
:105750009093CB07A093CC07B093CD0780914A08D4
:1057600090914B08A0914C08B0914D088093CE07C2
:105770009093CF07A093D007B093D10780914E08A4
:1057800090914F08A0915008B09151088093D20792
:105790009093D307A093D407B093D5078DB79EB746
:1057A00006960FB6F8949EBF0FBE8DBF0E9421DFF4
:1057B00060932E0870932F088093300890933108DF
:1057C0001F910F91FF90EF90DF90CF90BF90AF901F
:1057D0009F908F907F906F900895CF92DF92EF927D
:1057E000FF920F931F9382E498E00E947E290E940B
:1057F00021DF60932E0870932F08809330089093D8
:1058000031086091C6077091C7078091C8079091D1
:10581000C9072091420830914308409144085091B3
:1058200045080E9475E7882309F07AC06091CA078D
:105830007091CB078091CC079091CD0720914608BD
:105840003091470840914808509149080E9475E7F7
:10585000882309F065C06091A3037091A40380912F
:10586000A5039091A60320E030E040E752E40E94B7
:105870007CE77B018C0182E498E066E478E04AE40E
:1058800058E02EE438E0E5E0CE2EE8E0DE2E0E947F
:10589000425F8091420890914308A0914408B091E2
:1058A00045088093C6079093C707A093C807B09395
:1058B000C9078091460890914708A0914808B09187
:1058C00049088093CA079093CB07A093CC07B09365
:1058D000CD0780914A0890914B08A0914C08B09157
:1058E0004D088093CE079093CF07A093D007B09335
:1058F000D10780914E0890914F08A0915008B09127
:1059000051088093D2079093D307A093D407B09304
:10591000D5071F910F91FF90EF90DF90CF900895E2
:105920006091710370917203882777FD8095982F9D
:105930000E9417E82091A3033091A4034091A5038E
:105940005091A6030E9455EA20E030E040E752E47F
:105950000E947CE720E030E048EC52E488CF8AE403
:1059600095E00E94A827E4EDF5E0949108C08091AD
:10597000C00085FFFCCF9093C60031969491992387
:10598000B1F7409124085091250860912608709144
:1059900027084F5F5F4F6F4F7F4F8AE495E02AE003
:1059A00030E00E946B288091C00085FFFCCF8AE028
:1059B0008093C6000E94FC2A0895DF92EF92FF9226
:1059C0000F931F93D62E10910508882309F4C9C0A0
:1059D000212F30E0F901E75FF74F8081882309F03C
:1059E0009FC18091C6079091C707A091C807B09149
:1059F000C9078093420890934308A0934408B0934A
:105A000045088091CA079091CB07A091CC07B0912F
:105A1000CD078093460890934708A0934808B09319
:105A200049088091CE079091CF07A091D007B091FF
:105A3000D10780934A0890934B08A0934C08B093E9
:105A40004D08E090D207F090D3070091D407109151
:105A5000D507E0924E08F0924F080093500810933B
:105A60005108F901EE0FFF1FEE0FFF1F662359F0DB
:105A7000E758FC4F609191037091920380919303DA
:105A8000909194030AC0E758FC4F60918D03709188
:105A90008E0380918F039091900320813181428108
:105AA00053810E947CE79B01AC01C801B7010E94B1
:105AB0009CE66093D2077093D3078093D4079093AA
:105AC000D50782ED97E00E94D759E090A303F090AC
:105AD000A4030091A5031091A60360919503709112
