:100000000C9426120C9457120C9457120C945712FD
:100010000C9457120C9457120C9457120C945712BC
:100020000C9457120C9457120C9457120C945712AC
:100030000C9457120C94FBEB0C9457120C9457121F
:100040000C9457120C9498790C9457120C945712E4
:100050000C9457120C9457120C943B8D0C94B6E5EB
:100060000C9457120C9498180C9457120C94571225
:100070000C9457120C9457120C9457120C9457125C
:100080000C943C560C9457120C9457120C94571223
:100090000C9457120C9457120C9457120C9457123C
:1000A0000C9457120C9457120C9469560C945712D6
:1000B0000C9457120C9457120C9457120C94965699
:1000C0000C9457120C9457120C9457120C9457120C
:1000D0000C9457120C9457120C9457120C945712FC
:1000E0000C945712948DA38DBF8DCE8DE88DF78D16
:1000F000118E158E1D8EF7E6FCE601E70BE715E77E
:100100008EE71FE727E72FE739E743E74DE75CE78F
:1001100066E78EE770E77AE784E7B0E7B3E7A2E740
:10012000A6E7ACE7EAE7B7E7BBE7C1E7C5E7C9E79A
:10013000CFE7D3E7D7E7EAE7DDE7E1E7E5E7084A16
:10014000D73B3BCE016E84BCBFFDC12F3D6C7431EB
:100150009ABD56833DDA3D00C77F11BED9E4BB4C42
:100160003E916BAAAABE000000803F05A84CCDB20C
:10017000D44EB93836A9020C50B9918688083CA6ED
:10018000AAAA2ABE000000803F0048617264636F23
:100190006465642044656661756C7420536574748D
:1001A000696E6773204C6F616465640053746F728D
:1001B00065642073657474696E6773207265747208
:1001C0006965766564002044002049002020204DA8
:1001D0003330312050005049442073657474696E87
:1001E00067733A00205A0020590020204D323036E3
:1001F000205800486F6D65206F666673657420280F
:100200006D6D293A00204500205A002058002042F8
:100210000020540020204D323035205300416476B8
:10022000616E636564207661726961626C65733AC0
:1002300020533D4D696E206665656472617465206A
:10024000286D6D2F73292C20543D4D696E207472DA
:100250006176656C20666565647261746520286DE1
:100260006D2F73292C20423D6D696E696D756D206F
:100270007365676D656E742074696D6520286D7394
:10028000292C20583D6D6178696D756D2058592075
:100290006A65726B20286D6D2F73292C20205A3DC2
:1002A0006D6178696D756D205A206A65726B2028C2
:1002B0006D6D2F73292C2020453D6D6178696D751A
:1002C0006D2045206A65726B20286D6D2F732900A3
:1002D00020540020204D32303420530041636365A8
:1002E0006C65726174696F6E3A20533D616363653A
:1002F0006C65726174696F6E2C20543D7265747206
:1003000061637420616363656C65726174696F6EAB
:1003100000204500205A0020590020204D32303165
:100320002058004D6178696D756D20416363656C7F
:1003300065726174696F6E20286D6D2F7332293A72
:1003400000204500205A0020590020204D32303333
:100350002058004D6178696D756D20666565647221
:100360006174657320286D6D2F73293A0020450054
:10037000205A0020590020204D3932205800537453
:100380006570732070657220756E69743A005365EC
:100390007474696E67732053746F7265640065636B
:1003A000686F3A0053544F505045442E200050720D
:1003B000696E7465722073746F7070656420647503
:1003C0006520746F206572726F72732E2046697893
:1003D00020746865206572726F7220616E6420758A
:1003E0007365204D39393920746F207265737461DB
:1003F00072742E202854656D706572617475726513
:100400002069732072657365742E205365742069AA
:1004100074206166746572207265737461727469A8
:100420006E6729004B494C4C45442E2000507269A0
:100430006E7465722068616C7465642E206B696CE3
:100440006C28292063616C6C656421006F6B00521D
:100450006573656E643A20002200556E6B6E6F778F
:100460006E20636F6D6D616E643A20220043686197
:100470006E67652066696C616D656E74005A204F09
:100480006666736574203A20007A5F6D61783A2061
:10049000007A5F6D696E3A20005A204F6666736578
:1004A00074005A204F6666736574206F6B00486F46
:1004B00074656E64206F6666736574733A0022001B
:1004C000556E6B6E6F776E20636F6D6D616E643A03
:1004D0002022007A5F6D61783A20007A5F6D696E44
:1004E0003A2000795F6D61783A2000795F6D696E1E
:1004F0003A2000785F6D61783A2000785F6D696E10
:100500003A2000205A3A0020593A0020436F756E75
:100510007420583A200020453A00205A3A002059C9
:100520003A00583A004649524D574152455F4E41B4
:100530004D453A4D61726C696E2056313B205370C7
:1005400072696E7465722F6772626C206D61736878
:10055000757020666F722067656E36204649524D71
:10056000574152455F55524C3A687474703A2F2F78
:100570006669726D776172652E756C74696D616BF9
:1005800065722E636F6D2050524F544F434F4C5F36
:1005900056455253494F4E3A312E30204D41434833
:1005A000494E455F545950453A556C74696D616BBD
:1005B00065722045585452554445525F434F554E3D
:1005C000543A3220555549443A303030303030308A
:1005D000302D303030302D303030302D3030303024
:1005E0002D3030303030303030303030300A00553F
:1005F0006C74696D616B6572204F66662E00426592
:100600006420646F6E652E0020423A0020453A0057
:10061000543A004265642048656174696E672E0033
:1006200048656174696E6720646F6E652E0020579F
:100630003A0020453A00543A0048656174696E6793
:100640002E2E2E002042403A0020403A00202F005B
:100650003A00205400202F0020423A00202F006F43
:100660006B20543A002569206D696E2C2025692085
:1006700073656300456E642066696C65206C697300
:100680007400426567696E2066696C65206C6973E9
:1006900074004E6F206D6F76652E00526573756D18
:1006A000696E67207072696E7400576169742066A4
:1006B0006F7220757365722E2E2E00536C656570F7
:1006C0002E2E2E00256920686F75727320256920F3
:1006D0006D696E7574657300446F6E652070726924
:1006E0006E74696E672066696C650053544F505094
:1006F00045442E20005072696E7465722073746FC9
:10070000707065642064756520746F206572726F07
:1007100072732E2046697820746865206572726F46
:100720007220616E6420757365204D3939392074EB
:100730006F20726573746172742E202854656D7019
:100740006572617475726520697320726573657472
:100750002E2053657420697420616674657220725E
:10076000657374617274696E6729006F6B004E6FF8
:10077000204C696E65204E756D62657220776974D4
:100780006820636865636B73756D2C204C617374AE
:10079000204C696E653A20004E6F20436865636B9C
:1007A00073756D2077697468206C696E65206E754D
:1007B0006D6265722C204C617374204C696E653AD1
:1007C0002000636865636B73756D206D69736D617F
:1007D0007463682C204C617374204C696E653A20F8
:1007E000004C696E65204E756D62657220697320DC
:1007F0006E6F74204C617374204C696E65204E7569
:100800006D6265722B312C204C617374204C696EC3
:10081000653A20004D31313000446F6E65207361C0
:1008200076696E672066696C652E006F6B004D32CD
:1008300039002020506C616E6E6572427566666587
:100840007242797465733A20002046726565204DC6
:10085000656D6F72793A20004D6179203137203211
:1008600030323000436F6D70696C65643A2000442B
:10087000726179736F6E00207C20417574686F72AD
:100880003A20004D61792031372032303230203229
:10089000333A30343A323300204C6173742055704F
:1008A00064617465643A2000312E302E30004D6151
:1008B000726C696E0020536F6674776172652052A6
:1008C0006573657400205761746368646F672052B4
:1008D00065736574002042726F776E206F757420A7
:1008E0005265736574002045787465726E616C2082
:1008F000526573657400506F77657255700073743C
:10090000617274002200656E717565696E672022E0
:10091000002200656E717565696E67202200FFFF19
:10092000FF0000A0400000A0400000004000004D7B
:100930004300004D43000048430000000000000059
:10094000000000000000004D4300004D430000483F
:100950004300000000000000000000000065636824
:100960006F3A004572726F723A0041414141E14174
:100970004143454545454949494944EE4F4F4F4F4D
:10098000EF784F555555F55954E261616161E16168
:100990006163656565656969696964EE6F6F6F6F4D
:1009A000EFFD6F757575F5797479007C3C3E5E2BB3
:1009B0003D3F2F5B5D3B2C2A225C004D3834205894
:1009C0002059205A20450043616E6E6F7420656E79
:1009D000746572207375626469723A20004D323416
:1009E000004D3233202573006175746F25692E67C1
:1009F000006572726F722077726974696E67207415
:100A00006F2066696C65004E6F74205344207072CD
:100A1000696E74696E67002F005344207072696EAE
:100A200074696E67206279746520002E0044656CDD
:100A30006574696F6E206661696C65642C20466917
:100A40006C653A200046696C652064656C65746568
:100A5000643A002E006F70656E206661696C656493
:100A60002C2046696C653A200057726974696E677C
:100A700020746F2066696C653A20002E006F7065E7
:100A80006E206661696C65642C2046696C653A204D
:100A9000002E006F70656E206661696C65642C20A5
:100AA00046696C653A200046696C652073656C6523
:100AB00063746564002053697A653A200046696C66
:100AC00065206F70656E65643A20002E006F70655A
:100AD0006E206661696C65642C2046696C653A20FD
:100AE000004E6F772066726573682066696C653AA0
:100AF00020004E6F7720646F696E672066696C65B1
:100B00003A20002220706F73002220706172656E9F
:100B1000743A2200535542524F5554494E45204392
:100B2000414C4C207461726765743A22007472798A
:100B3000696E6720746F2063616C6C207375622D21
:100B400067636F64652066696C6573207769746894
:100B500020746F6F206D616E79206C6576656C73A3
:100B60002E204D4158206C6576656C2069733A00E3
:100B700053442063617264206F6B006F70656E5226
:100B80006F6F74206661696C656400766F6C756D5B
:100B9000652E696E6974206661696C6564005344F2
:100BA00020696E6974206661696C006563686F3ADC
:100BB000004572726F723A0020746F6F206C6F6E16
:100BC0006720657874727573696F6E2070726576D0
:100BD000656E7465640020636F6C64206578747260
:100BE0007573696F6E2070726576656E74656400EA
:100BF0006563686F3A00656E6473746F7073206824
:100C000069743A205A00205A3A00656E6473746F12
:100C10007073206869743A20590020593A00656E53
:100C20006473746F7073206869743A205800205898
:100C30003A00656E6473746F7073206869743A204B
:100C40000024F4D43050C38E20C2A24017828B708F
:100C500011127A910D816CD90AA861E108C7586612
:100C600007615143061E4B5D05C145A7041A41119A
:100C700004093D9803713931034036DB0265339135
:100C800002D4305402802E1D02632CEE01752AC559
:100C900001B028A001102781018F2564012B244B6E
:100CA00001E0223401AC211F018D200D01801FFCC9
:100CB00000841EED00971DDF00B81CD200E61BC6A5
:100CC00000201BBC00641AB200B219A8000A19A0C7
:100CD000006A189900D117910040178B00B516844F
:100CE0000031167E00B31579003A157300C7146FF2
:100CF0000058146A00EE1366008813630025135E23
:100D000000C7125B006C12570015125400C111513C
:100D10000070114F0021114B00D61049008D104773
:100D2000004610440002104200C00F4000800F3EF9
:100D300000420F3C00060F3B00CB0E3800930E37ED
:100D4000005C0E3500270E3400F30D3200C10D316A
:100D500000900D3000600D2E00320D2D00050D2C81
:100D600000D90C2B00AE0C2900850C29005C0C2747
:100D700000350C27000E0C2600E80B2400C40B24C1
:100D800000A00B23007D0B23005A0B2100390B21FF
:100D900000180B2000F80A1F00D90A1E00BB0A1E0B
:100DA000009D0A1D00800A1D00630A1C00470A1BE3
:100DB000002C0A1B00110A1A00F7091A00DD091994
:100DC00000C4091900AB091900920917007B091822
:100DD00000630917004C0916003609160020091691
:100DE000000A091500F5081500E0081400CC0814E5
:100DF00000B8081400A4081400900813007D08121D
:100E0000006B08130058081200460812003408113D
:100E100000230811001208110001081100F007104A
:100E200000E0071000D0071000C0071000B0070F47
:100E300000A107100091070E0083070F0074070F31
:100E40000065070E0057070E0049070E003B070D0F
:100E5000002E070E0020070D0013070D0006070DDA
:100E600000F9060C00ED060D00E0060C00D4060C9F
:100E700000C8060C00BC060C00B0060C00A4060B53
:100E80000099060C008D060B0082060B0077060BFE
:100E9000006C060B0061060A0057060B004C060AA0
:100EA0000042060A0038060A002E060A0024060A36
:100EB000001A060A001006090007060A00FD0509C7
:100EC00000F4050900EB050900E2050900D9050950
:100ED00000D0050900C7050900BE050900B50508D1
:100EE00000AD050800A50509009C0508009405084B
:100EF000008C050800840508007C050800740508BE
:100F0000006C050700650508005D0507005605082B
:100F1000004E050700470507004005080038050793
:100F200000310507002A050700230507001C0506F8
:100F300000160507000F0507000805060002050753
:100F400000FB040600F5040700EE040600E80406B2
:100F500000E2040700DB040600D5040600CF040607
:100F600000C9040600C3040600BD040600B7040659
:100F700000B1040500AC040600A6040600A00405A8
:100F8000009B04060095040500900406008A0405F1
:100F90000085040500800406007A04050075040538
:100FA00000700405006B040500660405006104057B
:100FB000005C04050057040500520405004D0405BB
:100FC0000048040500430405003E0404003A0405FB
:100FD0000035040500300404002C04050027040437
:100FE00000230405001E0404001A0404001604056E
:100FF00000110404000D04040009040500040404A5
:101000000000040400FC030400F8030400F40304DB
:1010100000F0030400EC030400E8030400E403040C
:1010200000E0030400DC030400D8030400D403043C
:1010300000D0030400CC030400C8030300C503036D
:101040000024F404D9201BC40C5C0E9804C4095F6E
:101050000265077101F405F900FB04B30048048739
:1010600000C10369005803550003034500BE023A5E
:10107000008402310053022A0029022500040220C4
:1010800000E4011C00C8011900AF01170098011409
:101090000084011300710110006101100051010E64
:1010A0000043010D0036010B002B010B0020010B4A
:1010B00000150109000C01090003010800FB0008EC
:1010C00000F3000800EB000700E4000600DE000665
:1010D00000D8000600D2000600CC000500C70005BD
:1010E00000C2000500BD000400B9000400B5000402
:1010F00000B1000400AD000400A9000400A5000335
:1011000000A20003009F0004009B0003009800035E
:10111000009500020093000300900003008D000280
:10112000008B000300880002008600020084000398
:1011300000810002007F0002007D0002007B0002AF
:1011400000790002007700010076000200740002BE
:101150000072000100710002006F0002006D0001CA
:10116000006C0002006A00010069000200670001D3
:1011700000660001006500010064000200620001D9
:101180000061000100600001005F0002005D0001DD
:10119000005C0001005B0001005A000100590001E1
:1011A00000580001005700010056000100550001E1
:1011B00000540001005300000053000100520001E0
:1011C0000051000100500001004F0001004E0000DE
:1011D000004E0001004D0001004C0001004B0000DA
:1011E000004B0001004A00010049000100480000D6
:1011F00000480001004700010046000000460001D1
:1012000000450000004500010044000100430000CB
:1012100000430001004200000042000100410000C4
:101220000041000100400001003F0000003F0001BC
:10123000003E0000003E0001003D0000003D0001B6
:10124000003C0000003C0000003C0001003B0000AE
:10125000003B0001003A0000003A000100390000A4
:10126000003900010038000000380000003800019B
:101270000037000000370001003600000036000093
:101280000036000100350000003500000035000187
:10129000003400000034000000340001003300007E
:1012A0000033000000330001003200000032000073
:1012B0000032000100310000003100000031000167
:1012C000003000000030000000300001002F00005E
:1012D000002F0000002F0000002F0001002E000052
:1012E000002E0000002E0001002D0000002D000047
:1012F000002D0000002D0001002C0000002C00003B
:10130000002C0000002C0001002B0000002B00002E
:10131000002B0000002B0001002A0000002A000022
:10132000002A0000002A0001002900000029000016
:101330000029000000290000002900010028000009
:1013400000280000002800000028000000280001FC
:1013500000270000002700000027000000270000F1
:1013600000270001002600000026000000260000E3
:1013700000260000002600010025000000250000D6
:1013800000250000002500000025000000250001C8
:1013900000240000002400000024000000240000BD
:1013A00000240001002300000023000000230000AF
:1013B00000230000002300000023000000230001A0
:1013C0000022000000220000002200000022000095
:1013D0000022000000220001002100000021000086
:1013E0000021000000210000002100000021000079
:1013F000002100010020000000200000002000006B
:10140000002000000020000000200000002000005C
:1014100000200001001F0000001F0000001F00004E
:10142000001F0000001F0000001F0000001F00013F
:10143000001E0000001E0000001E0000001E000034
:10144000006563686F3A004572723A204D41585406
:10145000454D50204245440054656D70657261747D
:1014600075726520686561746564206265642073C7
:1014700077697463686564206F66662E204D4158F5
:1014800054454D5020747269676765726564202108
:1014900021004572723A204D494E54454D50003A54
:1014A0002045787472756465722073776974636817
:1014B0006564206F66662E204D494E54454D502080
:1014C0007472696767657265642021004572723ABB
:1014D000204D415854454D50003A2045787472755E
:1014E000646572207377697463686564206F6666EB
:1014F0002E204D415854454D5020747269676765E0
:10150000726564202100202D20496E76616C69642B
:10151000206578747275646572206E756D6265728F
:10152000202100504944204175746F74756E652008
:1015300066696E69736865642120507574207468EB
:1015400065206C617374204B702C204B6920616E98
:1015500064204B6420636F6E7374616E74732066D5
:10156000726F6D2061626F766520696E746F2043C3
:101570006F6E66696775726174696F6E2E68005070
:101580004944204175746F74756E65206661696C9D
:101590006564212074696D656F75740020403A00A0
:1015A0006F6B20543A006F6B20423A005049442040
:1015B0004175746F74756E65206661696C65642130
:1015C0002054656D706572617475726520746F6FFB
:1015D000206869676800204B643A2000204B693A14
:1015E0002000204B703A200020436C6173736963C4
:1015F0002050494420002054753A2000204B753A71
:101600002000206D61783A2000206D696E3A20003C
:1016100020643A200020626961733A2000457272AA
:101620006F723A0070012C0190012701B001220174
:10163000C0011D01F00118011002130130020E015A
:101640006002090190020401C002FF000003FA00D9
:101650004003F5008003F000D003EB002004E60017
:101660007004E100E004DC004005D700C005D200B2
:101670004006CD00D006C8008007C3003008BE0079
:10168000F008B900C009B400B00AAF00B00BAA005E
:10169000D00CA500000EA000500F9B00C0109600BB
:1016A0005012910000148C00C0158700B017820002
:1016B000B0197D00D01B7800001E730040206E0022
:1016C00090226900F024640040275F0090295A00AE
:1016D000E02B5500102E500020304B0010324600F9
:1016E000E033410090353C0010373700703832004D
:1016F000A0392D00B03A2800A03B2300603C1E001A
:10170000103D1900903D1400103E0F00703E0A007D
:10171000C03E0500003F0000436172642072656DA9
:101720006F766564004361726420696E73657274DC
:10173000656400666F7220554D4F78002020202090
:101740002020202020202020202020202020006D6C
:1017500061726C696E6669726D776172652E6F7207
:1017600067002D2D2D2D2D2D0044726179736F6E24
:1017700020446576007C4D61726C696E7C20002D82
:101780002D2D2D2D2D002D2D3A2D2D002D2D2D0003
:101790005344000120000120000120004D3630316B
:1017A0002058313020593230205A30204C3330000C
:1017B0004D3630312058313020593230205A3220C5
:1017C0004C3330004D3630312058313020593230D2
:1017D000205A3230204C3330004D383420582059B4
:1017E000205A2045004730312058313020593130BF
:1017F000204635303030004D383420582059205A9A
:101800002045004730312058313020593130205A9E
:101810003130204635303030004D3234004D3233D7
:1018200020257300052E2E004D61696E004D363067
:1018300030004368616E67652066696C616D656E36
:101840007400466C6F77203100466C6F7720310052
:10185000466C6F77203000466C6F77203000466C06
:101860006F7700466C6F770046616E207370656518
:10187000640046616E2073706565640042656400B3
:10188000426564004E6F7A7A6C6532004E6F7A7AE8
:101890006C6532004E6F7A7A6C65004E6F7A7A6CA6
:1018A00065005370656564005370656564004D6143
:1018B000696E00496E73657274206D61746572693A
:1018C000616C2E2E2E00473120462569205A25694D
:1018D000004732380048656174696E672E2E2E000D
:1018E000496E73657274206D6174657269616C2EE6
:1018F0002E2E00473120462569205A25690047329F
:10190000380048656174696E672E2E2E004C6F6139
:101910006420504C412032004C6F616420504C4197
:101920002031005072657061726500496E73657296
:1019300074206D6174657269616C2E2E2E004731C2
:1019400020462569205A25690047323800486561DC
:1019500074696E672E2E2E00496E73657274206D49
:101960006174657269616C2E2E2E00473120462508
:1019700069205A2569004732380048656174696EEC
:10198000672E2E2E004C6F6164204142532032009E
:101990004C6F616420414253203100507265706188
:1019A00072650052656D6F7665206D617465726950
:1019B000616C2E2E2E00473120462569205A25695C
:1019C000004732380048656174696E672E2E2E001C
:1019D00052656D6F7665206D6174657269616C2EFC
:1019E0002E2E00473120462569205A2569004732AE
:1019F000380048656174696E672E2E2E00556E6C36
:101A00006F616420504C41203200556E6C6F6164F0
:101A100020504C4120310050726570617265005257
:101A2000656D6F7665206D6174657269616C2E2ECF
:101A30002E00473120462569205A25690047323853
:101A40000048656174696E672E2E2E00556C7469AE
:101A50006D616B65722072656164792E0052656DEF
:101A60006F7665206D6174657269616C2E2E2E0033
:101A7000473120462569205A2569004732380048F9
:101A8000656174696E672E2E2E00556E6C6F6164F1
:101A900020414253203200556E6C6F6164204142F8
:101AA0005320310050726570617265005072656834
:101AB00065617420504C4120426564005072656835
:101AC00065617420504C4120416C6C005072656817
:101AD00065617420504C4120320050726568656128
:101AE0007420504C41203100507265706172650065
:101AF00050726568656174204142532042656400FC
:101B0000507265686561742041425320416C6C00DD
:101B100050726568656174204142532032005072F2
:101B200065686561742041425320310050726570D0
:101B300061726500436F6F6C646F776E0050726501
:101B40006865617420414253005072656865617434
:101B500020504C4100556E6C6F616420414253002F
:101B6000556E6C6F616420504C41004C6F61642075
:101B7000414253004C6F616420504C41004D6169FB
:101B80006E004731205A323000473238205830201A
:101B90005930004731205A35002D20507573682088
:101BA000746F20636F6E74696E7565202D00002060
:101BB000206174206C6576656C20706F696E74208E
:101BC00033202000202041646A75737420626564AC
:101BD0002073637265772020004731205A30004718
:101BE000312046256920582569205925690047314B
:101BF000205A3500000000002D20507573682074B5
:101C00006F20636F6E74696E7565202D0000202053
:101C10006174206C6576656C20706F696E7420321B
:101C2000202000202041646A75737420626564205E
:101C300073637265772020004731205A30004731A6
:101C400020462569205825692059256900473120FB
:101C50005A3500000000002D205075736820746F05
:101C600020636F6E74696E7565202D000020206101
:101C700074206C6576656C20706F696E74203120FD
:101C80002000202041646A757374206265642073AB
:101C9000637265772020004731205A300047312099
:101CA0004625692058256920592569004731205A61
:101CB000350047323800580059005A004578747290
:101CC00075646572004578747275646572004D6F55
:101CD0007665205A004D6F76652059004D6F766508
:101CE0002058004D6F76652061786973004D6F76DE
:101CF0006520302E316D6D004D6F766520316D6D34
:101D0000004D6F76652031306D6D005072657061E9
:101D10007265004731205A323000473238000000E7
:101D200000002D205075736820746F20636F6E74EF
:101D3000696E7565202D002020206D6F756E7420F2
:101D4000746F6F6C68656164202020002020202063
:101D50002020202020616E642020202020202020B0
:101D6000002020496E73657274207A2D7370616350
:101D70006572202020004731205A256920463132E3
:101D8000303030004731204625692058256900470A
:101D900031205A3500473238004D383400446973D9
:101DA00061626C6520737465707065727300507247
:101DB000657020546F6F6C68656164004D6F766567
:101DC000206178697300335020426564204C657649
:101DD000656C696E6700473238004175746F206822
:101DE0006F6D65004D61696E0046616E20737065B0
:101DF00065640046616E20737065656400426564C9
:101E000000426564004E6F7A7A6C6532004E6F7ADC
:101E10007A6C6532004E6F7A7A6C65004E6F7A7A12
:101E20006C650054656D706572617475726500460D
:101E3000616E20737064202825290046616E20732E
:101E40007064202825290042656400426564004EC4
:101E50006F7A7A6C6532004E6F7A7A6C6532004E1A
:101E60006F7A7A6C65004E6F7A7A6C650054656D96
:101E700070657261747572650053746F7265206D60
:101E8000656D6F72790042656400426564004E6F53
:101E90007A7A6C65004E6F7A7A6C650046616E20C6
:101EA00073706565640046616E20737065656400DB
:101EB00054656D70657261747572650053746F72EC
:101EC00065206D656D6F72790042656400426564DE
:101ED000004E6F7A7A6C65004E6F7A7A6C650046B8
:101EE000616E2073706565640046616E2073706575
:101EF00065640054656D706572617475726500503B
:101F00007265686561742041425320636F6E66009C
:101F10005072656865617420504C4120636F6E6635
:101F2000005049442D43005049442D43005049443A
:101F30002D44005049442D44005049442D4900503F
:101F400049442D49005049442D50005049442D50DA
:101F50000020022046616374002002204661637401
:101F6000002002204D6178002002204D6178002081
:101F700002204D696E002002204D696E004F66669A
:101F8000004F6E20004F6666004F6E200041757452
:101F90006F74656D700054656D702E206F6666738A
:101FA0006574730054656D702E206F76657272696A
:101FB0006465730046616E207370656564004661F8
:101FC0006E2073706565640042656400426564005C
:101FD0004E6F7A7A6C6532004E6F7A7A6C65320099
:101FE0004E6F7A7A6C65004E6F7A7A6C6500436F3B
:101FF0006E74726F6C004573746570732F6D6D0035
:102000004573746570732F6D6D005A7374657073CA
:102010002F6D6D005A73746570732F6D6D00597359
:10202000746570732F6D6D005973746570732F6DC7
:102030006D005873746570732F6D6D0058737465FF
:1020400070732F6D6D00412D726574726163740041
:10205000412D7265747261637400416D6178206511
:1020600000416D6178206500416D6178207A004102
:102070006D6178207A00416D6178207900416D6151
:1020800078207900416D6178207800416D61782079
:1020900078005654726176206D696E0056547261F4
:1020A00076206D696E00566D696E00566D696E0022
:1020B000566D6178206500566D6178206500566D1B
:1020C0006178207A00566D6178207A00566D6178CB
:1020D000207900566D6178207900566D61782078FE
:1020E00000566D617820780056652D6A65726B0028
:1020F00056652D6A65726B00567A2D6A65726B00A3
:10210000567A2D6A65726B005678792D6A65726B06
:10211000005678792D6A65726B00416363656C00C7
:10212000416363656C00436F6E74726F6C00556E33
:1021300052657420205600556E526574202056005A
:102140005320556E5265742B6D6D005320556E52A1
:1021500065742B6D6D00556E526574202B6D6D008E
:10216000556E526574202B6D6D00486F70206D6D3B
:1021700000486F70206D6D00526574726163742049
:1021800020560052657472616374202056005377A4
:1021900061702052652E6D6D00537761702052651D
:1021A0002E6D6D0052657472616374206D6D005206
:1021B000657472616374206D6D004F6666004F6ECA
:1021C00020004F6666004F6E20004175746F5265A7
:1021D00074722E00436F6E74726F6C00526573746C
:1021E0006F7265206661696C73616665004C6F6132
:1021F00064206D656D6F72790053746F7265206D28
:10220000656D6F72790052657472616374004D6F11
:1022100074696F6E0054656D706572617475726576
:10222000004D61696E004D617920313720323032C6
:10223000302032333A30343A3237004472617973A5
:102240006F6E204465765F35382E3100556C7469A9
:102250006D616B65723A204445565F32303134000F
:102260004669726D776172652076657273696F6E0B
:10227000004669726D776172652076657273696F69
:102280006E00436F6E74726F6C004D61696E7461A5
:10229000696E00507265706172650054756E6500FC
:1022A0004E6F2053442063617264005072696E74F3
:1022B0002066726F6D2053440053746F70207072EB
:1022C000696E7400526573756D65207072696E7405
:1022D000005061757365207072696E7400496E6696
:1022E0006F2073637265656E0000000A0B02090CB3
:1022F0000D0E0807030401000000000000000000AC
:1023000000000000000000000000000000000000CD
:10231000000000000012111000000000000000008A
:1023200000000000000000000000000000000001AC
:1023300002102020080810204010204080020102D6
:10234000010804020101020408102040808040209E
:1023500010080402018004020180402010080402D9
:102360000108040201010204081020408001020457
:102370000810204080050505050705080808080223
:102380000202020A0A08080404040401010101010E
:102390000101010303030303030303040707070CFD
:1023A0000C0C0C0C0C0C0C020202020606060606B3
:1023B0000606060B0B0B0B0B0B0B0B000020002370
:1023C00000260029002C002F00320000010000032D
:1023D000010601090100002200250028002B002E23
:1023E000003100340002010000050108010B01006A
:1023F000002100240027002A002D003000330001B6
:10240000010000040107010A01024E414E494E49F4
:102410005459494E46CDCCCC3D0AD7233C17B7D1B1
:102420003877CC2B329595E6241FB14F0A00002057
:10243000410000C84200401C4620BCBE4CCA1B0ED6
:102440005AAEC59D740043453BC24B4511241FBE87
:10245000CFEFD1E2DEBFCDBF00E00CBF15E0A0E0C2
:10246000B2E0EEE8F2EF01E00BBF02C007900D9280
:10247000A631B107D9F723E1A6E1B5E001C01D926D
:10248000A73BB207E1F714E2CAE4D4E200E006C0D9
:1024900022970109FE010BBF0E94BBF1C634D10790
:1024A00080E00807A9F70E94A0EC0C9436F90C9480
:1024B0000000EF92FF920F931F93CF93DF931F9231
:1024C000CDB7DEB78C017B01460FF70161917F012B
:1024D000F8018081918149830E947FF8F801808111
:1024E000918101969183808349814E11EECF0F90A7
:1024F000DF91CF911F910F91FF90EF900895EF9290
:10250000FF920F931F93CF93DF931F92CDB7DEB748
:102510008C017B01460FF8018081918149830E94E3
:1025200077F8F70181937F01F8018081918101960D
:102530009183808349814E11EECF0F90DF91CF912F
:102540001F910F91FF90EF9008950F931F93CF93DA
:10255000DF93CDB7DEB72C970FB6F894DEBF0FBE72
:10256000CDBF80E390E3A0E3B0E08D839E83AF8393
:10257000B88704E610E01C870B8744E0BE016B5F60
:102580007F4FCE010B9695DF40E167E172E1CE010E
:102590000B968FDF40E167E272E1CE010B9689DF97
:1025A00040E167E072E1CE010B9683DF44E06FEF1C
:1025B00071E1CE010B967DDF44E06BEF71E1CE015E
:1025C0000B9677DF44E063E072E1CE010B9671DF9A
:1025D00044E06BEE71E1CE010B966BDF44E067E304
:1025E00072E1CE010B9665DF44E067EF71E1CE0149
:1025F0000B965FDF44E063EF71E1CE010B9659DF8C
:1026000044E06FEE71E1CE010B9653DF4CE06AEAD5
:1026100077E0CE010B964DDF42E06BE773E1CE0130
:102620000B9647DF42E069E773E1CE010B9641DF8D
:1026300042E067E773E1CE010B963BDF42E065E7DE
:1026400073E1CE010B9635DF42E063E773E1CE0123
:102650000B962FDF42E061E773E1CE010B9629DF95
:1026600044E067E977E0CE010B9623DF44E06EE8B3
:1026700072E0CE010B961DDF44E06AE872E0CE0105
:102680000B9617DF44E066E872E0CE010B9611DF8F
:1026900080E290E09A87898742E0BE01675F7F4FC2
:1026A000CE010B9606DF86E591E3A0E3B0E08983D7
:1026B0009A83AB83BC831C870B8744E0BE016F5FAA
:1026C0007F4FCE010B96F5DEEEE9F3E0849188238F
:1026D00041F09091C00095FFFCCF8093C6003196E9
:1026E000F5CFEEE8F3E08491882341F09091C000AB
:1026F00095FFFCCF8093C6003196F5CF8091C00046
:1027000085FFFCCF8AE08093C6002C960FB6F89424
:10271000DEBF0FBECDBFDF91CF911F910F91089506
:10272000CF93DF93CEE9D3E0FE018491882341F07B
:102730009091C00095FFFCCF8093C6003196F5CFF5
:10274000EEE7F3E08491882341F09091C00095FF7B
:10275000FCCF8093C6003196F5CF8091C00085FFF5
:10276000FCCF8AE08093C600FE018491EEE9F3E09D
:10277000882349F09091C00095FFFCCF8093C6005C
:1027800031968491F5CF40911712509118126091B3
:10279000191270911A1286E793E00E947F1C4091F3
:1027A0001B1250911C1260911D1270911E1283E732
:1027B00093E00E947F1C40911F1250912012609163
:1027C00021127091221280E793E00E947F1C4091B9
:1027D00023125091241260912512709126128DE6D9
:1027E00093E00E947F1C8091C00085FFFCCF8AE0AF
:1027F0008093C600FE018491EEE9F3E0882349F05E
:102800009091C00095FFFCCF8093C60031968491D3
:10281000F5CFE3E5F3E08491882341F09091C00087
:1028200095FFFCCF8093C6003196F5CF8091C00014
:1028300085FFFCCF8AE08093C600FE018491EEE91B
:10284000F3E0882349F09091C00095FFFCCF80937E
:10285000C60031968491F5CF4091271250912812ED
:102860006091291270912A128AE493E00E947F1CE1
:1028700040912B1250912C1260912D1270912E12BA
:1028800087E493E00E947F1C40912F1250913012F8
:10289000609131127091321284E493E00E947F1CA7
:1028A000409133125091341260913512709136126A
:1028B00081E493E00E947F1C8091C00085FFFCCFE3
:1028C0008AE08093C600FE018491EEE9F3E088235C
:1028D00049F09091C00095FFFCCF8093C6003196DF
:1028E0008491F5CFE3E2F3E08491882341F0909165
:1028F000C00095FFFCCF8093C6003196F5CF809144
:10290000C00085FFFCCF8AE08093C600FE01849161
:10291000EEE9F3E0882349F09091C00095FFFCCFE9
:102920008093C60031968491F5CF40910712509163
:1029300008126091091270910A128AE193E0F0D7AF
:1029400040910B1250910C1260910D1270910E1269
:1029500087E193E0E5D740910F12509110126091FA
:1029600011127091121284E193E0DAD740911312A0
:1029700050911412609115127091161281E193E03A
:10298000CFD78091C00085FFFCCF8AE08093C6003E
:10299000FE018491EEE9F3E0882349F09091C000B4
:1029A00095FFFCCF8093C60031968491F5CFECED76
:1029B000F2E08491882341F09091C00095FFFCCF14
:1029C0008093C6003196F5CF8091C00085FFFCCF83
:1029D0008AE08093C600FE018491EEE9F3E088234B
:1029E00049F09091C00095FFFCCF8093C6003196CE
:1029F0008491F5CF4091FF11509100126091011226
:102A00007091021283ED92E07AD74091FB115091C0
:102A1000FC116091FD117091FE1180ED92E06FD775
:102A20008091C00085FFFCCF8AE08093C600FE0144
:102A30008491EEE9F3E0882349F09091C00095FF7E
:102A4000FCCF8093C60031968491F5CFEDE1F2E0A2
:102A50008491882341F09091C00095FFFCCF809332
:102A6000C6003196F5CF8091C00085FFFCCF8AE08B
:102A70008093C600FE018491EEE9F3E0882349F0DB
:102A80009091C00095FFFCCF8093C6003196849151
:102A9000F5CF40910312509104126091051270918C
:102AA000061284E192E02BD74091EB115091EC118A
:102AB0006091ED117091EE1181E192E020D740918B
:102AC0003712509138126091391270913A128EE09B
:102AD00092E026D74091F7115091F8116091F911C9
:102AE0007091FA118BE092E00AD74091F311509166
:102AF000F4116091F5117091F61188E092E0FFD623
:102B00004091EF115091F0116091F1117091F2111B
:102B100085E092E0F4D68091C00085FFFCCF8AE08A
:102B20008093C600FE018491EEE9F3E0882349F02A
:102B30009091C00095FFFCCF8093C60031968491A0
:102B4000F5CFE3EFF1E08491882341F09091C0004C
:102B500095FFFCCF8093C6003196F5CF8091C000E1
:102B600085FFFCCF8AE08093C600FE018491EEE9E8
:102B7000F3E0882349F09091C00095FFFCCF80934B
:102B8000C60031968491F5CF4091AA075091AB07CA
:102B90006091AC077091AD078AEE91E0B0D640919C
:102BA000AE075091AF076091B0077091B10787EE03
:102BB00091E0A5D64091B2075091B3076091B40758
:102BC0007091B50784EE91E09AD68091C00085FFA0
:102BD000FCCF8AE08093C600FE018491EEE9F3E029
:102BE000882349F09091C00095FFFCCF8093C600E8
:102BF00031968491F5CFE6EDF1E08491882341F0A0
:102C00009091C00095FFFCCF8093C6003196F5CF20
:102C10008091C00085FFFCCF8AE08093C600FE0152
:102C2000C491EEE9F3E0CC2349F08091C00085FF28
:102C3000FCCFC093C6003196C491F5CF40918E026F
:102C400050918F0260919002709191028CEC91E012
:102C500056D660918A0270918B0280918C0290917D
:102C60008D020E949D87AB01BC0189EC91E047D6A3
:102C7000609186027091870280918802909189020A
:102C80000E94A987AB01BC0186EC91E038D6809107
:102C9000C00085FFFCCF8AE08093C600DF91CF9112
:102CA0000895AF92BF92CF92DF92EF92FF920F936F
:102CB0001F93CF93DF93CDB7DEB7E0970FB6F894AD
:102CC000DEBF0FBECDBF80E1EEEAF2E0DE019196FD
:102CD00001900D928A95E1F780E1EEEBF2E0DE01E2
:102CE000519601900D928A95E1F780E1EEECF2E0C9
:102CF000DE01119601900D928A95E1F76E0181E255
:102D0000C80ED11C87E1E82E82E1F82E8E010F5EFD
:102D10001F4F67E272E1AE014F5F5F4F97E0A92E50
:102D200092E1B92E20E030E0F60181919191A191DC
:102D3000B1916F01F70181939193A193B1937F01B9
:102D4000F80181919191A191B1918F01FB01819342
:102D50009193A193B193BF01FA0181919191A191B6
:102D6000B191AF01F50181939193A193B1935F016B
:102D70002F5F3F4F24303105B9F60E94A57880E0DF
:102D800090E8ABE3B5E48093FF1190930012A09319
:102D90000112B09302128093FB119093FC11A09347
:102DA000FD11B093FE1110920312109204121092B2
:102DB00005121092061280E29EE4A0E0B0E080933B
:102DC000371290933812A0933912B0933A1210929E
:102DD000EB111092EC111092ED111092EE1180E0B7
:102DE00090E0A0EAB1E48093F7119093F811A093DA
:102DF000F911B093FA118DEC9CECACECBEE380932E
:102E0000F3119093F411A093F511B093F61180E0B3
:102E100090E0A0EAB0E48093EF119093F011A093BA
:102E2000F111B093F2111092B2071092B307109201
:102E3000B4071092B5071092AE071092AF07109228
:102E4000B0071092B1071092AA071092AB07109228
:102E5000AC071092AD0782ED90E090937C138093C5
:102E60007B138CE390E090937A1380937913109204
:102E700078131092771380EF90E0909376138093FD
:102E8000751380E590E09093741380937313109200
:102E90007213109271138AE999E9A1EBB1E480935E
:102EA0008E0290938F02A0939002B093910261E7FB
:102EB0007DE38AE89FE30E94978760938A0270937C
:102EC0008B0280938C0290938D0260E070E084EE20
:102ED00092E40E94A3876093860270938702809396
:102EE0008802909389020E940B8480E090E0A0E821
:102EF000BFE38093820290938302A0938402B093F5
:102F00008502EEE9F3E08491882341F09091C000BE
:102F100095FFFCCF8093C6003196F5CFEAE8F1E04B
:102F20008491882341F09091C00095FFFCCF80935D
:102F3000C6003196F5CF8091C00085FFFCCF8AE0B6
:102F40008093C600E0960FB6F894DEBF0FBECDBFEB
:102F5000DF91CF911F910F91FF90EF90DF90CF9075
:102F6000BF90AF900895CF93DF93CDB7DEB72C9786
:102F70000FB6F894DEBF0FBECDBF84E690E09C870D
:102F80008B8786E591E3A0E3B0E089839A83AB83E6
:102F9000BC8344E0BE016B5F7F4FCE010B96AFDA7E
:102FA00043E050E0BE016B5F7F4FCE0101960E946F
:102FB0003EF6892B09F0B1C040E167E172E1CE0134
:102FC0000B969DDA40E167E272E1CE010B9697DA4B
:102FD00040E167E072E1CE010B9691DA0E94A5789C
:102FE00044E06FEF71E1CE010B9689DA44E06BEFBC
:102FF00071E1CE010B9683DA44E063E072E1CE0129
:103000000B967DDA44E06BEE71E1CE010B9677DA38
:1030100044E067E372E1CE010B9671DA44E067EFBA
:1030200071E1CE010B966BDA44E063EF71E1CE0102
:103030000B9665DA44E06FEE71E1CE010B965FDA34
:103040004CE06AEA77E0CE010B9659DA42E06BE792
:1030500073E1CE010B9653DA42E069E773E1CE01EA
:103060000B964DDA42E067E773E1CE010B9647DA43
:1030700042E065E773E1CE010B9641DA42E063E797
:1030800073E1CE010B963BDA42E061E773E1CE01DA
:103090000B9635DA44E067E977E0CE010B962FDA3C
:1030A00044E06EE872E0CE010B9629DA44E06AE86B
:1030B00072E0CE010B9623DA44E066E872E0CE01BE
:1030C0000B961DDA42E0BE01675F7F4FCE010B9683
:1030D00016DA0E940B84EEE9F3E08491882341F034
:1030E0009091C00095FFFCCF8093C6003196F5CF3C
:1030F000ECEAF1E08491882341F09091C00095FFC3
:10310000FCCF8093C6003196F5CF8091C00085FF3B
:10311000FCCF8AE08093C60001C0C3DD01DB2C96A2
:103120000FB6F894DEBF0FBECDBFDF91CF910895EB
:103130001F920F920FB60F9211240BB60F922F937E
:103140003F934F935F936F938F939F93EF93FF936F
:103150006091C6002091970530919805C9010196AC
:103160008F7799274091990550919A058417950773
:1031700041F0F901E95EFA4F6083909398058093DE
:103180009705FF91EF919F918F916F915F914F9173
:103190003F912F910F900BBE0F900FBE0F901F907D
:1031A00018959A01AB01211581EE380741055105AB
:1031B00049F182E08093C00060E079E08DE390E027
:1031C0000E9489F12150310941095109CA01B9010F
:1031D00022E030E040E050E00E9489F13093C500E9
:1031E0002093C4008091C10080618093C1008091D0
:1031F000C10088608093C1008091C1008068809385
:10320000C10008951092C00020E130E0E7CF209186
:10321000990530919A0580919705909198058217AC
:10322000930771F0F901E95EFA4F80812F5F3F4FFC
:103230002F77332730939A052093990590E00895CE
:103240008FEF9FEF08958091990590919A05909343
:1032500098058093970508954F925F926F927F92A1
:103260008F929F92AF92BF92CF92DF92EF92FF9296
:103270000F931F93CF93DF93CDB7DEB7A0970FB611
:10328000F894DEBF0FBECDBF5C014115510561054D
:103290007105E9F420E030E040E350E060E070E0E8
:1032A000A0960FB6F894DEBF0FBECDBFDF91CF91D1
:1032B0001F910F91FF90EF90DF90CF90BF90AF9054
:1032C0009F908F907F906F905F904F905BC08E012A
:1032D0000F5F1F4FC12CD12C76014801422E512C7B
:1032E000612C712C8FEFC81AD80AE80AF80ACB01B2
:1032F000BA01A30192010E9467F1CA01F80161932A
:103300008F01A901BC01411551056105710551F7F6
:10331000F1E0CF1AD108E108F108F401EC0DFD1D30
:1033200080818A3010F440E301C047E3480F5527FD
:1033300047FD5095652F752F20E030E0C50122D064
:1033400081E0C81AD108E108F108EFEFCE16DE06D9
:10335000EE06FE0611F7A0960FB6F894DEBF0FBE7C
:10336000CDBFDF91CF911F910F91FF90EF90DF9034
:10337000CF90BF90AF909F908F907F906F905F9015
:103380004F9008952115310539F48091C00085FFD3
:10339000FCCF4093C60008952A30310509F41CC0C3
:1033A0005BCFCF93DF93EC0120E030E04DE050E0C5
:1033B00060E070E0E7DF20E030E04AE050E060E00D
:1033C00070E0CE01DF91CF91DDCF9A01AB0166278E
:1033D00057FD6095762FD6CFCF92DF92EF92FF9276
:1033E000CF93DF93EC016A017B0177FF0FC020E0F0
:1033F00030E04DE250E060E070E0C4DFF094E09433
:10340000D094C094C11CD11CE11CF11C2AE0B7016E
:10341000A601CE01DF91CF91FF90EF90DF90CF908A
:103420001BCF2115310539F48091C00085FFFCCFF9
:103430004093C600089510CF9A01462F50E060E0F7
:1034400070E0EFCFCF93DF93EC019A01AB0160E026
:1034500070E0E7DFCE01DF91CF91A3CF8F929F92F3
:10346000AF92BF92CF92DF92EF92FF921F93CF93D2
:10347000DF93EC016A017B01122F20E030E0A9010B
:10348000C701B6010E948AED87FF0CC020E030E042
:103490004DE250E060E070E0CE0174DFF7FAF094A6
:1034A000F7F8F094B12C60E070E080E09FE3B11693
:1034B00041F020E030E040E251E40E9491EDB3940D
:1034C000F6CF9B01AC01C701B6010E94B1EC6B01C4
:1034D0007C010E94FEED4B015C010E942AEE9B01E3
:1034E000AC01C701B6010E94B0EC6B017C012AE07F
:1034F000B501A401CE01B0DE112361F0E7EFF4E0E5
:103500008191882339F09091C00095FFFCCF809382
:10351000C600F6CF112319F120E030E040E251E47B
:10352000C701B6010E945FF06B017C010E94F9EDBA
:103530004B01AA2497FCA094BA2CB501A401CE019A
:103540004BDFC501B4010E942CEE9B01AC01C70109
:10355000B6010E94B0EC6B017C011150DBCFDF9112
:10356000CF911F91FF90EF90DF90CF90BF90AF90E1
:103570009F908F90089572CFFC0165917591859110
:10358000949108952F923F924F925F926F927F9203
:103590008F929F92AF92BF92CF92DF92EF92FF9263
:1035A0000F931F93CF93DF9300D000D0CDB7DEB73A
:1035B0005C01FC01E25EF64F14919C01220F331F67
:1035C000220F331F3E832D83F901EA54F84F1082F6
:1035D00011821282138222EC37E04EEB57E06AEB45
:1035E00077E086EB97E00E94D377D501AA0FBB1F47
:1035F000FD01EF5CFD4F2081318137FD0FC0AA0F27
:10360000BB1FAB5DBD4F6D917C91C901880F991FA8
:10361000820F931F83569A4F0E94B3578D819E81CC
:10362000835D964FA9DF6B017C01612F772767FDD2
:103630007095872F972F0E942CEE2B013C018D81D6
:103640009E818D59984F4C0120E030E040EC5FE3C3
:10365000C701B6010E945FF0A30192010E945FF0D2
:10366000F40160837183828393832D813E812D5A7F
:103670003D4F3C832B83F90160817181828193816D
:1036800060930F02709310028093110290931202C4
:1036900020E030E040E752E40E9491ED56E8C52E6C
:1036A00057E0D52E7B018C012FE637E04BE657E043
:1036B00067E677E083E697E00E94186E0E947481C7
:1036C0002D813E812A54384F3A832983F901108293
:1036D00011821282138222EC37E04EEB57E06AEB44
:1036E00077E086EB97E00E94D3772D813E812F5DB6
:1036F000364F1901C90140DF9058A30192010E9481
:103700005FF0F401608371838283938320E030E073
:1037100040E752E460910F02709110028091110213
:10372000909112020E9491ED7B018C012FE637E00F
:103730004BE657E067E677E083E697E00E94186E75
:103740000E947481C10118DF9B01AC010E94B1ECA1
:10375000A30192010E945FF0F40160837183828370
:10376000938320E030E040E05FE3EB81FC81608107
:103770007181828193810E945FF060930F02709348
:103780001002809311029093120220E030E040E793
:1037900052E40E9491ED7B018C012FE637E04BE66D
:1037A00057E067E677E083E697E00E94186E0E9494
:1037B00074818D819E81875C964FDEDE0D811E8136
:1037C0000655184FF80120813181428153810E94B2
:1037D000B1ECE981FA8160837183828393838D8167
:1037E0009E818F5A964FC8DE2D813E812256384FDA
:1037F0007901F80120813181428153810E94B1EC2D
:10380000F70160837183828393838D819E818B5BBB
:10381000964FB2DE2D813E81295C3D4F7901F80142
:1038200020813181428153810E94B1ECF701608394
:10383000718382839383E981FA8180819181A2815E
:10384000B381F40180839183A283B38310920F022A
:103850001092100210921102109212020E948879A6
:10386000F501E556F84F81E08083F501EE0FFF1F6B
:10387000DF01AF5CBD4F2D913C9137FD27C0EE0FAE
:10388000FF1FE95DFD4F60817181C901880F991F9C
:10389000820F931F83569A4F26960FB6F894DEBF79
:1038A0000FBECDBFDF91CF911F910F91FF90EF9091
:1038B000DF90CF90BF90AF909F908F907F906F9050
:1038C0005F904F903F902F900C94B35726960FB671
:1038D000F894DEBF0FBECDBFDF91CF911F910F9146
:1038E000FF90EF90DF90CF90BF90AF909F908F9020
:1038F0007F906F905F904F903F902F900895FC01C4
:103900002491222341F03091C00035FFFCCF209359
:10391000C6000196F4CF22E030E086E195E02BCEA0
:10392000FC012491222341F03091C00035FFFCCFEF
:103930002093C6000196F4CF2AE030E086E195E0BE
:1039400070CDCF93DF931F921F92CDB7DEB78091DA
:10395000B1139091B2139E012F5F3F4F009719F45E
:10396000275B334102C0281B390B3A8329838981A5
:103970009A810F900F90DF91CF9108952091B80513
:103980003091B905243031050CF06AC04091BA0578
:103990005091BB0560E6649F9001659F300D112436
:1039A000BC01C9018E539A4F0E9437F6EDE5F9E04C
:1039B0008491882341F09091C00095FFFCCF8093C3
:1039C000C6003196F5CFE3E1F9E08491882341F018
:1039D0009091C00095FFFCCF8093C6003196F5CF43
:1039E0008091BA059091BB0520E6289FF001299FA0
:1039F000F00D1124EE53FA4F8191882339F0909104
:103A0000C00095FFFCCF8093C600F6CFE1E1F9E05E
:103A10008491882341F09091C00095FFFCCF809362
:103A2000C6003196F5CF8091C00085FFFCCF8AE0BB
:103A30008093C6008091BA059091BB05019664E021
:103A400070E00E9454F19093BB058093BA05809179
:103A5000B8059091B90501969093B9058093B80582
:103A600008952091B8053091B905243031050CF046
:103A70006AC04091BA055091BB0560E6649F900111
:103A8000659F300D1124BC01C9018E539A4F0E94CD
:103A90009EF5EDE5F9E08491882341F09091C00016
:103AA00095FFFCCF8093C6003196F5CFE6E0F9E0B4
:103AB0008491882341F09091C00095FFFCCF8093C2
:103AC000C6003196F5CF8091BA059091BB0520E6EE
:103AD000289FF001299FF00D1124EE53FA4F819198
:103AE000882339F09091C00095FFFCCF8093C600E9
:103AF000F6CFE4E0F9E08491882341F09091C00092
:103B000095FFFCCF8093C6003196F5CF8091C00021
:103B100085FFFCCF8AE08093C6008091BA05909122
:103B2000BB05019664E070E00E9454F19093BB05E0
:103B30008093BA058091B8059091B905019690934C
:103B4000B9058093B8050895809A889A0895809A57
:103B5000889808950F931F93CF93DF936DE070E0E3
:103B60008DE995E00E947B57C1E3D2E007E212E0C5
:103B70002991399137FD0CC0F80160817181C9012B
:103B8000880F991F820F931F83569A4F0E94B35735
:103B90000C5F1F4FF2E0C733DF0751F7DF91CF9182
:103BA0001F910F910895D0DF40E950ED63E070E080
:103BB00086E195E0F6DAEEEFF8E08491882341F0B3
:103BC0009091C00095FFFCCF8093C6003196F5CF51
:103BD0008091C00085FFFCCF8AE08093C6008DE510
:103BE00099E0FC012491222341F03091C00035FF7F
:103BF000FCCF2093C6003196F5CF24B720FF14C028
:103C0000E6EFF8E03491332341F04091C00045FFE6
:103C1000FCCF3093C6003196F5CF3091C00035FF10
:103C2000FCCF3AE03093C60021FF14C0E6EEF8E086
:103C30003491332341F04091C00045FFFCCF3093D5
:103C4000C6003196F5CF3091C00035FFFCCF3AE089
:103C50003093C60022FF14C0E5EDF8E03491332321
:103C600041F04091C00045FFFCCF3093C600319633
:103C7000F5CF3091C00035FFFCCF3AE03093C6005D
:103C800023FF14C0E5ECF8E03491332341F0409178
:103C9000C00045FFFCCF3093C6003196F5CF309180
:103CA000C00035FFFCCF3AE03093C60025FF14C0BA
:103CB000E5EBF8E02491222341F03091C00035FF7C
:103CC000FCCF2093C6003196F5CF2091C00025FF90
:103CD000FCCF2AE02093C60014BEEEEAF8E024915F
:103CE000222341F03091C00035FFFCCF2093C60065
:103CF0003196F5CFE8EAF8E02491222341F03091A3
:103D0000C00035FFFCCF2093C6003196F5CF20913F
:103D1000C00025FFFCCF2AE02093C600FC012491BF
:103D2000EDE5F9E0222349F03091C00035FFFCCFEA
:103D30002093C60031962491F5CFE8E9F8E024916C
:103D4000222341F03091C00035FFFCCF2093C60004
:103D50003196F5CFE3E8F8E02491222341F0309149
:103D6000C00035FFFCCF2093C6003196F5CFE7E7C2
:103D7000F8E02491222341F03091C00035FFFCCFC0
:103D80002093C6003196F5CFEFE6F8E02491222388
:103D900041F03091C00035FFFCCF2093C600319632
:103DA000F5CF2091C00025FFFCCF2AE02093C6006C
:103DB000E4E6F8E02491222341F03091C00035FF81
:103DC000FCCF2093C6003196F5CFE8E5F8E02491CA
:103DD000222341F03091C00035FFFCCF2093C60074
:103DE0003196F5CF2091C00025FFFCCF2AE020932B
:103DF000C600FC018491EDE5F9E0882349F090913B
:103E0000C00095FFFCCF8093C60031968491F5CF1A
:103E1000E9E4F8E08491882341F09091C00095FF97
:103E2000FCCF8093C6003196F5CF8BDD4AE050E0A1
:103E3000BC0186E195E0C9DAE2E3F8E084918823E9
:103E400041F09091C00095FFFCCF8093C600319661
:103E5000F5CF4AE050E060ED74E086E195E0B5DA38
:103E60008091C00085FFFCCF8AE08093C60010924D
:103E7000BE051092BF051092C0051092C10573D8FF
:103E80000E9478860E94556C0E94EC8063DE0E943E
:103E900083D9FFEF23ED80E3F15020408040E1F72C
:103EA00000C0000008958091B2059091B30560E0D4
:103EB00070E001960C94F5F28091B2059091B305F3
:103EC0004AE050E060E070E001960C945DF4682FE9
:103ED000772767FD70952091BC053091BD0540E6C0
:103EE000429FC001439F900D11248E539A4F0E9410
:103EF00023F69093B3058093B20521E0892B09F452
:103F000020E0822F08950E9400E66093AE05709332
:103F1000AF058093B0059093B10508950E9400E627
:103F20006093AE057093AF058093B0059093B10593
:103F3000E091BC05F091BD05E254FA4F80818111FA
:103F400014C0ECE4F4E08491882341F09091C00027
:103F500095FFFCCF8093C6003196F5CF8091C000CD
:103F600085FFFCCF8AE08093C600089586E195E046
:103F70006AD9EFE4F4E08491882341F09091C00085
:103F800095FFFCCF8093C6003196F5CF409147074F
:103F9000509148076091490770914A074F5F5F4F02
:103FA0006F4F7F4F2AE030E086E195E0EBD98091BA
:103FB000C00085FFFCCF8AE08093C600AFCF8F9210
:103FC0009F92AF92BF92CF92DF92EF92FF920F93A8
:103FD0001F93CF93DF9357E8E52E54E0F52E06EBC1
:103FE00017E0C3E6D7E068ECC62E67E0D62EF701EF
:103FF00081917F016CDF882311F155DF4B015C015A
:10400000F6018081811103C06091420701C061E027
:1040100070E080E090E00E942CEEF8012081318178
:10402000428153810E945FF09B01AC01C501B40144
:104030000E94B1EC688379838A839B8309C0F8016D
:1040400080819181A281B38188839983AA83BB8374
:104050000C5F1F4F2496FFEFCF1ADF0A8BE8E8169C
:1040600084E0F80621F686E432DF8823D1F01BDFF6
:104070006B017C016093530770935407809355073D
:104080009093560720E030E0A9010E948DEF1816AA
:1040900044F4C0920F02D0921002E0921102F0920A
:1040A0001202DF91CF911F910F91FF90EF90DF905F
:1040B000CF90BF90AF909F908F90089580DF89E45C
:1040C00006DF882351F0EFDE60935707709358079F
:1040D0008093590790935A0708C01092570710927F
:1040E00058071092590710925A078AE4F0DE882385
:1040F00051F0D9DE60935B0770935C0780935D0796
:1041000090935E07089510925B0710925C071092DF
:104110005D0710925E070895CF92DF92EF92FF92B3
:10412000CF93DF93EC01C0909E07D0909F07E09063
:10413000A007F090A107A7019601688179818A8183
:104140009B810E948AED87FF04C0C882D982EA82DF
:10415000FB82C090A207D090A307E090A407F09044
:10416000A507A70196016C817D818E819F810E94A8
:104170008AED87FF04C0CC82DD82EE82FF82C09090
:10418000A607D090A707E090A807F090A907A7017D
:104190009601688579858A859B850E948AED87FFCF
:1041A00004C0C886D986EA86FB86C0903702D090C4
:1041B0003802E0903902F0903A02A7019601688136
:1041C00079818A819B810E948DEF181624F4C88220
:1041D000D982EA82FB82C0903B02D0903C02E09000
:1041E0003D02F0903E02A70196016C817D818E8197
:1041F0009F810E948DEF181624F4CC82DD82EE821E
:10420000FF82C0903F02D0904002E0904102F090C7
:104210004202A7019601688579858A859B850E945F
:104220008DEF181624F4C886D986EA86FB86DF91BE
:10423000CF91FF90EF90DF90CF900895CF92DF92D3
:10424000EF92FF920F931F9383E697E065DF0E9442
:1042500000E66093AE057093AF058093B005909330
:10426000B105209163073091640740916507509133
:1042700066076091B6077091B7078091B807909173
:10428000B9070E948AED811179C0209167073091AA
:1042900068074091690750916A076091BA07709169
:1042A000BB078091BC079091BD070E948AED8111E8
:1042B00065C020E030E040E752E460910F02709169
:1042C000100280911102909112020E9491EDE6E895
:1042D000CE2EE7E0DE2E7B018C012FE637E04BE6A9
:1042E00057E067E677E083E697E00E94186E8091DA
:1042F000630790916407A0916507B091660780936A
:10430000B6079093B707A093B807B093B907809109
:10431000670790916807A0916907B0916A07809339
:10432000BA079093BB07A093BC07B093BD078091D9
:104330006B0790916C07A0916D07B0916E07809309
:10434000BE079093BF07A093C007B093C1078091A9
:104350006F0790917007A0917107B09172078093D9
:10436000C2079093C307A093C407B093C5071F91DA
:104370000F91FF90EF90DF90CF90089560915102E0
:1043800070915202882777FD8095982F0E942CEE1D
:1043900020910F02309110024091110250911202AF
:1043A0000E945FF020E030E040E752E40E9491ED8F
:1043B00020E030E048EC52E488CFCF92DF92EF92D9
:1043C000FF92CF93C62FE0918607F0E0882309F48F
:1043D000C2C0DF01AF57B84F8C91811196C1809157
:1043E000B6079091B707A091B807B091B90780932D
:1043F000630790936407A0936507B0936607809165
:10440000BA079091BB07A091BC07B091BD078093FC
:10441000670790936807A0936907B0936A07809134
:10442000BE079091BF07A091C007B091C1078093CC
:104430006B0790936C07A0936D07B0936E07C090C5
:10444000C207D090C307E090C407F090C507C092A0
:104450006F07D0927007E0927107F0927207EE0F2B
:10446000FF1FEE0FFF1FED5BFD4F20813181428169
:104470005381662349F060911D0270911E02809164
:104480001F029091200208C06091210270912202C7
:1044900080912302909124020E9491ED9B01AC0136
:1044A000C701B6010E94B1EC6093C2077093C307C5
:1044B0008093C4079093C50782EC97E00E947878B8
:1044C000C0900F02D0901002E0901102F090120202
:1044D00020E030E040E752E46091190270911A0246
:1044E00080911B0290911C020E945FF060930F026A
:1044F000709310028093110290931202E09186074C
:10450000F0E0EF57F84F81E0808398DE20917B0741
:1045100030917C0740917D0750917E076091BE07E6
:104520007091BF078091C0079091C1070E94B0ECC5
:104530006093BE077093BF078093C0079093C10735
:1045400022EC37E04EEB57E06AEB77E086EB97E042
:104550000E94D377D1C0EF57F84F8081882309F4A8
:10456000D4C08091B6079091B707A091B807B091D9
:10457000B9078093630790936407A0936507B0938E
:1045800066078091BA079091BB07A091BC07B091D4
:10459000BD078093670790936807A0936907B0935E
:1045A0006A076091BE077091BF078091C007909124
:1045B000C10760936B0770936C0780936D079093AE
:1045C0006E07C090C207D090C307E090C407F09078
:1045D000C507C0926F07D0927007E0927107F09202
:1045E000720720917B0730917C0740917D075091A5
:1045F0007E070E94B1EC6093BE077093BF07809363
:10460000C0079093C10722EC37E04EEB57E06AEB0E
:1046100077E086EB97E00E94D377F0908607CC2373
:1046200089F020917307309174074091750750917C
:10463000760760911D0270911E0280911F02909179
:10464000200210C0209177073091780740917907B8
:1046500050917A0760912102709122028091230289
:10466000909124020E94B1EC24E0F29EF00111240A
:10467000ED5BFD4F20813181428153810E9491ED9C
:104680009B01AC016091C2077091C3078091C40780
:104690009091C5070E94B0EC6093C2077093C30766
:1046A0008093C4079093C50782EC97E00E947878C6
:1046B000C0900F02D0901002E0901102F090120210
:1046C00020E030E040E752E460911502709116025C
:1046D00080911702909118020E945FF060930F0280
:1046E000709310028093110290931202E09186075A
:1046F000F0E0EF57F84F1082A1DDC0920F02D09288
:104700001002E0921102F0921202CF91FF90EF900E
:10471000DF90CF900895AF92BF92CF92DF92EF9249
:10472000FF920F931F93CF93DF93D82F20915B07B6
:1047300030915C0740915D0750915E07609157078B
:10474000709158078091590790915A070E949AEFEB
:10475000C62F172F082FF92E609151027091520227
:10476000882777FD8095982F0E942CEE20910F02CC
:104770003091100240911102509112020E945FF09C
:1047800020E030E040E752E40E9491ED20E030E08C
:1047900048EC52E40E9491ED209186072F93DF931D
:1047A000FF920F931F93CF935B016C01B2E0EB2E4E
:1047B00001E020E047E557E063E677E086EB97E02D
:1047C0000E948E658091630790916407A0916507B0
:1047D000B09166078093B6079093B707A093B80788
:1047E000B093B9078091670790916807A091690716
:1047F000B0916A078093BA079093BB07A093BC0758
:10480000B093BD0780916B0790916C07A0916D07E5
:10481000B0916E078093BE079093BF07A093C00727
:10482000B093C10780916F0790917007A0917107B5
:10483000B09172078093C2079093C307A093C407F7
:10484000B093C5070E9400E66093AE057093AF0574
:104850008093B0059093B1050F900F900F900F903B
:104860000F900F90DF91CF911F910F91FF90EF90DC
:10487000DF90CF90BF90AF900895F8940E943D884C
:10488000159A10929B07179A10929C07429A1092C1
:104890009D07A09A9FB7F89480910B018260809346
:1048A0000B019FBFE3E6F9E08491882341F09091EA
:1048B000C00095FFFCCF8093C6003196F5CFEDE2A6
:1048C000F4E08491882341F09091C00095FFFCCFE3
:1048D0008093C6003196F5CF8091C00085FFFCCF54
:1048E0008AE08093C60084E294E00E94B5AC2FD9A0
:1048F000FFCF2F923F924F925F926F927F928F9253
:104900009F92AF92BF92CF92DF92EF92FF920F935E
:104910001F93CF93DF93CDB7DEB76E970FB6F894A2
:10492000DEBF0FBECDBF30E6932E04E010E045EFB2
:10493000E42E46E0F42E5AE0852E6BE6C62E67E0A4
:10494000D62E7724739480919705909198052091A5
:10495000990530919A05821B930B8F779927892BA4
:1049600039F08091B8059091B90504970CF44CC0CA
:104970008091CE07882309F493C38091B505909167
:10498000B605892B09F08CC38091CF07811188C3AC
:104990008091B8059091B905892B11F410929B056F
:1049A00098EE292E93E0392E412C512C2CE3C22E67
:1049B000D12CE12CF12C8E010F5F1F4F80E6682E69
:1049C000772473944091540A5091550A6091560A85
:1049D0007091570A80914C0A90914D0AA0914E0A0D
:1049E000B0914F0A481759076A077B0708F058C368
:1049F0008091B8059091B90504970CF051C380914E
:104A00009B0581114DC32DC286E195E00E940719D7
:104A10008093B7052091B5053091B6058A3061F0D5
:104A20008D3051F08A3321F49091B405992321F00F
:104A30002F3531050CF437C12115310509F451C169
:104A40008091BA059091BB05989E5001999EB00C3B
:104A50001124F501E20FF31FEE53FA4F108220915B
:104A6000B40521111BC1FC01E254FA4F10829501DB
:104A70002E533A4F19016EE470E0C9010E9423F6EB
:104A80000097E9F19093B3058093B20582199309D9
:104A90008A0D9B1D4AE050E060E070E08D539A4F14
:104AA0000E945DF460934B0770934C0780934D0711
:104AB00090934E072091470730914807409149074E
:104AC00050914A072F5F3F4F4F4F5F4FA090BA055D
:104AD000B090BB05621773078407950709F404C1FA
:104AE0009A9CC0019B9C900D112464E178E08E5348
:104AF0009A4F0E94D5F5892B09F0F6C085C16AE26C
:104B000070E0C1010E9423F6892B09F444C0E3E65A
:104B1000F9E08491882341F09091C00095FFFCCF8B
:104B20008093C6003196F5CFEEE6F7E084918823B6
:104B300041F09091C00095FFFCCF8093C600319664
:104B4000F5CF409147075091480760914907709110
:104B50004A072AE030E086E195E00E94C219809180
:104B6000C00085FFFCCF8AE08093C6001092B60596
:104B70001092B50595C280914B0790914C07A0917A
:104B80004D07B0914E078093470790934807A09335
:104B90004907B0934A078091BA059091BB05989E4A
:104BA0005001999EB00C1124C5018E539A4F1C01DF
:104BB00067E470E00E9423F6009709F44BC09093DD
:104BC000B3058093B205821993098A0D9B1D60E09D
:104BD00070E08D539A4F0E94F5F20E94F9ED643017
:104BE000710508F037C08091A00581111AC080912D
:104BF000CC0781112FC0F6018491EBE6F7E0882302
:104C000049F09091C00095FFFCCF8093C60031968B
:104C10008491F5CF8091C00085FFFCCF8092C600C3
:104C200019C0F7018491E5EFF6E0882349F09091EF
:104C3000C00095FFFCCF8093C60031968491F5CFDC
:104C40008091C00085FFFCCF8092C6008BEE96E07D
:104C50000E94D1AAA090BA05B090BB059A9CC00151
:104C60009B9C900D11246EE373E08E539A4F0E942B
:104C70002EF6892B09F401DEC5010196B8010E94C8
:104C800054F19093BB058093BA058091B80590913B
:104C9000B90501969093B9058093B8051092B605B1
:104CA0001092B50550CE8B3311F47092B4059091EB
:104CB000B405911148CE4091BA055091BB05B90198
:104CC0006F5F7F4F7093B6056093B505949EF001BA
:104CD000959EF00D1124E20FF31FEE53FA4F8083DF
:104CE00032CE1092B405DCC19A9C10019B9C300C12
:104CF0001124C1018E539A4F5C016AE270E00E9458
:104D000023F6009789F5E3E6F9E08491882341F0E2
:104D10009091C00095FFFCCF8093C6003196F5CFEF
:104D2000E8E9F7E08491882341F09091C00095FF75
:104D3000FCCF8093C6003196F5CF40914707509144
:104D400048076091490770914A072AE030E086E100
:104D500095E00E94C2198091C00085FFFCCF8AE0D7
:104D60008093C60003D902CF20E0612CF101E20F4D
:104D7000F11DEE53FA4F30813A3219F02F5F63265E
:104D8000F5CF9093B3058093B2058A199B09820DE4
:104D9000931D60E070E08D539A4F0E94F5F20E94DF
:104DA000F9ED262D30E02617370709F4E4CEE3E6C7
:104DB000F9E08491882341F09091C00095FFFCCFE9
:104DC0008093C6003196F5CFE2ECF7E0849188231A
:104DD00041F09091C00095FFFCCF8093C6003196C2
:104DE000F5CF40914707509148076091490770916E
:104DF0004A072AE030E086E195E00E94C2198091DE
:104E0000C00085FFFCCFABCFE3E6F9E084918823B7
:104E100041F09091C00095FFFCCF8093C600319681
:104E2000F5CFE1EEF7E08491882341F09091C00046
:104E300095FFFCCF8093C6003196F5CF4091470790
:104E4000509148076091490770914A072AE030E085
:104E500086E195E00E94C2198091C00085FFFCCFD9
:104E60007ECF8091A7099091A809A091A909B0913E
:104E7000AA098093540A9093550AA093560AB093B6
:104E8000570A8FE999E00E940E4A482F8093B70590
:104E90008A30B9F04D30A9F0433229F42091B4059D
:104EA000211103C00EC04A33C9F32091B5053091DA
:104EB000B6052F3531052CF48F3FFFEF9F0709F022
:104EC000D1C04091540A5091550A6091560A709190
:104ED000570A80914C0A90914D0AA0914E0AB091C8
:104EE0004F0A481759076A077B0708F481C0E8EDA5
:104EF000F6E08491882341F09091C00095FFFCCFAB
:104F00008093C6003196F5CF8091C00085FFFCCF1D
:104F1000FAE0F093C6000E9400E66093A205709349
:104F2000A3058093A4059093A5058090A605909075
:104F3000A705A090A805B090A905681979098A0964
:104F40009B09A20191010E9467F149015A01CA011E
:104F5000B901A70196010E9467F1CA01B901A70131
:104F600096010E9467F17F936F93C501B40120E120
:104F70003EE040E050E00E9467F13F932F93A4ECA5
:104F8000B6E0BF93AF931F930F930E945BF6EDE5DE
:104F9000F9E084910FB6F894DEBF0FBECDBF882331
:104FA00049F09091C00095FFFCCF8093C6003196E8
:104FB0008491F5CFF8018191882339F09091C00058
:104FC00095FFFCCF8093C600F6CF8091C00085FF8F
:104FD000FCCF3AE03093C600C8010E94D0A68CEC0A
:104FE00097E00E94EE6461E08CEC97E00E94CC6157
:104FF0008091B705833211F470929B052091B5051D
:105000003091B6052115310509F46BCE8091BA05B2
:105010009091BB05689EF001699EF00D1124E20F8E
:10502000F31FEE53FA4F1082FC01E254FA4F7082E4
:105030002091B8053091B9052F5F3F4F3093B905E6
:105040002093B805019664E070E00E9454F19093BB
:10505000BB058093BA051092B4051092B605109264
:10506000B505B0CC4B3311F47092B4054091B40542
:105070004111A4CC4091BA055091BB05B9016F5FB5
:105080007F4F7093B6056093B505649EF001659EF1
:10509000F00D1124E20FF31FEE53FA4F808392CCF0
:1050A0006E960FB6F894DEBF0FBECDBFDF91CF91E5
:1050B0001F910F91FF90EF90DF90CF90BF90AF9036
:1050C0009F908F907F906F905F904F903F902F9028
:1050D0000895CF92DF92EF92FF920F931F938091EA
:1050E000B8059091B90503970CF403DC0E9400E623
:1050F0000091AA051091AB052091AC053091AD054A
:10510000C090AE05D090AF05E090B005F090B1052D
:105110006C197D098E099F0906171707280739079B
:1051200028F4012B022B032B09F0A7DB80910B0243
:1051300090910C02A0910D02B0910E02892B8A2B46
:105140008B2B89F10E9400E60091AE051091AF050E
:105150002091B0053091B105601B710B820B930B50
:1051600000910B0210910C0220910D0230910E0261
:105170000617170728073907B0F49091E50C8091BE
:10518000E40C981310C08091CF078823A1F01598E4
:1051900017984298A09A9FB7F89480910B0182606B
:1051A00080930B019FBF1F910F91FF90EF90DF90B5
:1051B000CF900C94C06D159A10929B07179A10927D
:1051C0009C07429A10929D07E5CF0E943D888091EE
:1051D000A005811138C081E08093A0058091470728
:1051E00090914807A0914907B0914A0780934307DF
:1051F00090934407A0934507B0934607E3E6F9E090
:105200008491882341F09091C00095FFFCCF80935A
:10521000C6003196F5CFEEEAF3E08491882341F0A1
:105220009091C00095FFFCCF8093C6003196F5CFDA
:105230008091C00085FFFCCF8AE08093C60084EA9D
:1052400093E00C94D1AA08958091A0050895CF937E
:10525000DF93EC01809186078093A10584E50E948D
:10526000671F811102C080E075C00E94531F0E9419
:10527000FEED6093A1056230B0F3EDE5F9E08491B5
:10528000882341F09091C00095FFFCCF8093C60029
:105290003196F5CFCD36D105B9F054F4C836D105E5
:1052A000B1F0C936D10509F045C0E8E8F3E021C006
:1052B000CA3DD10531F0CD3DD105E1F5E3E4F3E0A0
:1052C00036C0EAE5F3E029C0E1E7F3E01CC0EFE90E
:1052D000F3E08191882371F19091C00095FFFCCF9C
:1052E0008093C600F6CF9091C00095FFFCCF8093CD
:1052F000C60081918111F7CF1DC09091C00095FF2C
:10530000FCCF8093C60081918111F7CF13C090919B
:10531000C00095FFFCCF8093C60081918111F7CF2B
:1053200009C09091C00095FFFCCF8093C600819189
:105330008111F7CF40E050E06091A10586E195E052
:105340000E941C1A8091C00085FFFCCF8AE08093E8
:10535000C60081E0DF91CF9108953F924F925F9216
:105360006F927F928F929F92AF92BF92CF92DF9275
:10537000EF92FF920F931F93CF93DF93CDB7DEB7DA
:10538000E4970FB6F894DEBF0FBECDBF87E40E944E
:10539000671F882309F46BC20E94531F0E94F9ED16
:1053A0006A30710509F4ACC09CF46230710509F4EF
:1053B0004CC024F477FF25C00C947C426330710507
:1053C00009F44CC06430710509F453C00C947C425C
:1053D0006A35710509F4F7C154F46B30710509F4AD
:1053E000B2C06C31710509F4B9C00C947C426B35C4
:1053F000710509F4ECC16C35710509F4EDC10C942B
:105400007C428091A00581110C947C420E94DF1F98
:10541000809183078823A9F088E50E94671F811186
:1054200010C089E50E94671F81110BC08AE50E94A8
:10543000671F811106C085E40E94671F81110C94CB
:105440007F420E941E210C9440448091A00581114E
:105450000C947C420E945E2081E008C08091A005EF
:1054600081110C947C420E945E2080E054D90C94FF
:1054700040448BEB96E00E94D1AA80E50E94671F12
:10548000882339F00E94531F0E94FEED4B015C01FE
:1054900003C0812C912C540183E50E94671F88234F
:1054A00061F00E94531F20E030E04AE754E40E947C
:1054B0005FF00E94FEED4B015C010E9474810E942E
:1054C00000E66B017C01C80CD91CEA1CFB1C0E9485
:1054D00000E66093AE057093AF058093B00590939E
:1054E000B1050E9400E66C157D058E059F0510F044
:1054F0000C947C420E943584ECDD0E94ABD9F1CF44
:105500000091860710E083E50E94671F882359F009
:105510000E945C1F21E0613071058105910509F051
:1055200020E0822F01C080E0F801E158F84F80832D
:10553000E0918607F0E0E158F84F608181E00E9439
:10554000DD210C947C42E0918607F0E0E158F84FB1
:10555000608180E00E94DD210C947C4280910F02EA
:1055600090911002A0911102B091120280934F0706
:1055700090935007A0935107B09352078091510226
:10558000909152029093C7078093C60784E690E0FB
:1055900090935202809351020E9400E66093AE0500
:1055A0007093AF058093B0059093B10581E00E94A0
:1055B0008F798091B6079091B707A091B807B09105
:1055C000B9078093630790936407A0936507B0932E
:1055D00066078091BA079091BB07A091BC07B09174
:1055E000BD078093670790936807A0936907B093FE
:1055F0006A078091BE079091BF07A091C007B09144
:10560000C10780936B0790936C07A0936D07B093CD
:105610006E078091C2079091C307A091C407B09113
:10562000C50780936F0790937007A0937107B0939D
:10563000720710920F021092100210921102109233
:10564000120288E50E94671F882311F090E00AC0CB
:1056500089E50E94671F8111F9CF8AE50E94671FC3
:1056600091E098279093130291110C94AE4288E533
:105670000E94671F81110C94AE4280911302811128
:105680000C94B44289E50E94671F81110C94B442C6
:1056900088E50E94671F8823D1F00E945C1F672B5A
:1056A000682B692BA1F00E94531F2091AA0730910B
:1056B000AB074091AC075091AD070E94B1EC6093ED
:1056C000B6077093B7078093B8079093B90789E539
:1056D0000E94671F8823D1F00E945C1F672B682BF4
:1056E000692BA1F00E94531F2091AE073091AF07A4
:1056F0004091B0075091B1070E94B1EC6093BA0796
:105700007093BB078093BC079093BD0780911302F1
:1057100081110C94BA428AE50E94671F81110C9492
:10572000BA428AE50E94671F8823D1F00E945C1F5D
:10573000672B682B692BA1F00E94531F2091B207A1
:105740003091B3074091B4075091B5070E94B1EC76
:105750006093BE077093BF078093C0079093C10703
:1057600022EC37E04EEB57E06AEB77E086EB97E010
:105770000E94D37780E00E948F7980914F079091AB
:105780005007A0915107B091520780930F02909358
:105790001002A0931102B09312028091C60790915B
:1057A000C70790935202809351020E9400E66093D3
:1057B000AE057093AF058093B0059093B1050E943C
:1057C00088790C947C42109242070C947C4281E0D0
:1057D000809342070C947C4285E40E94671F8111EC
:1057E00002C00E94748107E8C02E04E0D02E8AEA2D
:1057F000E82E87E0F82E06EB17E0B12CF601819138
:105800006F010E94671F882339F1F3E0BF120CC0BB
:105810000E94531FF801608371838283938382EC1B
:1058200097E00E94787818C00E94531FF7012081EA
:105830003181428153810E94B1ECF8016083718310
:105840008283938322EC37E04EEB57E06AEB77E0FC
:1058500086EB97E00E94D377B394F4E0EF0EF11C4F
:105860000C5F1F4F24E0B212C9CF0C947C428DE430
:105870000E94671F882311F40C942B410E94531F30
:105880000E94F9ED6737710509F4A1C10CF0D1C090
:105890006032710509F4D8C20CF05FC06731710540
:1058A00009F42AC29CF56231710511F40C94893413
:1058B000FCF477FF02C00C947C42623071050CF45A
:1058C0008AC16131710511F00C947C4282E996E045
:1058D0000E94D1AA159817984298A0989FB7F8945B
:1058E00080910B018D7F80930B019FBF0C947C42B4
:1058F0006531710509F4F4C10CF0F8C1643171052A
:1059000011F00C947C42E2E8F6E0C6C16B317105FF
:1059100009F41FC2B4F46931710509F406C20CF030
:105920000AC28CEC97E00E941F600E9400E6609320
:10593000A6057093A7058093A8059093A9050C94DC
:105940007C426E31710509F440C20CF01BC36C310E
:10595000710509F404C20C947C426836710509F49F
:10596000FAC374F56335710509F4CEC764F4613583
:10597000710509F494C70CF0C3C76A32710509F4C4
:105980009CC30C947C426535710511F40C94C934A8
:105990000CF4BFC76C35710511F00C947C4227E8FC
:1059A00034E038AB2FA707E112E127E2822E22E193
:1059B000922E3BEDA32E31E1B32E312C0C944535C4
:1059C0006D36710509F441C5DCF46A36710509F4D8
:1059D00022C70CF40FC46B36710511F00C947C4295
:1059E0001A8219821092EF121092EE12CE010196D5
:1059F0000E941C8F90938507809384070C947C42AF
:105A00006237710511F40C947B353CF460377105F5
:105A100011F00C947C420E943D246337710511F40F
:105A20000C9457356537710511F40C9466350C9458
:105A30007C426D3D710511F40C941F3A0CF04BC083
:105A40006C3C710511F40C940B3824F56E3B710518
:105A500009F4C1C574F46937710511F40C9460360A
:105A600014F40C945B366C38710509F4A4C30C94DF
:105A70007C42693C710511F40C94CD376B3C710587
:105A800011F40C94EE37683C710511F00C947C42D3
:105A90000C945537603D710511F40C94E13854F4C1
:105AA0006E3C710511F40C948D3814F40C942D385F
:105AB0000C94AA386A3D710511F40C9471396C3D4F
:105AC000710511F40C940E3A613D710511F00C94BE
:105AD0007C420C940939643F31E0730711F40C9453
