:100000000C94240F0C94510F0C94510F0C94510F1D
:100010000C94510F0C94510F0C94510F0C94510FE0
:100020000C94510F0C94510F0C94510F0C94510FD0
:100030000C94510F0C94F9E70C94510F0C94510F40
:100040000C94510F0C94B8830C94510F0C94510FD5
:100050000C94510F0C94510F0C94588D0C9446E451
:100060000C94510F0C9476270C94510F0C94510F53
:100070000C94510F0C94510F0C94510F0C94510F80
:100080000C944F820C94510F0C94510F0C94510FFF
:100090000C94510F0C94510F0C94510F0C94CDE013
:1000A0000C94510F0C94510F0C9422820C94510F0C
:1000B0000C94510F0C94510F0C94510F0C94F5812A
:1000C0000C94510F0C94510F0C94510F0C94510F30
:1000D0000C94510F0C94510F0C94510F0C94510F20
:1000E0000C94510F084AD73B3BCE016E84BCBFFD38
:1000F000C12F3D6C74319ABD56833DDA3D00C77FF8
:1001000011BED9E4BB4C3E916BAAAABE0000008090
:100110003F05A84CCDB2D44EB93836A9020C50B91F
:10012000918688083CA6AAAA2ABE000000803F4DFE
:10013000383420582059205A2045006563686F3AAA
:100140000043616E6E6F7420656E74657220737506
:10015000626469723A20004D3234004D32332025FA
:1001600073006175746F25692E67004572726F7236
:100170003A006572726F722077726974696E6720D7
:10018000746F2066696C65004E6F74205344207054
:1001900072696E74696E67002F0053442070726933
:1001A0006E74696E67206279746520002E00446564
:1001B0006C6574696F6E206661696C65642C20469D
:1001C000696C653A200046696C652064656C6574ED
:1001D00065643A002E006F70656E206661696C651B
:1001E000642C2046696C653A200057726974696E08
:1001F0006720746F2066696C653A20002E006F706E
:10020000656E206661696C65642C2046696C653A90
:1002100020002E006F70656E206661696C65642C2D
:100220002046696C653A200046696C652073656CF0
:100230006563746564002053697A653A20004669F5
:100240006C65206F70656E65643A20002E006F70DB
:10025000656E206661696C65642C2046696C653A40
:1002600020004E6F772066726573682066696C6542
:100270003A20004E6F7720646F696E672066696C64
:10028000653A20002220706F730022207061726531
:100290006E743A2200535542524F5554494E4520F0
:1002A00043414C4C207461726765743A2200747249
:1002B00079696E6720746F2063616C6C207375625E
:1002C0002D67636F64652066696C65732077697458
:1002D0006820746F6F206D616E79206C6576656C37
:1002E000732E204D4158206C6576656C2069733AF9
:1002F0000053442063617264206F6B006F70656E01
:10030000526F6F74206661696C656400766F6C75FE
:100310006D652E696E6974206661696C6564005351
:100320004420696E6974206661696C006563686F5A
:100330003A0048617264636F646564204465666175
:10034000756C742053657474696E6773204C6F61AB
:10035000646564002044002049002020204D333093
:10036000312050005049442073657474696E67737E
:100370003A00205A0020590020204D3230362058B3
:1003800000486F6D65206F666673657420286D6D1B
:10039000293A00204500205A002058002042002021
:1003A000540020204D323035205300416476616E78
:1003B000636564207661726961626C65733A20538B
:1003C0003D4D696E20666565647261746520286DB7
:1003D0006D2F73292C20543D4D696E207472617607
:1003E000656C20666565647261746520286D6D2F8B
:1003F00073292C20423D6D696E696D756D207365A2
:10040000676D656E742074696D6520286D73292C85
:1004100020583D6D6178696D756D205859206A6569
:10042000726B20286D6D2F73292C20205A3D6D6131
:1004300078696D756D205A206A65726B20286D6D24
:100440002F73292C2020453D6D6178696D756D20D5
:1004500045206A65726B20286D6D2F73290020542A
:100460000020204D323034205300416363656C65B9
:10047000726174696F6E3A20533D616363656C65A8
:10048000726174696F6E2C20543D72657472616381
:100490007420616363656C65726174696F6E0020BE
:1004A0004500205A0020590020204D32303120587C
:1004B000004D6178696D756D20416363656C65728F
:1004C0006174696F6E20286D6D2F7332293A002098
:1004D0004500205A0020590020204D32303320584A
:1004E000004D6178696D756D206665656472617433
:1004F000657320286D6D2F73293A00204500205A1E
:100500000020590020204D39322058005374657066
:10051000732070657220756E69743A006563686F48
:100520003A004572726F723A0053544F505045442E
:100530002E20005072696E7465722073746F707033
:1005400065642064756520746F206572726F7273C4
:100550002E2046697820746865206572726F72205B
:10056000616E6420757365204D39393920746F20B0
:10057000726573746172742E202854656D70657293
:1005800061747572652069732072657365742E20BD
:100590005365742069742061667465722072657396
:1005A00074617274696E6729004B494C4C45442E46
:1005B00020005072696E7465722068616C746564A5
:1005C0002E206B696C6C28292063616C6C6564213A
:1005D000006F6B00526573656E643A20002200550F
:1005E0006E6B6E6F776E20636F6D6D616E643A2017
:1005F00022004368616E67652066696C616D656E97
:1006000074005A204F6666736574203A20007A5F42
:100610006D61783A20007A5F6D696E3A20005A2049
:100620004F6666736574005A204F66667365742062
:100630006F6B00486F74656E64206F6666736574D7
:10064000733A002200556E6B6E6F776E20636F6D8C
:100650006D616E643A2022007A5F6D61783A200005
:100660007A5F6D696E3A2000795F6D61783A20009B
:10067000795F6D696E3A2000785F6D61783A20008D
:10068000785F6D696E3A2000205A3A0020593A008E
:1006900020436F756E7420583A200020453A0020A0
:1006A0005A3A0020593A00583A004649524D5741AB
:1006B00052455F4E414D453A4D61726C696E205610
:1006C000313B20537072696E7465722F6772626C71
:1006D000206D617368757020666F722067656E3675
:1006E000204649524D574152455F55524C3A687425
:1006F00074703A2F2F6669726D776172652E756C12
:1007000074696D616B65722E636F6D2050524F542A
:100710004F434F4C5F56455253494F4E3A312E305E
:10072000204D414348494E455F545950453A556C18
:1007300074696D616B657220455854525544455239
:100740005F434F554E543A3220555549443A303064
:100750003030303030302D303030302D303030309F
:100760002D303030302D303030303030303030308F
:1007700030300A00556C74696D616B6572204F668C
:10078000662E0042656420646F6E652E0020423A3A
:100790000020453A00543A0042656420486561747F
:1007A000696E672E0048656174696E6720646F6EBC
:1007B000652E0020573A0020453A00543A0048651B
:1007C0006174696E672E2E2E002042403A00204050
:1007D0003A00202F003A00205400202F0020423AF7
:1007E00000202F006F6B20543A002569206D696E40
:1007F0002C2025692073656300456E642066696C52
:1008000065206C69737400426567696E2066696C67
:1008100065206C697374004E6F206D6F76652E00D5
:10082000526573756D696E67207072696E740057DA
:1008300061697420666F7220757365722E2E2E00AA
:10084000536C6565702E2E2E00FFFFFF00004D4398
:1008500000004D43000048430000A0400000A040BD
:100860000000004000000000000000000000000048
:1008700000000000000000000000000000004D43E8
:1008800000004D4300004843256920686F7572736E
:10089000202569206D696E7574657300446F6E65FF
:1008A000207072696E74696E672066696C650053AA
:1008B000544F505045442E20005072696E7465723A
:1008C0002073746F707065642064756520746F2088
:1008D0006572726F72732E20466978207468652085
:1008E0006572726F7220616E6420757365204D3978
:1008F000393920746F20726573746172742E2028E8
:1009000054656D70657261747572652069732072CB
:10091000657365742E205365742069742061667454
:1009200065722072657374617274696E6729006FF5
:100930006B004E6F204C696E65204E756D6265725E
:10094000207769746820636865636B73756D2C200C
:100950004C617374204C696E653A20004E6F2043E1
:100960006865636B73756D2077697468206C696E58
:1009700065206E756D6265722C204C617374204C1D
:10098000696E653A2000636865636B73756D206DF1
:1009900069736D617463682C204C617374204C69B9
:1009A0006E653A20004C696E65204E756D62657209
:1009B000206973206E6F74204C617374204C696ED3
:1009C00065204E756D6265722B312C204C617374FD
:1009D000204C696E653A20004D31313000446F6E15
:1009E0006520736176696E672066696C652E006F9D
:1009F0006B004D3239002020506C616E6E65724282
:100A0000756666657242797465733A200020467295
:100A10006565204D656D6F72793A20004D617220D9
:100A20003233203230313600436F6D70696C65644B
:100A30003A2000434520636F6E66696700207C2082
:100A4000417574686F723A20004D61722032332014
:100A5000323031362032323A32373A333000204C9D
:100A600061737420557064617465643A2000312E9E
:100A7000302E30004D61726C696E0020536F6674C9
:100A800077617265205265736574002057617463E5
:100A900068646F67205265736574002042726F77D7
:100AA0006E206F75742052657365740020457874EC
:100AB00065726E616C20526573657400506F776566
:100AC000725570007374617274002200656E7175E6
:100AD00065696E672022002200656E717565696E1A
:100AE000672022006563686F3A0020746F6F206C86
:100AF0006F6E6720657874727573696F6E2070729F
:100B00006576656E7465640020636F6C642065783B
:100B100074727573696F6E2070726576656E746538
:100B2000640041414141E141414345454545494911
:100B3000494944EE4F4F4F4FEF784F555555F559B2
:100B400054E261616161E16161636565656569697F
:100B5000696964EE6F6F6F6FEFFD6F757575F5798D
:100B60007479007C3C3E5E2B3D3F2F5B5D3B2C2A25
:100B7000225C0045303A20005A3A2000593A2000C1
:100B8000583A20004D53312C4D53322050696E732A
:100B90000A0024F404D9201BC40C5C0E9804C40978
:100BA0005F0265077101F405F900FB04B300480416
:100BB0008700C10369005803550003034500BE02C6
:100BC0003A008402310053022A002902250004025F
:100BD0002000E4011C00C8011900AF0117009801B2
:100BE0001400840113007101100061011000510113
:100BF0000E0043010D0036010B002B010B002001FC
:100C00000B00150109000C01090003010800FB009D
:100C10000800F3000800EB000700E4000600DE0017
:100C20000600D8000600D2000600CC000500C70070
:100C30000500C2000500BD000400B9000400B500B5
:100C40000400B1000400AD000400A9000400A500E8
:100C50000300A20003009F0004009B000300980013
:100C600003009500020093000300900003008D0034
:100C700002008B000300880002008600020084004E
:100C80000300810002007F0002007D0002007B0063
:100C90000200790002007700010076000200740073
:100CA000020072000100710002006F0002006D007E
:100CB00001006C0002006A00010069000200670088
:100CC000010066000100650001006400020062008E
:100CD000010061000100600001005F0002005D0092
:100CE00001005C0001005B0001005A000100590096
:100CF0000100580001005700010056000100550096
:100D00000100540001005300000053000100520094
:100D1000010051000100500001004F0001004E0091
:100D200000004E0001004D0001004C0001004B008E
:100D300000004B0001004A0001004900010048008A
:100D40000000480001004700010046000000460086
:100D5000010045000000450001004400010043007F
:100D60000000430001004200000042000100410079
:100D7000000041000100400001003F0000003F0072
:100D800001003E0000003E0001003D0000003D006B
:100D900001003C0000003C0000003C0001003B0062
:100DA00000003B0001003A0000003A000100390059
:100DB0000000390001003800000038000000380051
:100DC0000100370000003700010036000000360047
:100DD000000036000100350000003500000035003D
:100DE0000100340000003400000034000100330032
:100DF0000000330000003300010032000000320028
:100E0000000032000100310000003100000031001C
:100E100001003000000030000000300001002F0011
:100E200000002F0000002F0000002F0001002E0006
:100E300000002E0000002E0001002D0000002D00FB
:100E400000002D0000002D0001002C0000002C00EF
:100E500000002C0000002C0001002B0000002B00E3
:100E600000002B0000002B0001002A0000002A00D7
:100E700000002A0000002A000100290000002900CB
:100E800000002900000029000000290001002800BE
:100E900000002800000028000000280000002800B2
:100EA00001002700000027000000270000002700A5
:100EB0000000270001002600000026000000260098
:100EC000000026000000260001002500000025008B
:100ED000000025000000250000002500000025007E
:100EE0000100240000002400000024000000240071
:100EF0000000240001002300000023000000230064
:100F00000000230000002300000023000000230055
:100F10000100220000002200000022000000220048
:100F2000000022000000220001002100000021003A
:100F3000000021000000210000002100000021002D
:100F4000000021000100200000002000000020001F
:100F50000000200000002000000020000000200011
:100F60000000200001001F0000001F0000001F0003
:100F700000001F0000001F0000001F0000001F00F5
:100F800001001E0000001E0000001E0000001E00E8
:100F9000000024F4D43050C38E20C2A24017828BAC
:100FA0007011127A910D816CD90AA861E108C758B5
:100FB0006607615143061E4B5D05C145A7041A41F2
:100FC0001104093D9803713931034036DB02653362
:100FD0009102D4305402802E1D02632CEE01752A3A
:100FE000C501B028A001102781018F2564012B24A1
:100FF0004B01E0223401AC211F018D200D01801F27
:10100000FC00841EED00971DDF00B81CD200E61B1B
:10101000C600201BBC00641AB200B219A8000A194D
:10102000A0006A189900D117910040178B00B516DF
:10103000840031167E00B31579003A157300C71489
:101040006F0058146A00EE136600881363002513BE
:101050005E00C7125B006C12570015125400C111DC
:10106000510070114F0021114B00D61049008D1016
:1010700047004610440002104200C00F4000800F9D
:101080003E00420F3C00060F3B00CB0E3800930E93
:1010900037005C0E3500270E3400F30D3200C10D11
:1010A0003100900D3000600D2E00320D2D00050D29
:1010B0002C00D90C2B00AE0C2900850C29005C0CEF
:1010C0002700350C27000E0C2600E80B2400C40B6B
:1010D0002400A00B23007D0B23005A0B2100390BA9
:1010E0002100180B2000F80A1F00D90A1E00BB0AB5
:1010F0001E009D0A1D00800A1D00630A1C00470A8D
:101100001B002C0A1B00110A1A00F7091A00DD093E
:101110001900C4091900AB091900920917007B09CD
:101120001800630917004C0916003609160020093B
:1011300016000A091500F5081500E0081400CC088F
:101140001400B8081400A4081400900813007D08C7
:1011500012006B08130058081200460812003408E9
:101160001100230811001208110001081100F007F6
:101170001000E0071000D0071000C0071000B007F3
:101180000F00A107100091070E0083070F007407DE
:101190000F0065070E0057070E0049070E003B07BA
:1011A0000D002E070E0020070D0013070D00060787
:1011B0000D00F9060C00ED060D00E0060C00D4064B
:1011C0000C00C8060C00BC060C00B0060C00A406FF
:1011D0000B0099060C008D060B0082060B007706AB
:1011E0000B006C060B0061060A0057060B004C064C
:1011F0000A0042060A0038060A002E060A002406E3
:101200000A001A060A001006090007060A00FD0572
:101210000900F4050900EB050900E2050900D905FC
:101220000900D0050900C7050900BE050900B5057C
:101230000800AD050800A50509009C0508009405F7
:1012400008008C050800840508007C05080074056A
:1012500008006C050700650508005D0507005605D8
:1012600008004E050700470507004005080038053F
:101270000700310507002A050700230507001C05A4
:101280000600160507000F05070008050600020501
:101290000700FB040600F5040700EE040600E8045E
:1012A0000600E2040700DB040600D5040600CF04B4
:1012B0000600C9040600C3040600BD040600B70406
:1012C0000600B1040500AC040600A6040600A00454
:1012D00005009B04060095040500900406008A049E
:1012E000050085040500800406007A0405007504E5
:1012F0000500700405006B04050066040500610428
:1013000005005C04050057040500520405004D0467
:10131000050048040500430405003E0404003A04A7
:10132000050035040500300404002C0405002704E2
:101330000400230405001E0404001A04040016041B
:101340000500110404000D04040009040500040450
:10135000040000040400FC030400F8030400F40388
:101360000400F0030400EC030400E8030400E403B9
:101370000400E0030400DC030400D8030400D403E9
:101380000400D0030400CC030400C8030300C50319
:1013900003006563686F3A00656E6473746F707301
:1013A000206869743A205A00205A3A00656E6473C6
:1013B000746F7073206869743A20590020593A009C
:1013C000656E6473746F7073206869743A20580096
:1013D00020583A00656E6473746F70732068697486
:1013E0003A20004572726F723A004572723A204D8F
:1013F000415854454D50204245440054656D706538
:1014000072617475726520686561746564206265D7
:1014100064207377697463686564206F66662E2044
:101420004D415854454D5020747269676765726527
:1014300064202121004572723A204D494E54454D99
:1014400050003A204578747275646572207377692C
:101450007463686564206F66662E204D494E54455E
:101460004D5020747269676765726564202100457C
:1014700072723A204D415854454D50003A204578FB
:10148000747275646572207377697463686564202B
:101490006F66662E204D415854454D502074726938
:1014A000676765726564202100202D20496E766192
:1014B0006C6964206578747275646572206E756DF0
:1014C00062657220210070012C0190012701B0019A
:1014D0002201C0011D01F0011801100213013002A8
:1014E0000E016002090190020401C002FF00000326
:1014F000FA004003F5008003F000D003EB00200465
:10150000E6007004E100E004DC004005D700C005FF
:10151000D2004006CD00D006C8008007C3003008C6
:10152000BE00F008B900C009B400B00AAF00B00BAB
:10153000AA00D00CA500000EA000500F9B00C01008
:1015400096005012910000148C00C0158700B0174F
:101550008200B0197D00D01B7800001E730040206F
:101560006E0090226900F024640040275F009029FB
:101570005A00E02B5500102E500020304B00103246
:101580004600E033410090353C001037370070389A
:101590003200A0392D00B03A2800A03B2300603C67
:1015A0001E00103D1900903D1400103E0F00703ECB
:1015B0000A00C03E0500003F00005049442041752C
:1015C000746F74756E652066696E697368656421F1
:1015D0002050757420746865206C617374204B70A2
:1015E0002C204B6920616E64204B6420636F6E7306
:1015F00074616E74732066726F6D2061626F7665C0
:1016000020696E746F20436F6E66696775726174CE
:10161000696F6E2E6800504944204175746F74756F
:101620006E65206661696C6564212074696D656F03
:1016300075740020403A006F6B20543A006F6B20A5
:10164000423A00504944204175746F74756E6520AC
:101650006661696C6564212054656D7065726174A2
:1016600075726520746F6F206869676800204B642D
:101670003A2000204B693A2000204B703A2000208D
:10168000436C617373696320504944200020547592
:101690003A2000204B753A2000206D61783A2000F6
:1016A000206D696E3A200020643A20002062696152
:1016B000733A20002D2D3A2D2D002D2D2D00534451
:1016C000000120000120000120004E6F2053442023
:1016D00063617264005072696E742066726F6D206F
:1016E00053440053746F70207072696E74005265B9
:1016F00073756D65207072696E74005061757365E5
:10170000207072696E7400436F6E74726F6C00505B
:101710007265706172650054756E6500496E666F22
:101720002073637265656E00052E2E004D61696E33
:10173000004D3234004D3233202573004D383420B3
:10174000582059205A204500473031205831302048
:101750005931302046353030300047303120583153
:101760003020593130205A31302046353030300069
:101770004D3630312058313020593230205A302007
:101780004C3330004D363031205831302059323012
:10179000205A32204C3330004D3630312058313011
:1017A00020593230205A3230204C33300052657389
:1017B000746F7265206661696C736166650052655D
:1017C0007472616374004D6F74696F6E0054656D5F
:1017D0007065726174757265004D61696E00556E59
:1017E00052657420205600556E52657420205600B4
:1017F0005320556E5265742B6D6D005320556E52FB
:1018000065742B6D6D00556E526574202B6D6D00E7
:10181000556E526574202B6D6D00486F70206D6D94
:1018200000486F70206D6D005265747261637420A2
:1018300020560052657472616374202056005377FD
:1018400061702052652E6D6D005377617020526576
:101850002E6D6D0052657472616374206D6D00525F
:10186000657472616374206D6D004F6666004F6E23
:1018700020004F6666004F6E20004175746F526500
:1018800074722E00436F6E74726F6C0045737465D2
:1018900070732F6D6D004573746570732F6D6D00DF
:1018A0005A73746570732F6D6D005A73746570731D
:1018B0002F6D6D005973746570732F6D6D005973C2
:1018C000746570732F6D6D005873746570732F6D30
:1018D0006D005873746570732F6D6D00412D7265C6
:1018E000747261637400412D726574726163740077
:1018F000416D6178206500416D6178206500416D22
:101900006178207A00416D6178207A00416D6178BC
:10191000207900416D6178207900416D61782078EF
:1019200000416D61782078005654726176206D69AF
:101930006E005654726176206D696E00566D696E48
:1019400000566D696E00566D6178206500566D61B8
:1019500078206500566D6178207A00566D61782098
:101960007A00566D6178207900566D617820790093
:10197000566D6178207800566D6178207800566544
:101980002D6A65726B0056652D6A65726B00567A1A
:101990002D6A65726B00567A2D6A65726B005678F7
:1019A000792D6A65726B005678792D6A65726B00C5
:1019B000416363656C00416363656C00436F6E74E3
:1019C000726F6C00507265686561742041425320EB
:1019D000636F6E66005072656865617420504C419B
:1019E00020636F6E66005049442D43005049442DDA
:1019F00043005049442D44005049442D440050496F
:101A0000442D49005049442D49005049442D50006F
:101A10005049442D5000200220466163740020028A
:101A20002046616374002002204D6178002002206E
:101A30004D6178002002204D696E002002204D6922
:101A40006E004F6666004F6E20004F6666004F6E58
:101A500020004175746F74656D700046616E20736F
:101A6000706565640046616E207370656564004250
:101A7000656400426564004E6F7A7A6C6532004E90
:101A80006F7A7A6C6532004E6F7A7A6C65004E6FB1
:101A90007A7A6C6500436F6E74726F6C0042656495
:101AA00000426564004E6F7A7A6C65004E6F7A7AF8
:101AB0006C650046616E2073706565640046616EFA
:101AC0002073706565640054656D7065726174752E
:101AD00072650042656400426564004E6F7A7A6CFC
:101AE00065004E6F7A7A6C650046616E2073706592
:101AF00065640046616E2073706565640054656DB1
:101B00007065726174757265004D6F7665206178DD
:101B1000697300436F6F6C646F776E005072656815
:101B2000656174204142530050726568656174209C
:101B3000504C4100473238004175746F20686F6D1A
:101B400065004D38340044697361626C65207374BC
:101B5000657070657273004D61696E004D6F7665DA
:101B600020302E316D6D004D6F766520316D6D002A
:101B70004D6F76652031306D6D0050726570617209
:101B800065004578747275646572004D6F766520E6
:101B90005A004D6F76652059004D6F7665205800CC
:101BA0004D6F76652061786973004578747275644D
:101BB0006572005A0059005800507265686561747A
:101BC000204142532042656400507265686561742B
:101BD0002041425320416C6C00507265686561740D
:101BE0002041425320320050726568656174204183
:101BF0004253203100507265706172650050726509
:101C00006865617420504C412042656400507265E3
:101C10006865617420504C4120416C6C00507265C5
:101C20006865617420504C412032005072656865CF
:101C3000617420504C4120310050726570617265B2
:101C4000004D363030004368616E67652066696C10
:101C5000616D656E7400466C6F77203100466C6F65
:101C600077203100466C6F77203000466C6F77200C
:101C70003000466C6F7700466C6F770046616E20CF
:101C800073706565640046616E20737065656400FD
:101C900042656400426564004E6F7A7A6C6532007A
:101CA0004E6F7A7A6C6532004E6F7A7A6C65004EB0
:101CB0006F7A7A6C65005370656564005370656572
:101CC00064004D61696E00436172642072656D6FDE
:101CD000766564004361726420696E736572746531
:101CE000640000002100240027002A002D0030009D
:101CF000330001010000040107010A010000220075
:101D0000250028002B002E003100340002010000C5
:101D1000050108010B010000200023002600290016
:101D20002C002F0032000001000003010601090110
:101D300005050505070508080808020202020A0A47
:101D40000808040404040101010101010101030365
:101D5000030303030303040707070C0C0C0C0C0C10
:101D60000C0C0202020206060606060606060B0B0D
:101D70000B0B0B0B0B0B010210202008081020404E
:101D8000102040800201020108040201010204083F
:101D900010204080804020100804020180040201CD
:101DA0008040201008040201080402010102040816
:101DB0001020408001020408102040800000090A21
:101DC00002080B0C0D0706030401000000000000D0
:101DD0000000000000000000000000000000000003
:101DE000000000000000000011100F0000000000C3
:101DF00000000000000000000000000000000000E3
:101E0000000002494E46494E4954594E414ECDCCF0
:101E1000CC3D0AD7233C17B7D13877CC2B329595D8
:101E2000E6241FB14F0A000020410000C8420040D4
:101E30001C4620BCBE4CCA1B0E5AAEC59D740A2857
:101E4000BB2AEA9F3CE0B62A11241FBECFEFD1E2A5
:101E5000DEBFCDBF00E00CBF15E0A0E0B2E0E8E0DF
:101E6000F2EE01E00BBF02C007900D92A231B10764
:101E7000D9F71BBE14E1A2E1B5E001C01D92A43563
:101E8000B107E1F71EE1C6E4DEE104C02297FE01DE
:101E90000E94AAF0CE33D107C9F70E9453E70C94F1
:101EA000F8F00C940000A0E0B0E0E9E5FFE00C944D
:101EB000C7F0EC015B016115710519F0FB0191831D
:101EC0008083F9908F2D90E00E94AEF0892BC9F7A6
:101ED000FDE2FF1621F4F990EE24E39405C02BE215
:101EE000F21609F4F990EE248E0101501040C80159
:101EF00063E07EE143E050E072D2892BF9F48E0179
:101F00000E5F1F4FC80166E07EE145E050E067D2FA
:101F1000892B19F48E01095F1F4FA114B10419F028
:101F2000F50111830083E0FC04C070E090E080E8DC
:101F300013C070E090E080E86FEF07C1C8016BE06C
:101F40007EE143E050E04BD2892B69F4A114B10447
:101F500029F470E090E080EC6FE7F7C02296F5017D
:101F6000D183C083F6CF8824992440E050E060E01C
:101F700070E0EF2DE053EA30A0F5F2E0EF2A8E2D6D
:101F800090E09C0128703070E2FE06C0232B79F5AA
:101F90000894811C911C2BC0232B19F008948108F4
:101FA0009108DB01CA0112E0880F991FAA1FBB1F0D
:101FB0001A95D1F7480F591F6A1F7B1F440F551FF1
:101FC000661F771F4E0F511D611D711D483929E98C
:101FD000520729E9620729E1720748F084E0E82AFC
:101FE00006C0EE3F31F4E3FC39C098E0E92AF990ED
:101FF000C0CFE53311F0E53189F529912D3219F47F
:10200000E0E1EE2A05C02B3219F081E090E003C038
:10201000299182E090E0E22FE053EA3018F0C81BEB
:10202000D90B1CC020E030E0FCE020383F075CF416
:10203000C901880F991F880F991F280F391F220F78
:10204000331F2E0F311DE991E053EA3068F3E4FEAF
:1020500003C0309521953F4F820E931ECE2CDD2478
:10206000E1FE07C0A114B10421F02197F501D1834D
:10207000C083CB01BA010E9407ED7B018C01F3E024
:10208000CF22DD2423E0C216D10421F417FB1095E2
:1020900017F9109557016801C801B70120E030E039
:1020A00040E050E00E9467EC882309F44AC097FEA4
:1020B0000DC022E2E22E2EE1F22E9094819491083E
:1020C0009394C0E2D0E000E010E012C09AE3E92E61
:1020D0009EE1F92EF6CFF701259135914591549166
:1020E000C601B5010E9447EF5B016C018C1A9D0A85
:1020F0008C169D0684F7D595C7950F5F1F4F063048
:10210000110529F08CEF9FEFE80EF91EF1CFC50104
:10211000D6017C018D018C2D880F8D2D881F8F3F5E
:1021200051F0C601B50120E030E040E050E00E94EF
:1021300067EC882331F482E290E09093531480930B
:1021400052147E2D9F2D802F612F272F392F482F3E
:10215000562FB901CA01CDB7DEB7ECE00C94E3F01D
:102160002F923F925F926F927F928F929F92AF9247
:10217000BF92CF92DF92EF92FF920F931F93CF9374
:10218000DF938C011B01EA016115710519F0FB0158
:1021900091838083209749F0CE010297839728F09E
:1021A00020E030E040E050E0F6C0F801A1908F015F
:1021B0008A2D90E00E94AEF0892BB9F7FDE2AF16B0
:1021C00031F4F801A1908F015524539407C0FBE22C
:1021D000AF1619F4F801A1908F015524209719F03A
:1021E000C031D105C1F4F0E3AF1679F4F801808174
:1021F000883711F0883549F4F801A1800E5F1F4F30
:10220000F2E05F2AC0E1D0E006C0209721F480E32D
:10221000A816E9F427C0C830D10531F1C930D1057D
:1022200024F4C230D10531F50CC0CA30D10589F093
:10223000C031D105F9F4C12CD12CE12CB8E0FB2E32
:1022400028C0C12CD12CE12CA0E4FA2E22C0CAE077
:10225000D0E0FCECCF2EFCECDF2EFCECEF2EFCE013
:10226000FF2E17C0C8E0D0E0C12CD12CE12CE0E15A
:10227000FE2E0FC09E01442737FD4095542F60E08D
:1022800070E080E090E80E946BF0C901DA016C0117
:102290007D0120E030E040E050E060E03E01882435
:1022A00077FC8094982C70EDB72EBA0CE9E0EB1512
:1022B00070F48A2D81548A3118F499ECB92E06C035
:1022C0008A2D81568A3150F589EAB82EBA0C8B2DA9
:1022D00090E08C179D0714F56F3FE1F0C216D3060E
:1022E000E406F506B0F0CA01B901A40193010E9409
:1022F00019F09B01AC012B0D311D411D511D2130E9
:10230000F0E03F07F0E04F07F0E85F0710F461E00E
:1023100001C06FEFF801A1908F01C5CF21143104E6
:1023200081F0662331F001501040F10111830083E8
:1023300008C051FE1AC002501040F1011183008301
:1023400014C067FF12C050FC05C02FEF3FEF4FEFE6
:102350005FE704C020E030E040E050E882E290E037
:10236000909353148093521416C050FE08C0509599
:102370004095309521953F4F4F4F5F4F0CC057FF11
:102380000AC082E290E090935314809352142FEF8E
:102390003FEF4FEF5FE7B901CA01DF91CF911F9186
:1023A0000F91FF90EF90DF90CF90BF90AF909F90F4
:1023B0008F907F906F905F903F902F900895FB01DA
:1023C000DC0105900D920020E1F70895FC010590D5
:1023D0000020E9F7809590958E0F9F1F0895FB01CF
:1023E000DC014150504088F08D9181341CF08B35D8
:1023F0000CF4805E659161341CF06B350CF4605E0A
:10240000861B611171F3990B0895881BFCCFFB01AA
:10241000DC014150504048F005900D920020C9F772
:1024200001C01D9241505040E0F70895FB015591C5
:102430005523A9F0BF01DC014D9145174111E1F78A
:1024400059F4CD010590002049F04D9140154111FE
:10245000C9F3FB014111EFCF81E090E001970895AE
:10246000FB01DC0104C08D910190801921F44150E1
:102470005040C8F7881B990B0895FB01DC0102C08E
:1024800001900D9241505040D8F70895FB01DC01B6
:102490000D900020E9F7119701900D920020E1F7CF
:1024A0000895FC018191861721F08823D9F7992797
:1024B00008953197CF010895FB01DC018D910190C2
:1024C00080190110D9F3990B0895FB01DC010190EB
:1024D0000D920020E1F70895FB01DC0141505040CE
:1024E00030F08D910190801919F40020B9F7881B04
:1024F000990B0895FB01DC014150504048F00190D8
:102500000D920020C9F701C01D9241505040E0F7E4
:102510000895AEE0B0E0EFE8F2E10C94CFF00E8960
:102520001F898EE08C831A8309838FEF9FE79E8338
:102530008D839E01265E3F4FCE010196688D798D79
:10254000A9010AD02F813885020F131FF8011082CC
:102550002E96E4E00C94EBF0ABE0B0E0E2EBF2E1BD
:102560000C94C1F03C012B015A01FC011782168228
:10257000838181FD03C06FEF7FEFB9C19AE0892E9F
:102580001E010894211C311CF3012381F20123FD5B
:10259000859123FF81912F01882309F4A5C18532FC
:1025A00039F423FD859123FF81912F01853221F498
:1025B00090E0B301B7D1E8CF982FFF24EE249924FF
:1025C000FFE1FF15D0F09B3269F09C3228F4903285
:1025D00059F0933291F40EC09D3249F0903369F472
:1025E00041E024C052E0F52A84E0F82A28C098E0AF
:1025F000F92A25C0E0E1FE2A22C0F7FC29C0892F74
:1026000080538A3070F4F6FE05C0989C902C1124FB
:10261000980E15C0E89CE02C1124E80EF0E2FF2A89
:102620000EC09E3229F4F6FC5FC140E4F42A07C0D4
:102630009C3619F450E8F52A02C0983649F4F201A4
:1026400023FD959123FF91912F01992309F0B8CF94
:10265000892F8554833018F08052833038F444E059
:1026600050E0A40EB51E5FE359830FC0933631F0DE
:10267000933779F0933509F052C01FC0F50180817E
:10268000898342E050E0A40EB51E610101E010E034
:1026900011C0F501C080D180F6FC03C06FEF7FEF61
:1026A00002C0692D70E042E050E0A40EB51EC601E4
:1026B0002ED18C015FE7F52213C0F501C080D180D7
:1026C000F6FC03C06FEF7FEF02C0692D70E042E0BF
:1026D00050E0A40EB51EC6010FD18C0150E8F52ABA
:1026E000F3FE06C018C080E290E0B3011BD1EA946B
:1026F0008E2D90E008171907B0F30DC0F601F7FC16
:102700008591F7FE81916F0190E0B3010BD1E1104B
:10271000EA94015010400115110581F7E2C094368A
:1027200011F0993661F5F7FE08C0F501208131817D
:102730004281538184E090E00AC0F501808191815B
:102740009C01442737FD4095542F82E090E0A80E6D
:10275000B91E9FE6F92257FF09C050954095309564
:1027600021953F4F4F4F5F4FE0E8FE2ACA01B90164
:10277000A1012AE030E002D1D82ED2183FC095370F
:1027800029F41F2D1F7E2AE030E01DC01F2D197F68
:102790009F3661F0903720F4983509F0A5C00FC03E
:1027A000903739F0983709F09FC004C028E030E036
:1027B0000AC0106114FD146020E130E004C014FD73
:1027C000166020E132E017FF08C0F50160817181D9
:1027D0008281938144E050E008C0F50180819181BD
:1027E000BC0180E090E042E050E0A40EB51EA101E3
:1027F000C5D0D82ED2188FE7F82EF122F6FE0BC0E6
:102800005EEFF522D91438F4F4FE07C0F2FC05C0DF
:102810008FEEF82202C01D2D01C0192DF4FE0DC04F
:10282000FE01ED0DF11D8081803319F499EEF9223E
:1028300008C01F5FF2FE05C003C08F2D867809F027
:102840001F5F0F2DF3FC13C0F0FE0EC01E1510F01D
:102850009D2C0AC09D2C9E0C911A1E2D05C080E255
:1028600090E0B3015FD01F5F1E15C8F304C01E15B2
:1028700010F4E11A01C0EE2404FF0EC080E390E0E2
:10288000B30150D002FF1BC001FD03C088E790E0F8
:102890000EC088E590E00BC0802F867881F001FFA4
:1028A00002C08BE201C080E2F7FC8DE290E0B30150
:1028B00039D005C080E390E0B30134D09A94D914A4
:1028C000C8F3DA94F101ED0DF11D808190E0B301C0
:1028D00029D0DD20B1F705C080E290E0B30122D01D
:1028E000EA94EE20C9F750CEF30166817781CB01DF
:1028F0002B96E2E10C94DDF0FC01059061507040F4
:102900000110D8F7809590958E0F9F1F0895FC01B8
:102910006150704001900110D8F7809590958E0F0E
:102920009F1F08950F931F93CF93DF938C01EB01AB
:102930008B8181FF1BC082FF0DC02E813F818C8166
:102940009D812817390764F4E881F9810193F9839F
:10295000E88306C0E885F985802F1995892B31F425
:102960008E819F8101969F838E8302C00FEF1FEFA0
:10297000C801DF91CF911F910F910895FA01AA2705
:10298000283051F1203181F1E8946F936E7F6E5FB2
:102990007F4F8F4F9F4FAF4FB1E03ED0B4E03CD060
:1029A000670F781F891F9A1FA11D680F791F8A1F43
:1029B000911DA11D6A0F711D811D911DA11D20D0AA
:1029C00009F468943F912AE0269F11243019305D64
:1029D0003193DEF6CF010895462F4770405D419355
:1029E000B3E00FD0C9F7F6CF462F4F70405D4A33A2
:1029F00018F0495D31FD4052419302D0A9F7EACF6A
:102A0000B4E0A6959795879577956795BA95C9F798
:102A100000976105710508959B01AC010A2E06948B
:102A20005795479537952795BA95C9F7620F731F44
:102A3000841F951FA01D0895FC0112821382148229
:102A40000895FC018481882319F081E08283138238
:102A50000895FC018281882311F081E08383089529
:102A6000CF93DF93DC01FC01EA55FE4F8081918119
:102A70000097C9F1019791838083ED01CB5ADF4F15
:102A8000FD01EC58FF4F8BE1019009928150E1F775
:102A9000FD01ED5AFF4FAE58BF4F8D919C9111979C
:102AA000A257B04091838083FD01EC58FF4F20E096
:102AB00030E0AD014A555E4F10C02F5F3F4FEF0130
:102AC000DF015F968BE10D9009928150E1F7858DD2
:102AD000968D329791838083B196DA018D919C9186
:102AE0002817390750F3DF91CF910895FC0188EA48
:102AF00094E0918380838781882321F0CF0104961D
:102B00000C9400710895CF92DF92EF92FF920F9391
:102B10001F93DF93CF93CDB7DEB76F970FB6F894BF
:102B2000DEBF0FBECDBF8C016B01085A1F4FD8010D
:102B30008C9108551040882321F420E3E22EF12CDB
:102B400003C091E5E92EF12CE00EF11E88EA94E035
:102B50009A8389831C821B8218861D82B7016C5F51
:102B60007F4FCE010596A60121E00E94A17988231E
:102B700091F5EBE3F1E0949108C08091C00085FFEE
:102B8000FCCF9093C600319694919923B1F7E1E47C
:102B9000F1E0949108C08091C00085FFFCCF909334
:102BA000C600319694919923B1F709C08091C00075
:102BB00085FFFCCF0894C11CD11C9093C600F60180
:102BC0009081992399F78091C00085FFFCCF8AE01E
:102BD0008093C6005AC0F801EA55FE4F208131812A
:102BE0002A30310508F040C02F5F3F4F31832083EA
:102BF00021503040F90185E0EE0FFF1F8A95E1F783
:102C0000E21BF30BEC58FF4FE00FF11F13C0AF01B5
:102C1000415E5F4FBF018BE1DB010D90BD01DA0129
:102C20000D92AD018150C1F7929182913296968FAB
:102C3000858F7F9721503040BFEF2E3F3B0739F7FC
:102C4000D801AC58BF4FF70134968BE101900D923B
:102C50008150E1F70E581F4FF70182819381D8010F
:102C60008D939C9302571040D801AB5ABF4FFE0181
:102C700035968BE101900D928150E1F70D5A1F4F6F
:102C80008B819C81F80191838083CE0101962EDF98
:102C90006F960FB6F894DEBF0FBECDBFCF91DF9118
:102CA0001F910F91FF90EF90DF90CF900895EF92DA
:102CB000FF920F931F938C013FECE32E31E0F32E34
:102CC000E80EF91EC7010E94B170C7010E94007191
:102CD000F801108211821F910F91FF90EF900895DB
:102CE000CF92DF92EF92FF920F931F93CF93DF93D8
:102CF0007C016B01DB010D900020E9F78D01015093
:102D00001040061B170BEFECF1E0EE0EFF1ED70193
:102D10001C92E1E3FEEFEE0EFF1ECB016EE470E0CD
:102D2000C0DBEC01009731F4F8013197EC0DFD1D8B
:102D300086010CC060E270E0B4DB8C010F5F1F4FB6
:102D4000CE016AE270E0ADDBFC0131978DE081835A
:102D50008AE082831382C70185539E4FB8010E9487
:102D60009F7A8FEC91E0E80EF91ED7018C918823B1
:102D700019F1EBE6F1E0949108C08091C00085FF65
:102D8000FCCF9093C600319694919923B1F7E2E776
:102D9000F1E0949108C08091C00085FFFCCF909332
:102DA000C600319694919923B1F78091C00085FFB8
:102DB000FCCF8AE08093C600DF91CF911F910F91E5
:102DC000FF90EF90DF90CF900895CF93DF93EC01C9
:102DD0008C81882309F43BC0EAE9F1E0949108C0B2
:102DE0008091C00085FFFCCF9093C60031969491EE
:102DF0009923B1F7CC57DD4F488159816A817B8196
:102E0000C458D24086E995E02AE030E00E94A32829
:102E1000E8E9F1E0949108C08091C00085FFFCCF03
:102E20009093C600319694919923B1F7C458DD4F21
:102E3000488159816A817B8186E995E02AE030E00A
:102E40000E94A3288091C00085FFFCCF12C0E8E853
:102E5000F1E0949108C08091C00085FFFCCF909371
:102E6000C600319694919923B1F78091C00085FFF7
:102E7000FCCF8AE08093C600DF91CF9108952F9216
:102E80003F924F925F926F927F928F929F92AF92FA
:102E9000BF92CF92DF92EF92FF920F931F93DF9337
:102EA000CF93CDB7DEB7AC970FB6F894DEBF0FBEA9
:102EB000CDBF5C014B01FC018481882309F435C13D
:102EC000C50181539E4F0E940071F5011282138249
:102ED0001A8A1D8A198A188A88EA94E09F878E8741
:102EE0005FE4C52ED12CCA0CDB1C20E330E0A20E1F
:102EF000B31EF601B182A08220ED3FEFA20EB31EF9
:102F0000F40180818F3209F08DC0C4016FE270E05E
:102F1000C8DA7C010894E11CF11C3E010894611C94
:102F2000711C260142E1242E312C2C0E3D1E75C051
:102F3000C7016FE270E0B5DA6C01009709F480C058
:102F4000E816F90608F07CC08C010E191F09C301B0
:102F5000B701A801CFDA060D171DF8011082F301A1
:102F600007C08091C00085FFFCCF31969093C600CA
:102F700090819923B1F78091C00085FFFCCFFAE0E2
:102F8000F093C600F201608171816115710519F439
:102F900060E070E002C06C5F7F4FC101A30121E0DF
:102FA0000E94A179882371F5E6EDF1E0949108C0C3
:102FB0008091C00085FFFCCF9093C600319694911C
:102FC0009923B1F7FE01319607C08091C00085FFBB
:102FD000FCCF31969093C60090819923B1F7E4ED30
:102FE000F1E0949108C08091C00085FFFCCF9093E0
:102FF000C600319694919923B1F78091C00085FF66
:10300000FCCF8DC02EE030E02C0F3D1FF20131834C
:10301000208376010894E11CF11CE114F10409F00D
:1030200087CF0BC081E590E0A80EB91EF601B182F2
:10303000A0822FEA3FEFA20EB31ED82C092D02C0AA
:10304000DE2C0F2D8FE490E0A80EB91EF5018081D3
:10305000918121EB3FEFA20EB31E009719F480E09F
:1030600090E001C004966D2D702F0E94707A882325
:1030700039F1E6ECF1E0949108C08091C00085FF41
:10308000FCCF9093C600319694919923B1F78D2D82
:10309000902F9C01F90107C08091C00085FFFCCFF3
:1030A00031969093C60090819923B1F784E892E01D
:1030B000A80EB91EF501108211821282138232C04D
:1030C000EEEAF1E0949108C08091C00085FFFCCF4A
:1030D0009093C600319694919923B1F78D2D902F3E
:1030E0009C01F90107C08091C00085FFFCCF31969B
:1030F0009093C60090819923B1F7ECEAF1E09491A6
:1031000008C08091C00085FFFCCF9093C600319627
:1031100094919923B1F78091C00085FFFCCF8AE09C
:103120008093C600CE010E96E1DCAC960FB6F89403
:10313000DEBF0FBECDBFCF91DF911F910F91FF90EA
:10314000EF90DF90CF90BF90AF909F908F907F9047
:103150006F905F904F903F902F900895BF92CF92C5
:10316000DF92EF92FF920F931F93CF93DF938C0127
:10317000EB018FE28993EE24E394FF2476EAC72ED5
:1031800071E0D72EC00ED11E6FE1B62E14C0FB9C8D
:10319000C00111248C589F4F800F911FBE010E94C7
:1031A000107102C02196E3948881882319F08CE87D
:1031B0008E15C0F7F3942F2D30E0F60180819181B8
:1031C0002817390720F3E7FC07C0C80181539E4F39
:1031D000BE010E94107101C01882DF91CF911F9132
:1031E0000F91FF90EF90DF90CF90BF9008952F92B6
:1031F0003F924F925F926F927F928F929F92AF9287
:10320000BF92CF92DF92EF92FF920F931F93DF93C3
:10321000CF93CDB7DEB7AD970FB6F894DEBF0FBE34
:10322000CDBF6C014B014DA7DC0114968C91882316
:1032300009F44BC3E2EDF1E0CE0EDF1ED6018C9116
:10324000EEE2FEEFCE0EDF1E882309F418C1222322
:1032500009F0E0C02AEE31E0C20ED31ED6018C91F7
:10326000E6E1FEEFCE0EDF1E882371F1EBE6F1E022
:10327000949108C08091C00085FFFCCF9093C60058
:10328000319694919923B1F7EEEAF2E0949108C057
:103290008091C00085FFFCCF9093C6003196949139
:1032A0009923B1F786E995E061E070E04AE050E0EB
:1032B0000E94F2288091C00085FFFCCF8AE08093B5
:1032C000C6000E94022B01C3EBE3F1E0949108C019
:1032D0008091C00085FFFCCF9093C60031969491F9
:1032E0009923B1F7E5E9F2E0949108C08091C0001C
:1032F00085FFFCCF9093C600319694919923B1F746
:10330000F40107C08091C00085FFFCCF31969093F7
:10331000C60090819923B1F7EAE8F2E0949108C0E1
:103320008091C00085FFFCCF9093C60031969491A8
:103330009923B1F7C6012FEE31E0C20ED31EB601BC
:103340000DDF4BEF5FEFC40ED51ED6019C91E6E179
:10335000FEEFCE0EDF1E8DE8989FF0011124E151A3
:10336000FE4FEC0DFD1D07C08091C00085FFFCCF16
:1033700031969093C60090819923B1F7E4E8F2E08A
:10338000949108C08091C00085FFFCCF9093C60047
:10339000319694919923B1F724E832E0C20ED31EFE
:1033A000D6014D915D916D917C91ECE7FDEFCE0ED4
:1033B000DF1E86E995E02AE030E00E94A328809194
:1033C000C00085FFFCCF8AE08093C600A60146516D
:1033D0005E4FDA012C91E22FF0E0EE0FFF1FEE0FAF
:1033E000FF1FEC0DFD1DE551FE4F84E892E0C80E75
:1033F000D91ED6014D905D906D907C908CE79DEF2D
:10340000C80ED91E40825182628273822F5FDA0118
:103410002C932FC0EBE3F1E0949108C08091C000A1
:1034200085FFFCCF9093C600319694919923B1F714
:10343000E3E7F2E0949108C08091C00085FFFCCFE3
:103440009093C600319694919923B1F7F40107C087
:103450008091C00085FFFCCF31969093C60090818B
:103460009923B1F78091C00085FFFCCF8AE080935B
:10347000C600C60181539E4F0E94007139C0EAEE1A
:10348000F1E0CE0EDF1ED6011C92E6E1FEEFCE0E7D
:10349000DF1EEBE3F1E0949108C08091C00085FF4E
:1034A000FCCF9093C600319694919923B1F7E2E650
:1034B000F2E0949108C08091C00085FFFCCF90930A
:1034C000C600319694919923B1F7F40107C0809119
:1034D000C00085FFFCCF31969093C6009081992360
:1034E000B1F78091C00085FFFCCF8AE08093C600D1
:1034F000D60112961C92129713961C921A8A1D8A54
:10350000198A188A88EA94E09F878E87FFE4AF2E95
:10351000B12CAC0CBD1CE0E3F0E0CE0EDF1ED501FB
:10352000CD92DC92E0EDFFEFCE0EDF1ED4018C9148
:103530008F3209F090C0C4016FE270E00E94511216
:103540007C010894E11CF11C3E010894611C711C73
:103550002501E2E12E2E312C2C0E3D1E77C0C70135
:103560006FE270E00E9451125C01009709F481C083
:10357000E816F90608F07DC08C010E191F09C30179
:10358000B701A8010E947A12060D171DF8011082DA
:10359000F30107C08091C00085FFFCCF3196909366
:1035A000C60090819923B1F78091C00085FFFCCFC0
:1035B000FAE0F093C600D2016D917C91611571051E
:1035C00019F460E070E002C06C5F7F4FC101A3019D
:1035D00021E00E94A179882371F5EEE4F2E0949154
:1035E00008C08091C00085FFFCCF9093C600319643
:1035F00094919923B1F7FE01319607C08091C000E4
:1036000085FFFCCF31969093C60090819923B1F746
:10361000ECE4F2E0949108C08091C00085FFFCCFFB
:103620009093C600319694919923B1F78091C00090
:1036300085FFFCCF1BC12EE030E02C0F3D1FF201B7
:103640003183208375010894E11CF11CE114F1041D
:1036500009F085CF0BC041E550E0C40ED51ED50161
:10366000CD92DC92EFEAFFEFCE0EDF1E082DF92C93
:1036700001C00E2DF601E15BFF4F2DA5222309F4B9
:10368000B1C0608171816115710519F460E070E06D
:1036900002C06C5F7F4FC60181539E4F402F5F2D4C
:1036A00021E00E94A179882309F46CC040EE51E02A
:1036B000C40ED51ED6014D915D916D917C91ECE9C2
:1036C000F0E0CE0EDF1ED6014D935D936D937C939B
:1036D0001397E4E8FDEFCE0EDF1EEEE3F2E09491E7
:1036E00008C08091C00085FFFCCF9093C600319642
:1036F00094919923B1F7802F9F2D9C01F90107C068
:103700008091C00085FFFCCF31969093C6009081D8
:103710009923B1F7E6E3F2E0949108C08091C000EC
:1037200085FFFCCF9093C600319694919923B1F711
:1037300086E995E02AE030E00E94A3288091C0004D
:1037400085FFFCCF8AE08093C60024E832E0C20EF9
:10375000D31ED6011D921D921D921C921397E8E272
:10376000F2E0949108C08091C00085FFFCCF909357
:10377000C600319694919923B1F78091C00085FFDE
:10378000FCCF99C0E4E1F2E0949108C08091C000C0
:1037900085FFFCCF9093C600319694919923B1F7A1
:1037A000802F9F2D9C01F90107C08091C00085FFEB
:1037B000FCCF31969093C60090819923B1F7E2E156
:1037C000F2E0949108C08091C00085FFFCCF9093F7
:1037D000C600319694919923B1F78091C00085FF7E
:1037E000FCCF44C0608171816115710519F460E0FE
:1037F00070E002C06C5F7F4FC60181539E4F402F27
:103800005F2D26E50E94A179882309F033C0EEEFF1
:10381000F1E0949108C08091C00085FFFCCF9093A7
:10382000C600319694919923B1F7802F9F2D9C016A
:10383000F90107C08091C00085FFFCCF31969093BD
:10384000C60090819923B1F7ECEFF1E0949108C0A4
:103850008091C00085FFFCCF9093C6003196949173
:103860009923B1F78091C00085FFFCCF8AE0809357
:10387000C60028C081E0F6018083EAEEF1E0949171
:1038800008C08091C00085FFFCCF9093C6003196A0
:1038900094919923B1F7F40107C08091C00085FF8E
:1038A000FCCF31969093C60090819923B1F7809117
:1038B000C00085FFFCCF8AE08093C600802F9F2D3B
:1038C0000E9447A0CE010E9611D9AD960FB6F8947E
:1038D000DEBF0FBECDBFCF91DF911F910F91FF9043
:1038E000EF90DF90CF90BF90AF909F908F907F90A0
:1038F0006F905F904F903F902F900895EF92FF92BE
:103900000F931F93CF93DF93EC010E9496838E0158
:1039100006511E4FD8018C919FECE92E91E0F92EB3
:10392000EC0EFD1E8823A1F1C7010E940071F80171
:103930006081615060838DE8689FB00111246151FE
:103940007E4F6C0F7D1FCE0141E021E050DCD8019D
:10395000EC91F0E0EE0FFF1FEE0FFF1FEC0FFD1FCD
:10396000E551FE4F4081518162817381CC57DD4F1B
:10397000488359836A837B83C458D240C7010E941D
:10398000E76F8C81882399F181E08A831B822FC0A5
:103990000E947383C7010E9400711A821B828FE20A
:1039A00091E00E942E558091C70A882301F1109260
:1039B000C70A80916B08C82FD0E0CC0FDD1FC2581A
:1039C000DD4E68817981882777FD8095982F0E9448
:1039D00009ED2091EC033091ED034091EE035091FD
:1039E000EF030E9475EE181614F419821882DF9105
:1039F000CF911F910F91FF90EF900895FC0181E00E
:103A00008183CF0140E021E0F2CBEF92FF920F9350
:103A10001F93CF93DF938C01FC01148287A9882325
:103A200021F0C801C4960E94007128EAE22E21E02C
:103A3000F22EE00EF11EC70160E045E30E94AD6E7C
:103A4000882309F5EBE3F1E0949108C08091C00070
:103A500085FFFCCF9093C600319694919923B1F7DE
:103A6000EFE1F3E0949108C08091C00085FFFCCFA6
:103A70009093C600319694919923B1F78091C0003C
:103A800085FFFCCF7DC0E801C355DE4FCE01B701F5
:103A900041E00E94307B882341F5CE01B70140E030
:103AA0000E94307B882309F5EBE6F1E0949108C091
:103AB0008091C00085FFFCCF9093C6003196949111
:103AC0009923B1F7ECE0F3E0949108C08091C00035
:103AD00085FFFCCF9093C600319694919923B1F75E
:103AE0008091C00085FFFCCF4BC0C801C496BE01C9
:103AF0000E94A575882309F5EBE6F1E0949108C0D2
:103B00008091C00085FFFCCF9093C60031969491C0
:103B10009923B1F7ECEFF2E0949108C08091C000D6
:103B200085FFFCCF9093C600319694919923B1F70D
:103B30008091C00085FFFCCF23C081E0F801848321
:103B4000EBE3F1E0949108C08091C00085FFFCCFC9
:103B50009093C600319694919923B1F7E1EFF2E08A
:103B6000949108C08091C00085FFFCCF9093C6005F
:103B7000319694919923B1F78091C00085FFFCCFD5
:103B80008AE08093C600D801AB5ABF4FF801F49683
:103B90008BE101900D928150E1F7F80182A993A980
:103BA0000D5A1F4FF8019183808303551040C801BF
:103BB000C096015B1F4FF80191838083DF91CF9105
:103BC0001F910F91FF90EF9008952F923F924F9287
:103BD0005F926F927F929F92AF92BF92CF92DF924D
:103BE000EF92FF920F931F93DF93CF93CDB7DEB782
:103BF000CC55D0400FB6F894DEBF0FBECDBF6C01E0
:103C0000662311F528E832E0C20ED31ED6018C914E
:103C1000E8E7FDEFCE0EDF1E882309F4E3C020E8BD
:103C200032E0C20ED31ED601ED90FD900D911C9195
:103C3000E0E8FDEFCE0EDF1E0E948EE4E616F706EA
:103C40000807190708F4CEC028E832E0C20ED31ED8
:103C5000D6011C92E8E7FDEFCE0EDF1ED6011496CA
:103C60008C91882339F4C601D0DEF6018481882343
:103C700009F4B8C000D000D0EDB7FEB731967E0190
:103C80000894E11CF11CADB7BEB71296FC92EE92FF
:103C9000119782E691E093838283D6019E968D915F
:103CA0009C919F97958384830E9489128701EDB729
:103CB000FEB736960FB6F894FEBF0FBEEDBF5701A4
:103CC0000AC0D8018C91992787FD90950E94B6F083
:103CD000F80181938F01F50101900020E9F73197F8
:103CE000EA19FB09802F8E198E175CF364E3A62E68
:103CF000B12CAC0CBD1CC50140E050E060E070E0B0
:103D00000E94E76F99245DE3E52EF12CEC0EFD1E79
:103D10002E010894411C511C4FE1642E712C6C0E35
:103D20007D1E3BE5232E31E0332E42C0D8018C911D
:103D300090E00E94B6F0F80181938F01D7010D90B9
:103D40000020E9F71197AE19BF09802F8E198A1745
:103D50006CF327968FAD27978E3751F1C701B201CB
:103D600045E050E00E946C12009711F500D000D0A1
:103D7000EDB7FEB73196ADB7BEB712967C926E9294
:103D8000119733822282558244820E948912EDB7B4
:103D9000FEB736960FB6F894FEBF0FBEEDBFC30157
:103DA0000E94A75587E591E00E942E55992493948F
:103DB000C501B70140E050E00E941273181614F4D8
:103DC0008701BCCF992041F48FEF9FEFD6019F96DA
:103DD0009C938E939E9706C0F60186A597A50196A3
:103DE00097A786A7C45ADF4F0FB6F894DEBF0FBE61
:103DF000CDBFCF91DF911F910F91FF90EF90DF909A
:103E0000CF90BF90AF909F907F906F905F904F90BA
:103E10003F902F9008952F923F924F925F926F9212
:103E20007F928F929F92AF92BF92CF92DF92EF924A
:103E3000FF920F931F93DF93CF93CDB7DEB7CF5889
:103E4000D0400FB6F894DEBF0FBECDBF8C013B0152
:103E50006A0184E090E0C80ED91EF8017296C75737
:103E6000DF4FF983E883C958D040C8010596CA5787
:103E7000DF4F99838883C658D040C857DF4F1882D8
:103E8000C858D040B6E6EB2EF12CEC0EFD1EF70123
:103E90003B96C557DF4FF983E883CB58D040A9E85C
:103EA0008A2EA2E09A2E800E911EFBE8AF2EF2E041
:103EB000BF2EA00EB11EEEE02E2E312C2C0E3D1E7C
:103EC00077E4472E512C4C0E5D1EC2010496C35759
:103ED000DF4F99838883CD58D040EBE3F1E0949194
:103EE000C157DF4F9883CF58D0404EC1F70183852B
:103EF000482F50E0BA01687170706031710509F0A7
:103F000051C1F401208131812130310509F44AC1C8
:103F10002230310509F446C1F701DE011196908186
:103F2000903239F08E2F8E19883011F48EE28D93F5
:103F30009D933196C557DF4F88819981CB58D040EA
:103F4000E817F90761F71C921E86F3018081882328
:103F500029F4C10160E072E00E944612C101B30180
:103F60000E944612C101BE016F5F7F4F0E94461240
:103F7000C10160E072E00E9446121CA61FA61BA6AB
:103F80001AA688EA94E099A788A7CE018C96B60174
:103F9000AE014F5F5F4F21E00E94A179882309F0B5
:103FA0003FC0F40180819181892BD1F5C157DF4F4A
:103FB0009881CF58D040EBE3F1E008C08091C00079
:103FC00085FFFCCF9093C600319694919923B1F769
:103FD000E2E0F2E007C08091C00085FFFCCF31969F
:103FE0009093C60090819923B1F78091C00085FF1E
:103FF000FCCFFAE0F093C600FE01319607C0809135
:10400000C00085FFFCCF31969093C6009081992324
:10401000B1F78091C00085FFFCCF8AE08093C60095
:10402000C357DF4FA881B981CD58D040FE01BC965F
:104030008BE101900D928150E1F78AA59BA5F201D9
:104040009383828388EA94E091838083C801B101DD
:10405000A201E1DEC2010E947615CE0188960E947F
:10406000761592C0953E09F48FC09E3209F48CC03B
:104070009F3509F489C0F8019289992331F09E3265
:1040800009F482C09F3509F47FC043FD7DC080E004
:104090006031710509F481E0F80185A7882349F4AE
:1040A000F7018085873409F06FC081858E3709F468
:1040B0006BC0CA57DF4FA881B981C658D040F701FD
:1040C0008081803241F08E2F8E19883011F48EE27B
:1040D0008D9380818D933196C557DF4F888199816B
:1040E000CB58D040E817F90759F71C92F4018081AA
:1040F0009181009729F5F30107C08091C00085FFE9
:10410000FCCF31969093C60090819923B1F7CA579E
:10411000DF4FE881F981C658D04007C08091C000C8
:1041200085FFFCCF31969093C60090819923B1F71B
:104130008091C00085FFFCCFFAE0F093C60024C058
:104140008130910539F4F501808191810196918347
:1041500080831AC00297C1F4C857DF4FF881C8584E
:10416000D0402F2F30E0F501808191812817390749
:10417000F1F0C857DF4FF881C858D040FF5FC857EB
:10418000DF4FF883C858D040C601B701C757DF4F8B
:1041900048815981C958D0400E94127318160CF4F6
:1041A000A5CE05C0F7019081992309F05BCFC157D7
:1041B000DF4F0FB6F894DEBF0FBECDBFCF91DF91BA
:1041C0001F910F91FF90EF90DF90CF90BF90AF9035
:1041D0009F908F907F906F905F904F903F902F9027
:1041E0000895EF92FF920F931F93DF93CF93CDB774
:1041F000DEB76F970FB6F894DEBF0FBECDBF7C0160
:104200008C01015B1F4F8F5A9F4FF8019183808370
:1042100029E832E0E20EF31E21E030E0F7012193BD
:1042200031937F011182108225E73DEFE20EF31EEC
:10423000049640E050E060E070E00E94E76FF80113
:1042400020813181DE011596F90134968BE10190D0
:104250000D928150E1F7F901828193819C838B83D8
:1042600088EA94E09A838983C70165E172E08E0150
:104270000F5F1F4FA801CFDDC8010E947615F7011F
:10428000E557FD4F808191816F960FB6F894DEBFA0
:104290000FBECDBFCF91DF911F910F91FF90EF9097
:1042A0000895EF92FF920F931F93DF93CF93CDB7B3
:1042B000DEB76F970FB6F894DEBF0FBECDBF7C019F
:1042C0008C01015B1F4F8F5A9F4FF80191838083B0
:1042D00029E832E0E20EF31E22E030E0F7013183FC
:1042E000208327E73DEFE20EF31EF701E557FD4F70
:1042F00060831182049640E050E060E070E00E942C
:10430000E76FF80120813181DE011596F9013496BD
:104310008BE101900D928150E1F7F9018281938147
:104320009C838B8388EA94E09A838983C70165E143
:1043300072E08E010F5F1F4FA8016DDDC8010E9462
:1043400076156F960FB6F894DEBF0FBECDBFCF9136
:10435000DF911F910F91FF90EF900895EF92FF92E0
:104360000F931F93DF93CF93CDB7DEB76F970FB641
:10437000F894DEBF0FBECDBF7C0189E892E0E80E65
:10438000F91EF7011182108287E79DEFE80EF91EF2
:1043900087010C5C1F4FC80140E050E060E070E016
:1043A0000E94E76FDE011596F8018BE101900D92F6
:1043B0008150E1F7F70182A993A99C838B8388EA56
:1043C00094E09A838983C70165E172E08E010F5FF3
:1043D0001F4FA80120DDC8010E9476156F960FB609
:1043E000F894DEBF0FBECDBFCF91DF911F910F912B
:1043F000FF90EF9008950F931F93CF93DF93DC010D
:10440000D4961C92D497D7961C92D797D3961C9289
:104410001E92D29788EA94E0D1969C938E93D0977F
:10442000AB5ABF4F1C9213961C92A855B040FD0189
:10443000EF5AFF4FAD5ABF4F11961C921E92A355D3
:10444000B04091838083ED01C059DF4FFE0120E031
:1044500030E0482F148217821382128240839183A6
:10446000215E3F4F7F9681E02633380799F7A755A5
:10447000BE4F89E18C9313961C9258961C921B9602
:104480001C9213961C92A25DB140FD01E553FE4FB4
:10449000A353BE4F11961C921E9240839183A15547
:1044A000BF4F1D921D921D921C92139718961D923C
:1044B0001D921D921C921397A458B24012961C9202
:1044C000129713961C92139714961C9214971C9291
:1044D00011961C9211978D0100581D4FF801108202
:1044E000118212821382AA55BE4F11961C921E92FF
:1044F000AC5BBF4F1C92FE01C90111920197E9F715
:10450000A256BF4F81E08C93A858B2409F961C9250
:104510001E929E970E948EE468577C4E8F4F9F4F4D
:10452000F8016083718382839383DF91CF911F9120
:104530000F910895DF93CF93CDB7DEB7E0970FB615
:10454000F894DEBF0FBECDBFDE011196E0E5F4E0CA
:1045500080E101900D928150E1F7DE015196E0E497
:10456000F4E080E101900D928150E1F7DE01919637
:10457000E0E3F4E080E101900D928150E1F7898160
:104580009A81AB81BC8180936B0A90936C0AA09353
:104590006D0AB0936E0A89899A89AB89BC89809328
:1045A0005B0A90935C0AA0935D0AB0935E0A89A1AE
:1045B0009AA1ABA1BCA180937B0A90937C0AA093A3
:1045C0007D0AB0937E0A8D819E81AF81B8858093EC
:1045D0006F0A9093700AA093710AB093720A8D8942
:1045E0009E89AF89B88D80935F0A9093600AA093EB
:1045F000610AB093620A8DA19EA1AFA1B8A5809374
:104600007F0A9093800AA093810AB093820A8985D9
:104610009A85AB85BC858093730A9093740AA093A6
:10462000750AB093760A898D9A8DAB8DBC8D809377
:10463000630A9093640AA093650AB093660A89A5F9
:104640009AA5ABA5BCA58093830A9093840AA093F6
:10465000850AB093860A8D859E85AF85B88980933B
:10466000770A9093780AA093790AB0937A0A8D8D8D
:104670009E8DAF8DB8A18093670A9093680AA0932E
:10468000690AB0936A0A8DA59EA5AFA5B8A98093C3
:10469000870A9093880AA093890AB0938A0A0E9495
:1046A000CB5A80E090E8ABE3B5E480938F0A909317
:1046B000900AA093910AB093920A8093930A9093E0
:1046C000940AA093950AB093960A20E030E040E067
:1046D00050E020938B0A30938C0A40938D0A5093BC
:1046E0008E0A80E29EE4A0E0B0E08093570A9093A7
:1046F000580AA093590AB0935A0A2093A30A3093F8
:10470000A40A4093A50A5093A60A80E090E0A0EA8C
:10471000B1E48093970A9093980AA093990AB09372
:104720009A0A8DEC9CECACECBEE380939B0A9093D0
:104730009C0AA0939D0AB0939E0A80E090E0A0EAB4
:10474000B0E480939F0A9093A00AA093A10AB0932B
:10475000A20A20934408309345084093460850939A
:1047600047082093400830934108409342085093F3
:10477000430820933C0830933D0840933E085093F3
:104780003F0884EB90E0909300138093FF1287E33F
:1047900090E09093021380930113109204131092EF
:1047A000031380EF90E0909306138093051384E643
:1047B00090E0909308138093071310920A131092BD
:1047C00009138AE999E9A1EBB1E48093FD03909381
:1047D000FE03A093FF03B093000461E77DE38AE842
:1047E0009FE30E948E8C6093010470930204809377
:1047F00003049093040460E070E084EE92E40E946D
:104800009A8C609305047093060480930704909338
:1048100008040E94998B80E090E0A0E8BFE38093B9
:10482000090490930A04A0930B04B0930C04ECE2E7
:10483000F3E0949108C08091C00085FFFCCF909375
:10484000C600319694919923B1F7E2E3F3E0949195
:1048500008C08091C00085FFFCCF9093C6003196C0
:1048600094919923B1F78091C00085FFFCCF8AE035
:104870008093C600E0960FB6F894DEBF0FBECDBFA2
:10488000CF91DF910895CF93DF93CCE2D3E0FE0187
:10489000949108C08091C00085FFFCCF9093C60022
:1048A000319694919923B1F7ECE0F5E0949108C02A
:1048B0008091C00085FFFCCF9093C6003196949103
:1048C0009923B1F78091C00085FFFCCF8AE08093E7
:1048D000C600FE019491ECE2F3E008C08091C000B4
:1048E00085FFFCCF9093C600319694919923B1F740
:1048F00040916B0A50916C0A60916D0A70916E0A3A
:1049000084E095E00E94F52E40916F0A5091700A64
:104910006091710A7091720A81E095E00E94F52E13
:104920004091730A5091740A6091750A7091760AE9
:104930008EEF94E00E94F52E4091770A5091780A0C
:104940006091790A70917A0A8BEF94E00E94F52EBB
:10495000E6E1F2E007C08091C00085FFFCCF319610
:104960009093C60090819923B1F78091C00085FF94
:10497000FCCF8AE08093C600FE019491ECE2F3E064
:1049800008C08091C00085FFFCCF9093C60031968F
:1049900094919923B1F7E1EEF4E0949108C08091ED
:1049A000C00085FFFCCF9093C60031969491992367
:1049B000B1F78091C00085FFFCCF8AE08093C600EC
:1049C000FE019491ECE2F3E008C08091C00085FF05
:1049D000FCCF9093C600319694919923B1F7409102
:1049E0005B0A50915C0A60915D0A70915E0A88EDE5
:1049F00094E00E94F52E40915F0A5091600A609108
:104A0000610A7091620A85ED94E00E94F52E409152
:104A1000630A5091640A6091650A7091660A82ED9A
:104A200094E00E94F52E4091670A5091680A6091C7
:104A3000690A70916A0A8FEC94E00E94F52EE6E113
:104A4000F2E007C08091C00085FFFCCF31969093C3
:104A5000C60090819923B1F78091C00085FFFCCFFB
:104A60008AE08093C600FE019491ECE2F3E008C076
:104A70008091C00085FFFCCF9093C6003196949141
:104A80009923B1F7E1EBF4E0949108C08091C00064
:104A900085FFFCCF9093C600319694919923B1F78E
:104AA0008091C00085FFFCCF8AE08093C600FE01A4
:104AB0009491ECE2F3E008C08091C00085FFFCCF48
:104AC0009093C600319694919923B1F740917B0A57
:104AD00050917C0A60917D0A70917E0A88EA94E088
:104AE0000E94072F40917F0A5091800A6091810AAD
:104AF0007091820A85EA94E00E94072F4091830A10
:104B00005091840A6091850A7091860A82EA94E045
:104B10000E94072F4091870A5091880A6091890A64
:104B200070918A0A8FE994E00E94072FE6E1F2E093
:104B300007C08091C00085FFFCCF31969093C600DE
:104B400090819923B1F78091C00085FFFCCF8AE066
:104B50008093C600FE019491ECE2F3E008C08091DE
:104B6000C00085FFFCCF9093C600319694919923A5
:104B7000B1F7EAE6F4E0949108C08091C00085FFA7
:104B8000FCCF9093C600319694919923B1F7809110
:104B9000C00085FFFCCF8AE08093C600FE0194919F
:104BA000ECE2F3E008C08091C00085FFFCCF909359
:104BB000C600319694919923B1F740918F0A509194
:104BC000900A6091910A7091920A81E694E00E94A5
:104BD000F52E4091930A5091940A6091950A709134
:104BE000960A8EE594E00E94F52EE6E1F2E007C019
:104BF0008091C00085FFFCCF31969093C6009081D4
:104C00009923B1F78091C00085FFFCCF8AE08093A3
:104C1000C600FE019491ECE2F3E008C08091C00070
:104C200085FFFCCF9093C600319694919923B1F7FC
:104C3000EBEAF3E0949108C08091C00085FFFCCFBF
:104C40009093C600319694919923B1F78091C0005A
:104C500085FFFCCF8AE08093C600FE019491ECE2D0
:104C6000F3E008C08091C00085FFFCCF9093C600A0
:104C7000319694919923B1F740918B0A50918C0A07
:104C800060918D0A70918E0A82EA93E00E94F52E5F
:104C90004091A30A5091A40A6091A50A7091A60AB6
:104CA0008FE993E00E94F52E4091570A5091580ADF
:104CB0006091590A70915A0A8CE993E00E94072F7B
:104CC0004091970A5091980A6091990A70919A0AB6
:104CD00089E993E00E94F52E40919B0A50919C0A2D
:104CE00060919D0A70919E0A86E993E00E94F52EDC
:104CF00040919F0A5091A00A6091A10A7091A20A66
:104D000083E993E00E94F52EE6E1F2E007C080918E
:104D1000C00085FFFCCF31969093C6009081992307
:104D2000B1F78091C00085FFFCCF8AE08093C60078
:104D3000FE019491ECE2F3E008C08091C00085FF91
:104D4000FCCF9093C600319694919923B1F7E1E896
:104D5000F3E0949108C08091C00085FFFCCF909350
:104D6000C600319694919923B1F78091C00085FFD8
:104D7000FCCF8AE08093C600FE019491ECE2F3E060
:104D800008C08091C00085FFFCCF9093C60031968B
:104D900094919923B1F740913C0850913D0860915E
:104DA0003E0870913F0888E793E00E94F52E4091FD
:104DB000400850914108609142087091430885E78E
:104DC00093E00E94F52E409144085091450860916F
:104DD00046087091470882E793E00E94F52EE6E1CD
:104DE000F2E007C08091C00085FFFCCF3196909320
:104DF000C60090819923B1F78091C00085FFFCCF58
:104E00008AE08093C600FE019491ECE2F3E008C0D2
:104E10008091C00085FFFCCF9093C600319694919D
:104E20009923B1F7E4E6F3E0949108C08091C000C3
:104E300085FFFCCF9093C600319694919923B1F7EA
:104E40008091C00085FFFCCF8AE08093C600FE0100
:104E50009491ECE2F3E008C08091C00085FFFCCFA4
:104E60009093C600319694919923B1F74091FD0338
:104E70005091FE036091FF03709100048AE593E076
:104E8000B4D7609101047091020480910304909161
:104E900004040E94948CAB01BC0187E593E0A5D784
:104EA00060910504709106048091070490910804B4
:104EB0000E94A08CAB01BC0184E593E096D7E6E1AB
:104EC000F2E007C08091C00085FFFCCF319690933F
:104ED000C60090819923B1F78091C00085FFFCCF77
:104EE0008AE08093C600DF91CF9108951F920F92C0
:104EF0000FB60F920BB60F9211242F933F934F933F
:104F00008F939F93EF93FF934091C600E09192059A
:104F1000F091930531969F012F77307031978091F2
:104F20009405909195052817390739F0EE5EFA4FF0
:104F300040833093930520939205FF91EF919F91C9
:104F40008F914F913F912F910F900BBE0F900FBEFD
:104F50000F901F9018959A01AB01203081EE380711
:104F600080E0480780E0580749F182E08093C00064
:104F700060E079E08DE390E00E948DF021503040B8
:104F800040405040CA01B90122E030E040E050E02A
:104F90000E948DF03093C5002093C4008091C10021
:104FA00080618093C1008091C10088608093C100BE
:104FB0008091C10080688093C10008951092C00064
:104FC00020E130E0E7CF2091940530919505809164
:104FD0009205909193058217930719F42FEF3FEFF5
:104FE0000EC0F901EE5EFA4F80812F5F3F4F2F77A1
:104FF00030703093950520939405282F30E0C90137
:1050000008958091940590919505909393058093D0
:105010009205089508952F923F924F925F926F925A
:105020007F928F929F92AF92BF92CF92DF92EF9238
:10503000FF920F931F93DF93CF93CDB7DEB7A09767
:105040000FB6F894DEBF0FBECDBF1C016A017B0115
:10505000411551056105710541F440E350E060E000
:1050600070E020E030E08BD055C0882499245401B2
:10507000422E55246624772401E010E00C0F1D1FFA
:10508000080D191DC701B601A30192010E946BF022
:10509000F80160830894811C911CA11CB11CC701FC
:1050A000B601A30192010E946BF0C901DA016C0103
:1050B0007D01C114D104E104F104F1F681E0E82E90
:1050C000F12CEC0EFD1EE80CF91C3E010894611C4D
:1050D000711CD501C4010197A109B1096C01C8185F
:1050E000D90815C0F601EE0DFF1D40814A3010F4BD
:1050F000405D01C0495C552747FD5095652F752FD0
:10510000C10120E030E03BD00894E108F1086E14C2
:105110007F0441F7A0960FB6F894DEBF0FBECDBF57
:10512000CF91DF911F910F91FF90EF90DF90CF9083
:10513000BF90AF909F908F907F906F905F904F90B7
:105140003F902F9008952115310539F48091C000CA
:1051500085FFFCCF4093C60008955DCFEF92FF928C
:105160000F931F939A01E62EFF2400E010E0B80190
:10517000A701E9DF1F910F91FF90EF900895EF9243
:10518000FF920F931F93CF93DF93EC017A018B0172
:105190002115310539F48091C00085FFFCCFE092E4
:1051A000C60019C02A303105A9F477FF0FC04DE2BF
:1051B00050E060E070E020E030E0E1DF1095009525
:1051C000F094E094E11CF11C011D111DCE01B80109
:1051D000A7012AE020DFDF91CF911F910F91FF906F
:1051E000EF900895EF92FF920F931F937B019A0126
:1051F0000027F7FC0095102FB801A701C0DF1F9111
:105200000F91FF90EF9008950F931F938C014DE045
:1052100050E060E070E020E030E0B1DFC8014AE03B
:1052200050E060E070E020E030E0A9DF1F910F91D6
:105230000895CF92DF92EF92FF920F931F938C010C
:105240009A016B01EE24FF24B701A6017CDFC8019F
:10525000DBDF1F910F91FF90EF90DF90CF900895CB
:105260009F92AF92BF92CF92DF92EF92FF920F93F5
:105270001F93CF93DF93EC017A018B01922ECB0128
:10528000BA0120E030E040E050E00E9467EC882363
:1052900064F4CE014DE250E060E070E020E030E0E8
:1052A0006EDF17FB109517F9109520E030E040E015
:1052B0005FE3AA240BC0CA01B90120E030E040E25C
:1052C00051E40E946EEC9B01AC01A394A91498F3E5
:1052D000C801B7010E948EEB7B018C010E94DBECC0
:1052E0005B016C010E9407ED9B01AC01C801B70195
:1052F0000E948DEB7B018C01CE01B601A5012AE055
:1053000030E021DF992099F1E7E1F2E007C08091D8
:10531000C00085FFFCCF31969093C6009081992301
:10532000B1F725C0C801B70120E030E040E251E408
:105330000E9447EF7B018C010E94D6EC5B016C015F
:10534000CC24B7FCC094DC2CCE01B601A5012AE028
:1053500030E015DFC601B5010E9409ED9B01AC01EB
:10536000C801B7010E948DEB7B018C019A949920B2
:10537000C9F6DF91CF911F910F91FF90EF90DF90D1
:10538000CF90BF90AF909F9008956ACF0895EF920D
:10539000FF920F931F93CF93DF93EC01E0904808A7
:1053A000F090490800914A0810914B086881798172
:1053B0008A819B81A80197010E9467EC882324F4CD
:1053C000E882F9820A831B83E0904C08F0904D0834
:1053D00000914E0810914F086C817D818E819F81D4
:1053E000A80197010E9467EC882324F4EC82FD82D7
:1053F0000E831F83E0905008F090510800915208EE
:1054000010915308688579858A859B85A801970145
:105410000E9467EC882324F4E886F9860A871B87B4
:10542000E090AF03F090B0030091B1031091B2038C
:10543000688179818A819B81A80197010E9475EE1C
:10544000181624F4E882F9820A831B83E090B303E0
:10545000F090B4030091B5031091B6036C817D8187
:105460008E819F81A80197010E9475EE181624F481
:10547000EC82FD820E831F83E090B703F090B803A7
:105480000091B9031091BA03688579858A859B8557
:10549000A80197010E9475EE181624F4E886F98693
:1054A0000A871B87DF91CF911F910F91FF90EF909B
:1054B00008958091870808950F931F93CF93DF93EA
:1054C0008130910569F46F5F7F4F09F04AC087E929
:1054D00095E00E94FB2188E898E00E94627F41C02D
:1054E000892B09F03EC06F5F7F4FD9F588EA94E0C1
:1054F000909363078093620780916907882321F066
:1055000086E697E00E940071CEE1D7E008EA14E059
:1055100005C06F9785E0C83ED80751F0198308830E
:105520008F818823B1F3CE0104960E940071F1CFE0
:1055300088EA94E0998388838F81882321F0CE01C3
:1055400004960E94007188EA94E09093C8058093C5
:10555000C7058091CE05882321F08BEC95E00E9451
:105560000071DF91CF911F910F91089580E090E03D
:105570006FEF7FEFA1CF81E090E06FEF7FEF9CCFE7
:105580000E94788C80918708882309F03AC081E0D6
:105590008093870880918D0890918E08A0918F0844
:1055A000B09190088093910890939208A0939308EB
:1055B000B0939408E2E2F5E0949108C08091C000B5
:1055C00085FFFCCF9093C600319694919923B1F753
:1055D000E3E3F5E0949108C08091C00085FFFCCF23
:1055E0009093C600319694919923B1F78091C000B1
:1055F00085FFFCCF8AE08093C60089E295E00C9499
:1056000025A00895F8940E94788C159A1092540859
:10561000179A10925508429A10925608A09A8FB77E
:10562000F89490910B01926090930B018FBFE2E28E
:10563000F5E0949108C08091C00085FFFCCF909365
:10564000C600319694919923B1F7E2EBF5E094917D
:1056500008C08091C00085FFFCCF9093C6003196B2
:1056600094919923B1F78091C00085FFFCCF8AE027
:105670008093C60089EA95E00E9434A0809A8898B9
:10568000FFCF0E948EE460939708709398088093F0
:10569000990890939A08E091C008F091C108EE53E0
:1056A000F74F80818823A9F4E1EDF5E0949108C0DB
:1056B0008091C00085FFFCCF9093C60031969491F5
:1056C0009923B1F78091C00085FFFCCF8AE08093D9
:1056D000C60008950E948EE460939708709398081E
:1056E0008093990890939A0808956F927F928F9271
:1056F0009F92AF92BF92CF92DF92EF92FF920F9361
:105700001F93F82E60919F087091A0088091A108C6
:105710009091A2082091A3083091A4084091A50877
:105720005091A6080E9482EE3B014C0100D000D0AF
:105730000DB71EB70F5F1F4F60919F037091A003BD
:10574000882777FD8095982F0E9409ED2091E3032B
:105750003091E4034091E5035091E6030E9447EF46
:1057600020E030E040E752E40E946EEC20E030E0C0
:1057700048EC52E40E946EEC5B016C01F80160821F
:10578000718282829382F48280916B0885838CE29D
:1057900098E06BEA78E04FE958E020E001E032E081
:1057A000E32E0E9420568091AB089091AC08A09106
:1057B000AD08B091AE0880932C0890932D08A0936B
:1057C0002E08B0932F088091AF089091B008A09157
:1057D000B108B091B2088093300890933108A0933B
:1057E0003208B09333088091B3089091B408A09127
:1057F000B508B091B6088093340890933508A0930B
:105800003608B09337088091B7089091B808A091F6
:10581000B908B091BA088093380890933908A093DA
:105820003A08B0933B088DB79EB706960FB6F8942A
:105830009EBF0FBE8DBF0E948EE460939708709349
:1058400098088093990890939A081F910F91FF9060
:10585000EF90DF90CF90BF90AF909F908F907F9010
:105860006F900895CF92DF92EF92FF920F931F9364
:105870008BEA98E08CDD0E948EE460939708709329
:1058800098088093990890939A0860912C087091D9
:105890002D0880912E0890912F082091AB0830910F
:1058A000AC084091AD085091AE080E9467EC882387
:1058B00009F07AC060913008709131088091320807
:1058C000909133082091AF083091B0084091B10811
:1058D0005091B2080E9467EC882309F065C060917E
:1058E000E3037091E4038091E5039091E60320E0E7
:1058F00030E040E752E40E946EEC7B018C018BEAC1
:1059000098E06FEA78E043EB58E027EB38E0EBE60D
:10591000CE2EE8E0DE2E0E9456608091AB0890917A
:10592000AC08A091AD08B091AE0880932C0890937C
:105930002D08A0932E08B0932F088091AF08909166
:10594000B008A091B108B091B2088093300890934C
:105950003108A0933208B09333088091B308909136
:10596000B408A091B508B091B6088093340890931C
:105970003508A0933608B09337088091B708909106
:10598000B808A091B908B091BA08809338089093EC
:105990003908A0933A08B0933B081F910F91FF90EC
:1059A000EF90DF90CF90089560919F037091A003D6
:1059B000882777FD8095982F0E9409ED2091E303B9
:1059C0003091E4034091E5035091E6030E9447EFD4
:1059D00020E030E040E752E40E946EEC20E030E04E
:1059E00048EC52E488CF86E995E00BDBE4EDF5E086
:1059F000949108C08091C00085FFFCCF9093C600B1
:105A0000319694919923B1F740918D0850918E0869
:105A100060918F08709190084F5F5F4F6F4F7F4F7D
:105A200086E995E02AE030E0AADB8091C00085FF9E
:105A3000FCCF8AE08093C60024CEDF92EF92FF92E3
:105A40000F931F93D62E10916B08882309F4C8C0BA
:105A5000212F30E0F901E159F74F8081882309F0C7
:105A60009DC180912C0890912D08A0912E08B09195
:105A70002F088093AB089093AC08A093AD08B09327
:105A8000AE088091300890913108A0913208B09111
:105A900033088093AF089093B008A093B108B093F7
:105AA000B2088091340890913508A0913608B091E1
:105AB00037088093B3089093B408A093B508B093C7
:105AC000B608E0903808F090390800913A08109133
:105AD0003B08E092B708F092B8080093B908109319
