:100000000C94750F0C94A60F0C94A60F0C94A60FCD
:100010000C94A60F0C94A60F0C94A60F0C94A60F8C
:100020000C94A60F0C94A60F0C94A60F0C94A60F7C
:100030000C94A60F0C94D2CB0C94A60F0C94A60F84
:100040000C94A60F0C94FA750C94A60F0C94A60FA2
:100050000C94A60F0C94A60F0C94BD880C948DC51F
:100060000C94A60F0C94E7150C94A60F0C94A60FF5
:100070000C94A60F0C94A60F0C94A60F0C94A60F2C
:100080000C94E0520C94A60F0C94A60F0C94A60F9F
:100090000C94A60F0C94A60F0C94A60F0C94A60F0C
:1000A0000C94A60F0C94A60F0C940D530C94A60F51
:1000B0000C94A60F0C94A60F0C94A60F0C943A5314
:1000C0000C94A60F0C94A60F0C94A60F0C94A60FDC
:1000D0000C94A60F0C94A60F0C94A60F0C94A60FCC
:1000E0000C94A60F16892589418950896A897989D6
:1000F000938997899F89CEC6D3C6D8C6E2C6ECC677
:1001000065C7F6C6FEC606C710C71AC724C733C7D9
:100110003DC765C747C751C75BC787C78AC779C788
:100120007DC783C7C1C78EC792C798C79CC7A0C7E2
:10013000A6C7AAC7AEC7C1C7B4C7B8C7BCC7084A15
:10014000D73B3BCE016E84BCBFFDC12F3D6C7431EB
:100150009ABD56833DDA3D00C77F11BED9E4BB4C42
:100160003E916BAAAABE000000803F05A84CCDB20C
:10017000D44EB93836A9020C50B9918688083CA6ED
:10018000AAAA2ABE000000803F0048617264636F23
:100190006465642044656661756C7420536574748D
:1001A000696E6773204C6F616465640053746F728D
:1001B00065642073657474696E6773207265747208
:1001C0006965766564002044002049002020204DA8
:1001D0003330312050005049442073657474696E87
:1001E00067733A00205A0020590020204D323036E3
:1001F000205800486F6D65206F666673657420280F
:100200006D6D293A00204500205A002058002042F8
:100210000020540020204D323035205300416476B8
:10022000616E636564207661726961626C65733AC0
:1002300020533D4D696E206665656472617465206A
:10024000286D6D2F73292C20543D4D696E207472DA
:100250006176656C20666565647261746520286DE1
:100260006D2F73292C20423D6D696E696D756D206F
:100270007365676D656E742074696D6520286D7394
:10028000292C20583D6D6178696D756D2058592075
:100290006A65726B20286D6D2F73292C20205A3DC2
:1002A0006D6178696D756D205A206A65726B2028C2
:1002B0006D6D2F73292C2020453D6D6178696D751A
:1002C0006D2045206A65726B20286D6D2F732900A3
:1002D00020540020204D32303420530041636365A8
:1002E0006C65726174696F6E3A20533D616363653A
:1002F0006C65726174696F6E2C20543D7265747206
:1003000061637420616363656C65726174696F6EAB
:1003100000204500205A0020590020204D32303165
:100320002058004D6178696D756D20416363656C7F
:1003300065726174696F6E20286D6D2F7332293A72
:1003400000204500205A0020590020204D32303333
:100350002058004D6178696D756D20666565647221
:100360006174657320286D6D2F73293A0020450054
:10037000205A0020590020204D3932205800537453
:100380006570732070657220756E69743A005365EC
:100390007474696E67732053746F7265640065636B
:1003A000686F3A0053544F505045442E200050720D
:1003B000696E7465722073746F7070656420647503
:1003C0006520746F206572726F72732E2046697893
:1003D00020746865206572726F7220616E6420758A
:1003E0007365204D39393920746F207265737461DB
:1003F00072742E202854656D706572617475726513
:100400002069732072657365742E205365742069AA
:1004100074206166746572207265737461727469A8
:100420006E6729004B494C4C45442E2000507269A0
:100430006E7465722068616C7465642E206B696CE3
:100440006C28292063616C6C656421006F6B00521D
:100450006573656E643A20002200556E6B6E6F778F
:100460006E20636F6D6D616E643A20220043686197
:100470006E67652066696C616D656E74005A204F09
:100480006666736574203A20007A5F6D61783A2061
:10049000007A5F6D696E3A20005A204F6666736578
:1004A00074005A204F6666736574206F6B00486F46
:1004B00074656E64206F6666736574733A0022001B
:1004C000556E6B6E6F776E20636F6D6D616E643A03
:1004D0002022007A5F6D61783A20007A5F6D696E44
:1004E0003A2000795F6D61783A2000795F6D696E1E
:1004F0003A2000785F6D61783A2000785F6D696E10
:100500003A2000205A3A0020593A0020436F756E75
:100510007420583A200020453A00205A3A002059C9
:100520003A00583A004649524D574152455F4E41B4
:100530004D453A4D61726C696E2056313B205370C7
:1005400072696E7465722F6772626C206D61736878
:10055000757020666F722067656E36204649524D71
:10056000574152455F55524C3A687474703A2F2F78
:100570006669726D776172652E756C74696D616BF9
:1005800065722E636F6D2050524F544F434F4C5F36
:1005900056455253494F4E3A312E30204D41434833
:1005A000494E455F545950453A556C74696D616BBD
:1005B00065722045585452554445525F434F554E3D
:1005C000543A3220555549443A303030303030308A
:1005D000302D303030302D303030302D3030303024
:1005E0002D3030303030303030303030300A00553F
:1005F0006C74696D616B6572204F66662E00426592
:100600006420646F6E652E0020423A0020453A0057
:10061000543A004265642048656174696E672E0033
:1006200048656174696E6720646F6E652E0020579F
:100630003A0020453A00543A0048656174696E6793
:100640002E2E2E002042403A0020403A00202F005B
:100650003A00205400202F0020423A00202F006F43
:100660006B20543A002569206D696E2C2025692085
:1006700073656300456E642066696C65206C697300
:100680007400426567696E2066696C65206C6973E9
:1006900074004E6F206D6F76652E00526573756D18
:1006A000696E67207072696E7400576169742066A4
:1006B0006F7220757365722E2E2E00536C656570F7
:1006C0002E2E2E00256920686F75727320256920F3
:1006D0006D696E7574657300446F6E652070726924
:1006E0006E74696E672066696C650053544F505094
:1006F00045442E20005072696E7465722073746FC9
:10070000707065642064756520746F206572726F07
:1007100072732E2046697820746865206572726F46
:100720007220616E6420757365204D3939392074EB
:100730006F20726573746172742E202854656D7019
:100740006572617475726520697320726573657472
:100750002E2053657420697420616674657220725E
:10076000657374617274696E6729006F6B004E6FF8
:10077000204C696E65204E756D62657220776974D4
:100780006820636865636B73756D2C204C617374AE
:10079000204C696E653A20004E6F20436865636B9C
:1007A00073756D2077697468206C696E65206E754D
:1007B0006D6265722C204C617374204C696E653AD1
:1007C0002000636865636B73756D206D69736D617F
:1007D0007463682C204C617374204C696E653A20F8
:1007E000004C696E65204E756D62657220697320DC
:1007F0006E6F74204C617374204C696E65204E7569
:100800006D6265722B312C204C617374204C696EC3
:10081000653A20004D31313000446F6E65207361C0
:1008200076696E672066696C652E006F6B004D32CD
:1008300039002020506C616E6E6572427566666587
:100840007242797465733A20002046726565204DC6
:10085000656D6F72793A200046656220203720323C
:1008600030323000436F6D70696C65643A2000432C
:100870004520636F6E66696700207C20417574684F
:100880006F723A20004665622020372032303230C5
:100890002030383A31373A303600204C61737420BA
:1008A000557064617465643A2000312E302E30003A
:1008B0004D61726C696E0020536F6674776172656A
:1008C00020526573657400205761746368646F67B4
:1008D000205265736574002042726F776E206F75C9
:1008E00074205265736574002045787465726E617A
:1008F0006C20526573657400506F77657255700097
:100900007374617274002200656E717565696E673B
:100910002022002200656E717565696E67202200D5
:10092000FFFFFF0000A0400000A0400000004000CA
:10093000004D4300004D430000484300000000000C
:100940000000000000000000004D4300004D430087
:1009500000484300000000000000000000000065A7
:1009600063686F3A004572726F723A0041414141CB
:10097000E1414143454545454949494944EE4F4FC9
:100980004F4FEF784F555555F55954E2616161610C
:10099000E1616163656565656969696964EE6F6FE9
:1009A0006F6FEFFD6F757575F5797479007C3C3E5E
:1009B0005E2B3D3F2F5B5D3B2C2A225C004D383483
:1009C00020582059205A20450043616E6E6F7420D4
:1009D000656E746572207375626469723A20004DA9
:1009E0003234004D3233202573006175746F2569F0
:1009F0002E67006572726F722077726974696E6714
:100A000020746F2066696C65004E6F74205344201B
:100A10007072696E74696E67002F005344207072A3
:100A2000696E74696E67206279746520002E0044D7
:100A3000656C6574696F6E206661696C65642C20F5
:100A400046696C653A200046696C652064656C6592
:100A50007465643A002E006F70656E206661696C83
:100A600065642C2046696C653A2000577269746988
:100A70006E6720746F2066696C653A20002E006FE7
:100A800070656E206661696C65642C2046696C65D2
:100A90003A20002E006F70656E206661696C656497
:100AA0002C2046696C653A200046696C65207365A8
:100AB0006C6563746564002053697A653A2000466A
:100AC000696C65206F70656E65643A20002E006F5A
:100AD00070656E206661696C65642C2046696C6582
:100AE0003A20004E6F772066726573682066696CE5
:100AF000653A20004E6F7720646F696E67206669E3
:100B00006C653A20002220706F73002220706172A1
:100B1000656E743A2200535542524F5554494E4522
:100B20002043414C4C207461726765743A22007412
:100B30007279696E6720746F2063616C6C207375C5
:100B4000622D67636F64652066696C6573207769E1
:100B5000746820746F6F206D616E79206C657665A6
:100B60006C732E204D4158206C6576656C2069733E
:100B70003A0053442063617264206F6B006F7065AC
:100B80006E526F6F74206661696C656400766F6C7D
:100B9000756D652E696E6974206661696C656400A7
:100BA000534420696E6974206661696C00656368EE
:100BB0006F3A004572726F723A0020746F6F206C4A
:100BC0006F6E6720657874727573696F6E207072CE
:100BD0006576656E7465640020636F6C642065786B
:100BE00074727573696F6E2070726576656E746568
:100BF00064006563686F3A00656E6473746F707348
:100C0000206869743A205A00205A3A00656E64736D
:100C1000746F7073206869743A20590020593A0043
:100C2000656E6473746F7073206869743A2058003D
:100C300020583A00656E6473746F7073206869742D
:100C40003A200024F4D43050C38E20C2A240178230
:100C50008B7011127A910D816CD90AA861E108C7D5
:100C6000586607615143061E4B5D05C145A7041A2E
:100C7000411104093D9803713931034036DB0265A7
:100C8000339102D4305402802E1D02632CEE017584
:100C90002AC501B028A001102781018F2564012BEE
:100CA000244B01E0223401AC211F018D200D018075
:100CB0001FFC00841EED00971DDF00B81CD200E66B
:100CC0001BC600201BBC00641AB200B219A8000A9F
:100CD00019A0006A189900D117910040178B00B530
:100CE00016840031167E00B31579003A157300C7DB
:100CF000146F0058146A00EE136600881363002511
:100D0000135E00C7125B006C12570015125400C12D
:100D100011510070114F0021114B00D61049008D68
:100D20001047004610440002104200C00F400080EF
:100D30000F3E00420F3C00060F3B00CB0E380093E5
:100D40000E37005C0E3500270E3400F30D3200C163
:100D50000D3100900D3000600D2E00320D2D00057C
:100D60000D2C00D90C2B00AE0C2900850C29005C41
:100D70000C2700350C27000E0C2600E80B2400C4BD
:100D80000B2400A00B23007D0B23005A0B210039FC
:100D90000B2100180B2000F80A1F00D90A1E00BB07
:100DA0000A1E009D0A1D00800A1D00630A1C0047E0
:100DB0000A1B002C0A1B00110A1A00F7091A00DD91
:100DC000091900C4091900AB091900920917007B21
:100DD000091800630917004C09160036091600208F
:100DE0000916000A091500F5081500E0081400CCE2
:100DF000081400B8081400A4081400900813007D1B
:100E00000812006B0813005808120046081200343C
:100E1000081100230811001208110001081100F048
:100E2000071000E0071000D0071000C0071000B046
:100E3000070F00A107100091070E0083070F007431
:100E4000070F0065070E0057070E0049070E003B0D
:100E5000070D002E070E0020070D0013070D0006DA
:100E6000070D00F9060C00ED060D00E0060C00D49D
:100E7000060C00C8060C00BC060C00B0060C00A452
:100E8000060B0099060C008D060B0082060B0077FE
:100E9000060B006C060B0061060A0057060B004C9F
:100EA000060A0042060A0038060A002E060A002436
:100EB000060A001A060A001006090007060A00FDC5
:100EC000050900F4050900EB050900E2050900D950
:100ED000050900D0050900C7050900BE050900B5D0
:100EE000050800AD050800A50509009C050800944B
:100EF0000508008C050800840508007C05080074BE
:100F00000508006C050700650508005D050700562B
:100F10000508004E05070047050700400508003892
:100F2000050700310507002A050700230507001CF7
:100F3000050600160507000F050700080506000254
:100F4000050700FB040600F5040700EE040600E8B0
:100F5000040600E2040700DB040600D5040600CF07
:100F6000040600C9040600C3040600BD040600B759
:100F7000040600B1040500AC040600A6040600A0A7
:100F80000405009B04060095040500900406008AF1
:100F900004050085040500800406007A0405007538
:100FA000040500700405006B04050066040500617B
:100FB0000405005C04050057040500520405004DBB
:100FC00004050048040500430405003E0404003AFB
:100FD00004050035040500300404002C0405002736
:100FE000040400230405001E0404001A040400166F
:100FF000040500110404000D0404000904050004A4
:1010000004040000040400FC030400F8030400F4DA
:10101000030400F0030400EC030400E8030400E40C
:10102000030400E0030400DC030400D8030400D43C
:10103000030400D0030400CC030400C8030300C56C
:1010400003030024F404D9201BC40C5C0E9804C4D0
:10105000095F0265077101F405F900FB04B300485C
:10106000048700C10369005803550003034500BE0F
:10107000023A008402310053022A002902250004AA
:10108000022000E4011C00C8011900AF01170098FC
:10109000011400840113007101100061011000515E
:1010A000010E0043010D0036010B002B010B002047
:1010B000010B00150109000C01090003010800FBE8
:1010C000000800F3000800EB000700E4000600DE63
:1010D000000600D8000600D2000600CC000500C7BC
:1010E000000500C2000500BD000400B9000400B501
:1010F000000400B1000400AD000400A9000400A534
:10110000000300A20003009F0004009B000300985E
:101110000003009500020093000300900003008D7F
:101120000002008B00030088000200860002008499
:10113000000300810002007F0002007D0002007BAE
:1011400000020079000200770001007600020074BE
:1011500000020072000100710002006F0002006DC9
:101160000001006C0002006A0001006900020067D3
:1011700000010066000100650001006400020062D9
:1011800000010061000100600001005F0002005DDD
:101190000001005C0001005B0001005A00010059E1
:1011A00000010058000100570001005600010055E1
:1011B00000010054000100530000005300010052E0
:1011C00000010051000100500001004F0001004EDD
:1011D0000000004E0001004D0001004C0001004BDA
:1011E0000000004B0001004A0001004900010048D6
:1011F00000000048000100470001004600000046D2
:1012000000010045000000450001004400010043CA
:1012100000000043000100420000004200010041C4
:1012200000000041000100400001003F0000003FBD
:101230000001003E0000003E0001003D0000003DB6
:101240000001003C0000003C0000003C0001003BAD
:101250000000003B0001003A0000003A00010039A4
:10126000000000390001003800000038000000389C
:101270000001003700000037000100360000003692
:101280000000003600010035000000350000003588
:10129000000100340000003400000034000100337D
:1012A0000000003300000033000100320000003273
:1012B0000000003200010031000000310000003168
:1012C0000001003000000030000000300001002F5D
:1012D0000000002F0000002F0000002F0001002E52
:1012E0000000002E0000002E0001002D0000002D47
:1012F0000000002D0000002D0001002C0000002C3B
:101300000000002C0000002C0001002B0000002B2E
:101310000000002B0000002B0001002A0000002A22
:101320000000002A0000002A000100290000002916
:101330000000002900000029000000290001002809
:1013400000000028000000280000002800000028FD
:1013500000010027000000270000002700000027F0
:1013600000000027000100260000002600000026E3
:1013700000000026000000260001002500000025D6
:1013800000000025000000250000002500000025C9
:1013900000010024000000240000002400000024BC
:1013A00000000024000100230000002300000023AF
:1013B00000000023000000230000002300000023A1
:1013C0000001002200000022000000220000002294
:1013D0000000002200000022000100210000002186
:1013E0000000002100000021000000210000002179
:1013F000000000210001002000000020000000206B
:10140000000000200000002000000020000000205C
:10141000000000200001001F0000001F0000001F4E
:101420000000001F0000001F0000001F0000001F40
:101430000001001E0000001E0000001E0000001E33
:101440000000006563686F3A004572723A204D41B2
:101450005854454D50204245440054656D706572A6
:101460006174757265206865617465642062656485
:10147000207377697463686564206F66662E204DFB
:10148000415854454D5020747269676765726564B0
:10149000202121004572723A204D494E54454D504D
:1014A000003A2045787472756465722073776974A8
:1014B00063686564206F66662E204D494E54454D25
:1014C00050207472696767657265642021004572F7
:1014D000723A204D415854454D50003A2045787499
:1014E0007275646572207377697463686564206FD0
:1014F00066662E204D415854454D502074726967E0
:101500006765726564202100202D20496E76616C2C
:101510006964206578747275646572206E756D6299
:101520006572202100504944204175746F74756EB6
:10153000652066696E697368656421205075742042
:10154000746865206C617374204B702C204B69208B
:10155000616E64204B6420636F6E7374616E74738C
:101560002066726F6D2061626F766520696E746FA0
:1015700020436F6E66696775726174696F6E2E685D
:1015800000504944204175746F74756E6520666122
:10159000696C6564212074696D656F757400204005
:1015A0003A006F6B20543A006F6B20423A0050496A
:1015B00044204175746F74756E65206661696C6551
:1015C00064212054656D7065726174757265207454
:1015D0006F6F206869676800204B643A2000204BD9
:1015E000693A2000204B703A200020436C617373ED
:1015F00069632050494420002054753A2000204B54
:10160000753A2000206D61783A2000206D696E3AAD
:10161000200020643A200020626961733A2000456E
:1016200072726F723A0070012C0190012701B001B3
:101630002201C0011D01F001180110021301300246
:101640000E016002090190020401C002FF000003C4
:10165000FA004003F5008003F000D003EB00200403
:10166000E6007004E100E004DC004005D700C0059E
:10167000D2004006CD00D006C8008007C300300865
:10168000BE00F008B900C009B400B00AAF00B00B4A
:10169000AA00D00CA500000EA000500F9B00C010A7
:1016A00096005012910000148C00C0158700B017EE
:1016B0008200B0197D00D01B7800001E730040200E
:1016C0006E0090226900F024640040275F0090299A
:1016D0005A00E02B5500102E500020304B001032E5
:1016E0004600E033410090353C0010373700703839
:1016F0003200A0392D00B03A2800A03B2300603C06
:101700001E00103D1900903D1400103E0F00703E69
:101710000A00C03E0500003F000043617264207271
:10172000656D6F766564004361726420696E7365F0
:1017300072746564002D2D3A2D2D002D2D2D005332
:1017400044000120000120000120004D363030000F
:101750004368616E67652066696C616D656E7400D3
:10176000466C6F77203100466C6F77203100466CF5
:101770006F77203000466C6F77203000466C6F77B3
:1017800000466C6F770046616E207370656564007B
:1017900046616E2073706565640042656400426551
:1017A00064004E6F7A7A6C6532004E6F7A7A6C659F
:1017B00032004E6F7A7A6C65004E6F7A7A6C6500F3
:1017C0005370656564005370656564004D61696EB2
:1017D000005072656865617420504C412042656418
:1017E000005072656865617420504C4120416C6CFA
:1017F000005072656865617420504C412032005081
:1018000072656865617420504C41203100507265EA
:101810007061726500507265686561742041425361
:1018200020426564005072656865617420414253CE
:1018300020416C6C005072656865617420414253B0
:101840002032005072656865617420414253203136
:10185000005072657061726500580059005A004569
:101860007874727564657200457874727564657217
:10187000004D6F7665205A004D6F76652059004DFA
:101880006F76652058004D6F76652061786973002A
:101890004D6F766520302E316D6D004D6F76652071
:1018A000316D6D004D6F76652031306D6D00507279
:1018B0006570617265004D6F7665206178697300AF
:1018C000436F6F6C646F776E00507265686561740A
:1018D00020414253005072656865617420504C414C
:1018E00000473238004175746F20686F6D65004D98
:1018F00038340044697361626C652073746570707C
:10190000657273004D61696E0053746F7265206D6E
:10191000656D6F72790042656400426564004E6FC8
:101920007A7A6C65004E6F7A7A6C650046616E203B
:1019300073706565640046616E2073706565640050
:1019400054656D70657261747572650053746F7261
:1019500065206D656D6F7279004265640042656453
:10196000004E6F7A7A6C65004E6F7A7A6C6500462D
:10197000616E2073706565640046616E20737065EA
:1019800065640054656D70657261747572650050B0
:101990007265686561742041425320636F6E660012
:1019A0005072656865617420504C4120636F6E66AB
:1019B000005049442D43005049442D4300504944B0
:1019C0002D44005049442D44005049442D490050B5
:1019D00049442D49005049442D50005049442D5050
:1019E0000020022046616374002002204661637477
:1019F000002002204D6178002002204D61780020F7
:101A000002204D696E002002204D696E004F66660F
:101A1000004F6E20004F6666004F6E2000417574C7
:101A20006F74656D700046616E207370656564004B
:101A300046616E20737065656400426564004265AE
:101A400064004E6F7A7A6C6532004E6F7A7A6C65FC
:101A500032004E6F7A7A6C65004E6F7A7A6C650050
:101A6000436F6E74726F6C004573746570732F6D85
:101A70006D004573746570732F6D6D005A737465D6
:101A800070732F6D6D005A73746570732F6D6D00D8
:101A90005973746570732F6D6D005973746570732D
:101AA0002F6D6D005873746570732F6D6D005873D2
:101AB000746570732F6D6D00412D72657472616372
:101AC0007400412D7265747261637400416D6178B8
:101AD000206500416D6178206500416D6178207A54
:101AE00000416D6178207A00416D61782079004174
:101AF0006D6178207900416D6178207800416D61D9
:101B0000782078005654726176206D696E005654C4
:101B1000726176206D696E00566D696E00566D6952
:101B20006E00566D6178206500566D617820650005
:101B3000566D6178207A00566D6178207A00566D76
:101B40006178207900566D6178207900566D617852
:101B5000207800566D617820780056652D6A657290
:101B60006B0056652D6A65726B00567A2D6A657238
:101B70006B00567A2D6A65726B005678792D6A650E
:101B8000726B005678792D6A65726B0041636365EC
:101B90006C00416363656C00436F6E74726F6C0020
:101BA000556E52657420205600556E526574202083
:101BB00056005320556E5265742B6D6D00532055A1
:101BC0006E5265742B6D6D00556E526574202B6DD1
:101BD0006D00556E526574202B6D6D00486F70203E
:101BE0006D6D00486F70206D6D0052657472616399
:101BF0007420205600526574726163742020560070
:101C0000537761702052652E6D6D0053776170209F
:101C100052652E6D6D0052657472616374206D6D36
:101C20000052657472616374206D6D004F666600CA
:101C30004F6E20004F6666004F6E20004175746F36
:101C4000526574722E00436F6E74726F6C00526531
:101C500073746F7265206661696C73616665004CB0
:101C60006F6164206D656D6F72790053746F72657A
:101C7000206D656D6F7279005265747261637400D6
:101C80004D6F74696F6E0054656D70657261747527
:101C90007265004D61696E004D363031205831302B
:101CA00020593230205A30204C3330004D363031FC
:101CB0002058313020593230205A32204C333000F5
:101CC0004D3630312058313020593230205A3230A0
:101CD000204C3330004D383420582059205A2045AC
:101CE00000473031205831302059313020463530CE
:101CF0003030004D383420582059205A20450047B4
:101D000030312058313020593130205A313020467E
:101D100035303030004D3234004D323320257300E1
:101D2000052E2E004D61696E004E6F2053442063D6
:101D3000617264005072696E742066726F6D205318
:101D4000440053746F70207072696E740052657332
:101D5000756D65207072696E7400506175736520D1
:101D60007072696E7400436F6E74726F6C005072A3
:101D700065706172650054756E6500496E666F200E
:101D800073637265656E0000000A0B02090C0D0E8C
:101D9000080703040100000000000000000000002C
:101DA0000000000000000000000000000000000033
:101DB00000000012111000000000000000000000F0
:101DC0000000000000000000000000000001021000
:101DD0002020080810204010204080020102010845
:101DE00004020101020408102040808040201008F5
:101DF000040201800402018040201008040201084E
:101E000004020101020408102040800102040810AD
:101E1000204080050505050705080808080202029C
:101E2000020A0A0808040404040101010101010175
:101E3000010303030303030303040707070C0C0C4C
:101E40000C0C0C0C0C020202020606060606060624
:101E5000060B0B0B0B0B0B0B0B00002000230026BB
:101E60000029002C002F00320000010000030106B1
:101E700001090100002200250028002B002E00315E
:101E800000340002010000050108010B01000021DF
:101E900000240027002A002D00300033000101003B
:101EA00000040107010A01024E414E494E495459AE
:101EB000494E46CDCCCC3D0AD7233C17B7D1387715
:101EC000CC2B329595E6241FB14F0A00002041002B
:101ED00000C84200401C4620BCBE4CCA1B0E5AAE75
:101EE000C59D7400E74150B1EF4111241FBECFEFF3
:101EF000D1E2DEBFCDBF00E00CBF14E0A0E0B2E055
:101F0000ECE3F2EB01E00BBF02C007900D92A23FA1
:101F1000B107D9F723E1A2EFB4E001C01D92AC37BD
:101F2000B207E1F71EE1C8EEDEE100E006C022974D
:101F30000109FE010BBF0E9492D1C43ED10780E08F
:101F40000807A9F70E9477CC0C940DD90C940000D7
:101F5000EF92FF920F931F93CF93DF931F92CDB712
:101F6000DEB78C017B01460FF70161917F01F8011B
:101F70008081918149830E9456D8F80180819181A6
:101F800001969183808349814E11EECF0F90DF91AE
:101F9000CF911F910F91FF90EF900895EF92FF92D4
:101FA0000F931F93CF93DF931F92CDB7DEB78C01B2
:101FB0007B01460FF8018081918149830E944ED8B0
:101FC000F70181937F01F8018081918101969183CE
:101FD000808349814E11EECF0F90DF91CF911F91F9
:101FE0000F91FF90EF9008950F931F93CF93DF937E
:101FF000CDB7DEB72C970FB6F894DEBF0FBECDBFBE
:1020000080E390E3A0E3B0E08D839E83AF83B88745
:1020100004E610E01C870B8744E0BE016B5F7F4F36
:10202000CE010B9695DF40E163EF71E1CE010B9697
:102030008FDF40E163E072E1CE010B9689DF40E182
:1020400063EE71E1CE010B9683DF44E06BED71E14D
:10205000CE010B967DDF44E067ED71E1CE010B967A
:1020600077DF44E06FED71E1CE010B9671DF44E064
:1020700067EC71E1CE010B966BDF44E063E172E146
:10208000CE010B9665DF44E063ED71E1CE010B9666
:102090005FDF44E06FEC71E1CE010B9659DF44E065
:1020A0006BEC71E1CE010B9653DF4CE066E877E014
:1020B000CE010B964DDF42E060E473E1CE010B965A
:1020C00047DF42E06EE373E1CE010B9641DF42E071
:1020D0006CE373E1CE010B963BDF42E06AE373E110
:1020E000CE010B9635DF42E068E373E1CE010B963B
:1020F0002FDF42E066E373E1CE010B9629DF44E077
:1021000063E777E0CE010B9623DF44E06EE872E0F0
:10211000CE010B961DDF44E06AE872E0CE010B961B
:1021200017DF44E066E872E0CE010B9611DF80E233
:1021300090E09A87898742E0BE01675F7F4FCE01BA
:102140000B9606DF86E591E3A0E3B0E089839A83EE
:10215000AB83BC831C870B8744E0BE016F5F7F4F5E
:10216000CE010B96F5DEEEE9F3E08491882341F091
:102170009091C00095FFFCCF8093C6003196F5CFBB
:10218000EEE8F3E08491882341F09091C00095FF40
:10219000FCCF8093C6003196F5CF8091C00085FFBB
:1021A000FCCF8AE08093C6002C960FB6F894DEBF71
:1021B0000FBECDBFDF91CF911F910F910895CF93A7
:1021C000DF93CEE9D3E0FE018491882341F0909122
:1021D000C00095FFFCCF8093C6003196F5CFEEE7A7
:1021E000F3E08491882341F09091C00095FFFCCFEB
:1021F0008093C6003196F5CF8091C00085FFFCCF5B
:102200008AE08093C600FE018491EEE9F3E0882322
:1022100049F09091C00095FFFCCF8093C6003196A5
:102220008491F5CF4091F3115091F4116091F51123
:102230007091F61186E793E00E94CE194091F71154
:102240005091F8116091F9117091FA1183E793E0C0
:102250000E94CE194091FB115091FC116091FD112B
:102260007091FE1180E793E00E94CE194091FF111A
:102270005091001260910112709102128DE693E06C
:102280000E94CE198091C00085FFFCCF8AE0809328
:10229000C600FE018491EEE9F3E0882349F09091B5
:1022A000C00095FFFCCF8093C60031968491F5CF96
:1022B000E3E5F3E08491882341F09091C00095FF1D
:1022C000FCCF8093C6003196F5CF8091C00085FF8A
:1022D000FCCF8AE08093C600FE018491EEE9F3E032
:1022E000882349F09091C00095FFFCCF8093C600F1
:1022F00031968491F5CF4091031250910412609170
:102300000512709106128AE493E00E94CE19409162
:102310000712509108126091091270910A1287E415
:1023200093E00E94CE1940910B1250910C126091D3
:102330000D1270910E1284E493E00E94CE19409128
:102340000F1250911012609111127091121281E4CB
:1023500093E00E94CE198091C00085FFFCCF8AE0F7
:102360008093C600FE018491EEE9F3E0882349F0F2
:102370009091C00095FFFCCF8093C6003196849168
:10238000F5CFE3E2F3E08491882341F09091C0001F
:1023900095FFFCCF8093C6003196F5CF8091C000A9
:1023A00085FFFCCF8AE08093C600FE018491EEE9B0
:1023B000F3E0882349F09091C00095FFFCCF809313
:1023C000C60031968491F5CF4091E3115091E4110C
:1023D0006091E5117091E6118AE193E0F0D74091A8
:1023E000E7115091E8116091E9117091EA1187E1CC
:1023F00093E0E5D74091EB115091EC116091ED1114
:102400007091EE1184E193E0DAD74091EF11509191
:10241000F0116091F1117091F21181E193E0CFD749
:102420008091C00085FFFCCF8AE08093C600FE014A
:102430008491EEE9F3E0882349F09091C00095FF84
:10244000FCCF8093C60031968491F5CFECEDF2E09D
:102450008491882341F09091C00095FFFCCF809338
:10246000C6003196F5CF8091C00085FFFCCF8AE091
:102470008093C600FE018491EEE9F3E0882349F0E1
:102480009091C00095FFFCCF8093C6003196849157
:10249000F5CF4091DB115091DC116091DD1170910D
:1024A000DE1183ED92E07AD74091D7115091D81187
:1024B0006091D9117091DA1180ED92E06FD780911F
:1024C000C00085FFFCCF8AE08093C600FE018491A6
:1024D000EEE9F3E0882349F09091C00095FFFCCF2E
:1024E0008093C60031968491F5CFEDE1F2E08491BE
:1024F000882341F09091C00095FFFCCF8093C600E7
:102500003196F5CF8091C00085FFFCCF8AE08093A3
:10251000C600FE018491EEE9F3E0882349F0909132
:10252000C00095FFFCCF8093C60031968491F5CF13
:102530004091DF115091E0116091E1117091E21131
:1025400084E192E02BD74091C7115091C81160915E
:10255000C9117091CA1181E192E020D74091131204
:102560005091141260911512709116128EE092E043
:1025700026D74091D3115091D4116091D51170910B
:10258000D6118BE092E00AD74091CF115091D01133
:102590006091D1117091D21188E092E0FFD6409104
:1025A000CB115091CC116091CD117091CE1185E07D
:1025B00092E0F4D68091C00085FFFCCF8AE0809342
:1025C000C600FE018491EEE9F3E0882349F0909182
:1025D000C00095FFFCCF8093C60031968491F5CF63
:1025E000E3EFF1E08491882341F09091C00095FFE2
:1025F000FCCF8093C6003196F5CF8091C00085FF57
:10260000FCCF8AE08093C600FE018491EEE9F3E0FE
:10261000882349F09091C00095FFFCCF8093C600BD
:1026200031968491F5CF409186075091870760914C
:102630008807709189078AEE91E0B0D640918A07A9
:1026400050918B0760918C0770918D0787EE91E018
:10265000A5D640918E0750918F0760919007709199
:10266000910784EE91E09AD68091C00085FFFCCF5F
:102670008AE08093C600FE018491EEE9F3E08823AE
:1026800049F09091C00095FFFCCF8093C600319631
:102690008491F5CFE6EDF1E08491882341F09091AB
:1026A000C00095FFFCCF8093C6003196F5CF809196
:1026B000C00085FFFCCF8AE08093C600FE01C49174
:1026C000EEE9F3E0CC2349F08091C00085FFFCCF18
:1026D000C093C6003196C491F5CF40918E025091BF
:1026E0008F0260919002709191028CEC91E056D62D
:1026F00060918A0270918B0280918C0290918D0280
:102700000E94448AAB01BC0189EC91E047D66091FC
:1027100086027091870280918802909189020E94BE
:10272000508AAB01BC0186EC91E038D68091C000A4
:1027300085FFFCCF8AE08093C600DF91CF9108959A
:10274000AF92BF92CF92DF92EF92FF920F931F93BF
:10275000CF93DF93CDB7DEB7E0970FB6F894DEBF27
:102760000FBECDBF80E1EBEAF2E0DE019196019071
:102770000D928A95E1F780E1EBEBF2E0DE015196F4
:1027800001900D928A95E1F780E1EBECF2E0DE0139
:10279000119601900D928A95E1F76E0181E2C80EC3
:1027A000D11C83EFE82E81E1F82E8E010F5E1F4FC2
:1027B00063E072E1AE014F5F5F4F93EEA92E91E1AE
:1027C000B92E20E030E0F60181919191A191B19173
:1027D0006F01F70181939193A193B1937F01F80168
:1027E00081919191A191B1918F01FB01819391937D
:1027F000A193B193BF01FA0181919191A191B191FE
:10280000AF01F50181939193A193B1935F012F5F84
:102810003F4F24303105B9F60E94077580E090E8FB
:10282000ABE3B5E48093DB119093DC11A093DD1151
:10283000B093DE118093D7119093D811A093D91142
:10284000B093DA111092DF111092E0111092E111A1
:102850001092E21180E29EE4A0E0B0E080931312B7
:1028600090931412A0931512B09316121092C711E0
:102870001092C8111092C9111092CA1180E090E014
:10288000A0EAB1E48093D3119093D411A093D51111
:10289000B093D6118DEC9CECACECBEE38093CF11E1
:1028A0009093D011A093D111B093D21180E090E019
:1028B000A0EAB0E48093CB119093CC11A093CD11FA
:1028C000B093CE1110928E0710928F07109290073E
:1028D0001092910710928A0710928B0710928C0722
:1028E00010928D0710928607109287071092880722
:1028F0001092890784EB90E09093411380934013EA
:1029000087E390E090933F1380933E1310923D1322
:1029100010923C1380EF90E090933B1380933A1316
:1029200084E690E090933913809338131092371314
:10293000109236138AE999E9A1EBB1E480938E02F3
:1029400090938F02A0939002B093910261E77DE390
:102950008AE89FE30E943E8A60938A0270938B020A
:1029600080938C0290938D0260E070E084EE92E49C
:102970000E944A8A6093860270938702809388023D
:10298000909389020E946D8080E090E0A0E8BFE310
:102990008093820290938302A0938402B093850275
:1029A000EEE9F3E08491882341F09091C00095FF17
:1029B000FCCF8093C6003196F5CFEAE8F1E0849130
:1029C000882341F09091C00095FFFCCF8093C60012
:1029D0003196F5CF8091C00085FFFCCF8AE08093CF
:1029E000C600E0960FB6F894DEBF0FBECDBFDF91F4
:1029F000CF911F910F91FF90EF90DF90CF90BF90FC
:102A0000AF900895CF93DF93CDB7DEB72C970FB675
:102A1000F894DEBF0FBECDBF84E690E09C878B8725
:102A200086E591E3A0E3B0E089839A83AB83BC831E
:102A300044E0BE016B5F7F4FCE010B96AFDA43E0FF
:102A400050E0BE016B5F7F4FCE0101960E9415D60C
:102A5000892B09F0B1C040E163EF71E1CE010B9623
:102A60009DDA40E163E072E1CE010B9697DA40E136
:102A700063EE71E1CE010B9691DA0E94077544E096
:102A80006BED71E1CE010B9689DA44E067ED71E1FF
:102A9000CE010B9683DA44E06FED71E1CE010B9627
:102AA0007DDA44E067EC71E1CE010B9677DA44E021
:102AB00063E172E1CE010B9671DA44E063ED71E1FE
:102AC000CE010B966BDA44E06FEC71E1CE010B9610
:102AD00065DA44E06BEC71E1CE010B965FDA4CE015
:102AE00066E877E0CE010B9659DA42E060E473E1E4
:102AF000CE010B9653DA42E06EE373E1CE010B9602
:102B00004DDA42E06CE373E1CE010B9647DA42E026
:102B10006AE373E1CE010B9641DA42E068E373E1C8
:102B2000CE010B963BDA42E066E373E1CE010B96F1
:102B300035DA44E063E777E0CE010B962FDA44E024
:102B40006EE872E0CE010B9629DA44E06AE872E0A2
:102B5000CE010B9623DA44E066E872E0CE010B96D4
:102B60001DDA42E0BE01675F7F4FCE010B9616DA99
:102B70000E946D80EEE9F3E08491882341F090910A
:102B8000C00095FFFCCF8093C6003196F5CFECEAEC
:102B9000F1E08491882341F09091C00095FFFCCF33
:102BA0008093C6003196F5CF8091C00085FFFCCFA1
:102BB0008AE08093C60001C0C3DD01DB2C960FB60E
:102BC000F894DEBF0FBECDBFDF91CF9108951F9265
:102BD0000F920FB60F9211240BB60F922F933F93C3
:102BE0004F935F936F938F939F93EF93FF936091B6
:102BF000C6002091730530917405C90101968F7745
:102C0000992740917505509176058417950741F0F5
:102C1000F901ED50FB4F6083909374058093730529
:102C2000FF91EF919F918F916F915F914F913F91A4
:102C30002F910F900BBE0F900FBE0F901F90189505
:102C40009A01AB01211581EE38074105510549F183
:102C500082E08093C00060E079E08DE390E00E9424
:102C600060D12150310941095109CA01B90122E05D
:102C700030E040E050E00E9460D13093C5002093E6
:102C8000C4008091C10080618093C1008091C10027
:102C900088608093C1008091C10080688093C100EA
:102CA00008951092C00020E130E0E7CF2091750533
:102CB0003091760580917305909174058217930782
:102CC00071F0F901ED50FB4F80812F5F3F4F2F775F
:102CD0003327309376052093750590E008958FEFA4
:102CE0009FEF0895809175059091760590937405F6
:102CF0008093730508954F925F926F927F928F92A7
:102D00009F92AF92BF92CF92DF92EF92FF920F937A
:102D10001F93CF93DF93CDB7DEB7A0970FB6F8948C
:102D2000DEBF0FBECDBF5C014115510561057105C8
:102D3000E9F420E030E040E350E060E070E0A0968D
:102D40000FB6F894DEBF0FBECDBFDF91CF911F91BC
:102D50000F91FF90EF90DF90CF90BF90AF909F903A
:102D60008F907F906F905F904F905BC08E010F5F50
:102D70001F4FC12CD12C76014801422E512C612CC1
:102D8000712C8FEFC81AD80AE80AF80ACB01BA01E9
:102D9000A30192010E943ED1CA01F80161938F0103
:102DA000A901BC01411551056105710551F7F1E01B
:102DB000CF1AD108E108F108F401EC0DFD1D808166
:102DC0008A3010F440E301C047E3480F552747FD20
:102DD0005095652F752F20E030E0C50122D081E0AD
:102DE000C81AD108E108F108EFEFCE16DE06EE06AC
:102DF000FE0611F7A0960FB6F894DEBF0FBECDBF4A
:102E0000DF91CF911F910F91FF90EF90DF90CF90C6
:102E1000BF90AF909F908F907F906F905F904F90FA
:102E200008952115310539F48091C00085FFFCCF4C
:102E30004093C60008952A30310509F41CC05BCFC9
:102E4000CF93DF93EC0120E030E04DE050E060E014
:102E500070E0E7DF20E030E04AE050E060E070E062
:102E6000CE01DF91CF91DDCF9A01AB01662757FDEF
:102E70006095762FD6CFCF92DF92EF92FF92CF93CD
:102E8000DF93EC016A017B0177FF0FC020E030E0A7
:102E90004DE250E060E070E0C4DFF094E094D09444
:102EA000C094C11CD11CE11CF11C2AE0B701A60191
:102EB000CE01DF91CF91FF90EF90DF90CF901BCFAD
:102EC0002115310539F48091C00085FFFCCF409376
:102ED000C600089510CF9A01462F50E060E070E0E0
:102EE000EFCFCF93DF93EC019A01AB0160E070E08C
:102EF000E7DFCE01DF91CF91A3CF8F929F92AF9268
:102F0000BF92CF92DF92EF92FF921F93CF93DF9306
:102F1000EC016A017B01122F20E030E0A901C7011A
:102F2000B6010E9461CD87FF0CC020E030E04DE289
:102F300050E060E070E0CE0174DFF7FAF094F7F84B
:102F4000F094B12C60E070E080E09FE3B11641F0B6
:102F500020E030E040E251E40E9468CDB394F6CF27
:102F60009B01AC01C701B6010E9488CC6B017C01BA
:102F70000E94D5CD4B015C010E9401CE9B01AC01AA
:102F8000C701B6010E9487CC6B017C012AE0B50124
:102F9000A401CE01B0DE112361F0E4EDF4E08191F3
:102FA000882339F09091C00095FFFCCF8093C60034
:102FB000F6CF112319F120E030E040E251E4C701DF
:102FC000B6010E9436D06B017C010E94D0CD4B012E
:102FD000AA2497FCA094BA2CB501A401CE014BDF22
:102FE000C501B4010E9403CE9B01AC01C701B6012B
:102FF0000E9487CC6B017C011150DBCFDF91CF9118
:103000001F91FF90EF90DF90CF90BF90AF909F9077
:103010008F90089572CFFC0165917591859194917F
:1030200008952F923F924F925F926F927F928F926C
:103030009F92AF92BF92CF92DF92EF92FF920F9347
:103040001F93CF93DF9300D000D0CDB7DEB75C01E4
:10305000FC01E05EF64F14919C01220F331F220FFA
:10306000331F3E832D83F901EE56F84F10821182F3
:10307000128213822EE937E04AE957E066E977E0E9
:1030800082E997E00E943574D501AA0FBB1FFD01AC
:10309000EF5CFD4F2081318137FD0FC0AA0FBB1FB0
:1030A000AB5DBD4F6D917C91C901880F991F820F57
:1030B000931F87589A4F0E9457548D819E81815D3E
:1030C000964FA9DF6B017C01612F772767FD709513
:1030D000872F972F0E9403CE2B013C018D819E816B
:1030E000815C984F4C0120E030E040EC5FE3C70189
:1030F000B6010E9436D0A30192010E9436D0F4019D
:1031000060837183828393832D813E812D5A3D4F4D
:103110003C832B83F901608171818281938160936B
:103120000F0270931002809311029093120220E01C
:1031300030E040E752E40E9468CD52E6C52E57E0E9
:10314000D52E7B018C012BE437E047E457E063E4A4
:1031500077E08FE397E00E947A6A0E94D67D2D8106
:103160003E812E56384F3A832983F901108211820D
:10317000128213822EE937E04AE957E066E977E0E8
:1031800082E997E00E9435742D813E812D5D364F96
:103190001901C90140DF9058A30192010E9436D065
:1031A000F401608371838283938320E030E040E701
:1031B00052E460910F02709110028091110290917F
:1031C00012020E9468CD7B018C012BE437E047E4BA
:1031D00057E063E477E08FE397E00E947A6A0E9409
:1031E000D67DC10118DF9B01AC010E9488CCA301F0
:1031F00092010E9436D0F4016083718382839383AD
:1032000020E030E040E05FE3EB81FC816081718190
:10321000828193810E9436D060930F0270931002D6
:10322000809311029093120220E030E040E752E4D4
:103230000E9468CD7B018C012BE437E047E457E026
:1032400063E477E08FE397E00E947A6A0E94D67D7C
:103250008D819E81855C964FDEDE0D811E810A5731
:10326000184FF80120813181428153810E9488CC1E
:10327000E981FA8160837183828393838D819E814A
:103280008D5A964FC8DE2D813E812658384F7901E0
:10329000F80120813181428153810E9488CCF7015D
:1032A00060837183828393838D819E81895B964F36
:1032B000B2DE2D813E81295C3D4F7901F8012081EC
:1032C0003181428153810E9488CCF70160837183F0
:1032D00082839383E981FA8180819181A281B38184
:1032E000F40180839183A283B38310920F02109222
:1032F000100210921102109212020E94EA75F5015A
:10330000E958F84F81E08083F501EE0FFF1FDF01E0
:10331000AF5CBD4F2D913C9137FD27C0EE0FFF1FD5
:10332000E95DFD4F60817181C901880F991F820F8E
:10333000931F87589A4F26960FB6F894DEBF0FBE9C
:10334000CDBFDF91CF911F910F91FF90EF90DF9054
:10335000CF90BF90AF909F908F907F906F905F9035
:103360004F903F902F900C94575426960FB6F89498
:10337000DEBF0FBECDBFDF91CF911F910F91FF90A8
:10338000EF90DF90CF90BF90AF909F908F907F9005
:103390006F905F904F903F902F900895FC01249183
:1033A000222341F03091C00035FFFCCF2093C600AE
:1033B0000196F4CF22E030E082EF94E02BCEFC01C6
:1033C0002491222341F03091C00035FFFCCF20939F
:1033D000C6000196F4CF2AE030E082EF94E070CD91
:1033E000CF93DF931F921F92CDB7DEB780917613F4
:1033F000909177139E012F5F3F4F009719F42C5740
:10340000334102C0281B390B3A83298389819A8171
:103410000F900F90DF91CF910895209194053091F6
:103420009505243031050CF06AC040919605509105
:10343000970560E6649F9001659F300D1124BC01E3
:10344000C90182569A4F0E940ED6EFE5F9E08491A9
:10345000882341F09091C00095FFFCCF8093C60077
:103460003196F5CFE5E1F9E08491882341F0909120
:10347000C00095FFFCCF8093C6003196F5CF8091B8
:1034800096059091970520E6289FF001299FF00D61
:103490001124E256FA4F8191882339F09091C000AF
:1034A00095FFFCCF8093C600F6CFE3E1F9E084916D
:1034B000882341F09091C00095FFFCCF8093C60017
:1034C0003196F5CF8091C00085FFFCCF8AE08093D4
:1034D000C6008091960590919705019664E070E092
:1034E0000E942BD190939705809396058091940527
:1034F0009091950501969093950580939405089574
:103500002091940530919505243031050CF06AC066
:10351000409196055091970560E6649F9001659FE4
:10352000300D1124BC01C90182569A4F0E9475D5F5
:10353000EFE5F9E08491882341F09091C00095FF78
:10354000FCCF8093C6003196F5CFE8E0F9E0849196
:10355000882341F09091C00095FFFCCF8093C60076
:103560003196F5CF809196059091970520E6289F9A
:10357000F001299FF00D1124E256FA4F8191882322
:1035800039F09091C00095FFFCCF8093C600F6CF34
:10359000E6E0F9E08491882341F09091C00095FF26
:1035A000FCCF8093C6003196F5CF8091C00085FF97
:1035B000FCCF8AE08093C600809196059091970594
:1035C000019664E070E00E942BD190939705809360
:1035D0009605809194059091950501969093950597
:1035E000809394050895809A889A0895809A88987F
:1035F00008950F931F93CF93DF936DE070E089E7F9
:1036000095E00E941F54C1E3D2E007E212E0299145
:10361000399137FD0CC0F80160817181C901880FB3
:10362000991F820F931F87589A4F0E9457540C5F1F
:103630001F4FF2E0C733DF0751F7DF91CF911F91A2
:103640000F910895D0DF40E950ED63E070E082EF24
:1036500094E0F6DAE0E0F9E08491882341F090917B
:10366000C00095FFFCCF8093C6003196F5CF8091C6
:10367000C00085FFFCCF8AE08093C6008FE599E00B
:10368000FC012491222341F03091C00035FFFCCF92
:103690002093C6003196F5CF24B720FF14C0E8EF81
:1036A000F8E03491332341F04091C00045FFFCCF56
:1036B0003093C6003196F5CF3091C00035FFFCCF76
:1036C0003AE03093C60021FF14C0E8EEF8E03491F0
:1036D000332341F04091C00045FFFCCF3093C6003A
:1036E0003196F5CF3091C00035FFFCCF3AE03093F2
:1036F000C60022FF14C0E7EDF8E03491332341F017
:103700004091C00045FFFCCF3093C6003196F5CF05
:103710003091C00035FFFCCF3AE03093C60023FF64
:1037200014C0E7ECF8E03491332341F04091C0003D
:1037300045FFFCCF3093C6003196F5CF3091C000E5
:1037400035FFFCCF3AE03093C60025FF14C0E7EB0D
:10375000F8E02491222341F03091C00035FFFCCFE6
:103760002093C6003196F5CF2091C00025FFFCCFF5
:103770002AE02093C60014BEE0EBF8E02491222357
:1037800041F03091C00035FFFCCF2093C600319648
:10379000F5CFEAEAF8E02491222341F03091C0000D
:1037A00035FFFCCF2093C6003196F5CF2091C000A5
:1037B00025FFFCCF2AE02093C600FC012491EFE511
:1037C000F9E0222349F03091C00035FFFCCF20936F
:1037D000C60031962491F5CFEAE9F8E0249122233E
:1037E00041F03091C00035FFFCCF2093C6003196E8
:1037F000F5CFE5E8F8E02491222341F03091C000B4
:1038000035FFFCCF2093C6003196F5CFE9E7F8E00D
:103810002491222341F03091C00035FFFCCF20934A
:10382000C6003196F5CFEFE6F8E02491222341F06F
:103830003091C00035FFFCCF2093C6003196F5CF04
:103840002091C00025FFFCCF2AE02093C600E4E6CB
:10385000F8E02491222341F03091C00035FFFCCFE5
:103860002093C6003196F5CFE8E5F8E024912223B5
:1038700041F03091C00035FFFCCF2093C600319657
:10388000F5CF2091C00025FFFCCF2AE02093C60091
:10389000FC018491EFE5F9E0882349F09091C000A4
:1038A00095FFFCCF8093C60031968491F5CFE9E473
:1038B000F8E08491882341F09091C00095FFFCCFFF
:1038C0008093C6003196F5CF8BDD4AE050E0BC0115
:1038D00082EF94E0C9DAE2E3F8E08491882341F0D2
:1038E0009091C00095FFFCCF8093C6003196F5CF34
:1038F0004AE050E060ED74E082EF94E0B5DA809148
:10390000C00085FFFCCF8AE08093C60010929A0524
:1039100010929B0510929C0510929D0573D80E94F1
:10392000DA820E94D9680E944E7D63DE0E94DC9F8D
:10393000FFEF23ED80E3F15020408040E1F700C02D
:103940000000089580918E0590918F0560E070E0F1
:1039500001960C94CCD280918E0590918F054AE00F
:1039600050E060E070E001960C9434D4682F772723
:1039700067FD7095209198053091990540E6429F2A
:10398000C001439F900D112482569A4F0E94FAD590
:1039900090938F0580938E0521E0892B09F420E018
:1039A000822F08950E94D7C560938A0570938B0576
:1039B00080938C0590938D0508950E94D7C56093E0
:1039C0008A0570938B0580938C0590938D05E0910B
:1039D0009805F0919905E656FA4F8081811114C03F
:1039E000ECE4F4E08491882341F09091C00095FFCD
:1039F000FCCF8093C6003196F5CF8091C00085FF43
:103A0000FCCF8AE08093C600089582EF94E06AD9E3
:103A1000EFE4F4E08491882341F09091C00095FF99
:103A2000FCCF8093C6003196F5CF4091230750918B
:103A3000240760912507709126074F5F5F4F6F4FF6
:103A40007F4F2AE030E082EF94E0EBD98091C00014
:103A500085FFFCCF8AE08093C600AFCF8F929F9204
:103A6000AF92BF92CF92DF92EF92FF920F931F938C
:103A7000CF93DF9354E6E52E54E0F52E02E917E0EC
:103A8000CFE3D7E064EAC62E67E0D62EF701819136
:103A90007F016CDF882311F155DF4B015C01F601DA
:103AA0008081811103C060911E0701C061E070E058
:103AB00080E090E00E9403CEF801208131814281B4
:103AC00053810E9436D09B01AC01C501B4010E9414
:103AD00088CC688379838A839B8309C0F8018081BD
:103AE0009181A281B38188839983AA83BB830C5F70
:103AF0001F4F2496FFEFCF1ADF0A88E6E81684E00E
:103B0000F80621F686E432DF8823D1F01BDF6B0153
:103B10007C0160932F077093300780933107909357
:103B2000320720E030E0A9010E9464CF181644F467
:103B3000C0920F02D0921002E0921102F092120293
:103B4000DF91CF911F910F91FF90EF90DF90CF9079
:103B5000BF90AF909F908F90089580DF89E406DF3B
:103B6000882351F0EFDE609333077093340780931E
:103B700035079093360708C0109233071092340728
:103B800010923507109236078AE4F0DE882351F050
:103B9000D9DE609337077093380780933907909385
:103BA0003A07089510923707109238071092390794
:103BB00010923A070895CF92DF92EF92FF92CF933F
:103BC000DF93EC01C0907A07D0907B07E0907C07F0
:103BD000F0907D07A7019601688179818A819B8198
:103BE0000E9461CD87FF04C0C882D982EA82FB822D
:103BF000C0907E07D0907F07E0908007F09081070B
:103C0000A70196016C817D818E819F810E9461CD8B
:103C100087FF04C0CC82DD82EE82FF82C0908207E3
:103C2000D0908307E0908407F0908507A701960164
:103C3000688579858A859B850E9461CD87FF04C050
:103C4000C886D986EA86FB86C0903702D0903802B3
:103C5000E0903902F0903A02A701960168817981DB
:103C60008A819B810E9464CF181624F4C882D9826D
:103C7000EA82FB82C0903B02D0903C02E0903D0281
:103C8000F0903E02A70196016C817D818E819F811B
:103C90000E9464CF181624F4CC82DD82EE82FF826B
:103CA000C0903F02D0904002E0904102F09042026A
:103CB000A7019601688579858A859B850E9464CFD6
:103CC000181624F4C886D986EA86FB86DF91CF9140
:103CD000FF90EF90DF90CF900895CF92DF92EF9218
:103CE000FF920F931F938FE397E065DF0E94D7C584
:103CF00060938A0570938B0580938C0590938D0556
:103D000020913F0730914007409141075091420771
:103D10006091920770919307809194079091950715
:103D20000E9461CD811179C02091430730914407F1
:103D3000409145075091460760919607709197070B
:103D400080919807909199070E9461CD811165C07B
:103D500020E030E040E752E460910F0270911002E1
:103D600080911102909112020E9468CDE2E6CE2E5F
:103D7000E7E0DE2E7B018C012BE437E047E457E0DF
:103D800063E477E08FE397E00E947A6A80913F07CF
:103D900090914007A0914107B0914207809392070C
:103DA00090939307A0939407B0939507809143074E
:103DB00090914407A0914507B091460780939607DC
:103DC00090939707A0939807B0939907809147071E
:103DD00090914807A0914907B0914A0780939A07AC
:103DE00090939B07A0939C07B0939D0780914B07EE
:103DF00090914C07A0914D07B0914E0780939E077C
:103E000090939F07A093A007B093A1071F910F91D4
:103E1000FF90EF90DF90CF900895609151027091E4
:103E20005202882777FD8095982F0E9403CE20911B
:103E30000F023091100240911102509112020E9423
:103E400036D020E030E040E752E40E9468CD20E028
:103E500030E048EC52E488CFCF92DF92EF92FF92AD
:103E6000CF93C62FE0916207F0E0882309F4C2C027
:103E7000DF01A35AB84F8C91811196C180919207AE
:103E800090919307A0919407B091950780933F0775
:103E900090934007A0934107B09342078091960703
:103EA00090919707A0919807B09199078093430745
:103EB00090934407A0934507B093460780919A07D3
:103EC00090919B07A0919C07B0919D078093470715
:103ED00090934807A0934907B0934A07C0909E0764
:103EE000D0909F07E090A007F090A107C0924B07E9
:103EF000D0924C07E0924D07F0924E07EE0FFF1F55
:103F0000EE0FFF1FED5BFD4F208131814281538118
:103F1000662349F060911D0270911E0280911F027C
:103F20009091200208C0609121027091220280913C
:103F30002302909124020E9468CD9B01AC01C7012D
:103F4000B6010E9488CC60939E0770939F07809370
:103F5000A0079093A1078EE997E00E94DA74C090C1
:103F60000F02D0901002E0901102F090120220E0B7
:103F700030E040E752E46091190270911A0280919A
:103F80001B0290911C020E9436D060930F02709326
:103F900010028093110290931202E0916207F0E008
:103FA000E35AF84F81E0808398DE209157073091E3
:103FB00058074091590750915A0760919A0770919C
:103FC0009B0780919C0790919D070E9487CC6093EE
:103FD0009A0770939B0780939C0790939D072EE907
:103FE00037E04AE957E066E977E082E997E00E9426
:103FF0003574D1C0E35AF84F8081882309F4D4C0C6
:104000008091920790919307A0919407B0919507A2
:1040100080933F0790934007A0934107B0934207D6
:104020008091960790919707A0919807B091990772
:104030008093430790934407A0934507B0934607A6
:1040400060919A0770919B0780919C0790919D07C2
:1040500060934707709348078093490790934A07F6
:10406000C0909E07D0909F07E090A007F090A10716
:10407000C0924B07D0924C07E0924D07F0924E074A
:1040800020915707309158074091590750915A078E
:104090000E9488CC60939A0770939B0780939C073B
:1040A00090939D072EE937E04AE957E066E977E00B
:1040B00082E997E00E943574F0906207CC2389F082
:1040C00020914F073091500740915107509152076E
:1040D00060911D0270911E0280911F02909120023A
:1040E00010C02091530730915407409155075091CB
:1040F00056076091210270912202809123029091D3
:1041000024020E9488CC24E0F29EF0011124ED5B91
:10411000FD4F20813181428153810E9468CD9B01F6
:10412000AC0160919E0770919F078091A0079091CC
:10413000A1070E9487CC60939E0770939F0780938E
:10414000A0079093A1078EE997E00E94DA74C090CF
:104150000F02D0901002E0901102F090120220E0C5
:1041600030E040E752E460911502709116028091B0
:104170001702909118020E9436D060930F0270933C
:1041800010028093110290931202E0916207F0E016
:10419000E35AF84F1082A1DDC0920F02D0921002B4
:1041A000E0921102F0921202CF91FF90EF90DF9017
:1041B000CF900895AF92BF92CF92DF92EF92FF928D
:1041C0000F931F93CF93DF93D82F20913707309110
:1041D00038074091390750913A0760913307709141
:1041E000340780913507909136070E9471CFC62F12
:1041F000172F082FF92E60915102709152028827D3
:1042000077FD8095982F0E9403CE20910F02309168
:10421000100240911102509112020E9436D020E00B
:1042200030E040E752E40E9468CD20E030E048EC06
:1042300052E40E9468CD209162072F93DF93FF9292
:104240000F931F93CF935B016C01B2E0EB2E01E063
:1042500020E043E357E06FE377E082E997E00E94D4
:10426000126280913F0790914007A0914107B09161
:1042700042078093920790939307A0939407B0937B
:1042800095078091430790914407A0914507B0910D
:1042900046078093960790939707A0939807B0934B
:1042A00099078091470790914807A0914907B091DD
:1042B0004A0780939A0790939B07A0939C07B0931B
:1042C0009D0780914B0790914C07A0914D07B091AD
:1042D0004E0780939E0790939F07A093A007B093EB
:1042E000A1070E94D7C560938A0570938B058093C0
:1042F0008C0590938D050F900F900F900F900F905D
:104300000F90DF91CF911F910F91FF90EF90DF9071
:10431000CF90BF90AF900895F8940E94CD83159AE6
:1043200010927707179A10927807429A109279079D
:10433000A09A9FB7F89480910B01826080930B0143
:104340009FBFE5E6F9E08491882341F09091C00099
:1043500095FFFCCF8093C6003196F5CFEDE2F4E0F7
:104360008491882341F09091C00095FFFCCF809309
:10437000C6003196F5CF8091C00085FFFCCF8AE062
:104380008093C60084E294E00E94799F2FD9FFCFEA
:104390002F923F924F925F926F927F928F929F9255
:1043A000AF92BF92CF92DF92EF92FF920F931F9343
:1043B000CF93DF93CDB7DEB76E970FB6F894DEBF1D
:1043C0000FBECDBF30E6932E04E010E045EFE42EA3
:1043D00046E0F42E5AE0852E6BE6C62E67E0D62E18
:1043E00077247394809173059091740520917505DD
:1043F00030917605821B930B8F779927892B39F0A3
:10440000809194059091950504970CF44CC080918F
:10441000AA07882309F493C380919105909192058E
:10442000892B09F08CC38091AB07811188C38091DF
:10443000940590919505892B11F41092770598EECB
:10444000292E93E0392E412C512C2CE3C22ED12C55
:10445000E12CF12C8E010F5F1F4F80E6682E772430
:1044600073944091300A5091310A6091320A7091F0
:10447000330A8091280A9091290AA0912A0AB091C2
:104480002B0A481759076A077B0708F058C3809121
:1044900094059091950504970CF051C38091770590
:1044A00081114DC32DC282EF94E00E945616809375
:1044B000930520919105309192058A3061F08D30FD
:1044C00051F08A3321F490919005992321F02F35F2
:1044D00031050CF437C12115310509F451C1809122
:1044E000960590919705989E5001999EB00C1124C5
:1044F000F501E20FF31FE256FA4F1082209190056A
:1045000021111BC1FC01E656FA4F1082950122567B
:104510003A4F19016EE470E0C9010E94FAD5009784
:10452000E9F190938F0580938E05821993098A0D86
:104530009B1D4AE050E060E070E081569A4F0E9477
:1045400034D46093270770932807809329079093AA
:104550002A07209123073091240740912507509185
:1045600026072F5F3F4F4F4F5F4FA0909605B090AB
:104570009705621773078407950709F404C19A9C8D
:10458000C0019B9C900D112464E178E082569A4F03
:104590000E94ACD5892B09F0F6C085C16AE270E0B3
:1045A000C1010E94FAD5892B09F444C0E5E6F9E07F
:1045B0008491882341F09091C00095FFFCCF8093B7
:1045C000C6003196F5CFEEE6F7E08491882341F0FE
:1045D0009091C00095FFFCCF8093C6003196F5CF37
:1045E0004091230750912407609125077091260779
:1045F0002AE030E082EF94E00E9411178091C00021
:1046000085FFFCCF8AE08093C6001092920510923D
:10461000910595C28091270790912807A0912907BD
:10462000B0912A078093230790932407A09325072E
:10463000B09326078091960590919705989E50011A
:10464000999EB00C1124C50182569A4F1C0167E453
:1046500070E00E94FAD5009709F44BC090938F0543
:1046600080938E05821993098A0D9B1D60E070E08E
:1046700081569A4F0E94CCD20E94D0CD64307105F1
:1046800008F037C080917C0581111AC08091A8077D
:1046900081112FC0F6018491EBE6F7E0882349F001
:1046A0009091C00095FFFCCF8093C6003196849115
:1046B000F5CF8091C00085FFFCCF8092C60019C065
:1046C000F7018491E5EFF6E0882349F09091C0006E
:1046D00095FFFCCF8093C60031968491F5CF8091F1
:1046E000C00085FFFCCF8092C6008BEE96E00E9452
:1046F0006A9FA0909605B09097059A9CC0019B9CDC
:10470000900D11246BE173E082569A4F0E9405D6FA
:10471000892B09F401DEC5010196B8010E942BD155
:1047200090939705809396058091940590919505B7
:10473000019690939505809394051092920510929E
:10474000910550CE8B3311F47092900590919005A5
:10475000911148CE4091960550919705B9016F5F30
:104760007F4F7093920560939105949EF001959E02
:10477000F00D1124E20FF31FE256FA4F808332CE80
:1047800010929005DCC19A9C10019B9C300C112466
:10479000C10182569A4F5C016AE270E00E94FAD52C
:1047A000009789F5E5E6F9E08491882341F090913E
:1047B000C00095FFFCCF8093C6003196F5CFE8E9A5
:1047C000F7E08491882341F09091C00095FFFCCFE1
:1047D0008093C6003196F5CF40912307509124076E
:1047E00060912507709126072AE030E082EF94E07F
:1047F0000E9411178091C00085FFFCCF8AE0809352
:10480000C60003D902CF20E0612CF101E20FF11DB7
:10481000E256FA4F30813A3219F02F5F6326F5CF16
:1048200090938F0580938E058A199B09820D931DA5
:1048300060E070E081569A4F0E94CCD20E94D0CDA9
:10484000262D30E02617370709F4E4CEE5E6F9E037
:104850008491882341F09091C00095FFFCCF809314
:10486000C6003196F5CFE2ECF7E08491882341F061
:104870009091C00095FFFCCF8093C6003196F5CF94
:1048800040912307509124076091250770912607D6
:104890002AE030E082EF94E00E9411178091C0007E
:1048A00085FFFCCFABCFE5E6F9E08491882341F0AA
:1048B0009091C00095FFFCCF8093C6003196F5CF54
:1048C000E1EEF7E08491882341F09091C00095FFDC
:1048D000FCCF8093C6003196F5CF409123075091CD
:1048E000240760912507709126072AE030E082EFC7
:1048F00094E00E9411178091C00085FFFCCF7ECF0D
:104900008091830990918409A0918509B0918609CD
:104910008093300A9093310AA093320AB093330AFD
:104920008BE799E00E94B246482F809393058A3026
:10493000B9F04D30A9F0433229F4209190052111AE
:1049400003C00EC04A33C9F32091910530919205FE
:104950002F3531052CF48F3FFFEF9F0709F0D1C0B1
:104960004091300A5091310A6091320A7091330AB5
:104970008091280A9091290AA0912A0AB0912B0AC5
:10498000481759076A077B0708F481C0E8EDF6E08D
:104990008491882341F09091C00095FFFCCF8093D3
:1049A000C6003196F5CF8091C00085FFFCCFFAE0BC
:1049B000F093C6000E94D7C560937E0570937F0573
:1049C0008093800590938105809082059090830567
:1049D000A0908405B0908505681979098A099B091A
:1049E000A20191010E943ED149015A01CA01B901B7
:1049F000A70196010E943ED1CA01B901A701960103
:104A00000E943ED17F936F93C501B40120E13EE047
:104A100040E050E00E943ED13F932F93A4ECB6E0DB
:104A2000BF93AF931F930F930E9432D6EFE5F9E047
:104A300084910FB6F894DEBF0FBECDBF882349F036
:104A40009091C00095FFFCCF8093C6003196849171
:104A5000F5CFF8018191882339F09091C00095FF3E
:104A6000FCCF8093C600F6CF8091C00085FFFCCFBD
:104A70003AE03093C600C8010E946E9C88EA97E035
:104A80000E94926161E088EA97E00E94705E8091E6
:104A90009305833211F4709277052091910530913E
:104AA00092052115310509F46BCE80919605909100
:104AB0009705689EF001699EF00D1124E20FF31F27
:104AC000E256FA4F1082FC01E656FA4F70822091AE
:104AD0009405309195052F5F3F4F309395052093B6
:104AE0009405019664E070E00E942BD190939705A5
:104AF0008093960510929005109292051092910560
:104B0000B0CC4B3311F47092900540919005411157
:104B1000A4CC4091960550919705B9016F5F7F4FE6
:104B20007093920560939105649EF001659EF00D6F
:104B30001124E20FF31FE256FA4F808392CC6E9657
:104B40000FB6F894DEBF0FBECDBFDF91CF911F919E
:104B50000F91FF90EF90DF90CF90BF90AF909F901C
:104B60008F907F906F905F904F903F902F9008951F
:104B7000CF92DF92EF92FF920F931F938091940553
:104B80009091950503970CF403DC0E94D7C5009122
:104B90008605109187052091880530918905C09080
:104BA0008A05D0908B05E0908C05F0908D056C19EE
:104BB0007D098E099F09061717072807390728F46A
:104BC000012B022B032B09F0A7DB80910B029091A4
:104BD0000C02A0910D02B0910E02892B8A2B8B2B17
:104BE00089F10E94D7C500918A0510918B0520910B
:104BF0008C0530918D05601B710B820B930B00911E
:104C00000B0210910C0220910D0230910E0206173A
:104C1000170728073907B0F49091C10C8091C00C98
:104C2000981310C08091AB078823A1F015981798AE
:104C30004298A09A9FB7F89480910B01826080936C
:104C40000B019FBF1F910F91FF90EF90DF90CF90CE
:104C50000C94226A159A10927707179A1092780787
:104C6000429A10927907E5CF0E94CD8380917C050E
:104C7000811138C081E080937C0580912307909159
:104C80002407A0912507B091260780931F079093D2
:104C90002007A0932107B0932207E5E6F9E084916D
:104CA000882341F09091C00095FFFCCF8093C6000F
:104CB0003196F5CFEEEAF3E08491882341F09091AC
:104CC000C00095FFFCCF8093C6003196F5CF809150
:104CD000C00085FFFCCF8AE08093C60084EA93E0A1
:104CE0000C946A9F089580917C050895CF93DF937B
:104CF000EC018091620780937D0584E50E94B61CDB
:104D0000811102C080E075C00E94A21C0E94D5CD16
:104D100060937D056230B0F3EFE5F9E0849188237C
:104D200041F09091C00095FFFCCF8093C600319672
:104D3000F5CFCD36D105B9F054F4C836D105B1F070
:104D4000C936D10509F045C0E5E6F3E021C0CA3D0A
:104D5000D10531F0CD3DD105E1F5E0E2F3E036C01B
:104D6000E7E3F3E029C0EEE4F3E01CC0ECE7F3E096
:104D70008191882371F19091C00095FFFCCF8093C1
:104D8000C600F6CF9091C00095FFFCCF8093C6007F
:104D900081918111F7CF1DC09091C00095FFFCCF8C
:104DA0008093C60081918111F7CF13C09091C0000C
:104DB00095FFFCCF8093C60081918111F7CF09C088
:104DC0009091C00095FFFCCF8093C6008191811126
:104DD000F7CF40E050E060917D0582EF94E00E94C3
:104DE0006B178091C00085FFFCCF8AE08093C600DE
:104DF00081E0DF91CF9108953F924F925F926F9241
:104E00007F928F929F92AF92BF92CF92DF92EF925A
:104E1000FF920F931F93CF93DF93CDB7DEB7E49745
:104E20000FB6F894DEBF0FBECDBF87E40E94B61C5C
:104E3000882309F46BC20E94A21C0E94D0CD6A3064
:104E4000710509F4ACC09CF46230710509F44CC0E2
:104E500024F477FF25C00C94203F6330710509F4DA
:104E60004CC06430710509F453C00C94203F6A357E
:104E7000710509F4F7C154F46B30710509F4B2C03F
:104E80006C31710509F4B9C00C94203F6B35710584
:104E900009F4ECC16C35710509F4EDC10C94203FA7
:104EA00080917C0581110C94203F0E942E1D8091E1
:104EB0005F078823A9F088E50E94B61C811110C005
:104EC00089E50E94B61C81110BC08AE50E94B61CC0
:104ED000811106C085E40E94B61C81110C94233F09
:104EE0000E946D1E0C94E44080917C0581110C940D
:104EF000203F0E94AD1D81E008C080917C0581119A
:104F00000C94203F0E94AD1D80E054D90C94E440E5
:104F10008BEB96E00E946A9F80E50E94B61C882376
:104F200039F00E94A21C0E94D5CD4B015C0103C048
:104F3000812C912C540183E50E94B61C882361F0DA
:104F40000E94A21C20E030E04AE754E40E9436D0E0
:104F50000E94D5CD4B015C010E94D67D0E94D7C531
:104F60006B017C01C80CD91CEA1CFB1C0E94D7C534
:104F700060938A0570938B0580938C0590938D05C3
:104F80000E94D7C56C157D058E059F0510F00C9409
:104F9000203F0E949780ECDD0E9404A0F1CF009199
:104FA000620710E083E50E94B61C882359F00E9436
:104FB000AB1C21E0613071058105910509F020E00D
:104FC000822F01C080E0F801E55AF84F8083E0911C
:104FD0006207F0E0E55AF84F608181E00E942C1FE3
:104FE0000C94203FE0916207F0E0E55AF84F6081B1
:104FF00080E00E942C1F0C94203F80910F02909122
:105000001002A0911102B091120280932B0790938D
:105010002C07A0932D07B0932E07809151029091F9
:1050200052029093A3078093A20784E690E09093A6
:105030005202809351020E94D7C560938A057093F3
:105040008B0580938C0590938D0581E00E94F1750E
:105050008091920790919307A0919407B091950742
:1050600080933F0790934007A0934107B093420776
:105070008091960790919707A0919807B091990712
:105080008093430790934407A0934507B093460746
:1050900080919A0790919B07A0919C07B0919D07E2
:1050A0008093470790934807A0934907B0934A0716
:1050B00080919E0790919F07A091A007B091A107B2
:1050C00080934B0790934C07A0934D07B0934E07E6
:1050D00010920F02109210021092110210921202FE
:1050E00088E50E94B61C882311F090E00AC089E58B
:1050F0000E94B61C8111F9CF8AE50E94B61C91E08E
:1051000098279093130291110C94523F88E50E94C6
:10511000B61C81110C94523F8091130281110C94A2
:10512000583F89E50E94B61C81110C94583F88E5D0
:105130000E94B61C8823D1F00E94AB1C672B682B01
:10514000692BA1F00E94A21C20918607309187074D
:1051500040918807509189070E9488CC60939207FC
:1051600070939307809394079093950789E50E9425
:10517000B61C8823D1F00E94AB1C672B682B692BCF
:10518000A1F00E94A21C20918A0730918B074091C8
:105190008C0750918D070E9488CC6093960770937E
:1051A0009707809398079093990780911302811134
:1051B0000C945E3F8AE50E94B61C81110C945E3F00
:1051C0008AE50E94B61C8823D1F00E94AB1C672B95
:1051D000682B692BA1F00E94A21C20918E073091B0
:1051E0008F0740919007509191070E9488CC60935F
:1051F0009A0770939B0780939C0790939D072EE9D5
:1052000037E04AE957E066E977E082E997E00E94F3
:10521000357480E00E94F17580912B0790912C07E6
:10522000A0912D07B0912E0780930F02909310024A
:10523000A0931102B09312028091A2079091A3074C
:1052400090935202809351020E94D7C560938A05C1
:1052500070938B0580938C0590938D050E94EA7561
:105260000C94203F10921E070C94203F81E0809305
:105270001E070C94203F85E40E94B61C811102C0D9
:105280000E94D67D94E6C92E94E0D92E26E8E22E1F
:1052900027E0F22E02E917E0B12CF60181916F01AF
:1052A0000E94B61C882339F1F3E0BF120CC00E94A3
:1052B000A21CF80160837183828393838EE997E057
:1052C0000E94DA7418C00E94A21CF701208131816B
:1052D000428153810E9488CCF8016083718382836C
:1052E00093832EE937E04AE957E066E977E082E9FF
:1052F00097E00E943574B394F4E0EF0EF11C0C5F5C
:105300001F4F24E0B212C9CF0C94203F8DE40E94BD
:10531000B61C882311F40C94CF3D0E94A21C0E945D
:10532000D0CD6737710509F491C10CF0C1C060326E
:10533000710509F4C7C20CF05EC06731710509F44C
:1053400019C294F56231710509F487C7FCF477FF3F
:1053500002C00C94203F623071050CF47AC16131B7
:10536000710511F00C94203F82E996E00E946A9F3B
:10537000159817984298A0989FB7F89480910B01C0
:105380008D7F80930B019FBF0C94203F6531710589
:1053900009F4E4C10CF0E8C16431710511F00C941A
:1053A000203FE2E8F6E0B6C16B31710509F40FC2A7
:1053B000B4F46931710509F4F6C10CF0FAC188EA58
:1053C00097E00E94C35C0E94D7C5609382057093EA
:1053D000830580938405909385050C94203F6E315E
:1053E000710509F430C20CF00BC36C31710509F47E
:1053F000F4C10C94203F6836710509F4D1C364F5FB
:105400006335710509F424C764F46135710509F445
:10541000F4C60CF019C76A32710509F47AC30C940A
:10542000203F6535710509F458C70CF416C76C3573
:10543000710511F00C94203F24E634E038AB2FA71F
:1054400003EF11E123E0822E22E1922E37EBA32E0F
:1054500031E1B32E312CBDC76D36710509F4F9C4A5
:105460008CF46A36710509F498C60CF4C7C36B3620
:10547000710511F00C94203F1092610710926007A3
:105480000C94203F6237710509F4D9C73CF46037AA
:10549000710511F00C94203F0E948C216337710537
:1054A00009F4A9C76537710509F4B4C70C94203F06
:1054B0006D3D710511F40C94C3360CF04BC06C3C7F
:1054C000710511F40C94AF3424F56E3B710509F4A9
:1054D00060C574F46937710511F40C94043314F445
:1054E0000C94FF326C38710509F477C30C94203F9B
:1054F000693C710511F40C9471346B3C710511F425
:105500000C949234683C710511F00C94203F0C947B
:10551000F933603D710511F40C94853554F46E3CFB
:10552000710511F40C94313514F40C94D1340C94AD
:105530004E356A3D710511F40C9415366C3D7105BC
:1055400011F40C94B236613D710511F00C94203FBA
:105550000C94AD35643F31E0730711F40C94253998
:1055600064F56D3291E0790711F40C9419389CF4CC
:105570006831F1E07F0711F40C944B376C3221E075
:10558000720711F40C94E337623E710511F00C942C
:10559000203F0C94ED366F3231E0730711F40C9418
:1055A000ED3814F40C94DF386039714011F00C942C
:1055B000203F0E94D67D0C94203F6835E2E07E07B4
:1055C00011F40C94033A94F4663F21E0720711F44D
:1055D0000C942B3914F40C942839673F714011F066
:1055E0000C94203F0E94DF100C94203F633593E021
:1055F000790711F40C942E393CF46935724011F49A
:105600000C94123C0C94203F603A23E0720709F49A
:10561000C3C1673E734011F00C94203F10927C058B
:105620000E947F9F80911F0790912007A0912107E2
:10563000B09122078093230790932407A093250716
:10564000B09326070E94051D0C94203FE2EAF3E088
:10565000E6C78AEA96E00E946A9F80E50E94B61C2F
:10566000882339F00E94A21C0E94D5CD6B017C01D9
:1056700003C0C12CD12C760183E50E94B61C88237F
:1056800061F00E94A21C20E030E04AE754E40E944E
:1056900036D00E94D5CD6B017C010E94D67D0E9440
:1056A000D7C560938A0570938B0580938C05909382
:1056B0008D05C114D104E104F104A9F00E94D7C5FD
:1056C0004B015C018C0C9D1CAE1CBF1C0E94D7C5FD
:1056D000681579058A059B0580F40E94CCA081118C
:1056E0000CC00C94643F0E94CCA0811106C00E94A3
:1056F00097803EDA0E9404A0F6CF8BE996E00E94E4
:105700006A9F0C94203F9091C00095FFFCCF80933E
:10571000C600319684918111F6CF8091C00085FF3B
:10572000FCCF8AE08093C60088EA97E00E94365753
:10573000E4E7F6E08491882341F09091C00095FF62
:10574000FCCF8093C6003196F5CF8091C00085FFD5
:10575000FCCF8AE08093C6000C94203F88EA97E053
:105760000E94A85D0C94203F88EA97E00E948D5724
:105770000C94203F00918E0510918F050C5F1F4FF8
:105780006AE270E0C8010E94FAD5009719F0FC01A6
:105790003197108221E041E0B80188EA97E00E9449
:1057A000F8570C94203F88EA97E00E9492570C9497
:1057B000203F8091AC07882311F40C94203F83E5AF
:1057C0000E94B61C81110C946C3F0C94203F88EA17
:1057D00097E00E940D5B0C94203F80918E05909184
:1057E0008F056AE270E004960E94FAD58C0100975A
:1057F000E1F0209198053091990540E6429FC00163
:10580000439F900D11246EE470E082569A4F0E94DF
:10581000FAD560E270E00E94FAD5019690938F0568
:1058200080938E05F8013197108260918E057091FA
:105830008F056C5F7F4F21E040E088EA97E00E948F
:10584000F8570C94203F8091AC07882311F40C94F6
:10585000203F60E088EA97E00E94D35B80918E054C
:1058600090918F056AE270E004960E94FAD58C014F
:105870000097E1F0209198053091990540E6429F0C
:10588000C001439F900D11246EE470E082569A4F40
:105890000E94FAD560E270E00E94FAD501969093DA
:1058A0008F0580938E05F8013197108260918E05E7
:1058B00070918F056C5F7F4F88EA97E00E94645F6C
:1058C0000C94203F8091AA0781110E94D67D0091FF
:1058D0008E0510918F050C5F1F4F6AE270E0C801C2
:1058E0000E94FAD57C0161E270E0C8010E94FAD5FD
:1058F000009719F08C010F5F1F4FE114F10419F0AC
:10590000F7013197108280E50E94B61CF82E209195
:105910008E0530918F050217130708F4F12C809142
:10592000AC07882311F40C94203F21E02F2541E09F
:10593000B80188EA97E00E94F85783E50E94B61CF8
:105940008823B9F020918E0530918F0520173107FB
:1059500080F40E94AB1CAB01BC014093300A509311
:10596000310A6093320A7093330A8BE799E00E9400
:10597000184888EA97E00E94C35CF1100C94203F1D
:105980000E94D7C560938205709383058093840538
:10599000909385050C94203F80918E0590918F0502
:1059A0006AE270E005960E94FAD58C010097E1F05A
:1059B000209198053091990540E6429FC001439F90
:1059C000900D11246EE470E082569A4F0E94FAD531
:1059D00060E270E00E94FAD5019690938F05809363
:1059E0008E05F8013197108260918E0570918F05B8
:1059F0006B5F7F4F88EA97E00E94085B0C94203F22
:105A00000E94D7C560937E0570937F0580938005C3
:105A10009093810500918205109183052091840562
:105A200030918505601B710B820B930B28EE33E0E0
:105A300040E050E00E943ED1CA01B9012CE330E0C1
:105A400040E050E00E943ED17F936F933F932F93AD
:105A500085E696E09F938F93CE0101969F938F9357
:105A60000E9432D6EFE5F9E084910FB6F894DEBFDC
:105A70000FBECDBFEFE5F9E0882349F09091C0005B
:105A800095FFFCCF8093C60031968491F5CFFE013F
:105A900031968191882339F09091C00095FFFCCF19
:105AA0008093C600F6CF8091C00085FFFCCF8AE0CE
:105AB0008093C600CE0101960E946E9C8091921147
:105AC000882311F40C94203F1092921100916207E8
:105AD00010E0000F111F02521D4EF801608171810C
