:100000000C9406120C9437120C9437120C9437127D
:100010000C9437120C9437120C9437120C9437123C
:100020000C9437120C9437120C9437120C9437122C
:100030000C9437120C940CEB0C9437120C9437126E
:100040000C9437120C9478790C9437120C94371264
:100050000C9437120C9437120C941B8D0C94C7E43B
:100060000C9437120C9478180C9437120C943712A5
:100070000C9437120C9437120C9437120C943712DC
:100080000C941C560C9437120C9437120C943712A3
:100090000C9437120C9437120C9437120C943712BC
:1000A0000C9437120C9437120C9449560C94371256
:1000B0000C9437120C9437120C9437120C94765619
:1000C0000C9437120C9437120C9437120C9437128C
:1000D0000C9437120C9437120C9437120C9437127C
:1000E0000C943712748D838D9F8DAE8DC88DD78DF6
:1000F000F18DF58DFD8D08E60DE612E61CE626E68F
:100100009FE630E638E640E64AE654E65EE66DE60F
:1001100077E69FE681E68BE695E6C1E6C4E6B3E6C0
:10012000B7E6BDE6FBE6C8E6CCE6D2E6D6E6DAE61A
:10013000E0E6E4E6E8E6FBE6EEE6F2E6F6E6084AA6
:10014000D73B3BCE016E84BCBFFDC12F3D6C7431EB
:100150009ABD56833DDA3D00C77F11BED9E4BB4C42
:100160003E916BAAAABE000000803F05A84CCDB20C
:10017000D44EB93836A9020C50B9918688083CA6ED
:10018000AAAA2ABE000000803F0048617264636F23
:100190006465642044656661756C7420536574748D
:1001A000696E6773204C6F616465640053746F728D
:1001B00065642073657474696E6773207265747208
:1001C0006965766564002044002049002020204DA8
:1001D0003330312050005049442073657474696E87
:1001E00067733A00205A0020590020204D323036E3
:1001F000205800486F6D65206F666673657420280F
:100200006D6D293A00204500205A002058002042F8
:100210000020540020204D323035205300416476B8
:10022000616E636564207661726961626C65733AC0
:1002300020533D4D696E206665656472617465206A
:10024000286D6D2F73292C20543D4D696E207472DA
:100250006176656C20666565647261746520286DE1
:100260006D2F73292C20423D6D696E696D756D206F
:100270007365676D656E742074696D6520286D7394
:10028000292C20583D6D6178696D756D2058592075
:100290006A65726B20286D6D2F73292C20205A3DC2
:1002A0006D6178696D756D205A206A65726B2028C2
:1002B0006D6D2F73292C2020453D6D6178696D751A
:1002C0006D2045206A65726B20286D6D2F732900A3
:1002D00020540020204D32303420530041636365A8
:1002E0006C65726174696F6E3A20533D616363653A
:1002F0006C65726174696F6E2C20543D7265747206
:1003000061637420616363656C65726174696F6EAB
:1003100000204500205A0020590020204D32303165
:100320002058004D6178696D756D20416363656C7F
:1003300065726174696F6E20286D6D2F7332293A72
:1003400000204500205A0020590020204D32303333
:100350002058004D6178696D756D20666565647221
:100360006174657320286D6D2F73293A0020450054
:10037000205A0020590020204D3932205800537453
:100380006570732070657220756E69743A005365EC
:100390007474696E67732053746F7265640065636B
:1003A000686F3A0053544F505045442E200050720D
:1003B000696E7465722073746F7070656420647503
:1003C0006520746F206572726F72732E2046697893
:1003D00020746865206572726F7220616E6420758A
:1003E0007365204D39393920746F207265737461DB
:1003F00072742E202854656D706572617475726513
:100400002069732072657365742E205365742069AA
:1004100074206166746572207265737461727469A8
:100420006E6729004B494C4C45442E2000507269A0
:100430006E7465722068616C7465642E206B696CE3
:100440006C28292063616C6C656421006F6B00521D
:100450006573656E643A20002200556E6B6E6F778F
:100460006E20636F6D6D616E643A20220043686197
:100470006E67652066696C616D656E74005A204F09
:100480006666736574203A20007A5F6D61783A2061
:10049000007A5F6D696E3A20005A204F6666736578
:1004A00074005A204F6666736574206F6B00486F46
:1004B00074656E64206F6666736574733A0022001B
:1004C000556E6B6E6F776E20636F6D6D616E643A03
:1004D0002022007A5F6D61783A20007A5F6D696E44
:1004E0003A2000795F6D61783A2000795F6D696E1E
:1004F0003A2000785F6D61783A2000785F6D696E10
:100500003A2000205A3A0020593A0020436F756E75
:100510007420583A200020453A00205A3A002059C9
:100520003A00583A004649524D574152455F4E41B4
:100530004D453A4D61726C696E2056313B205370C7
:1005400072696E7465722F6772626C206D61736878
:10055000757020666F722067656E36204649524D71
:10056000574152455F55524C3A687474703A2F2F78
:100570006669726D776172652E756C74696D616BF9
:1005800065722E636F6D2050524F544F434F4C5F36
:1005900056455253494F4E3A312E30204D41434833
:1005A000494E455F545950453A556C74696D616BBD
:1005B00065722045585452554445525F434F554E3D
:1005C000543A3220555549443A303030303030308A
:1005D000302D303030302D303030302D3030303024
:1005E0002D3030303030303030303030300A00553F
:1005F0006C74696D616B6572204F66662E00426592
:100600006420646F6E652E0020423A0020453A0057
:10061000543A004265642048656174696E672E0033
:1006200048656174696E6720646F6E652E0020579F
:100630003A0020453A00543A0048656174696E6793
:100640002E2E2E002042403A0020403A00202F005B
:100650003A00205400202F0020423A00202F006F43
:100660006B20543A002569206D696E2C2025692085
:1006700073656300456E642066696C65206C697300
:100680007400426567696E2066696C65206C6973E9
:1006900074004E6F206D6F76652E00526573756D18
:1006A000696E67207072696E7400576169742066A4
:1006B0006F7220757365722E2E2E00536C656570F7
:1006C0002E2E2E00256920686F75727320256920F3
:1006D0006D696E7574657300446F6E652070726924
:1006E0006E74696E672066696C650053544F505094
:1006F00045442E20005072696E7465722073746FC9
:10070000707065642064756520746F206572726F07
:1007100072732E2046697820746865206572726F46
:100720007220616E6420757365204D3939392074EB
:100730006F20726573746172742E202854656D7019
:100740006572617475726520697320726573657472
:100750002E2053657420697420616674657220725E
:10076000657374617274696E6729006F6B004E6FF8
:10077000204C696E65204E756D62657220776974D4
:100780006820636865636B73756D2C204C617374AE
:10079000204C696E653A20004E6F20436865636B9C
:1007A00073756D2077697468206C696E65206E754D
:1007B0006D6265722C204C617374204C696E653AD1
:1007C0002000636865636B73756D206D69736D617F
:1007D0007463682C204C617374204C696E653A20F8
:1007E000004C696E65204E756D62657220697320DC
:1007F0006E6F74204C617374204C696E65204E7569
:100800006D6265722B312C204C617374204C696EC3
:10081000653A20004D31313000446F6E65207361C0
:1008200076696E672066696C652E006F6B004D32CD
:1008300039002020506C616E6E6572427566666587
:100840007242797465733A20002046726565204DC6
:10085000656D6F72793A200041707220323120321A
:1008600030323000436F6D70696C65643A2000442B
:10087000726179736F6E00207C20417574686F72AD
:100880003A20004170722032312032303230203232
:10089000323A32303A343400204C6173742055704F
:1008A00064617465643A2000312E302E30004D6151
:1008B000726C696E0020536F6674776172652052A6
:1008C0006573657400205761746368646F672052B4
:1008D00065736574002042726F776E206F757420A7
:1008E0005265736574002045787465726E616C2082
:1008F000526573657400506F77657255700073743C
:10090000617274002200656E717565696E672022E0
:10091000002200656E717565696E67202200FFFF19
:10092000FF0000A0400000A0400000004000004D7B
:100930004300004D43000048430000000000000059
:10094000000000000000004D4300004D430000483F
:100950004300000000000000000000000065636824
:100960006F3A004572726F723A0041414141E14174
:100970004143454545454949494944EE4F4F4F4F4D
:10098000EF784F555555F55954E261616161E16168
:100990006163656565656969696964EE6F6F6F6F4D
:1009A000EFFD6F757575F5797479007C3C3E5E2BB3
:1009B0003D3F2F5B5D3B2C2A225C004D3834205894
:1009C0002059205A20450043616E6E6F7420656E79
:1009D000746572207375626469723A20004D323416
:1009E000004D3233202573006175746F25692E67C1
:1009F000006572726F722077726974696E67207415
:100A00006F2066696C65004E6F74205344207072CD
:100A1000696E74696E67002F005344207072696EAE
:100A200074696E67206279746520002E0044656CDD
:100A30006574696F6E206661696C65642C20466917
:100A40006C653A200046696C652064656C65746568
:100A5000643A002E006F70656E206661696C656493
:100A60002C2046696C653A200057726974696E677C
:100A700020746F2066696C653A20002E006F7065E7
:100A80006E206661696C65642C2046696C653A204D
:100A9000002E006F70656E206661696C65642C20A5
:100AA00046696C653A200046696C652073656C6523
:100AB00063746564002053697A653A200046696C66
:100AC00065206F70656E65643A20002E006F70655A
:100AD0006E206661696C65642C2046696C653A20FD
:100AE000004E6F772066726573682066696C653AA0
:100AF00020004E6F7720646F696E672066696C65B1
:100B00003A20002220706F73002220706172656E9F
:100B1000743A2200535542524F5554494E45204392
:100B2000414C4C207461726765743A22007472798A
:100B3000696E6720746F2063616C6C207375622D21
:100B400067636F64652066696C6573207769746894
:100B500020746F6F206D616E79206C6576656C73A3
:100B60002E204D4158206C6576656C2069733A00E3
:100B700053442063617264206F6B006F70656E5226
:100B80006F6F74206661696C656400766F6C756D5B
:100B9000652E696E6974206661696C6564005344F2
:100BA00020696E6974206661696C006563686F3ADC
:100BB000004572726F723A0020746F6F206C6F6E16
:100BC0006720657874727573696F6E2070726576D0
:100BD000656E7465640020636F6C64206578747260
:100BE0007573696F6E2070726576656E74656400EA
:100BF0006563686F3A00656E6473746F7073206824
:100C000069743A205A00205A3A00656E6473746F12
:100C10007073206869743A20590020593A00656E53
:100C20006473746F7073206869743A205800205898
:100C30003A00656E6473746F7073206869743A204B
:100C40000024F4D43050C38E20C2A24017828B708F
:100C500011127A910D816CD90AA861E108C7586612
:100C600007615143061E4B5D05C145A7041A41119A
:100C700004093D9803713931034036DB0265339135
:100C800002D4305402802E1D02632CEE01752AC559
:100C900001B028A001102781018F2564012B244B6E
:100CA00001E0223401AC211F018D200D01801FFCC9
:100CB00000841EED00971DDF00B81CD200E61BC6A5
:100CC00000201BBC00641AB200B219A8000A19A0C7
:100CD000006A189900D117910040178B00B516844F
:100CE0000031167E00B31579003A157300C7146FF2
:100CF0000058146A00EE1366008813630025135E23
:100D000000C7125B006C12570015125400C111513C
:100D10000070114F0021114B00D61049008D104773
:100D2000004610440002104200C00F4000800F3EF9
:100D300000420F3C00060F3B00CB0E3800930E37ED
:100D4000005C0E3500270E3400F30D3200C10D316A
:100D500000900D3000600D2E00320D2D00050D2C81
:100D600000D90C2B00AE0C2900850C29005C0C2747
:100D700000350C27000E0C2600E80B2400C40B24C1
:100D800000A00B23007D0B23005A0B2100390B21FF
:100D900000180B2000F80A1F00D90A1E00BB0A1E0B
:100DA000009D0A1D00800A1D00630A1C00470A1BE3
:100DB000002C0A1B00110A1A00F7091A00DD091994
:100DC00000C4091900AB091900920917007B091822
:100DD00000630917004C0916003609160020091691
:100DE000000A091500F5081500E0081400CC0814E5
:100DF00000B8081400A4081400900813007D08121D
:100E0000006B08130058081200460812003408113D
:100E100000230811001208110001081100F007104A
:100E200000E0071000D0071000C0071000B0070F47
:100E300000A107100091070E0083070F0074070F31
:100E40000065070E0057070E0049070E003B070D0F
:100E5000002E070E0020070D0013070D0006070DDA
:100E600000F9060C00ED060D00E0060C00D4060C9F
:100E700000C8060C00BC060C00B0060C00A4060B53
:100E80000099060C008D060B0082060B0077060BFE
:100E9000006C060B0061060A0057060B004C060AA0
:100EA0000042060A0038060A002E060A0024060A36
:100EB000001A060A001006090007060A00FD0509C7
:100EC00000F4050900EB050900E2050900D9050950
:100ED00000D0050900C7050900BE050900B50508D1
:100EE00000AD050800A50509009C0508009405084B
:100EF000008C050800840508007C050800740508BE
:100F0000006C050700650508005D0507005605082B
:100F1000004E050700470507004005080038050793
:100F200000310507002A050700230507001C0506F8
:100F300000160507000F0507000805060002050753
:100F400000FB040600F5040700EE040600E80406B2
:100F500000E2040700DB040600D5040600CF040607
:100F600000C9040600C3040600BD040600B7040659
:100F700000B1040500AC040600A6040600A00405A8
:100F8000009B04060095040500900406008A0405F1
:100F90000085040500800406007A04050075040538
:100FA00000700405006B040500660405006104057B
:100FB000005C04050057040500520405004D0405BB
:100FC0000048040500430405003E0404003A0405FB
:100FD0000035040500300404002C04050027040437
:100FE00000230405001E0404001A0404001604056E
:100FF00000110404000D04040009040500040404A5
:101000000000040400FC030400F8030400F40304DB
:1010100000F0030400EC030400E8030400E403040C
:1010200000E0030400DC030400D8030400D403043C
:1010300000D0030400CC030400C8030300C503036D
:101040000024F404D9201BC40C5C0E9804C4095F6E
:101050000265077101F405F900FB04B30048048739
:1010600000C10369005803550003034500BE023A5E
:10107000008402310053022A0029022500040220C4
:1010800000E4011C00C8011900AF01170098011409
:101090000084011300710110006101100051010E64
:1010A0000043010D0036010B002B010B0020010B4A
:1010B00000150109000C01090003010800FB0008EC
:1010C00000F3000800EB000700E4000600DE000665
:1010D00000D8000600D2000600CC000500C70005BD
:1010E00000C2000500BD000400B9000400B5000402
:1010F00000B1000400AD000400A9000400A5000335
:1011000000A20003009F0004009B0003009800035E
:10111000009500020093000300900003008D000280
:10112000008B000300880002008600020084000398
:1011300000810002007F0002007D0002007B0002AF
:1011400000790002007700010076000200740002BE
:101150000072000100710002006F0002006D0001CA
:10116000006C0002006A00010069000200670001D3
:1011700000660001006500010064000200620001D9
:101180000061000100600001005F0002005D0001DD
:10119000005C0001005B0001005A000100590001E1
:1011A00000580001005700010056000100550001E1
:1011B00000540001005300000053000100520001E0
:1011C0000051000100500001004F0001004E0000DE
:1011D000004E0001004D0001004C0001004B0000DA
:1011E000004B0001004A00010049000100480000D6
:1011F00000480001004700010046000000460001D1
:1012000000450000004500010044000100430000CB
:1012100000430001004200000042000100410000C4
:101220000041000100400001003F0000003F0001BC
:10123000003E0000003E0001003D0000003D0001B6
:10124000003C0000003C0000003C0001003B0000AE
:10125000003B0001003A0000003A000100390000A4
:10126000003900010038000000380000003800019B
:101270000037000000370001003600000036000093
:101280000036000100350000003500000035000187
:10129000003400000034000000340001003300007E
:1012A0000033000000330001003200000032000073
:1012B0000032000100310000003100000031000167
:1012C000003000000030000000300001002F00005E
:1012D000002F0000002F0000002F0001002E000052
:1012E000002E0000002E0001002D0000002D000047
:1012F000002D0000002D0001002C0000002C00003B
:10130000002C0000002C0001002B0000002B00002E
:10131000002B0000002B0001002A0000002A000022
:10132000002A0000002A0001002900000029000016
:101330000029000000290000002900010028000009
:1013400000280000002800000028000000280001FC
:1013500000270000002700000027000000270000F1
:1013600000270001002600000026000000260000E3
:1013700000260000002600010025000000250000D6
:1013800000250000002500000025000000250001C8
:1013900000240000002400000024000000240000BD
:1013A00000240001002300000023000000230000AF
:1013B00000230000002300000023000000230001A0
:1013C0000022000000220000002200000022000095
:1013D0000022000000220001002100000021000086
:1013E0000021000000210000002100000021000079
:1013F000002100010020000000200000002000006B
:10140000002000000020000000200000002000005C
:1014100000200001001F0000001F0000001F00004E
:10142000001F0000001F0000001F0000001F00013F
:10143000001E0000001E0000001E0000001E000034
:10144000006563686F3A004572723A204D41585406
:10145000454D50204245440054656D70657261747D
:1014600075726520686561746564206265642073C7
:1014700077697463686564206F66662E204D4158F5
:1014800054454D5020747269676765726564202108
:1014900021004572723A204D494E54454D50003A54
:1014A0002045787472756465722073776974636817
:1014B0006564206F66662E204D494E54454D502080
:1014C0007472696767657265642021004572723ABB
:1014D000204D415854454D50003A2045787472755E
:1014E000646572207377697463686564206F6666EB
:1014F0002E204D415854454D5020747269676765E0
:10150000726564202100202D20496E76616C69642B
:10151000206578747275646572206E756D6265728F
:10152000202100504944204175746F74756E652008
:1015300066696E69736865642120507574207468EB
:1015400065206C617374204B702C204B6920616E98
:1015500064204B6420636F6E7374616E74732066D5
:10156000726F6D2061626F766520696E746F2043C3
:101570006F6E66696775726174696F6E2E68005070
:101580004944204175746F74756E65206661696C9D
:101590006564212074696D656F75740020403A00A0
:1015A0006F6B20543A006F6B20423A005049442040
:1015B0004175746F74756E65206661696C65642130
:1015C0002054656D706572617475726520746F6FFB
:1015D000206869676800204B643A2000204B693A14
:1015E0002000204B703A200020436C6173736963C4
:1015F0002050494420002054753A2000204B753A71
:101600002000206D61783A2000206D696E3A20003C
:1016100020643A200020626961733A2000457272AA
:101620006F723A0070012C0190012701B001220174
:10163000C0011D01F00118011002130130020E015A
:101640006002090190020401C002FF000003FA00D9
:101650004003F5008003F000D003EB002004E60017
:101660007004E100E004DC004005D700C005D200B2
:101670004006CD00D006C8008007C3003008BE0079
:10168000F008B900C009B400B00AAF00B00BAA005E
:10169000D00CA500000EA000500F9B00C0109600BB
:1016A0005012910000148C00C0158700B017820002
:1016B000B0197D00D01B7800001E730040206E0022
:1016C00090226900F024640040275F0090295A00AE
:1016D000E02B5500102E500020304B0010324600F9
:1016E000E033410090353C0010373700703832004D
:1016F000A0392D00B03A2800A03B2300603C1E001A
:10170000103D1900903D1400103E0F00703E0A007D
:10171000C03E0500003F0000436172642072656DA9
:101720006F766564004361726420696E73657274DC
:101730006564002D2D3A2D2D002D2D2D00534400D4
:101740000120000120000120004D363031205831A9
:101750003020593230205A30204C3330004D363052
:10176000312058313020593230205A32204C333019
:10177000004D3630312058313020593230205A3225
:1017800030204C3330004D383420582059205A2016
:10179000450047303120583130205931302046350E
:1017A000303030004D383420582059205A20450020
:1017B0004730312058313020593130205A313020D3
:1017C0004635303030004D3234004D3233202573F1
:1017D00000052E2E004D61696E004D3630300043FD
:1017E00068616E67652066696C616D656E74004640
:1017F0006C6F77203100466C6F77203100466C6F3C
:1018000077203000466C6F77203000466C6F770091
:10181000466C6F770046616E2073706565640046A4
:10182000616E2073706565640042656400426564A2
:10183000004E6F7A7A6C6532004E6F7A7A6C653240
:10184000004E6F7A7A6C65004E6F7A7A6C65005341
:1018500070656564005370656564004D61696E0074
:10186000496E73657274206D6174657269616C2E66
:101870002E2E00473120462569205A25690047321F
:10188000380048656174696E672E2E2E00496E73AC
:10189000657274206D6174657269616C2E2E2E0004
:1018A000473120462569205A2569004732380048CB
:1018B000656174696E672E2E2E004C6F6164205036
:1018C0004C412032004C6F616420504C412031006B
:1018D0005072657061726500496E73657274206D37
:1018E0006174657269616C2E2E2E00473120462589
:1018F00069205A2569004732380048656174696E6D
:10190000672E2E2E00496E73657274206D617465AA
:101910007269616C2E2E2E00473120462569205AAF
:101920002569004732380048656174696E672E2E5C
:101930002E004C6F6164204142532032004C6F6195
:10194000642041425320310050726570617265001D
:1019500052656D6F7665206D6174657269616C2E7C
:101960002E2E00473120462569205A25690047322E
:10197000380048656174696E672E2E2E0052656DC1
:101980006F7665206D6174657269616C2E2E2E0014
:10199000473120462569205A2569004732380048DA
:1019A000656174696E672E2E2E00556E6C6F6164D2
:1019B00020504C41203200556E6C6F616420504CB9
:1019C00041203100507265706172650052656D6F23
:1019D0007665206D6174657269616C2E2E2E0047EC
:1019E0003120462569205A2569004732380048656C
:1019F0006174696E672E2E2E00556C74696D616B73
:101A000065722072656164792E0052656D6F76652E
:101A1000206D6174657269616C2E2E2E0052656DA9
:101A20006F7665206D6174657269616C2E2E2E0073
:101A3000473120462569205A256900473238004839
:101A4000656174696E672E2E2E00556E6C6F616431
:101A500020414253203200556E6C6F616420414238
:101A60005320310050726570617265005072656874
:101A700065617420504C4120426564005072656875
:101A800065617420504C4120416C6C005072656857
:101A900065617420504C4120320050726568656168
:101AA0007420504C412031005072657061726500A5
:101AB000507265686561742041425320426564003C
:101AC000507265686561742041425320416C6C001E
:101AD0005072656865617420414253203200507233
:101AE0006568656174204142532031005072657011
:101AF00061726500436F6F6C646F776E0050726542
:101B00006865617420414253005072656865617474
:101B100020504C4100556E6C6F616420414253006F
:101B2000556E6C6F616420504C41004C6F616420B5
:101B3000414253004C6F616420504C41004D61693B
:101B40006E004731205A323000473238205830205A
:101B50005930004731205A35002D205075736820C8
:101B6000746F20636F6E74696E7565202D000020A0
:101B7000206174206C6576656C20706F696E7420CE
:101B800033202000202041646A75737420626564EC
:101B90002073637265772020004731205A30004758
:101BA000312046256920582569205925690047318B
:101BB000205A3500000000002D20507573682074F5
:101BC0006F20636F6E74696E7565202D0000202094
:101BD0006174206C6576656C20706F696E7420325C
:101BE000202000202041646A75737420626564209F
:101BF00073637265772020004731205A30004731E7
:101C0000204625692058256920592569004731203B
:101C10005A3500000000002D205075736820746F45
:101C200020636F6E74696E7565202D000020206141
:101C300074206C6576656C20706F696E742031203D
:101C40002000202041646A757374206265642073EB
:101C5000637265772020004731205A3000473120D9
:101C60004625692058256920592569004731205AA1
:101C7000350047323800580059005A0045787472D0
:101C800075646572004578747275646572004D6F95
:101C90007665205A004D6F76652059004D6F766548
:101CA0002058004D6F76652061786973004D6F761E
:101CB0006520302E316D6D004D6F766520316D6D74
:101CC000004D6F76652031306D6D0050726570612A
:101CD0007265004731205A32300047323800000028
:101CE00000002D205075736820746F20636F6E7430
:101CF000696E7565202D002020206D6F756E742033
:101D0000746F6F6C686561642020200020202020A3
:101D10002020202020616E642020202020202020F0
:101D2000002020496E73657274207A2D7370616390
:101D30006572202020004731205A25692046313223
:101D4000303030004731204625692058256900474A
:101D500031205A3500473238004D38340044697319
:101D600061626C6520737465707065727300507287
:101D7000657020546F6F6C68656164004D6F7665A7
:101D8000206178697300335020426564204C657689
:101D9000656C696E6700473238004175746F206862
:101DA0006F6D65004D61696E0046616E20737065F0
:101DB00065640046616E2073706565640042656409
:101DC00000426564004E6F7A7A6C6532004E6F7A1D
:101DD0007A6C6532004E6F7A7A6C65004E6F7A7A53
:101DE0006C650054656D706572617475726500464E
:101DF000616E20737064202825290046616E20736F
:101E00007064202825290042656400426564004E04
:101E10006F7A7A6C6532004E6F7A7A6C6532004E5A
:101E20006F7A7A6C65004E6F7A7A6C650054656DD6
:101E300070657261747572650053746F7265206DA0
:101E4000656D6F72790042656400426564004E6F93
:101E50007A7A6C65004E6F7A7A6C650046616E2006
:101E600073706565640046616E207370656564001B
:101E700054656D70657261747572650053746F722C
:101E800065206D656D6F727900426564004265641E
:101E9000004E6F7A7A6C65004E6F7A7A6C650046F8
:101EA000616E2073706565640046616E20737065B5
:101EB00065640054656D706572617475726500507B
:101EC0007265686561742041425320636F6E6600DD
:101ED0005072656865617420504C4120636F6E6676
:101EE000005049442D43005049442D43005049447B
:101EF0002D44005049442D44005049442D49005080
:101F000049442D49005049442D50005049442D501A
:101F10000020022046616374002002204661637441
:101F2000002002204D6178002002204D61780020C1
:101F300002204D696E002002204D696E004F6666DA
:101F4000004F6E20004F6666004F6E200041757492
:101F50006F74656D700054656D702E206F666673CA
:101F60006574730054656D702E206F7665727269AA
:101F70006465730046616E20737065656400466138
:101F80006E2073706565640042656400426564009C
:101F90004E6F7A7A6C6532004E6F7A7A6C653200D9
:101FA0004E6F7A7A6C65004E6F7A7A6C6500436F7B
:101FB0006E74726F6C004573746570732F6D6D0075
:101FC0004573746570732F6D6D005A73746570730B
:101FD0002F6D6D005A73746570732F6D6D0059739A
:101FE000746570732F6D6D005973746570732F6D08
:101FF0006D005873746570732F6D6D005873746540
:1020000070732F6D6D00412D726574726163740081
:10201000412D7265747261637400416D6178206551
:1020200000416D6178206500416D6178207A004142
:102030006D6178207A00416D6178207900416D6191
:1020400078207900416D6178207800416D617820B9
:1020500078005654726176206D696E005654726134
:1020600076206D696E00566D696E00566D696E0062
:10207000566D6178206500566D6178206500566D5B
:102080006178207A00566D6178207A00566D61780B
:10209000207900566D6178207900566D617820783E
:1020A00000566D617820780056652D6A65726B0068
:1020B00056652D6A65726B00567A2D6A65726B00E3
:1020C000567A2D6A65726B005678792D6A65726B47
:1020D000005678792D6A65726B00416363656C0008
:1020E000416363656C00436F6E74726F6C00556E74
:1020F00052657420205600556E526574202056009B
:102100005320556E5265742B6D6D005320556E52E1
:1021100065742B6D6D00556E526574202B6D6D00CE
:10212000556E526574202B6D6D00486F70206D6D7B
:1021300000486F70206D6D00526574726163742089
:1021400020560052657472616374202056005377E4
:1021500061702052652E6D6D00537761702052655D
:102160002E6D6D0052657472616374206D6D005246
:10217000657472616374206D6D004F6666004F6E0A
:1021800020004F6666004F6E20004175746F5265E7
:1021900074722E00436F6E74726F6C0052657374AC
:1021A0006F7265206661696C73616665004C6F6172
:1021B00064206D656D6F72790053746F7265206D68
:1021C000656D6F72790052657472616374004D6F52
:1021D00074696F6E0054656D7065726174757265B7
:1021E000004D61696E004170722032312032303210
:1021F000302032323A32303A3438004472617973E6
:102200006F6E204465765F35342E3100556C7469ED
:102210006D616B65723A204445565F32303134004F
:102220004669726D776172652076657273696F6E4B
:10223000004669726D776172652076657273696FA9
:102240006E00436F6E74726F6C004D61696E7461E5
:10225000696E00507265706172650054756E65003C
:102260004E6F2053442063617264005072696E7433
:102270002066726F6D2053440053746F702070722B
:10228000696E7400526573756D65207072696E7445
:10229000005061757365207072696E7400496E66D6
:1022A0006F2073637265656E0000000A0B02090CF3
:1022B0000D0E0807030401000000000000000000EC
:1022C000000000000000000000000000000000000E
:1022D00000000000001211100000000000000000CB
:1022E00000000000000000000000000000000001ED
:1022F0000210202008081020401020408002010217
:1023000001080402010102040810204080804020DE
:102310001008040201800402018040201008040219
:102320000108040201010204081020408001020497
:102330000810204080050505050705080808080263
:102340000202020A0A08080404040401010101014E
:102350000101010303030303030303040707070C3D
:102360000C0C0C0C0C0C0C020202020606060606F3
:102370000606060B0B0B0B0B0B0B0B0000200023B0
:1023800000260029002C002F00320000010000036D
:10239000010601090100002200250028002B002E63
:1023A000003100340002010000050108010B0100AA
:1023B000002100240027002A002D003000330001F6
:1023C000010000040107010A01024E414E494E4935
:1023D0005459494E46CDCCCC3D0AD7233C17B7D1F2
:1023E0003877CC2B329595E6241FB14F0A00002098
:1023F000410000C84200401C4620BCBE4CCA1B0E17
:102400005AAEC59D7400234577CD2B4511241FBEC0
:10241000CFEFD1E2DEBFCDBF00E00CBF14E0A0E003
:10242000B2E0E0EBF0EF01E00BBF02C007900D92CD
:10243000A43FB107D9F723E1A4EFB4E001C01D9296
:10244000A539B207E1F714E2CAE0D4E200E006C021
:1024500022970109FE010BBF0E94CCF0C630D107C4
:1024600080E00807A9F70E94B1EB0C9447F80C94A0
:102470000000EF92FF920F931F93CF93DF931F9271
:10248000CDB7DEB78C017B01460FF70161917F016B
:10249000F8018081918149830E9490F7F801808141
:1024A000918101969183808349814E11EECF0F90E7
:1024B000DF91CF911F910F91FF90EF900895EF92D0
:1024C000FF920F931F93CF93DF931F92CDB7DEB789
:1024D0008C017B01460FF8018081918149830E9424
:1024E00088F7F70181937F01F8018081918101963E
:1024F0009183808349814E11EECF0F90DF91CF9170
:102500001F910F91FF90EF9008950F931F93CF931A
:10251000DF93CDB7DEB72C970FB6F894DEBF0FBEB2
:10252000CDBF80E390E3A0E3B0E08D839E83AF83D3
:10253000B88704E610E01C870B8744E0BE016B5FA0
:102540007F4FCE010B9695DF40E165EF71E1CE0143
:102550000B968FDF40E165E072E1CE010B9689DFDB
:1025600040E165EE71E1CE010B9683DF44E06DED55
:1025700071E1CE010B967DDF44E069ED71E1CE01A2
:102580000B9677DF44E061EE71E1CE010B9671DFCF
:1025900044E069EC71E1CE010B966BDF44E065E14C
:1025A00072E1CE010B9665DF44E065ED71E1CE018D
:1025B0000B965FDF44E061ED71E1CE010B9659DFD0
:1025C00044E06DEC71E1CE010B9653DF4CE068E81E
:1025D00077E0CE010B964DDF42E069E573E1CE0175
:1025E0000B9647DF42E067E573E1CE010B9641DFD2
:1025F00042E065E573E1CE010B963BDF42E063E527
:1026000073E1CE010B9635DF42E061E573E1CE0167
:102610000B962FDF42E06FE473E1CE010B9629DFCA
:1026200044E065E777E0CE010B9623DF44E06EE8F7
:1026300072E0CE010B961DDF44E06AE872E0CE0145
:102640000B9617DF44E066E872E0CE010B9611DFCF
:1026500080E290E09A87898742E0BE01675F7F4F02
:10266000CE010B9606DF86E591E3A0E3B0E0898317
:102670009A83AB83BC831C870B8744E0BE016F5FEA
:102680007F4FCE010B96F5DEEEE9F3E084918823CF
:1026900041F09091C00095FFFCCF8093C600319629
:1026A000F5CFEEE8F3E08491882341F09091C000EB
:1026B00095FFFCCF8093C6003196F5CF8091C00086
:1026C00085FFFCCF8AE08093C6002C960FB6F89465
:1026D000DEBF0FBECDBFDF91CF911F910F91089547
:1026E000CF93DF93CEE9D3E0FE018491882341F0BC
:1026F0009091C00095FFFCCF8093C6003196F5CF36
:10270000EEE7F3E08491882341F09091C00095FFBB
:10271000FCCF8093C6003196F5CF8091C00085FF35
:10272000FCCF8AE08093C600FE018491EEE9F3E0DD
:10273000882349F09091C00095FFFCCF8093C6009C
:1027400031968491F5CF4091F5115091F611609139
:10275000F7117091F81186E793E00E945F1C409199
:10276000F9115091FA116091FB117091FC1183E7FE
:1027700093E00E945F1C4091FD115091FE11609109
:10278000FF117091001280E793E00E945F1C40915E
:1027900001125091021260910312709104128DE6A1
:1027A00093E00E945F1C8091C00085FFFCCF8AE00F
:1027B0008093C600FE018491EEE9F3E0882349F09E
:1027C0009091C00095FFFCCF8093C6003196849114
:1027D000F5CFE3E5F3E08491882341F09091C000C8
:1027E00095FFFCCF8093C6003196F5CF8091C00055
:1027F00085FFFCCF8AE08093C600FE018491EEE95C
:10280000F3E0882349F09091C00095FFFCCF8093BE
:10281000C60031968491F5CF409105125091061271
:1028200060910712709108128AE493E00E945F1C85
:102830004091091250910A1260910B1270910C1282
:1028400087E493E00E945F1C40910D1250910E129C
:1028500060910F127091101284E493E00E945F1C4B
:102860004091111250911212609113127091141232
:1028700081E493E00E945F1C8091C00085FFFCCF43
:102880008AE08093C600FE018491EEE9F3E088239C
:1028900049F09091C00095FFFCCF8093C60031961F
:1028A0008491F5CFE3E2F3E08491882341F09091A5
:1028B000C00095FFFCCF8093C6003196F5CF809184
:1028C000C00085FFFCCF8AE08093C600FE018491A2
:1028D000EEE9F3E0882349F09091C00095FFFCCF2A
:1028E0008093C60031968491F5CF4091E5115091C7
:1028F000E6116091E7117091E8118AE193E0F0D759
:102900004091E9115091EA116091EB117091EC1135
:1029100087E193E0E5D74091ED115091EE11609180
:10292000EF117091F01184E193E0DAD74091F11149
:102930005091F2116091F3117091F41181E193E0E3
:10294000CFD78091C00085FFFCCF8AE08093C6007E
:10295000FE018491EEE9F3E0882349F09091C000F4
:1029600095FFFCCF8093C60031968491F5CFECEDB6
:10297000F2E08491882341F09091C00095FFFCCF54
:102980008093C6003196F5CF8091C00085FFFCCFC3
:102990008AE08093C600FE018491EEE9F3E088238B
:1029A00049F09091C00095FFFCCF8093C60031960E
:1029B0008491F5CF4091DD115091DE116091DF11CE
:1029C0007091E01183ED92E07AD74091D911509146
:1029D000DA116091DB117091DC1180ED92E06FD71C
:1029E0008091C00085FFFCCF8AE08093C600FE0185
:1029F0008491EEE9F3E0882349F09091C00095FFBF
:102A0000FCCF8093C60031968491F5CFEDE1F2E0E2
:102A10008491882341F09091C00095FFFCCF809372
:102A2000C6003196F5CF8091C00085FFFCCF8AE0CB
:102A30008093C600FE018491EEE9F3E0882349F01B
:102A40009091C00095FFFCCF8093C6003196849191
:102A5000F5CF4091E1115091E2116091E311709135
:102A6000E41184E192E02BD74091C9115091CA1131
:102A70006091CB117091CC1181E192E020D740910F
:102A800015125091161260911712709118128EE063
:102A900092E026D74091D5115091D6116091D7116F
:102AA0007091D8118BE092E00AD74091D1115091EA
:102AB000D2116091D3117091D41188E092E0FFD6C9
:102AC0004091CD115091CE116091CF117091D011E4
:102AD00085E092E0F4D68091C00085FFFCCF8AE0CB
:102AE0008093C600FE018491EEE9F3E0882349F06B
:102AF0009091C00095FFFCCF8093C60031968491E1
:102B0000F5CFE3EFF1E08491882341F09091C0008C
:102B100095FFFCCF8093C6003196F5CF8091C00021
:102B200085FFFCCF8AE08093C600FE018491EEE928
:102B3000F3E0882349F09091C00095FFFCCF80938B
:102B4000C60031968491F5CF40918807509189074E
:102B500060918A0770918B078AEE91E0B0D6409120
:102B60008C0750918D0760918E0770918F0787EECB
:102B700091E0A5D6409190075091910760919207FE
:102B80007091930784EE91E09AD68091C00085FF02
:102B9000FCCF8AE08093C600FE018491EEE9F3E069
:102BA000882349F09091C00095FFFCCF8093C60028
:102BB00031968491F5CFE6EDF1E08491882341F0E0
:102BC0009091C00095FFFCCF8093C6003196F5CF61
:102BD0008091C00085FFFCCF8AE08093C600FE0193
:102BE000C491EEE9F3E0CC2349F08091C00085FF69
:102BF000FCCFC093C6003196C491F5CF40918E02B0
:102C000050918F0260919002709191028CEC91E052
:102C100056D660918A0270918B0280918C029091BD
:102C20008D020E947D87AB01BC0189EC91E047D603
:102C3000609186027091870280918802909189024A
:102C40000E948987AB01BC0186EC91E038D6809167
:102C5000C00085FFFCCF8AE08093C600DF91CF9152
:102C60000895AF92BF92CF92DF92EF92FF920F93AF
:102C70001F93CF93DF93CDB7DEB7E0970FB6F894ED
:102C8000DEBF0FBECDBF80E1EDEAF2E0DE0191963E
:102C900001900D928A95E1F780E1EDEBF2E0DE0123
:102CA000519601900D928A95E1F780E1EDECF2E00A
:102CB000DE01119601900D928A95E1F76E0181E295
:102CC000C80ED11C85EFE82E81E1F82E8E010F5E33
:102CD0001F4F65E072E1AE014F5F5F4F95EEA92E89
:102CE00091E1B92E20E030E0F60181919191A1911E
:102CF000B1916F01F70181939193A193B1937F01FA
:102D0000F80181919191A191B1918F01FB01819382
:102D10009193A193B193BF01FA0181919191A191F6
:102D2000B191AF01F50181939193A193B1935F01AB
:102D30002F5F3F4F24303105B9F60E94857880E03F
:102D400090E8ABE3B5E48093DD119093DE11A0939E
:102D5000DF11B093E0118093D9119093DA11A09311
:102D6000DB11B093DC111092E1111092E21110927C
:102D7000E3111092E41180E29EE4A0E0B0E08093C1
:102D8000151290931612A0931712B0931812109266
:102D9000C9111092CA111092CB111092CC1180E07F
:102DA00090E0A0EAB1E48093D5119093D611A0935E
:102DB000D711B093D8118DEC9CECACECBEE38093B2
:102DC000D1119093D211A093D311B093D41180E07C
:102DD00090E0A0EAB0E48093CD119093CE11A0933F
:102DE000CF11B093D01110929007109291071092CA
:102DF00092071092930710928C0710928D071092F1
:102E00008E0710928F0710928807109289071092F0
:102E10008A0710928B0782ED90E090935A1380936B
:102E200059138CE390E090935813809357131092AA
:102E300056131092551380EF90E0909354138093A3
:102E4000531380E590E090935213809351131092A6
:102E5000501310924F138AE999E9A1EBB1E48093E2
:102E60008E0290938F02A0939002B093910261E73B
:102E70007DE38AE89FE30E94778760938A027093DC
:102E80008B0280938C0290938D0260E070E084EE60
:102E900092E40E94838760938602709387028093F6
:102EA0008802909389020E94EB8380E090E0A0E882
:102EB000BFE38093820290938302A0938402B09335
:102EC0008502EEE9F3E08491882341F09091C000FF
:102ED00095FFFCCF8093C6003196F5CFEAE8F1E08C
:102EE0008491882341F09091C00095FFFCCF80939E
:102EF000C6003196F5CF8091C00085FFFCCF8AE0F7
:102F00008093C600E0960FB6F894DEBF0FBECDBF2B
:102F1000DF91CF911F910F91FF90EF90DF90CF90B5
:102F2000BF90AF900895CF93DF93CDB7DEB72C97C6
:102F30000FB6F894DEBF0FBECDBF84E690E09C874D
:102F40008B8786E591E3A0E3B0E089839A83AB8326
:102F5000BC8344E0BE016B5F7F4FCE010B96AFDABE
:102F600043E050E0BE016B5F7F4FCE0101960E94AF
:102F70004FF5892B09F0B1C040E165EF71E1CE0159
:102F80000B969DDA40E165E072E1CE010B9697DA8F
:102F900040E165EE71E1CE010B9691DA0E948578F1
:102FA00044E06DED71E1CE010B9689DA44E069ED04
:102FB00071E1CE010B9683DA44E061EE71E1CE015E
:102FC0000B967DDA44E069EC71E1CE010B9677DA7D
:102FD00044E065E172E1CE010B9671DA44E065ED03
:102FE00071E1CE010B966BDA44E061ED71E1CE0147
:102FF0000B9665DA44E06DEC71E1CE010B965FDA79
:103000004CE068E877E0CE010B9659DA42E069E5DA
:1030100073E1CE010B9653DA42E067E573E1CE012E
:103020000B964DDA42E065E573E1CE010B9647DA87
:1030300042E063E573E1CE010B9641DA42E061E5DF
:1030400073E1CE010B963BDA42E06FE473E1CE010F
:103050000B9635DA44E065E777E0CE010B962FDA80
:1030600044E06EE872E0CE010B9629DA44E06AE8AB
:1030700072E0CE010B9623DA44E066E872E0CE01FE
:103080000B961DDA42E0BE01675F7F4FCE010B96C3
:1030900016DA0E94EB83EEE9F3E08491882341F095
:1030A0009091C00095FFFCCF8093C6003196F5CF7C
:1030B000ECEAF1E08491882341F09091C00095FF03
:1030C000FCCF8093C6003196F5CF8091C00085FF7C
:1030D000FCCF8AE08093C60001C0C3DD01DB2C96E3
:1030E0000FB6F894DEBF0FBECDBFDF91CF9108952C
:1030F0001F920F920FB60F9211240BB60F922F93BF
:103100003F934F935F936F938F939F93EF93FF93AF
:103110006091C6002091750530917605C901019630
:103120008F779927409177055091780584179507F7
:1031300041F0F901EB50FB4F60839093760580934B
:103140007505FF91EF919F918F916F915F914F91D5
:103150003F912F910F900BBE0F900FBE0F901F90BD
:1031600018959A01AB01211581EE380741055105EB
:1031700049F182E08093C00060E079E08DE390E067
:103180000E949AF02150310941095109CA01B9013F
:1031900022E030E040E050E00E949AF03093C50019
:1031A0002093C4008091C10080618093C100809110
:1031B000C10088608093C1008091C10080688093C5
:1031C000C10008951092C00020E130E0E7CF2091C7
:1031D0007705309178058091750590917605821775
:1031E000930771F0F901EB50FB4F80812F5F3F4F48
:1031F0002F773327309378052093770590E0089553
:103200008FEF9FEF089580917705909178059093C7
:1032100076058093750508954F925F926F927F9225
:103220008F929F92AF92BF92CF92DF92EF92FF92D6
:103230000F931F93CF93DF93CDB7DEB7A0970FB651
:10324000F894DEBF0FBECDBF5C014115510561058D
:103250007105E9F420E030E040E350E060E070E028
:10326000A0960FB6F894DEBF0FBECDBFDF91CF9111
:103270001F910F91FF90EF90DF90CF90BF90AF9094
:103280009F908F907F906F905F904F905BC08E016A
:103290000F5F1F4FC12CD12C76014801422E512CBB
:1032A000612C712C8FEFC81AD80AE80AF80ACB01F2
:1032B000BA01A30192010E9478F0CA01F80161935A
:1032C0008F01A901BC01411551056105710551F737
:1032D000F1E0CF1AD108E108F108F401EC0DFD1D71
:1032E00080818A3010F440E301C047E3480F55273E
:1032F00047FD5095652F752F20E030E0C50122D0A5
:1033000081E0C81AD108E108F108EFEFCE16DE0619
:10331000EE06FE0611F7A0960FB6F894DEBF0FBEBC
:10332000CDBFDF91CF911F910F91FF90EF90DF9074
:10333000CF90BF90AF909F908F907F906F905F9055
:103340004F9008952115310539F48091C00085FF13
:10335000FCCF4093C60008952A30310509F41CC003
:103360005BCFCF93DF93EC0120E030E04DE050E005
:1033700060E070E0E7DF20E030E04AE050E060E04D
:1033800070E0CE01DF91CF91DDCF9A01AB016627CE
:1033900057FD6095762FD6CFCF92DF92EF92FF92B6
:1033A000CF93DF93EC016A017B0177FF0FC020E030
:1033B00030E04DE250E060E070E0C4DFF094E09473
:1033C000D094C094C11CD11CE11CF11C2AE0B701AF
:1033D000A601CE01DF91CF91FF90EF90DF90CF90CB
:1033E0001BCF2115310539F48091C00085FFFCCF3A
:1033F0004093C600089510CF9A01462F50E060E038
:1034000070E0EFCFCF93DF93EC019A01AB0160E066
:1034100070E0E7DFCE01DF91CF91A3CF8F929F9233
:10342000AF92BF92CF92DF92EF92FF921F93CF9312
:10343000DF93EC016A017B01122F20E030E0A9014B
:10344000C701B6010E949BEC87FF0CC020E030E072
:103450004DE250E060E070E0CE0174DFF7FAF094E6
:10346000F7F8F094B12C60E070E080E09FE3B116D3
:1034700041F020E030E040E251E40E94A2ECB3943D
:10348000F6CF9B01AC01C701B6010E94C2EB6B01F4
:103490007C010E940FED4B015C010E943BED9B0102
:1034A000AC01C701B6010E94C1EB6B017C012AE0AF
:1034B000B501A401CE01B0DE112361F0E6EDF4E028
:1034C0008191882339F09091C00095FFFCCF8093C3
:1034D000C600F6CF112319F120E030E040E251E4BC
:1034E000C701B6010E9470EF6B017C010E940AEDDA
:1034F0004B01AA2497FCA094BA2CB501A401CE01DB
:103500004BDFC501B4010E943DED9B01AC01C70139
:10351000B6010E94C1EB6B017C011150DBCFDF9142
:10352000CF911F91FF90EF90DF90CF90BF90AF9021
:103530009F908F90089572CFFC0165917591859150
:10354000949108952F923F924F925F926F927F9243
:103550008F929F92AF92BF92CF92DF92EF92FF92A3
:103560000F931F93CF93DF9300D000D0CDB7DEB77A
:103570005C01FC01E25EF64F14919C01220F331FA7
:10358000220F331F3E832D83F901EC56F84F108232
:1035900011821282138220EA37E04CE957E068E991
:1035A00077E084E997E00E94B377D501AA0FBB1FAB
:1035B000FD01EF5CFD4F2081318137FD0FC0AA0F67
:1035C000BB1FAB5DBD4F6D917C91C901880F991FE9
:1035D000820F931F85589A4F0E9493578D819E8129
:1035E000835D964FA9DF6B017C01612F772767FD13
:1035F0007095872F972F0E943DED2B013C018D8107
:103600009E818F5B984F4C0120E030E040EC5FE3FF
:10361000C701B6010E9470EFA30192010E9470EFF2
:10362000F40160837183828393832D813E812D5ABF
:103630003D4F3C832B83F9016081718182819381AD
:1036400060930F0270931002809311029093120204
:1036500020E030E040E752E40E94A2EC54E6C52EA0
:1036600057E0D52E7B018C012DE437E049E457E08B
:1036700065E477E081E497E00E94F86D0E94548150
:103680002D813E812C56384F3A832983F9011082CF
:1036900011821282138220EA37E04CE957E068E990
:1036A00077E084E997E00E94B3772D813E812F5D1A
:1036B000364F1901C90140DF9058A30192010E94C1
:1036C00070EFF401608371838283938320E030E0A4
:1036D00040E752E460910F02709110028091110254
:1036E000909112020E94A2EC7B018C012DE437E044
:1036F00049E457E065E477E081E497E00E94F86DE3
:103700000E945481C10118DF9B01AC010E94C2EBF1
:10371000A30192010E9470EFF401608371838283A0
:10372000938320E030E040E05FE3EB81FC81608147
:103730007181828193810E9470EF60930F02709378
:103740001002809311029093120220E030E040E7D3
:1037500052E40E94A2EC7B018C012DE437E049E4A5
:1037600057E065E477E081E497E00E94F86D0E94FD
:1037700054818D819E81875C964FDEDE0D811E8196
:103780000857184FF80120813181428153810E94EE
:10379000C2EBE981FA8160837183828393838D8197
:1037A0009E818F5A964FC8DE2D813E812458384F16
:1037B0007901F80120813181428153810E94C2EB5D
:1037C000F70160837183828393838D819E818B5BFC
:1037D000964FB2DE2D813E81295C3D4F7901F80183
:1037E00020813181428153810E94C2EBF7016083C5
:1037F000718382839383E981FA8180819181A2819F
:10380000B381F40180839183A283B38310920F026A
:103810001092100210921102109212020E94687906
:10382000F501E758F84F81E08083F501EE0FFF1FA7
:10383000DF01AF5CBD4F2D913C9137FD27C0EE0FEE
:10384000FF1FE95DFD4F60817181C901880F991FDC
:10385000820F931F85589A4F26960FB6F894DEBFB5
:103860000FBECDBFDF91CF911F910F91FF90EF90D1
:10387000DF90CF90BF90AF909F908F907F906F9090
:103880005F904F903F902F900C94935726960FB6D1
:10389000F894DEBF0FBECDBFDF91CF911F910F9186
:1038A000FF90EF90DF90CF90BF90AF909F908F9060
:1038B0007F906F905F904F903F902F900895FC0104
:1038C0002491222341F03091C00035FFFCCF20939A
:1038D000C6000196F4CF22E030E084EF94E02BCED6
:1038E000FC012491222341F03091C00035FFFCCF30
:1038F0002093C6000196F4CF2AE030E084EF94E0F4
:1039000070CDCF93DF931F921F92CDB7DEB780911A
:103910008F13909190139E012F5F3F4F009719F4E2
:103920002559334102C0281B390B3A8329838981E9
:103930009A810F900F90DF91CF9108952091960575
:1039400030919705243031050CF06AC040919805FC
:103950005091990560E6649F9001659F300D112498
:10396000BC01C90180569A4F0E9448F5EDE5F9E087
:103970008491882341F09091C00095FFFCCF809303
:10398000C6003196F5CFE3E1F9E08491882341F058
:103990009091C00095FFFCCF8093C6003196F5CF83
:1039A000809198059091990520E6289FF001299F24
:1039B000F00D1124E056FA4F8191882339F090914F
:1039C000C00095FFFCCF8093C600F6CFE1E1F9E09F
:1039D0008491882341F09091C00095FFFCCF8093A3
:1039E000C6003196F5CF8091C00085FFFCCF8AE0FC
:1039F0008093C6008091980590919905019664E0A6
:103A000070E00E9465F090939905809398058091ED
:103A1000960590919705019690939705809396054A
:103A200008952091960530919705243031050CF0CA
:103A30006AC0409198055091990560E6649F900195
:103A4000659F300D1124BC01C90180569A4F0E9418
:103A5000AFF4EDE5F9E08491882341F09091C00046
:103A600095FFFCCF8093C6003196F5CFE6E0F9E0F4
:103A70008491882341F09091C00095FFFCCF809302
:103A8000C6003196F5CF809198059091990520E672
:103A9000289FF001299FF00D1124E056FA4F8191E3
:103AA000882339F09091C00095FFFCCF8093C60029
:103AB000F6CFE4E0F9E08491882341F09091C000D2
:103AC00095FFFCCF8093C6003196F5CF8091C00062
:103AD00085FFFCCF8AE08093C60080919805909185
:103AE0009905019664E070E00E9465F09093990555
:103AF00080939805809196059091970501969093F3
:103B00009705809396050895809A889A0895809ADB
:103B1000889808950F931F93CF93DF936DE070E023
:103B20008BE795E00E945B57C1E3D2E007E212E029
:103B30002991399137FD0CC0F80160817181C9016B
:103B4000880F991F820F931F85589A4F0E94935791
:103B50000C5F1F4FF2E0C733DF0751F7DF91CF91C2
:103B60001F910F910895D0DF40E950ED63E070E0C0
:103B700084EF94E0F6DAEEEFF8E08491882341F0E8
:103B80009091C00095FFFCCF8093C6003196F5CF91
:103B90008091C00085FFFCCF8AE08093C6008DE550
:103BA00099E0FC012491222341F03091C00035FFBF
:103BB000FCCF2093C6003196F5CF24B720FF14C068
:103BC000E6EFF8E03491332341F04091C00045FF27
:103BD000FCCF3093C6003196F5CF3091C00035FF51
:103BE000FCCF3AE03093C60021FF14C0E6EEF8E0C7
:103BF0003491332341F04091C00045FFFCCF309316
:103C0000C6003196F5CF3091C00035FFFCCF3AE0C9
:103C10003093C60022FF14C0E5EDF8E03491332361
:103C200041F04091C00045FFFCCF3093C600319673
:103C3000F5CF3091C00035FFFCCF3AE03093C6009D
:103C400023FF14C0E5ECF8E03491332341F04091B8
:103C5000C00045FFFCCF3093C6003196F5CF3091C0
:103C6000C00035FFFCCF3AE03093C60025FF14C0FA
:103C7000E5EBF8E02491222341F03091C00035FFBC
:103C8000FCCF2093C6003196F5CF2091C00025FFD0
:103C9000FCCF2AE02093C60014BEEEEAF8E024919F
:103CA000222341F03091C00035FFFCCF2093C600A5
:103CB0003196F5CFE8EAF8E02491222341F03091E3
:103CC000C00035FFFCCF2093C6003196F5CF209180
:103CD000C00025FFFCCF2AE02093C600FC01249100
:103CE000EDE5F9E0222349F03091C00035FFFCCF2B
:103CF0002093C60031962491F5CFE8E9F8E02491AD
:103D0000222341F03091C00035FFFCCF2093C60044
:103D10003196F5CFE3E8F8E02491222341F0309189
:103D2000C00035FFFCCF2093C6003196F5CFE7E702
:103D3000F8E02491222341F03091C00035FFFCCF00
:103D40002093C6003196F5CFEFE6F8E024912223C8
:103D500041F03091C00035FFFCCF2093C600319672
:103D6000F5CF2091C00025FFFCCF2AE02093C600AC
:103D7000E4E6F8E02491222341F03091C00035FFC1
:103D8000FCCF2093C6003196F5CFE8E5F8E024910A
:103D9000222341F03091C00035FFFCCF2093C600B4
:103DA0003196F5CF2091C00025FFFCCF2AE020936B
:103DB000C600FC018491EDE5F9E0882349F090917B
:103DC000C00095FFFCCF8093C60031968491F5CF5B
:103DD000E9E4F8E08491882341F09091C00095FFD8
:103DE000FCCF8093C6003196F5CF8BDD4AE050E0E2
:103DF000BC0184EF94E0C9DAE2E3F8E0849188231F
:103E000041F09091C00095FFFCCF8093C6003196A1
:103E1000F5CF4AE050E060ED74E084EF94E0B5DA6D
:103E20008091C00085FFFCCF8AE08093C60010928D
:103E30009C0510929D0510929E0510929F0573D8C7
:103E40000E9458860E94356C0E94CC8063DE0E94DE
:103E5000B0ADFFEF23ED80E3F15020408040E1F76B
:103E600000C000000895809190059091910560E058
:103E700070E001960C9406F2809190059091910566
:103E80004AE050E060E070E001960C946EF3682F19
:103E9000772767FD709520919A0530919B0540E644
:103EA000429FC001439F900D112480569A4F0E945B
:103EB00034F5909391058093900521E0892B09F4C6
:103EC00020E0822F08950E9411E560938C05709385
:103ED0008D0580938E0590938F0508950E9411E5BE
:103EE00060938C0570938D0580938E0590938F055C
:103EF000E0919A05F0919B05E456FA4F808181117B
:103F000014C0ECE4F4E08491882341F09091C00067
:103F100095FFFCCF8093C6003196F5CF8091C0000D
:103F200085FFFCCF8AE08093C600089584EF94E07B
:103F30006AD9EFE4F4E08491882341F09091C000C5
:103F400095FFFCCF8093C6003196F5CF40912507B1
:103F50005091260760912707709128074F5F5F4FA8
:103F60006F4F7F4F2AE030E084EF94E0EBD98091EF
:103F7000C00085FFFCCF8AE08093C600AFCF8F9250
:103F80009F92AF92BF92CF92DF92EF92FF920F93E8
:103F90001F93CF93DF9356E6E52E54E0F52E04E908
:103FA00017E0C1E4D7E066EAC62E67E0D62EF70137
:103FB00081917F016CDF882311F155DF4B015C019A
:103FC000F6018081811103C06091200701C061E08A
:103FD00070E080E090E00E943DEDF80120813181A9
:103FE000428153810E9470EF9B01AC01C501B40175
:103FF0000E94C2EB688379838A839B8309C0F8019E
:1040000080819181A281B38188839983AA83BB83B4
:104010000C5F1F4F2496FFEFCF1ADF0A8AE6E816DF
:1040200084E0F80621F686E432DF8823D1F01BDF36
:104030006B017C01609331077093320780933307E3
:104040009093340720E030E0A9010E949EEE1816FC
:1040500044F4C0920F02D0921002E0921102F0924A
:104060001202DF91CF911F910F91FF90EF90DF909F
:10407000CF90BF90AF909F908F90089580DF89E49C
:1040800006DF882351F0EFDE609335077093360723
:10409000809337079093380708C010923507109225
:1040A000360710923707109238078AE4F0DE88232B
:1040B00051F0D9DE6093390770933A0780933B073C
:1040C00090933C0708951092390710923A07109286
:1040D0003B0710923C070895CF92DF92EF92FF9238
:1040E000CF93DF93EC01C0907C07D0907D07E090E8
:1040F0007E07F0907F07A7019601688179818A8108
:104100009B810E949BEC87FF04C0C882D982EA820F
:10411000FB82C0908007D0908107E0908207F090EA
:104120008307A70196016C817D818E819F810E940A
:104130009BEC87FF04C0CC82DD82EE82FF82C090C0
:104140008407D0908507E0908607F0908707A70145
:104150009601688579858A859B850E949BEC87FFFF
:1041600004C0C886D986EA86FB86C0903702D09004
:104170003802E0903902F0903A02A7019601688176
:1041800079818A819B810E949EEE181624F4C88250
:10419000D982EA82FB82C0903B02D0903C02E09040
:1041A0003D02F0903E02A70196016C817D818E81D7
:1041B0009F810E949EEE181624F4CC82DD82EE824E
:1041C000FF82C0903F02D0904002E0904102F09008
:1041D0004202A7019601688579858A859B850E94A0
:1041E0009EEE181624F4C886D986EA86FB86DF91EF
:1041F000CF91FF90EF90DF90CF900895CF92DF9214
:10420000EF92FF920F931F9381E497E065DF0E9486
:1042100011E560938C0570938D0580938E059093C6
:104220008F052091410730914207409143075091FB
:10423000440760919407709195078091960790913B
:1042400097070E949BEC811179C02091450730911E
:104250004607409147075091480760919807709131
:10426000990780919A0790919B070E949BEC81117E
:1042700065C020E030E040E752E460910F027091A9
:10428000100280911102909112020E94A2ECE4E6C9
:10429000CE2EE7E0DE2E7B018C012DE437E049E4F1
:1042A00057E065E477E081E497E00E94F86D809143
:1042B000410790914207A0914307B0914407809332
:1042C000940790939507A0939607B09397078091D2
:1042D000450790914607A0914707B0914807809302
:1042E000980790939907A0939A07B0939B078091A2
:1042F000490790914A07A0914B07B0914C078093D2
:104300009C0790939D07A0939E07B0939F07809171
:104310004D0790914E07A0914F07B09150078093A1
:10432000A0079093A107A093A207B093A3071F91A2
:104330000F91FF90EF90DF90CF9008956091510220
:1043400070915202882777FD8095982F0E943DED4D
:1043500020910F02309110024091110250911202EF
:104360000E9470EF20E030E040E752E40E94A2ECAF
:1043700020E030E048EC52E488CFCF92DF92EF9219
:10438000FF92CF93C62FE0916407F0E0882309F4F1
:10439000C2C0DF01A15AB84F8C91811196C18091A2
:1043A000940790919507A0919607B09197078093F5
:1043B000410790934207A0934307B093440780912D
:1043C000980790919907A0919A07B0919B078093C5
:1043D000450790934607A0934707B09348078091FD
:1043E0009C0790919D07A0919E07B0919F07809395
:1043F000490790934A07A0934B07B0934C07C0908E
:10440000A007D090A107E090A207F090A307C09268
:104410004D07D0924E07E0924F07F0925007EE0FF3
:10442000FF1FEE0FFF1FED5BFD4F208131814281A9
:104430005381662349F060911D0270911E028091A4
:104440001F029091200208C0609121027091220207
:1044500080912302909124020E94A2EC9B01AC0166
:10446000C701B6010E94C2EB6093A0077093A10739
:104470008093A2079093A30780EA97E00E94587860
:10448000C0900F02D0901002E0901102F090120242
:1044900020E030E040E752E46091190270911A0286
:1044A00080911B0290911C020E9470EF60930F029A
:1044B000709310028093110290931202E0916407AE
:1044C000F0E0E15AF84F81E0808398DE20915907AF
:1044D00030915A0740915B0750915C0760919C07AF
:1044E00070919D0780919E0790919F070E94C1EB5C
:1044F00060939C0770939D0780939E0790939F07FE
:1045000020EA37E04CE957E068E977E084E997E092
:104510000E94B377D1C0E15AF84F8081882309F413
:10452000D4C08091940790919507A0919607B0917F
:1045300097078093410790934207A0934307B09356
:1045400044078091980790919907A0919A07B0919C
:104550009B078093450790934607A0934707B09326
:10456000480760919C0770919D0780919E079091EC
:104570009F076093490770934A0780934B07909376
:104580004C07C090A007D090A107E090A207F09040
:10459000A307C0924D07D0924E07E0924F07F092CA
:1045A00050072091590730915A0740915B0750916D
:1045B0005C070E94C2EB60939C0770939D078093F9
:1045C0009E0790939F0720EA37E04CE957E068E99F
:1045D00077E084E997E00E94B377F0906407CC23FA
:1045E00089F0209151073091520740915307509123
:1045F000540760911D0270911E0280911F029091DC
:10460000200210C02091550730915607409157075E
:1046100050915807609121027091220280912302EB
:10462000909124020E94C2EB24E0F29EF00111243A
:10463000ED5BFD4F20813181428153810E94A2ECCC
:104640009B01AC016091A0077091A1078091A20726
:104650009091A3070E94C1EB6093A0077093A107FC
:104660008093A2079093A30780EA97E00E9458786E
:10467000C0900F02D0901002E0901102F090120250
:1046800020E030E040E752E460911502709116029C
:1046900080911702909118020E9470EF60930F02B0
:1046A000709310028093110290931202E0916407BC
:1046B000F0E0E15AF84F1082A1DDC0920F02D092D3
:1046C0001002E0921102F0921202CF91FF90EF904F
:1046D000DF90CF900895AF92BF92CF92DF92EF928A
:1046E000FF920F931F93CF93DF93D82F2091390719
:1046F00030913A0740913B0750913C076091350754
:104700007091360780913707909138070E94ABEE81
:10471000C62F172F082FF92E609151027091520267
:10472000882777FD8095982F0E943DED20910F02FC
:104730003091100240911102509112020E9470EFCC
:1047400020E030E040E752E40E94A2EC20E030E0BC
:1047500048EC52E40E94A2EC209164072F93DF936F
:10476000FF920F931F93CF935B016C01B2E0EB2E8E
:1047700001E020E045E357E061E477E084E997E079
:104780000E946E658091410790914207A091430776
:10479000B09144078093940790939507A093960750
:1047A000B09397078091450790914607A0914707DE
:1047B000B09148078093980790939907A0939A0720
:1047C000B0939B078091490790914A07A0914B07AE
:1047D000B0914C0780939C0790939D07A0939E07F0
:1047E000B0939F0780914D0790914E07A0914F077E
:1047F000B09150078093A0079093A107A093A207C0
:10480000B093A3070E9411E560938C0570938D050A
:1048100080938E0590938F050F900F900F900F90BF
:104820000F900F90DF91CF911F910F91FF90EF901C
:10483000DF90CF90BF90AF900895F8940E941D88AC
:10484000159A10927907179A10927A07429A109245
:104850007B07A09A9FB7F89480910B0182608093A8
:104860000B019FBFE3E6F9E08491882341F090912A
:10487000C00095FFFCCF8093C6003196F5CFEDE2E6
:10488000F4E08491882341F09091C00095FFFCCF23
:104890008093C6003196F5CF8091C00085FFFCCF94
:1048A0008AE08093C60084E294E00E9475AC2FD920
:1048B000FFCF2F923F924F925F926F927F928F9293
:1048C0009F92AF92BF92CF92DF92EF92FF920F939F
:1048D0001F93CF93DF93CDB7DEB76E970FB6F894E3
:1048E000DEBF0FBECDBF30E6932E04E010E045EFF3
:1048F000E42E46E0F42E5AE0852E6BE6C62E67E0E5
:10490000D62E772473948091750590917605209129
:10491000770530917805821B930B8F779927892B28
:1049200039F0809196059091970504970CF44CC04E
:104930008091AC07882309F493C3809193059091EB
:104940009405892B09F08CC38091AD07811188C330
:104950008091960590919705892B11F41092790515
:1049600098EE292E93E0392E412C512C2CE3C22EA7
:10497000D12CE12CF12C8E010F5F1F4F80E6682EA9
:10498000772473944091320A5091330A6091340A2B
:104990007091350A80912A0A90912B0AA0912C0AD5
:1049A000B0912D0A481759076A077B0708F058C3CA
:1049B000809196059091970504970CF051C38091D2
:1049C000790581114DC32DC284EF94E00E94E71850
:1049D0008093950520919305309194058A3061F07C
:1049E0008D3051F08A3321F490919205992321F072
:1049F0002F3531050CF437C12115310509F451C1AA
:104A00008091980590919905989E5001999EB00CBF
:104A10001124F501E20FF31FE056FA4F10822091A6
:104A2000920521111BC1FC01E456FA4F1082950139
:104A300020563A4F19016EE470E0C9010E9434F526
:104A40000097E9F19093910580939005821993095D
:104A50008A0D9B1D4AE050E060E070E08F559A4F50
:104A60000E946EF36093290770932A0780932B07A7
:104A700090932C0720912507309126074091270716
:104A8000509128072F5F3F4F4F4F5F4FA0909805E1
:104A9000B0909905621773078407950709F404C15C
:104AA0009A9CC0019B9C900D112464E178E0805693
:104AB0009A4F0E94E6F4892B09F0F6C085C16AE29C
:104AC00070E0C1010E9434F5892B09F444C0E3E68B
:104AD000F9E08491882341F09091C00095FFFCCFCC
:104AE0008093C6003196F5CFEEE6F7E084918823F7
:104AF00041F09091C00095FFFCCF8093C6003196A5
:104B0000F5CF4091250750912607609127077091B6
:104B100028072AE030E084EF94E00E94A2198091F7
:104B2000C00085FFFCCF8AE08093C60010929405F8
:104B30001092930595C28091290790912A07A09120
:104B40002B07B0912C078093250790932607A093FD
:104B50002707B09328078091980590919905989E12
:104B60005001999EB00C1124C50180569A4F1C012A
:104B700067E470E00E9434F5009709F44BC090930D
:104B8000910580939005821993098A0D9B1D60E021
:104B900070E08F559A4F0E9406F20E940AED643031
:104BA000710508F037C080917E0581111AC080918F
:104BB000AA0781112FC0F6018491EBE6F7E0882364
:104BC00049F09091C00095FFFCCF8093C6003196CC
:104BD0008491F5CF8091C00085FFFCCF8092C60004
:104BE00019C0F7018491E5EFF6E0882349F0909130
:104BF000C00095FFFCCF8093C60031968491F5CF1D
:104C00008091C00085FFFCCF8092C6008BEE96E0BD
:104C10000E945CABA0909805B09099059A9CC00149
:104C20009B9C900D11246DE173E080569A4F0E9479
:104C30003FF5892B09F401DEC5010196B8010E94F8
:104C400065F09093990580939805809196059091D1
:104C50009705019690939705809396051092940579
:104C60001092930550CE8B3311F47092920590916F
:104C70009205911148CE4091980550919905B9013E
:104C80006F5F7F4F7093940560939305949EF0013E
:104C9000959EF00D1124E20FF31FE056FA4F80832A
:104CA00032CE10929205DCC19A9C10019B9C300C74
:104CB0001124C10180569A4F5C016AE270E00E94A3
:104CC00034F5009789F5E3E6F9E08491882341F013
:104CD0009091C00095FFFCCF8093C6003196F5CF30
:104CE000E8E9F7E08491882341F09091C00095FFB6
:104CF000FCCF8093C6003196F5CF409125075091A7
:104D0000260760912707709128072AE030E084EF9A
:104D100094E00E94A2198091C00085FFFCCF8AE038
:104D20008093C60003D902CF20E0612CF101E20F8D
:104D3000F11DE056FA4F30813A3219F02F5F6326A9
:104D4000F5CF90939105809390058A199B09820D68
:104D5000931D60E070E08F559A4F0E9406F20E940A
:104D60000AED262D30E02617370709F4E4CEE3E6F6
:104D7000F9E08491882341F09091C00095FFFCCF29
:104D80008093C6003196F5CFE2ECF7E0849188235A
:104D900041F09091C00095FFFCCF8093C600319602
:104DA000F5CF409125075091260760912707709114
:104DB00028072AE030E084EF94E00E94A219809155
:104DC000C00085FFFCCFABCFE3E6F9E084918823F8
:104DD00041F09091C00095FFFCCF8093C6003196C2
:104DE000F5CFE1EEF7E08491882341F09091C00087
:104DF00095FFFCCF8093C6003196F5CF40912507F3
:104E00005091260760912707709128072AE030E02B
:104E100084EF94E00E94A2198091C00085FFFCCF2E
:104E20007ECF8091850990918609A0918709B091E4
:104E300088098093320A9093330AA093340AB0937E
:104E4000350A8DE799E00E94EE49482F8093950539
:104E50008A30B9F04D30A9F0433229F420919205FF
:104E6000211103C00EC04A33C9F32091930530913C
:104E700094052F3531052CF48F3FFFEF9F0709F084
:104E8000D1C04091320A5091330A6091340A709136
:104E9000350A80912A0A90912B0AA0912C0AB09190
:104EA0002D0A481759076A077B0708F481C0E8ED07
:104EB000F6E08491882341F09091C00095FFFCCFEB
:104EC0008093C6003196F5CF8091C00085FFFCCF5E
:104ED000FAE0F093C6000E9411E56093800570939C
:104EE000810580938205909383058090840590903E
:104EF0008505A0908605B0908705681979098A090B
:104F00009B09A20191010E9478F049015A01CA014E
:104F1000B901A70196010E9478F0CA01B901A70161
:104F200096010E9478F07F936F93C501B40120E150
:104F30003EE040E050E00E9478F03F932F93A4ECD5
:104F4000B6E0BF93AF931F930F930E946CF5EDE50E
:104F5000F9E084910FB6F894DEBF0FBECDBF882371
:104F600049F09091C00095FFFCCF8093C600319628
:104F70008491F5CFF8018191882339F09091C00098
:104F800095FFFCCF8093C600F6CF8091C00085FFCF
:104F9000FCCF3AE03093C600C8010E945BA78AEAC2
:104FA00097E00E94CE6461E08AEA97E00E94AC61DB
:104FB00080919505833211F47092790520919305C3
:104FC000309194052115310509F46BCE8091980537
:104FD00090919905689EF001699EF00D1124E20FF1
:104FE000F31FE056FA4F1082FC01E456FA4F70822C
:104FF00020919605309197052F5F3F4F309397058D
:1050000020939605019664E070E00E9465F090930D
:10501000990580939805109292051092940510922C
:105020009305B0CC4B3311F47092920540919205E8
:105030004111A4CC4091980550919905B9016F5F39
:105040007F4F7093940560939305649EF001659E75
:10505000F00D1124E20FF31FE056FA4F808392CC3B
:105060006E960FB6F894DEBF0FBECDBFDF91CF9125
:105070001F910F91FF90EF90DF90CF90BF90AF9076
:105080009F908F907F906F905F904F903F902F9068
:105090000895CF92DF92EF92FF920F931F9380912A
:1050A00096059091970503970CF403DC0E9411E597
:1050B000009188051091890520918A0530918B0512
:1050C000C0908C05D0908D05E0908E05F0908F05F6
:1050D0006C197D098E099F090617170728073907DC
:1050E00028F4012B022B032B09F0A7DB80910B0284
:1050F00090910C02A0910D02B0910E02892B8A2B87
:105100008B2B89F10E9411E500918C0510918D0582
:1051100020918E0530918F05601B710B820B930BD4
:1051200000910B0210910C0220910D0230910E02A1
:105130000617170728073907B0F49091C30C809120
:10514000C20C981310C08091AD078823A1F0159868
:1051500017984298A09A9FB7F89480910B018260AB
:1051600080930B019FBF1F910F91FF90EF90DF90F5
:10517000CF900C94A06D159A10927907179A1092FF
:105180007A07429A10927B07E5CF0E941D88809192
:105190007E05811138C081E080937E0580912507CE
:1051A00090912607A0912707B091280780932107A7
:1051B00090932207A0932307B0932407E3E6F9E036
:1051C0008491882341F09091C00095FFFCCF80939B
:1051D000C6003196F5CFEEEAF3E08491882341F0E2
:1051E0009091C00095FFFCCF8093C6003196F5CF1B
:1051F0008091C00085FFFCCF8AE08093C60084EADE
:1052000093E00C945CAB089580917E050895CF9354
:10521000DF93EC018091640780937F0584E50E9411
:10522000471F811102C080E075C00E94331F0E9499
:105230000FED60937F056230B0F3EDE5F9E0849106
:10524000882341F09091C00095FFFCCF8093C60069
:105250003196F5CFCD36D105B9F054F4C836D10525
:10526000B1F0C936D10509F045C0E7E6F3E021C049
:10527000CA3DD10531F0CD3DD105E1F5E2E2F3E0E3
:1052800036C0E9E3F3E029C0E0E5F3E01CC0EEE757
:10529000F3E08191882371F19091C00095FFFCCFDC
:1052A0008093C600F6CF9091C00095FFFCCF80930D
:1052B000C60081918111F7CF1DC09091C00095FF6C
:1052C000FCCF8093C60081918111F7CF13C09091DC
:1052D000C00095FFFCCF8093C60081918111F7CF6C
:1052E00009C09091C00095FFFCCF8093C6008191CA
:1052F0008111F7CF40E050E060917F0584EF94E0AA
:105300000E94FC198091C00085FFFCCF8AE0809349
:10531000C60081E0DF91CF9108953F924F925F9256
:105320006F927F928F929F92AF92BF92CF92DF92B5
:10533000EF92FF920F931F93CF93DF93CDB7DEB71A
:10534000E4970FB6F894DEBF0FBECDBF87E40E948E
:10535000471F882309F46BC20E94331F0E940AED85
:105360006A30710509F4ACC09CF46230710509F42F
:105370004CC024F477FF25C00C945C426330710567
:1053800009F44CC06430710509F453C00C945C42BC
:105390006A35710509F4F7C154F46B30710509F4ED
:1053A000B2C06C31710509F4B9C00C945C426B3524
:1053B000710509F4ECC16C35710509F4EDC10C946B
:1053C0005C4280917E0581110C945C420E94BF1F5B
:1053D000809161078823A9F088E50E94471F811109
:1053E00010C089E50E94471F81110BC08AE50E9409
:1053F000471F811106C085E40E94471F81110C944C
:105400005F420E94FE200C94204480917E05811111
:105410000C945C420E943E2081E008C080917E0591
:1054200081110C945C420E943E2080E054D90C947F
:1054300020448BEB96E00E945CAB80E50E94471F06
:10544000882339F00E94331F0E940FED4B015C014D
:1054500003C0812C912C540183E50E94471F8823AF
:1054600061F00E94331F20E030E04AE754E40E94DC
:1054700070EF0E940FED4B015C010E9454810E946D
:1054800011E56B017C01C80CD91CEA1CFB1C0E94B5
:1054900011E560938C0570938D0580938E05909334
:1054A0008F050E9411E56C157D058E059F0510F096
:1054B0000C945C420E941584ECDD0E94D8ADF1CFC3
:1054C0000091640710E083E50E94471F882359F08C
:1054D0000E943C1F21E0613071058105910509F0B2
:1054E00020E0822F01C080E0F801E35AF84F80836A
:1054F000E0916407F0E0E35AF84F608181E00E9498
:10550000BD210C945C42E0916407F0E0E35AF84F4F
:10551000608180E00E94BD210C945C4280910F026A
:1055200090911002A0911102B091120280932D0768
:1055300090932E07A0932F07B093300780915102CC
:10554000909152029093A5078093A40784E690E07F
:1055500090935202809351020E9411E560938C0552
:1055600070938D0580938E0590938F0581E00E9446
:105570006F798091940790919507A0919607B091CB
:1055800097078093410790934207A0934307B093F6
:1055900044078091980790919907A0919A07B0913C
:1055A0009B078093450790934607A0934707B093C6
:1055B000480780919C0790919D07A0919E07B0910C
:1055C0009F078093490790934A07A0934B07B09396
:1055D0004C078091A0079091A107A091A207B091DC
:1055E000A30780934D0790934E07A0934F07B09366
:1055F000500710920F021092100210921102109296
:10560000120288E50E94471F882311F090E00AC02B
:1056100089E50E94471F8111F9CF8AE50E94471F43
:1056200091E098279093130291110C948E4288E593
:105630000E94471F81110C948E42809113028111A8
:105640000C94944289E50E94471F81110C94944266
:1056500088E50E94471F8823D1F00E943C1F672BDA
:10566000682B692BA1F00E94331F2091880730918D
:10567000890740918A0750918B070E94C2EB609383
:10568000940770939507809396079093970789E501
:105690000E94471F8823D1F00E943C1F672B682B74
:1056A000692BA1F00E94331F20918C0730918D0748
:1056B00040918E0750918F070E94C2EB609398072C
:1056C0007093990780939A0790939B078091130298
:1056D00081110C949A428AE50E94471F81110C9413
:1056E0009A428AE50E94471F8823D1F00E943C1FFE
:1056F000672B682B692BA1F00E94331F2091900724
:105700003091910740919207509193070E94C2EB0C
:1057100060939C0770939D0780939E0790939F07CB
:1057200020EA37E04CE957E068E977E084E997E060
:105730000E94B37780E00E946F7980912D0790914D
:105740002E07A0912F07B091300780930F029093FE
:105750001002A0931102B09312028091A4079091BD
:10576000A50790935202809351020E9411E5609325
:105770008C0570938D0580938E0590938F050E9404
:1057800068790C945C42109220070C945C4281E092
:10579000809320070C945C4285E40E94471F81118E
:1057A00002C00E94548106E6C02E04E0D02E88E894
:1057B000E82E87E0F82E04E917E0B12CF60181917C
:1057C0006F010E94471F882339F1F3E0BF120CC01C
:1057D0000E94331FF801608371838283938380EA80
:1057E00097E00E94587818C00E94331FF70120816B
:1057F0003181428153810E94C2EBF8016083718341
:105800008283938320EA37E04CE957E068E977E048
:1058100084E997E00E94B377B394F4E0EF0EF11CB3
:105820000C5F1F4F24E0B212C9CF0C945C428DE490
:105830000E94471F882311F40C940B410E94331FD0
:105840000E940AED6737710509F4A1C10CF0D1C0BF
:105850006032710509F4D8C20CF05FC06731710580
:1058600009F42AC29CF56231710511F40C94693473
:10587000FCF477FF02C00C945C42623071050CF4BA
:105880008AC16131710511F00C945C4282E996E0A5
:105890000E945CAB159817984298A0989FB7F8940F
:1058A00080910B018D7F80930B019FBF0C945C4214
:1058B0006531710509F4F4C10CF0F8C1643171056A
:1058C00011F00C945C42E2E8F6E0C6C16B31710560
:1058D00009F41FC2B4F46931710509F406C20CF071
:1058E0000AC28AEA97E00E94FF5F0E9411E5609376
:1058F00084057093850580938605909387050C94A5
:105900005C426E31710509F440C20CF01BC36C316E
:10591000710509F404C20C945C426836710509F4FF
:10592000FAC374F56335710509F4CEC764F46135C3
:10593000710509F494C70CF0C3C76A32710509F404
:105940009CC30C945C426535710511F40C94A93428
:105950000CF4BFC76C35710511F00C945C4226E65F
:1059600034E038AB2FA705EF11E125E0822E22E1CC
:10597000922E39EBA32E31E1B32E312C0C94253528
:105980006D36710509F441C5DCF46A36710509F418
:1059900022C70CF40FC46B36710511F00C945C42F5
:1059A0001A8219821092CD121092CC12CE01019659
:1059B0000E94FC8E90936307809362070C945C4274
:1059C0006237710511F40C945B353CF46037710556
:1059D00011F00C945C420E941D246337710511F490
:1059E0000C9437356537710511F40C9446350C94D9
:1059F0005C426D3D710511F40C94FF390CF04BC005
:105A00006C3C710511F40C94EB3724F56E3B710579
:105A100009F4C1C574F46937710511F40C9440366A
:105A200014F40C943B366C38710509F4A4C30C943F
:105A30005C42693C710511F40C94AD376B3C710507
:105A400011F40C94CE37683C710511F00C945C4253
:105A50000C943537603D710511F40C94C13854F441
:105A60006E3C710511F40C946D3814F40C940D38DF
:105A70000C948A386A3D710511F40C9451396C3DCF
:105A8000710511F40C94EE39613D710511F00C941F
:105A90005C420C94E938643F31E0730711F40C94D4
:105AA000613C64F56D3291E0790711F40C94553B3B
:105AB0009CF46831F1E07F0711F40C94873A6C3262
:105AC00021E0720711F40C941F3B623E710511F046
:105AD0000C945C420C94293A6F3231E0730711F454
