:100000000C94150F0C94420F0C94420F0C94420F59
:100010000C94420F0C94420F0C94420F0C94420F1C
:100020000C94420F0C94420F0C94420F0C94420F0C
:100030000C94420F0C94B8E60C94420F0C94420FAF
:100040000C94420F0C940C820C94420F0C94420FAF
:100050000C94420F0C94420F0C94AC8B0C9405E35F
:100060000C94420F0C9467270C94420F0C94420F8F
:100070000C94420F0C94420F0C94420F0C94420FBC
:100080000C94A3800C94420F0C94420F0C94420FDA
:100090000C94420F0C94420F0C94420F0C948CDF82
:1000A0000C94420F0C94420F0C9476800C94420FE7
:1000B0000C94420F0C94420F0C94420F0C94498004
:1000C0000C94420F0C94420F0C94420F0C94420F6C
:1000D0000C94420F0C94420F0C94420F0C94420F5C
:1000E0000C94420F084AD73B3BCE016E84BCBFFD47
:1000F000C12F3D6C74319ABD56833DDA3D00C77FF8
:1001000011BED9E4BB4C3E916BAAAABE0000008090
:100110003F05A84CCDB2D44EB93836A9020C50B91F
:10012000918688083CA6AAAA2ABE000000803F4DFE
:10013000383420582059205A2045006563686F3AAA
:100140000043616E6E6F7420656E74657220737506
:10015000626469723A20004D3234004D32332025FA
:1001600073006175746F25692E67004572726F7236
:100170003A006572726F722077726974696E6720D7
:10018000746F2066696C65004E6F74205344207054
:1001900072696E74696E67002F0053442070726933
:1001A0006E74696E67206279746520002E00446564
:1001B0006C6574696F6E206661696C65642C20469D
:1001C000696C653A200046696C652064656C6574ED
:1001D00065643A002E006F70656E206661696C651B
:1001E000642C2046696C653A200057726974696E08
:1001F0006720746F2066696C653A20002E006F706E
:10020000656E206661696C65642C2046696C653A90
:1002100020002E006F70656E206661696C65642C2D
:100220002046696C653A200046696C652073656CF0
:100230006563746564002053697A653A20004669F5
:100240006C65206F70656E65643A20002E006F70DB
:10025000656E206661696C65642C2046696C653A40
:1002600020004E6F772066726573682066696C6542
:100270003A20004E6F7720646F696E672066696C64
:10028000653A20002220706F730022207061726531
:100290006E743A2200535542524F5554494E4520F0
:1002A00043414C4C207461726765743A2200747249
:1002B00079696E6720746F2063616C6C207375625E
:1002C0002D67636F64652066696C65732077697458
:1002D0006820746F6F206D616E79206C6576656C37
:1002E000732E204D4158206C6576656C2069733AF9
:1002F0000053442063617264206F6B006F70656E01
:10030000526F6F74206661696C656400766F6C75FE
:100310006D652E696E6974206661696C6564005351
:100320004420696E6974206661696C006563686F5A
:100330003A0048617264636F646564204465666175
:10034000756C742053657474696E6773204C6F61AB
:10035000646564002044002049002020204D333093
:10036000312050005049442073657474696E67737E
:100370003A00205A0020590020204D3230362058B3
:1003800000486F6D65206F666673657420286D6D1B
:10039000293A00204500205A002058002042002021
:1003A000540020204D323035205300416476616E78
:1003B000636564207661726961626C65733A20538B
:1003C0003D4D696E20666565647261746520286DB7
:1003D0006D2F73292C20543D4D696E207472617607
:1003E000656C20666565647261746520286D6D2F8B
:1003F00073292C20423D6D696E696D756D207365A2
:10040000676D656E742074696D6520286D73292C85
:1004100020583D6D6178696D756D205859206A6569
:10042000726B20286D6D2F73292C20205A3D6D6131
:1004300078696D756D205A206A65726B20286D6D24
:100440002F73292C2020453D6D6178696D756D20D5
:1004500045206A65726B20286D6D2F73290020542A
:100460000020204D323034205300416363656C65B9
:10047000726174696F6E3A20533D616363656C65A8
:10048000726174696F6E2C20543D72657472616381
:100490007420616363656C65726174696F6E0020BE
:1004A0004500205A0020590020204D32303120587C
:1004B000004D6178696D756D20416363656C65728F
:1004C0006174696F6E20286D6D2F7332293A002098
:1004D0004500205A0020590020204D32303320584A
:1004E000004D6178696D756D206665656472617433
:1004F000657320286D6D2F73293A00204500205A1E
:100500000020590020204D39322058005374657066
:10051000732070657220756E69743A006563686F48
:100520003A004572726F723A0053544F505045442E
:100530002E20005072696E7465722073746F707033
:1005400065642064756520746F206572726F7273C4
:100550002E2046697820746865206572726F72205B
:10056000616E6420757365204D39393920746F20B0
:10057000726573746172742E202854656D70657293
:1005800061747572652069732072657365742E20BD
:100590005365742069742061667465722072657396
:1005A00074617274696E6729004B494C4C45442E46
:1005B00020005072696E7465722068616C746564A5
:1005C0002E206B696C6C28292063616C6C6564213A
:1005D000006F6B00526573656E643A20002200550F
:1005E0006E6B6E6F776E20636F6D6D616E643A2017
:1005F00022004368616E67652066696C616D656E97
:1006000074005A204F6666736574203A20007A5F42
:100610006D61783A20007A5F6D696E3A20005A2049
:100620004F6666736574005A204F66667365742062
:100630006F6B00486F74656E64206F6666736574D7
:10064000733A002200556E6B6E6F776E20636F6D8C
:100650006D616E643A2022007A5F6D61783A200005
:100660007A5F6D696E3A2000795F6D61783A20009B
:10067000795F6D696E3A2000785F6D61783A20008D
:10068000785F6D696E3A2000205A3A0020593A008E
:1006900020436F756E7420583A200020453A0020A0
:1006A0005A3A0020593A00583A004649524D5741AB
:1006B00052455F4E414D453A4D61726C696E205610
:1006C000313B20537072696E7465722F6772626C71
:1006D000206D617368757020666F722067656E3675
:1006E000204649524D574152455F55524C3A687425
:1006F00074703A2F2F6669726D776172652E756C12
:1007000074696D616B65722E636F6D2050524F542A
:100710004F434F4C5F56455253494F4E3A312E305E
:10072000204D414348494E455F545950453A556C18
:1007300074696D616B657220455854525544455239
:100740005F434F554E543A3220555549443A303064
:100750003030303030302D303030302D303030309F
:100760002D303030302D303030303030303030308F
:1007700030300A00556C74696D616B6572204F668C
:10078000662E00556C74696D616B657220726561CF
:1007900064792E0042656420646F6E652E002042ED
:1007A0003A0020453A00543A0042656420486561A9
:1007B00074696E672E0048656174696E6720646FA6
:1007C0006E652E0020573A0020453A00543A004802
:1007D000656174696E672E2E2E002042403A00201B
:1007E000403A00202F003A00205400202F002042E1
:1007F0003A00202F006F6B20543A002569206D6964
:100800006E2C2025692073656300456E642066693F
:100810006C65206C69737400426567696E20666957
:100820006C65206C697374004E6F206D6F76652E59
:1008300000526573756D696E67207072696E740021
:100840005761697420666F7220757365722E2E2E43
:1008500000536C6565702E2E2E00FFFFFF00004DCB
:100860004300004D43000048430000A0400000A0AA
:1008700040000000400000000000000000000000F8
:100880000000000000000000000000000000004D1B
:100890004300004D4300004843256920686F75728E
:1008A00073202569206D696E7574657300446F6EE1
:1008B00065207072696E74696E672066696C650088
:1008C00053544F505045442E20005072696E746549
:1008D000722073746F707065642064756520746F26
:1008E000206572726F72732E204669782074686575
:1008F000206572726F7220616E6420757365204D81
:1009000039393920746F20726573746172742E20C6
:100910002854656D70657261747572652069732005
:1009200072657365742E2053657420697420616646
:100930007465722072657374617274696E672900E0
:100940006F6B004E6F204C696E65204E756D626551
:1009500072207769746820636865636B73756D2CAA
:10096000204C617374204C696E653A20004E6F20F4
:10097000436865636B73756D2077697468206C6973
:100980006E65206E756D6265722C204C61737420EB
:100990004C696E653A2000636865636B73756D2002
:1009A0006D69736D617463682C204C617374204CA5
:1009B000696E653A20004C696E65204E756D626502
:1009C00072206973206E6F74204C617374204C69BF
:1009D0006E65204E756D6265722B312C204C6173F3
:1009E00074204C696E653A20004D31313000446FFF
:1009F0006E6520736176696E672066696C652E008E
:100A00006F6B004D3239002020506C616E6E657244
:100A100042756666657242797465733A20002046B5
:100A2000726565204D656D6F72793A20004665628A
:100A3000203231203230313600436F6D70696C6581
:100A4000643A2000434520636F6E66696700207C2E
:100A500020417574686F723A200046656220323119
:100A600020323031362032323A32343A30300020BF
:100A70004C61737420557064617465643A20003170
:100A80002E302E30004D61726C696E0020536F66FF
:100A900074776172652052657365740020576174C4
:100AA0006368646F67205265736574002042726FDB
:100AB000776E206F757420526573657400204578D9
:100AC0007465726E616C20526573657400506F7747
:100AD00065725570007374617274002200656E71E6
:100AE0007565696E672022002200656E7175656903
:100AF0006E672022006563686F3A0020746F6F2074
:100B00006C6F6E6720657874727573696F6E207094
:100B1000726576656E7465640020636F6C64206531
:100B20007874727573696F6E2070726576656E7415
:100B30006564007C3C3E5E2B3D3F2F5B5D3B2C2A79
:100B4000225C0045303A20005A3A2000593A2000F1
:100B5000583A20004D53312C4D53322050696E735A
:100B60000A0024F404D9201BC40C5C0E9804C409A8
:100B70005F0265077101F405F900FB04B300480446
:100B80008700C10369005803550003034500BE02F6
:100B90003A008402310053022A002902250004028F
:100BA0002000E4011C00C8011900AF0117009801E2
:100BB0001400840113007101100061011000510143
:100BC0000E0043010D0036010B002B010B0020012C
:100BD0000B00150109000C01090003010800FB00CE
:100BE0000800F3000800EB000700E4000600DE0048
:100BF0000600D8000600D2000600CC000500C700A1
:100C00000500C2000500BD000400B9000400B500E5
:100C10000400B1000400AD000400A9000400A50018
:100C20000300A20003009F0004009B000300980043
:100C300003009500020093000300900003008D0064
:100C400002008B000300880002008600020084007E
:100C50000300810002007F0002007D0002007B0093
:100C600002007900020077000100760002007400A3
:100C7000020072000100710002006F0002006D00AE
:100C800001006C0002006A000100690002006700B8
:100C900001006600010065000100640002006200BE
:100CA000010061000100600001005F0002005D00C2
:100CB00001005C0001005B0001005A0001005900C6
:100CC00001005800010057000100560001005500C6
:100CD00001005400010053000000530001005200C5
:100CE000010051000100500001004F0001004E00C2
:100CF00000004E0001004D0001004C0001004B00BF
:100D000000004B0001004A000100490001004800BA
:100D100000004800010047000100460000004600B6
:100D200001004500000045000100440001004300AF
:100D300000004300010042000000420001004100A9
:100D4000000041000100400001003F0000003F00A2
:100D500001003E0000003E0001003D0000003D009B
:100D600001003C0000003C0000003C0001003B0092
:100D700000003B0001003A0000003A000100390089
:100D80000000390001003800000038000000380081
:100D90000100370000003700010036000000360077
:100DA000000036000100350000003500000035006D
:100DB0000100340000003400000034000100330062
:100DC0000000330000003300010032000000320058
:100DD000000032000100310000003100000031004D
:100DE00001003000000030000000300001002F0042
:100DF00000002F0000002F0000002F0001002E0037
:100E000000002E0000002E0001002D0000002D002B
:100E100000002D0000002D0001002C0000002C001F
:100E200000002C0000002C0001002B0000002B0013
:100E300000002B0000002B0001002A0000002A0007
:100E400000002A0000002A000100290000002900FB
:100E500000002900000029000000290001002800EE
:100E600000002800000028000000280000002800E2
:100E700001002700000027000000270000002700D5
:100E800000002700010026000000260000002600C8
:100E900000002600000026000100250000002500BB
:100EA00000002500000025000000250000002500AE
:100EB00001002400000024000000240000002400A1
:100EC0000000240001002300000023000000230094
:100ED0000000230000002300000023000000230086
:100EE0000100220000002200000022000000220079
:100EF000000022000000220001002100000021006B
:100F0000000021000000210000002100000021005D
:100F1000000021000100200000002000000020004F
:100F20000000200000002000000020000000200041
:100F30000000200001001F0000001F0000001F0033
:100F400000001F0000001F0000001F0000001F0025
:100F500001001E0000001E0000001E0000001E0018
:100F6000000024F4D43050C38E20C2A24017828BDC
:100F70007011127A910D816CD90AA861E108C758E5
:100F80006607615143061E4B5D05C145A7041A4122
:100F90001104093D9803713931034036DB02653392
:100FA0009102D4305402802E1D02632CEE01752A6A
:100FB000C501B028A001102781018F2564012B24D1
:100FC0004B01E0223401AC211F018D200D01801F57
:100FD000FC00841EED00971DDF00B81CD200E61B4C
:100FE000C600201BBC00641AB200B219A8000A197E
:100FF000A0006A189900D117910040178B00B51610
:10100000840031167E00B31579003A157300C714B9
:101010006F0058146A00EE136600881363002513EE
:101020005E00C7125B006C12570015125400C1110C
:10103000510070114F0021114B00D61049008D1046
:1010400047004610440002104200C00F4000800FCD
:101050003E00420F3C00060F3B00CB0E3800930EC3
:1010600037005C0E3500270E3400F30D3200C10D41
:101070003100900D3000600D2E00320D2D00050D59
:101080002C00D90C2B00AE0C2900850C29005C0C1F
:101090002700350C27000E0C2600E80B2400C40B9B
:1010A0002400A00B23007D0B23005A0B2100390BD9
:1010B0002100180B2000F80A1F00D90A1E00BB0AE5
:1010C0001E009D0A1D00800A1D00630A1C00470ABD
:1010D0001B002C0A1B00110A1A00F7091A00DD096F
:1010E0001900C4091900AB091900920917007B09FE
:1010F0001800630917004C0916003609160020096C
:1011000016000A091500F5081500E0081400CC08BF
:101110001400B8081400A4081400900813007D08F7
:1011200012006B0813005808120046081200340819
:101130001100230811001208110001081100F00726
:101140001000E0071000D0071000C0071000B00723
:101150000F00A107100091070E0083070F0074070E
:101160000F0065070E0057070E0049070E003B07EA
:101170000D002E070E0020070D0013070D000607B7
:101180000D00F9060C00ED060D00E0060C00D4067B
:101190000C00C8060C00BC060C00B0060C00A4062F
:1011A0000B0099060C008D060B0082060B007706DB
:1011B0000B006C060B0061060A0057060B004C067C
:1011C0000A0042060A0038060A002E060A00240613
:1011D0000A001A060A001006090007060A00FD05A3
:1011E0000900F4050900EB050900E2050900D9052D
:1011F0000900D0050900C7050900BE050900B505AD
:101200000800AD050800A50509009C050800940527
:1012100008008C050800840508007C05080074059A
:1012200008006C050700650508005D050700560508
:1012300008004E050700470507004005080038056F
:101240000700310507002A050700230507001C05D4
:101250000600160507000F05070008050600020531
:101260000700FB040600F5040700EE040600E8048E
:101270000600E2040700DB040600D5040600CF04E4
:101280000600C9040600C3040600BD040600B70436
:101290000600B1040500AC040600A6040600A00484
:1012A00005009B04060095040500900406008A04CE
:1012B000050085040500800406007A040500750415
:1012C0000500700405006B04050066040500610458
:1012D00005005C04050057040500520405004D0498
:1012E000050048040500430405003E0404003A04D8
:1012F000050035040500300404002C040500270413
:101300000400230405001E0404001A04040016044B
:101310000500110404000D04040009040500040480
:10132000040000040400FC030400F8030400F403B8
:101330000400F0030400EC030400E8030400E403E9
:101340000400E0030400DC030400D8030400D40319
:101350000400D0030400CC030400C8030300C50349
:1013600003006563686F3A00656E6473746F707331
:10137000206869743A205A00205A3A00656E6473F6
:10138000746F7073206869743A20590020593A00CC
:10139000656E6473746F7073206869743A205800C6
:1013A00020583A00656E6473746F707320686974B6
:1013B0003A20004572726F723A004572723A204DBF
:1013C000415854454D50204245440054656D706568
:1013D0007261747572652068656174656420626508
:1013E00064207377697463686564206F66662E2075
:1013F0004D415854454D5020747269676765726558
:1014000064202121004572723A204D494E54454DC9
:1014100050003A204578747275646572207377695C
:101420007463686564206F66662E204D494E54458E
:101430004D502074726967676572656420210045AC
:1014400072723A204D415854454D50003A2045782B
:10145000747275646572207377697463686564205B
:101460006F66662E204D415854454D502074726968
:10147000676765726564202100202D20496E7661C2
:101480006C6964206578747275646572206E756D20
:1014900062657220210070012C0190012701B001CA
:1014A0002201C0011D01F0011801100213013002D8
:1014B0000E016002090190020401C002FF00000356
:1014C000FA004003F5008003F000D003EB00200495
:1014D000E6007004E100E004DC004005D700C00530
:1014E000D2004006CD00D006C8008007C3003008F7
:1014F000BE00F008B900C009B400B00AAF00B00BDC
:10150000AA00D00CA500000EA000500F9B00C01038
:1015100096005012910000148C00C0158700B0177F
:101520008200B0197D00D01B7800001E730040209F
:101530006E0090226900F024640040275F0090292B
:101540005A00E02B5500102E500020304B00103276
:101550004600E033410090353C00103737007038CA
:101560003200A0392D00B03A2800A03B2300603C97
:101570001E00103D1900903D1400103E0F00703EFB
:101580000A00C03E0500003F00005049442041755C
:10159000746F74756E652066696E69736865642121
:1015A0002050757420746865206C617374204B70D2
:1015B0002C204B6920616E64204B6420636F6E7336
:1015C00074616E74732066726F6D2061626F7665F0
:1015D00020696E746F20436F6E66696775726174FF
:1015E000696F6E2E6800504944204175746F7475A0
:1015F0006E65206661696C6564212074696D656F34
:1016000075740020403A006F6B20543A006F6B20D5
:10161000423A00504944204175746F74756E6520DC
:101620006661696C6564212054656D7065726174D2
:1016300075726520746F6F206869676800204B645D
:101640003A2000204B693A2000204B703A200020BD
:10165000436C6173736963205049442000205475C2
:101660003A2000204B753A2000206D61783A200026
:10167000206D696E3A200020643A20002062696182
:10168000733A20002D2D3A2D2D002D2D2D00534481
:10169000000120000120000120004E6F2053442053
:1016A00063617264005072696E742066726F6D209F
:1016B00053440053746F70207072696E74005265E9
:1016C00073756D65207072696E7400506175736515
:1016D000207072696E7400436F6E74726F6C00508C
:1016E0007265706172650054756E6500496E666F53
:1016F0002073637265656E00052E2E004D61696E64
:10170000004D3234004D3233202573004D383420E3
:10171000582059205A204500473238205830205947
:1017200030204635303030004D36303120583130A1
:1017300020593230205A30204C3330004D36303171
:101740002058313020593230205A32204C3330006A
:101750004D3630312058313020593230205A323015
:10176000204C333000526573746F72652066616976
:101770006C736166650052657472616374004D6FCD
:1017800074696F6E0054656D706572617475726511
:10179000004D61696E00556E5265742020560055EB
:1017A0006E526574202056005320556E5265742B7E
:1017B0006D6D005320556E5265742B6D6D00556E26
:1017C000526574202B6D6D00556E526574202B6D23
:1017D0006D00486F70206D6D00486F70206D6D005A
:1017E0005265747261637420205600526574726190
:1017F000637420205600537761702052652E6D6D02
:1018000000537761702052652E6D6D0052657472C1
:10181000616374206D6D0052657472616374206D34
:101820006D004F6666004F6E20004F6666004F6E7B
:1018300020004175746F526574722E00436F6E7490
:10184000726F6C004573746570732F6D6D00457316
:10185000746570732F6D6D005A73746570732F6D9E
:101860006D005A73746570732F6D6D0059737465D4
:1018700070732F6D6D005973746570732F6D6D00EB
:101880005873746570732F6D6D0058737465707341
:101890002F6D6D00412D7265747261637400412D6E
:1018A0007265747261637400416D617820650041F6
:1018B0006D6178206500416D6178207A00416D612D
:1018C00078207A00416D6178207900416D6178203F
:1018D0007900416D6178207800416D617820780051
:1018E0005654726176206D696E005654726176208E
:1018F0006D696E00566D696E00566D696E00566DAD
:101900006178206500566D6178206500566D6178BC
:10191000207A00566D6178207A00566D61782079C2
:1019200000566D6178207900566D617820780056F8
:101930006D617820780056652D6A65726B0056657A
:101940002D6A65726B00567A2D6A65726B00567A45
:101950002D6A65726B005678792D6A65726B005638
:1019600078792D6A65726B00416363656C00416331
:1019700063656C00436F6E74726F6C0050726568C3
:101980006561742041425320636F6E66005072653A
:101990006865617420504C4120636F6E6600504949
:1019A000442D43005049442D43005049442D4400E8
:1019B0005049442D44005049442D49005049442D7C
:1019C00049005049442D50005049442D50002002F8
:1019D0002046616374002002204661637400200287
:1019E000204D6178002002204D6178002002204DBA
:1019F000696E002002204D696E004F6666004F6ED2
:101A000020004F6666004F6E20004175746F74654C
:101A10006D700046616E2073706565640046616E8E
:101A20002073706565640042656400426564004E21
:101A30006F7A7A6C6532004E6F7A7A6C6532004E3E
:101A40006F7A7A6C65004E6F7A7A6C6500436F6EC0
:101A500074726F6C0042656400426564004E6F7A78
:101A60007A6C65004E6F7A7A6C650046616E207301
:101A7000706565640046616E20737065656400542E
:101A8000656D7065726174757265004265640042CF
:101A90006564004E6F7A7A6C65004E6F7A7A6C6579
:101AA0000046616E2073706565640046616E207348
:101AB000706565640054656D7065726174757265FA
:101AC000004D6F76652061786973004D38300053A2
:101AD000776974636820706F776572206F6E004D50
:101AE00038310053776974636820706F77657220AE
:101AF0006F666600436F6F6C646F776E005072653F
:101B00006865617420414253005072656865617474
:101B100020504C4100473238004175746F20686F87
:101B20006D65004D38340044697361626C652073E3
:101B300074657070657273004D61696E004D6F76EB
:101B40006520302E316D6D004D6F766520316D6DE5
:101B5000004D6F76652031306D6D0050726570619B
:101B60007265004578747275646572004D6F7665B4
:101B7000205A004D6F76652059004D6F76652058CC
:101B8000004D6F76652061786973004578747275D1
:101B9000646572005A0059005800507265686561AA
:101BA000742041425320426564005072656865614B
:101BB000742041425320416C6C005072656865612D
:101BC0007420414253203200507265686561742070
:101BD000414253203100507265706172650050724D
:101BE000656865617420504C412042656400507204
:101BF000656865617420504C4120416C6C005072E6
:101C0000656865617420504C4120320050726568EF
:101C100065617420504C41203100507265706172D2
:101C200065004D363030004368616E676520666937
:101C30006C616D656E7400466C6F77203100466C88
:101C40006F77203100466C6F77203000466C6F77DD
:101C5000203000466C6F7700466C6F770046616EEF
:101C60002073706565640046616E207370656564FD
:101C70000042656400426564004E6F7A7A6C65329A
:101C8000004E6F7A7A6C6532004E6F7A7A6C65001E
:101C90004E6F7A7A6C6500537065656400537065A9
:101CA0006564004D61696E00436172642072656D08
:101CB0006F766564004361726420696E7365727447
:101CC00065640000002100240027002A002D003058
:101CD00000330001010000040107010A0100002295
:101CE00000250028002B002E0031003400020100E6
:101CF00000050108010B0100002000230026002937
:101D0000002C002F00320000010000030106010931
:101D10000105050505070508080808020202020A70
:101D20000A0808040404040101010101010101037E
:101D300003030303030303040707070C0C0C0C0C39
:101D40000C0C0C0202020206060606060606060B2C
:101D50000B0B0B0B0B0B0B010210202008081020A3
:101D60004010204080020102010804020101020427
:101D700008102040808040201008040201800402E6
:101D8000018040201008040201080402010102043D
:101D90000810204080010204081020408000000943
:101DA0000A02080B0C0D07060304010000000000E6
:101DB0000000000000000000000000000000000023
:101DC00000000000000000000011100F00000000E3
:101DD0000000000000000000000000000000000003
:101DE00000000002494E46494E4954594E414ECDDD
:101DF000CCCC3D0AD7233C17B7D13877CC2B3295C2
:101E000095E6241FB14F0A000020410000C842009F
:101E1000401C4620BCBE4CCA1B0E5AAEC59D740069
:101E2000FB27AC2A7A9EFBDEA72A11241FBECFEF28
:101E3000D1E2DEBFCDBF00E00CBF15E0A0E0B2E014
:101E4000E6E8FFED01E00BBF02C007900D92A43061
:101E5000B107D9F71BBE14E1A4E0B5E001C01D92A3
:101E6000A634B107E1F71EE1C8E2DEE104C0229723
:101E7000FE010E9469EFC032D107C9F70E9412E645
:101E80000C94B7EF0C940000A0E0B0E0EAE4FFE0AF
:101E90000C9486EFEC015B016115710519F0FB01F3
:101EA00091838083F9908F2D90E00E946DEF892BB4
:101EB000C9F7FDE2FF1621F4F990EE24E39405C082
:101EC0002BE2F21609F4F990EE248E010150104035
:101ED000C80164EE7DE143E050E072D2892BF9F451
:101EE0008E010E5F1F4FC80167EE7DE145E050E0B7
:101EF00067D2892B19F48E01095F1F4FA114B10419
:101F000019F0F50111830083E0FC04C070E090E05B
:101F100080E813C070E090E080E86FEF07C1C8016F
:101F20006CEE7DE143E050E04BD2892B69F4A114C3
:101F3000B10429F470E090E080EC6FE7F7C02296DE
:101F4000F501D183C083F6CF8824992440E050E086
:101F500060E070E0EF2DE053EA30A0F5F2E0EF2A08
:101F60008E2D90E09C0128703070E2FE06C0232B7D
:101F700079F50894811C911C2BC0232B19F008942F
:101F800081089108DB01CA0112E0880F991FAA1F7E
:101F9000BB1F1A95D1F7480F591F6A1F7B1F440FAB
:101FA000551F661F771F4E0F511D611D711D48394A
:101FB00029E9520729E9620729E1720748F084E01C
:101FC000E82A06C0EE3F31F4E3FC39C098E0E92A84
:101FD000F990C0CFE53311F0E53189F529912D3223
:101FE00019F4E0E1EE2A05C02B3219F081E090E00F
:101FF00003C0299182E090E0E22FE053EA3018F02C
:10200000C81BD90B1CC020E030E0FCE020383F07A3
:102010005CF4C901880F991F880F991F280F391F79
:10202000220F331F2E0F311DE991E053EA3068F380
:10203000E4FE03C0309521953F4F820E931ECE2CB7
:10204000DD24E1FE07C0A114B10421F02197F501C0
:10205000D183C083CB01BA010E94C6EB7B018C0106
:10206000F3E0CF22DD2423E0C216D10421F417FBD4
:10207000109517F9109557016801C801B70120E0C4
:1020800030E040E050E00E9426EB882309F44AC08B
:1020900097FE0DC023E0E22E2EE1F22E9094819463
:1020A00091089394C0E2D0E000E010E012C09BE100
:1020B000E92E9EE1F92EF6CFF70125913591459154
:1020C0005491C601B5010E9406EE5B016C018C1AA9
:1020D0009D0A8C169D0684F7D595C7950F5F1F4FF7
:1020E0000630110529F08CEF9FEFE80EF91EF1CFB5
:1020F000C501D6017C018D018C2D880F8D2D881F87
:102100008F3F51F0C601B50120E030E040E050E0E3
:102110000E9426EB882331F482E290E090934514EC
:10212000809344147E2D9F2D802F612F272F392FD0
:10213000482F562FB901CA01CDB7DEB7ECE00C9499
:10214000A2EF2F923F925F926F927F928F929F9217
:10215000AF92BF92CF92DF92EF92FF920F931F93B5
:10216000CF93DF938C011B01EA016115710519F012
:10217000FB0191838083209749F0CE0102978397DA
:1021800028F020E030E040E050E0F6C0F801A190F7
:102190008F018A2D90E00E946DEF892BB9F7FDE247
:1021A000AF1631F4F801A1908F015524539407C064
:1021B000FBE2AF1619F4F801A1908F015524209786
:1021C00019F0C031D105C1F4F0E3AF1679F4F8018C
:1021D0008081883711F0883549F4F801A1800E5FBD
:1021E0001F4FF2E05F2AC0E1D0E006C0209721F443
:1021F00080E3A816E9F427C0C830D10531F1C93011
:10220000D10524F4C230D10531F50CC0CA30D10556
:1022100089F0C031D105F9F4C12CD12CE12CB8E002
:10222000FB2E28C0C12CD12CE12CA0E4FA2E22C018
:10223000CAE0D0E0FCECCF2EFCECDF2EFCECEF2E65
:10224000FCE0FF2E17C0C8E0D0E0C12CD12CE12C5F
:10225000E0E1FE2E0FC09E01442737FD4095542F2C
:1022600060E070E080E090E80E942AEFC901DA01A6
:102270006C017D0120E030E040E050E060E03E0194
:10228000882477FC8094982C70EDB72EBA0CE9E086
:10229000EB1570F48A2D81548A3118F499ECB92E1B
:1022A00006C08A2D81568A3150F589EAB82EBA0CBB
:1022B0008B2D90E08C179D0714F56F3FE1F0C2164F
:1022C000D306E406F506B0F0CA01B901A4019301F2
:1022D0000E94D8EE9B01AC012B0D311D411D511DFB
:1022E0002130F0E03F07F0E04F07F0E85F0710F41F
:1022F00061E001C06FEFF801A1908F01C5CF2114FB
:10230000310481F0662331F001501040F101118356
:10231000008308C051FE1AC002501040F101118321
:10232000008314C067FF12C050FC05C02FEF3FEFC1
:102330004FEF5FE704C020E030E040E050E882E289
:1023400090E0909345148093441416C050FE08C04A
:1023500050954095309521953F4F4F4F5F4F0CC0A2
:1023600057FF0AC082E290E0909345148093441492
:102370002FEF3FEF4FEF5FE7B901CA01DF91CF9138
:102380001F910F91FF90EF90DF90CF90BF90AF9093
:102390009F908F907F906F905F903F902F900895C7
:1023A000FB01DC0105900D920020E1F70895FC018E
:1023B00005900020E9F7809590958E0F9F1F089556
:1023C000FB01DC014150504088F08D9181341CF0BC
:1023D0008B350CF4805E659161341CF06B350CF428
:1023E000605E861B611171F3990B0895881BFCCF09
:1023F000FB01DC014150504048F005900D92002057
:10240000C9F701C01D9241505040E0F70895FB010B
:1024100055915523A9F0BF01DC014D91451741119C
:10242000E1F759F4CD010590002049F04D91401598
:102430004111C9F3FB014111EFCF81E090E0019719
:102440000895FB01DC0104C08D910190801921F4F5
:1024500041505040C8F7881B990B0895FB01DC01DF
:1024600002C001900D9241505040D8F70895FB01F1
:10247000DC010D900020E9F7119701900D920020EA
:10248000E1F70895FC018191861721F08823D9F79F
:10249000992708953197CF010895FB01DC018D91B3
:1024A000019080190110D9F3990B0895FB01DC010B
:1024B00001900D920020E1F70895FB01DC014150ED
:1024C000504030F08D910190801919F40020B9F737
:1024D000881B990B0895FB01DC014150504048F0E6
:1024E00001900D920020C9F701C01D92415050404B
:1024F000E0F70895AEE0B0E0E0E8F2E10C948EEF92
:102500000E891F898EE08C831A8309838FEF9FE7E2
:102510009E838D839E01265E3F4FCE010196688D7E
:10252000798DA9010AD02F813885020F131FF80178
:1025300010822E96E4E00C94AAEFABE0B0E0E3EA60
:10254000F2E10C9480EF3C012B015A01FC0117824F
:102550001682838181FD03C06FEF7FEFB9C19AE0DE
:10256000892E1E010894211C311CF3012381F201E4
:1025700023FD859123FF81912F01882309F4A5C1B3
:10258000853239F423FD859123FF81912F01853216
:1025900021F490E0B301B7D1E8CF982FFF24EE24C7
:1025A0009924FFE1FF15D0F09B3269F09C3228F4AA
:1025B000903259F0933291F40EC09D3249F090332D
:1025C00069F441E024C052E0F52A84E0F82A28C0EA
:1025D00098E0F92A25C0E0E1FE2A22C0F7FC29C0D4
:1025E000892F80538A3070F4F6FE05C0989C902C99
:1025F0001124980E15C0E89CE02C1124E80EF0E29E
:10260000FF2A0EC09E3229F4F6FC5FC140E4F42A92
:1026100007C09C3619F450E8F52A02C0983649F4F0
:10262000F20123FD959123FF91912F01992309F048
:10263000B8CF892F8554833018F08052833038F416
:1026400044E050E0A40EB51E5FE359830FC09336FB
:1026500031F0933779F0933509F052C01FC0F5017E
:102660008081898342E050E0A40EB51E610101E043
:1026700010E011C0F501C080D180F6FC03C06FEFFF
:102680007FEF02C0692D70E042E050E0A40EB51E5D
:10269000C6012ED18C015FE7F52213C0F501C08081
:1026A000D180F6FC03C06FEF7FEF02C0692D70E0B0
:1026B00042E050E0A40EB51EC6010FD18C0150E8D7
:1026C000F52AF3FE06C018C080E290E0B3011BD1EA
:1026D000EA948E2D90E008171907B0F30DC0F601AB
:1026E000F7FC8591F7FE81916F0190E0B3010BD16A
:1026F000E110EA94015010400115110581F7E2C084
:10270000943611F0993661F5F7FE08C0F501208185
:1027100031814281538184E090E00AC0F5018081DB
:1027200091819C01442737FD4095542F82E090E031
:10273000A80EB91E9FE6F92257FF09C05095409593
:10274000309521953F4F4F4F5F4FE0E8FE2ACA0179
:10275000B901A1012AE030E002D1D82ED2183FC041
:10276000953729F41F2D1F7E2AE030E01DC01F2D54
:10277000197F9F3661F0903720F4983509F0A5C095
:102780000FC0903739F0983709F09FC004C028E097
:1027900030E00AC0106114FD146020E130E004C094
:1027A00014FD166020E132E017FF08C0F5016081DA
:1027B00071818281938144E050E008C0F5018081FD
:1027C0009181BC0180E090E042E050E0A40EB51E93
:1027D000A101C5D0D82ED2188FE7F82EF122F6FE2F
:1027E0000BC05EEFF522D91438F4F4FE07C0F2FCFA
:1027F00005C08FEEF82202C01D2D01C0192DF4FE78
:102800000DC0FE01ED0DF11D8081803319F499EEAC
:10281000F92208C01F5FF2FE05C003C08F2D867825
:1028200009F01F5F0F2DF3FC13C0F0FE0EC01E1544
:1028300010F09D2C0AC09D2C9E0C911A1E2D05C0D7
:1028400080E290E0B3015FD01F5F1E15C8F304C0A3
:102850001E1510F4E11A01C0EE2404FF0EC080E33F
:1028600090E0B30150D002FF1BC001FD03C088E718
:1028700090E00EC088E590E00BC0802F867881F054
:1028800001FF02C08BE201C080E2F7FC8DE290E024
:10289000B30139D005C080E390E0B30134D09A94FD
:1028A000D914C8F3DA94F101ED0DF11D808190E0A7
:1028B000B30129D0DD20B1F705C080E290E0B3017B
:1028C00022D0EA94EE20C9F750CEF30166817781D9
:1028D000CB012B96E2E10C949CEFFC01059061503A
:1028E00070400110D8F7809590958E0F9F1F089526
:1028F000FC016150704001900110D8F780959095CF
:102900008E0F9F1F08950F931F93CF93DF938C011A
:10291000EB018B8181FF1BC082FF0DC02E813F81A7
:102920008C819D812817390764F4E881F98101932E
:10293000F983E88306C0E885F985802F1995892BEE
:1029400031F48E819F8101969F838E8302C00FEFA9
:102950001FEFC801DF91CF911F910F910895FA01E8
:10296000AA27283051F1203181F1E8946F936E7FCE
:102970006E5F7F4F8F4F9F4FAF4FB1E03ED0B4E0BF
:102980003CD0670F781F891F9A1FA11D680F791F00
:102990008A1F911DA11D6A0F711D811D911DA11D11
:1029A00020D009F468943F912AE0269F1124301921
:1029B000305D3193DEF6CF010895462F4770405DBC
:1029C0004193B3E00FD0C9F7F6CF462F4F70405D6B
:1029D0004A3318F0495D31FD4052419302D0A9F7C6
:1029E000EACFB4E0A6959795879577956795BA95C0
:1029F000C9F700976105710508959B01AC010A2E86
:102A000006945795479537952795BA95C9F7620F5C
:102A1000731F841F951FA01D0895FC01128213824D
:102A200014820895FC018481882319F081E0828357
:102A300013820895FC018281882311F081E0838351
:102A40000895CF93DF93DC01FC01EA55FE4F8081AE
:102A500091810097C9F1019791838083ED01CB5A51
:102A6000DF4FFD01EC58FF4F8BE10190099281503F
:102A7000E1F7FD01ED5AFF4FAE58BF4F8D919C918C
:102A80001197A257B04091838083FD01EC58FF4F0E
:102A900020E030E0AD014A555E4F10C02F5F3F4F40
:102AA000EF01DF015F968BE10D9009928150E1F714
:102AB000858D968D329791838083B196DA018D91C1
:102AC0009C912817390750F3DF91CF910895FC01AD
:102AD0008AE994E0918380838781882321F0CF0164
:102AE00004960C940E710895CF92DF92EF92FF92AC
:102AF0000F931F93DF93CF93CDB7DEB76F970FB6CA
:102B0000F894DEBF0FBECDBF8C016B01085A1F4F7A
:102B1000D8018C9108551040882321F420E3E22E3F
:102B2000F12C03C091E5E92EF12CE00EF11E8AE9AB
:102B300094E09A8389831C821B8218861D82B701C8
:102B40006C5F7F4FCE010596A60121E00E94FA77C7
:102B5000882391F5EBE3F1E0949108C08091C000E7
:102B600085FFFCCF9093C600319694919923B1F7DD
:102B7000E1E4F1E0949108C08091C00085FFFCCFB2
:102B80009093C600319694919923B1F709C0809132
:102B9000C00085FFFCCF0894C11CD11C9093C600D7
:102BA000F6019081992399F78091C00085FFFCCFB1
:102BB0008AE08093C6005AC0F801EA55FE4F208192
:102BC00031812A30310508F040C02F5F3F4F3183FB
:102BD000208321503040F90185E0EE0FFF1F8A95D8
:102BE000E1F7E21BF30BEC58FF4FE00FF11F13C0AE
:102BF000AF01415E5F4FBF018BE1DB010D90BD0175
:102C0000DA010D92AD018150C1F792918291329615
:102C1000968F858F7F9721503040BFEF2E3F3B0727
:102C200039F7D801AC58BF4FF70134968BE10190CA
:102C30000D928150E1F70E581F4FF7018281938169
:102C4000D8018D939C9302571040D801AB5ABF4FC7
:102C5000FE0135968BE101900D928150E1F70D5AFE
:102C60001F4F8B819C81F80191838083CE01019657
:102C70002EDF6F960FB6F894DEBF0FBECDBFCF919B
:102C8000DF911F910F91FF90EF90DF90CF9008950B
:102C9000EF92FF920F931F938C013FECE32E31E0F4
:102CA000F32EE80EF91EC7010E94C170C7010E94F1
:102CB0000E71F801108211821F910F91FF90EF9019
:102CC0000895CF92DF92EF92FF920F931F93CF93CD
:102CD000DF937C016B01DB010D900020E9F78D0192
:102CE00001501040061B170BEFECF1E0EE0EFF1E3B
:102CF000D7011C92E1E3FEEFEE0EFF1ECB016EE466
:102D000070E0C0DBEC01009731F4F8013197EC0D75
:102D1000FD1D86010CC060E270E0B4DB8C010F5F2A
:102D20001F4FCE016AE270E0ADDBFC0131978DE010
:102D300081838AE082831382C70185539E4FB80145
:102D40000E94F3788FEC91E0E80EF91ED7018C9188
:102D5000882319F1EBE6F1E0949108C08091C0005E
:102D600085FFFCCF9093C600319694919923B1F7DB
:102D7000E2E7F1E0949108C08091C00085FFFCCFAC
:102D80009093C600319694919923B1F78091C00039
:102D900085FFFCCF8AE08093C600DF91CF911F9121
:102DA0000F91FF90EF90DF90CF900895CF93DF9336
:102DB000EC018C81882309F43BC0EAE9F1E09491AD
:102DC00008C08091C00085FFFCCF9093C60031966B
:102DD00094919923B1F7CC57DD4F488159816A818D
:102DE0007B81C458D24088E895E02AE030E00E9418
:102DF0009428E8E9F1E0949108C08091C00085FF33
:102E0000FCCF9093C600319694919923B1F7C458A2
:102E1000DD4F488159816A817B8188E895E02AE00D
:102E200030E00E9494288091C00085FFFCCF12C042
:102E3000E8E8F1E0949108C08091C00085FFFCCFE4
:102E40009093C600319694919923B1F78091C00078
:102E500085FFFCCF8AE08093C600DF91CF91089573
:102E60002F923F924F925F926F927F928F929F929A
:102E7000AF92BF92CF92DF92EF92FF920F931F9388
:102E8000DF93CF93CDB7DEB7AC970FB6F894DEBF24
:102E90000FBECDBF5C014B01FC018481882309F486
:102EA00035C1C50181539E4F0E940E71F5011282FA
:102EB00013821A8A1D8A198A188A8AE994E09F87E0
:102EC0008E875FE4C52ED12CCA0CDB1C20E330E0DA
:102ED000A20EB31EF601B182A08220ED3FEFA20E3A
:102EE000B31EF40180818F3209F08DC0C4016FE2FE
:102EF00070E0C8DA7C010894E11CF11C3E010894E2
:102F0000611C711C260142E1242E312C2C0E3D1E29
:102F100075C0C7016FE270E0B5DA6C01009709F483
:102F200080C0E816F90608F07CC08C010E191F0954
:102F3000C301B701A801CFDA060D171DF8011082F1
:102F4000F30107C08091C00085FFFCCF31969093BC
:102F5000C60090819923B1F78091C00085FFFCCF16
:102F6000FAE0F093C600F20160817181611571058C
:102F700019F460E070E002C06C5F7F4FC101A301F3
:102F800021E00E94FA77882371F5E6EDF1E0949153
:102F900008C08091C00085FFFCCF9093C600319699
:102FA00094919923B1F7FE01319607C08091C0003A
:102FB00085FFFCCF31969093C60090819923B1F79D
:102FC000E4EDF1E0949108C08091C00085FFFCCF52
:102FD0009093C600319694919923B1F78091C000E7
:102FE00085FFFCCF8DC02EE030E02C0F3D1FF2019D
:102FF0003183208376010894E11CF11CE114F10473
:1030000009F087CF0BC081E590E0A80EB91EF6014C
:10301000B182A0822FEA3FEFA20EB31ED82C092D59
:1030200002C0DE2C0F2D8FE490E0A80EB91EF50132
:103030008081918121EB3FEFA20EB31E009719F41E
:1030400080E090E001C004966D2D702F0E94C6783C
:10305000882339F1E6ECF1E0949108C08091C0003A
:1030600085FFFCCF9093C600319694919923B1F7D8
:103070008D2D902F9C01F90107C08091C00085FF24
:10308000FCCF31969093C60090819923B1F784E8E4
:1030900092E0A80EB91EF5011082118212821382ED
:1030A00032C0EEEAF1E0949108C08091C00085FF43
:1030B000FCCF9093C600319694919923B1F78D2D52
:1030C000902F9C01F90107C08091C00085FFFCCFC3
:1030D00031969093C60090819923B1F7ECEAF1E024
:1030E000949108C08091C00085FFFCCF9093C600EA
:1030F000319694919923B1F78091C00085FFFCCF60
:103100008AE08093C600CE010E96E1DCAC960FB645
:10311000F894DEBF0FBECDBFCF91DF911F910F910D
:10312000FF90EF90DF90CF90BF90AF909F908F90E7
:103130007F906F905F904F903F902F900895BF9237
:10314000CF92DF92EF92FF920F931F93CF93DF9373
:103150008C01EB018FE28993EE24E394FF2476EA5D
:10316000C72E71E0D72EC00ED11E6FE1B62E14C04F
:10317000FB9CC00111248C589F4F800F911FBE01F2
:103180000E941E7102C02196E3948881882319F061
:103190008CE88E15C0F7F3942F2D30E0F601808176
:1031A00091812817390720F3E7FC07C0C801815334
:1031B0009E4FBE010E941E7101C01882DF91CF9107
:1031C0001F910F91FF90EF90DF90CF90BF900895E7
:1031D0002F923F924F925F926F927F928F929F9227
:1031E000AF92BF92CF92DF92EF92FF920F931F9315
:1031F000DF93CF93CDB7DEB7AD970FB6F894DEBFB0
:103200000FBECDBF6C014B014DA7DC0114968C9114
:10321000882309F44BC3E2EDF1E0CE0EDF1ED601A8
:103220008C91EEE2FEEFCE0EDF1E882309F418C16A
:10323000222309F0E0C02AEE31E0C20ED31ED601EF
:103240008C91E6E1FEEFCE0EDF1E882371F1EBE6F6
:10325000F1E0949108C08091C00085FFFCCF90936D
:10326000C600319694919923B1F7EEEAF2E0949179
:1032700008C08091C00085FFFCCF9093C6003196B6
:1032800094919923B1F788E895E061E070E04AE015
:1032900050E00E94E3288091C00085FFFCCF8AE0C7
:1032A0008093C6000E94F32A01C3EBE3F1E09491FE
:1032B00008C08091C00085FFFCCF9093C600319676
:1032C00094919923B1F7E5E9F2E0949108C08091D7
:1032D000C00085FFFCCF9093C6003196949199234E
:1032E000B1F7F40107C08091C00085FFFCCF319693
:1032F0009093C60090819923B1F7EAE8F2E09491A7
:1033000008C08091C00085FFFCCF9093C600319625
:1033100094919923B1F7C6012FEE31E0C20ED31E6E
:10332000B6010DDF4BEF5FEFC40ED51ED6019C91A9
:10333000E6E1FEEFCE0EDF1E8DE8989FF00111242E
:10334000E151FE4FEC0DFD1D07C08091C00085FFCF
:10335000FCCF31969093C60090819923B1F7E4E8B1
:10336000F2E0949108C08091C00085FFFCCF90935B
:10337000C600319694919923B1F724E832E0C20E49
:10338000D31ED6014D915D916D917C91ECE7FDEFDF
:10339000CE0EDF1E88E895E02AE030E00E949428F7
:1033A0008091C00085FFFCCF8AE08093C600A60113
:1033B00046515E4FDA012C91E22FF0E0EE0FFF1F35
:1033C000EE0FFF1FEC0DFD1DE551FE4F84E892E06E
:1033D000C80ED91ED6014D905D906D907C908CE703
:1033E0009DEFC80ED91E40825182628273822F5F88
:1033F000DA012C932FC0EBE3F1E0949108C08091A7
:10340000C00085FFFCCF9093C6003196949199231C
:10341000B1F7E3E7F2E0949108C08091C00085FF26
:10342000FCCF9093C600319694919923B1F7F401A3
:1034300007C08091C00085FFFCCF31969093C600F5
:1034400090819923B1F78091C00085FFFCCF8AE07D
:103450008093C600C60181539E4F0E940E7139C0F1
:10346000EAEEF1E0CE0EDF1ED6011C92E6E1FEEFA1
:10347000CE0EDF1EEBE3F1E0949108C08091C00016
:1034800085FFFCCF9093C600319694919923B1F7B4
:10349000E2E6F2E0949108C08091C00085FFFCCF85
:1034A0009093C600319694919923B1F7F40107C027
:1034B0008091C00085FFFCCF31969093C60090812B
:1034C0009923B1F78091C00085FFFCCF8AE08093FB
:1034D000C600D60112961C92129713961C921A8A55
:1034E0001D8A198A188A8AE994E09F878E87FFE4EB
:1034F000AF2EB12CAC0CBD1CE0E3F0E0CE0EDF1E15
:10350000D501CD92DC92E0EDFFEFCE0EDF1ED401AF
:103510008C918F3209F090C0C4016FE270E00E947C
:1035200042127C010894E11CF11C3E010894611CCC
:10353000711C2501E2E12E2E312C2C0E3D1E77C090
:10354000C7016FE270E00E9442125C01009709F42B
:1035500081C0E816F90608F07DC08C010E191F091C
:10356000C301B701A8010E946B12060D171DF801D7
:103570001082F30107C08091C00085FFFCCF319617
:103580009093C60090819923B1F78091C00085FF88
:10359000FCCFFAE0F093C600D2016D917C916115E9
:1035A000710519F460E070E002C06C5F7F4FC101EB
:1035B000A30121E00E94FA77882371F5EEE4F2E09E
:1035C000949108C08091C00085FFFCCF9093C60005
:1035D000319694919923B1F7FE01319607C08091FD
:1035E000C00085FFFCCF31969093C600908199234F
:1035F000B1F7ECE4F2E0949108C08091C00085FF3F
:10360000FCCF9093C600319694919923B1F78091A5
:10361000C00085FFFCCF1BC12EE030E02C0F3D1F0A
:10362000F2013183208375010894E11CF11CE1143F
:10363000F10409F085CF0BC041E550E0C40ED51E62
:10364000D501CD92DC92EFEAFFEFCE0EDF1E082D02
:10365000F92C01C00E2DF601E15BFF4F2DA52223B1
:1036600009F4B1C0608171816115710519F460E0E0
:1036700070E002C06C5F7F4FC60181539E4F402FA8
:103680005F2D21E00E94FA77882309F46CC040EE98
:1036900051E0C40ED51ED6014D915D916D917C9186
:1036A000ECE9F0E0CE0EDF1ED6014D935D936D93F5
:1036B0007C931397E4E8FDEFCE0EDF1EEEE3F2E01D
:1036C000949108C08091C00085FFFCCF9093C60004
:1036D000319694919923B1F7802F9F2D9C01F90188
:1036E00007C08091C00085FFFCCF31969093C60043
:1036F00090819923B1F7E6E3F2E0949108C08091BC
:10370000C00085FFFCCF9093C60031969491992319
:10371000B1F788E895E02AE030E00E949428809193
:10372000C00085FFFCCF8AE08093C60024E832E029
:10373000C20ED31ED6011D921D921D921C9213978C
:10374000E8E2F2E0949108C08091C00085FFFCCFD0
:103750009093C600319694919923B1F78091C0005F
:1037600085FFFCCF99C0E4E1F2E0949108C080911C
:10377000C00085FFFCCF9093C600319694919923A9
:10378000B1F7802F9F2D9C01F90107C08091C000E7
:1037900085FFFCCF31969093C60090819923B1F7B5
:1037A000E2E1F2E0949108C08091C00085FFFCCF77
:1037B0009093C600319694919923B1F78091C000FF
:1037C00085FFFCCF44C0608171816115710519F4DA
:1037D00060E070E002C06C5F7F4FC60181539E4F76
:1037E000402F5F2D26E50E94FA77882309F033C029
:1037F000EEEFF1E0949108C08091C00085FFFCCF0E
:103800009093C600319694919923B1F7802F9F2D04
:103810009C01F90107C08091C00085FFFCCF319663
:103820009093C60090819923B1F7ECEFF1E0949169
:1038300008C08091C00085FFFCCF9093C6003196F0
:1038400094919923B1F78091C00085FFFCCF8AE065
:103850008093C60028C081E0F6018083EAEEF1E0A3
:10386000949108C08091C00085FFFCCF9093C60062
:10387000319694919923B1F7F40107C08091C0006B
:1038800085FFFCCF31969093C60090819923B1F7C4
:103890008091C00085FFFCCF8AE08093C600802F16
:1038A0009F2D0E94D79ECE010E9611D9AD960FB6D0
:1038B000F894DEBF0FBECDBFCF91DF911F910F9166
:1038C000FF90EF90DF90CF90BF90AF909F908F9040
:1038D0007F906F905F904F903F902F900895EF9260
:1038E000FF920F931F93CF93DF93EC010E94EA8125
:1038F0008E0106511E4FD8018C919FECE92E91E06C
:10390000F92EEC0EFD1E8823A1F1C7010E940E7155
:10391000F8016081615060838DE8689FB0011124D7
:1039200061517E4F6C0F7D1FCE0141E021E050DCE4
:10393000D801EC91F0E0EE0FFF1FEE0FFF1FEC0F30
:10394000FD1FE551FE4F4081518162817381CC574B
:10395000DD4F488359836A837B83C458D240C701B3
:103960000E94F76F8C81882399F181E08A831B8202
:103970002FC00E94C781C7010E940E711A821B824C
:103980008FE291E00E943E558091B90A882301F1AF
:103990001092B90A80915D08C82FD0E0CC0FDD1FCE
:1039A000C059DD4E68817981882777FD8095982FF1
:1039B0000E94C8EB2091DE033091DF034091E003C9
:1039C0005091E1030E9434ED181614F41982188204
:1039D000DF91CF911F910F91FF90EF900895FC011F
:1039E00081E08183CF0140E021E0F2CBEF92FF92B2
:1039F0000F931F93CF93DF938C01FC01148287A94F
:103A0000882321F0C801C4960E940E7128EAE22E94
:103A100021E0F22EE00EF11EC70160E045E30E94B6
:103A2000BD6E882309F5EBE3F1E0949108C0809125
:103A3000C00085FFFCCF9093C600319694919923E6
:103A4000B1F7EFE1F3E0949108C08091C00085FFE9
:103A5000FCCF9093C600319694919923B1F7809151
:103A6000C00085FFFCCF7DC0E801C355DE4FCE010D
:103A7000B70141E00E948479882341F5CE01B70166
:103A800040E00E948479882309F5EBE6F1E0949107
:103A900008C08091C00085FFFCCF9093C60031968E
:103AA00094919923B1F7ECE0F3E0949108C08091F0
:103AB000C00085FFFCCF9093C60031969491992366
:103AC000B1F78091C00085FFFCCF4BC0C801C49600
:103AD000BE010E940074882309F5EBE6F1E09491A1
:103AE00008C08091C00085FFFCCF9093C60031963E
:103AF00094919923B1F7ECEFF2E0949108C0809192
:103B0000C00085FFFCCF9093C60031969491992315
:103B1000B1F78091C00085FFFCCF23C081E0F801A0
:103B20008483EBE3F1E0949108C08091C00085FFAD
:103B3000FCCF9093C600319694919923B1F7E1EFB1
:103B4000F2E0949108C08091C00085FFFCCF909373
:103B5000C600319694919923B1F78091C00085FFFA
:103B6000FCCF8AE08093C600D801AB5ABF4FF80162
:103B7000F4968BE101900D928150E1F7F80182A952
:103B800093A90D5A1F4FF80191838083035510406C
:103B9000C801C096015B1F4FF80191838083DF91BC
:103BA000CF911F910F91FF90EF9008952F923F9228
:103BB0004F925F926F927F929F92AF92BF92CF92FD
:103BC000DF92EF92FF920F931F93DF93CF93CDB7C6
:103BD000DEB7CC55D0400FB6F894DEBF0FBECDBFD8
:103BE0006C01662311F528E832E0C20ED31ED6011F
:103BF0008C91E8E7FDEFCE0EDF1E882309F4E3C0C9
:103C000020E832E0C20ED31ED601ED90FD900D915A
:103C10001C91E0E8FDEFCE0EDF1E0E944DE3E6169C
:103C2000F7060807190708F4CEC028E832E0C20EEC
:103C3000D31ED6011C92E8E7FDEFCE0EDF1ED601A3
:103C400014968C91882339F4C601D0DEF601848164
:103C5000882309F4B8C000D000D0EDB7FEB7319684
:103C60007E010894E11CF11CADB7BEB71296FC9220
:103C7000EE92119782E691E093838283D6019E961D
:103C80008D919C919F97958384830E947A128701DE
:103C9000EDB7FEB736960FB6F894FEBF0FBEEDBF78
:103CA00057010AC0D8018C91992787FD90950E94F1
:103CB00075EFF80181938F01F50101900020E9F77C
:103CC0003197EA19FB09802F8E198E175CF364E394
:103CD000A62EB12CAC0CBD1CC50140E050E060E04C
:103CE00070E00E94F76F99245DE3E52EF12CEC0E55
:103CF000FD1E2E010894411C511C4FE1642E712CB5
:103D00006C0E7D1E3BE5232E31E0332E42C0D801E0
:103D10008C9190E00E9475EFF80181938F01D7019B
:103D20000D900020E9F71197AE19BF09802F8E1969
:103D30008A176CF327968FAD27978E3751F1C701FD
:103D4000B20145E050E00E945D12009711F500D0ED
:103D500000D0EDB7FEB73196ADB7BEB712967C92E4
:103D60006E92119733822282558244820E947A1287
:103D7000EDB7FEB736960FB6F894FEBF0FBEEDBF97
:103D8000C3010E94B75587E591E00E943E559924F2
:103D90009394C501B70140E050E00E941F731816CC
:103DA00014F48701BCCF992041F48FEF9FEFD60127
:103DB0009F969C938E939E9706C0F60186A597A525
:103DC000019697A786A7C45ADF4F0FB6F894DEBFB7
:103DD0000FBECDBFCF91DF911F910F91FF90EF905C
:103DE000DF90CF90BF90AF909F907F906F905F904B
:103DF0004F903F902F9008952F923F924F925F9255
:103E00006F927F928F929F92AF92BF92CF92DF92EA
:103E1000EF92FF920F931F93DF93CF93CDB7DEB74F
:103E2000CF58D0400FB6F894DEBF0FBECDBF8C0187
:103E30003B016A0184E090E0C80ED91EF801729639
:103E4000C757DF4FF983E883C958D040C8010596AA
:103E5000CA57DF4F99838883C658D040C857DF4F71
:103E60001882C858D040B6E6EB2EF12CEC0EFD1EA1
:103E7000F7013B96C557DF4FF983E883CB58D04015
:103E8000A9E88A2EA2E09A2E800E911EFBE8AF2EA2
:103E9000F2E0BF2EA00EB11EEEE02E2E312C2C0E25
:103EA0003D1E77E4472E512C4C0E5D1EC201049638
:103EB000C357DF4F99838883CD58D040EBE3F1E0BF
:103EC0009491C157DF4F9883CF58D0404EC1F7012E
:103ED0008385482F50E0BA016871707060317105B8
:103EE00009F051C1F401208131812130310509F4FB
:103EF0004AC12230310509F446C1F701DE011196AD
:103F00009081903239F08E2F8E19883011F48EE224
:103F10008D939D933196C557DF4F88819981CB58FA
:103F2000D040E817F90761F71C921E86F3018081E3
:103F3000882329F4C10160E072E00E943712C101B8
:103F4000B3010E943712C101BE016F5F7F4F0E9413
:103F50003712C10160E072E00E9437121CA61FA652
:103F60001BA61AA68AE994E099A788A7CE018C9689
:103F7000B601AE014F5F5F4F21E00E94FA778823C0
:103F800009F03FC0F40180819181892BD1F5C1579F
:103F9000DF4F9881CF58D040EBE3F1E008C080912B
:103FA000C00085FFFCCF9093C60031969491992371
:103FB000B1F7E2E0F2E007C08091C00085FFFCCFDE
:103FC00031969093C60090819923B1F78091C000FB
:103FD00085FFFCCFFAE0F093C600FE01319607C0E2
:103FE0008091C00085FFFCCF31969093C6009081F0
:103FF0009923B1F78091C00085FFFCCF8AE08093C0
:10400000C600C357DF4FA881B981CD58D040FE010B
:10401000BC968BE101900D928150E1F78AA59BA59A
:10402000F201938382838AE994E091838083C801BB
:10403000B101A201E1DEC2010E946715CE0188969E
:104040000E94671592C0953E09F48FC09E3209F414
:104050008CC09F3509F489C0F8019289992331F009
:104060009E3209F482C09F3509F47FC043FD7DC0B4
:1040700080E06031710509F481E0F80185A78823AB
:1040800049F4F7018085873409F06FC081858E3748
:1040900009F46BC0CA57DF4FA881B981C658D04018
:1040A000F7018081803241F08E2F8E19883011F413
:1040B0008EE28D9380818D933196C557DF4F888135
:1040C0009981CB58D040E817F90759F71C92F401B1
:1040D00080819181009729F5F30107C08091C0008C
:1040E00085FFFCCF31969093C60090819923B1F75C
:1040F000CA57DF4FE881F981C658D04007C0809188
:10410000C00085FFFCCF31969093C6009081992323
:10411000B1F78091C00085FFFCCFFAE0F093C600B4
:1041200024C08130910539F4F50180819181019697
:10413000918380831AC00297C1F4C857DF4FF8817A
:10414000C858D0402F2F30E0F50180819181281789
:104150003907F1F0C857DF4FF881C858D040FF5FEA
:10416000C857DF4FF883C858D040C601B701C757BA
:10417000DF4F48815981C958D0400E941F731816DB
:104180000CF4A5CE05C0F7019081992309F05BCF0F
:10419000C157DF4F0FB6F894DEBF0FBECDBFCF9132
:1041A000DF911F910F91FF90EF90DF90CF90BF9024
:1041B000AF909F908F907F906F905F904F903F90C7
:1041C0002F900895EF92FF920F931F93DF93CF9359
:1041D000CDB7DEB76F970FB6F894DEBF0FBECDBF79
:1041E0007C018C01015B1F4F8F5A9F4FF801918317
:1041F000808329E832E0E20EF31E21E030E0F7018F
:10420000219331937F011182108225E73DEFE20E69
:10421000F31E049640E050E060E070E00E94F76F0B
:10422000F80120813181DE011596F90134968BE188
:1042300001900D928150E1F7F901828193819C8375
:104240008B838AE994E09A838983C70165E172E0F0
:104250008E010F5F1F4FA801CFDDC8010E946715B7
:10426000F701E557FD4F808191816F960FB6F89465
:10427000DEBF0FBECDBFCF91DF911F910F91FF9099
:10428000EF900895EF92FF920F931F93DF93CF93D8
:10429000CDB7DEB76F970FB6F894DEBF0FBECDBFB8
:1042A0007C018C01015B1F4F8F5A9F4FF801918356
:1042B000808329E832E0E20EF31E22E030E0F701CD
:1042C0003183208327E73DEFE20EF31EF701E55728
:1042D000FD4F60831182049640E050E060E070E0A2
:1042E0000E94F76FF80120813181DE011596F901F6
:1042F00034968BE101900D928150E1F7F9018281B2
:1043000093819C838B838AE994E09A838983C70194
:1043100065E172E08E010F5F1F4FA8016DDDC801DE
:104320000E9467156F960FB6F894DEBF0FBECDBF23
:10433000CF91DF911F910F91FF90EF900895EF9231
:10434000FF920F931F93DF93CF93CDB7DEB76F9795
:104350000FB6F894DEBF0FBECDBF7C0189E892E0B6
:10436000E80EF91EF7011182108287E79DEFE80E33
:10437000F91E87010C5C1F4FC80140E050E060E06F
:1043800070E00E94F76FDE011596F8018BE1019055
:104390000D928150E1F7F70182A993A99C838B8349
:1043A0008AE994E09A838983C70165E172E08E010E
:1043B0000F5F1F4FA80120DDC8010E9467156F968F
:1043C0000FB6F894DEBF0FBECDBFCF91DF911F9126
:1043D0000F91FF90EF9008950F931F93CF93DF936A
:1043E000DC01D4961C92D497D7961C92D797D3967B
:1043F0001C921E92D2978AE994E0D1969C938E9358
:10440000D097AB5ABF4F1C9213961C92A855B04040
:10441000FD01EF5AFF4FAD5ABF4F11961C921E92ED
:10442000A355B04091838083ED01C059DF4FFE0159
:1044300020E030E0482F14821782138212824083DA
:104440009183215E3F4F7F9681E02633380799F7AD
:10445000A755BE4F89E18C9313961C9258961C92D7
:104460001B961C9213961C92A25DB140FD01E55370
:10447000FE4FA353BE4F11961C921E924083918310
:10448000A155BF4F1D921D921D921C921397189615
:104490001D921D921D921C921397A458B240129621
:1044A0001C92129713961C92139714961C921497B1
:1044B0001C9211961C9211978D0100581D4FF80106
:1044C0001082118212821382AA55BE4F11961C923D
:1044D0001E92AC5BBF4F1C92FE01C9011192019765
:1044E000E9F7A256BF4F81E08C93A858B2409F963F
:1044F0001C921E929E970E944DE368577C4E8F4FF0
:104500009F4FF8016083718382839383DF91CF9102
:104510001F910F910895DF93CF93CDB7DEB7E0974A
:104520000FB6F894DEBF0FBECDBFDE011196E2E4F8
:10453000F4E080E101900D928150E1F7DE015196A7
:10454000E2E3F4E080E101900D928150E1F7DE01B9
:104550009196E2E2F4E080E101900D928150E1F762
:1045600089819A81AB81BC8180935D0A90935E0AB8
:10457000A0935F0AB093600A89899A89AB89BC8944
:1045800080934D0A90934E0AA0934F0AB093500A1D
:1045900089A19AA1ABA1BCA180936D0A90936E0AE8
:1045A000A0936F0AB093700A8D819E81AF81B88508
:1045B0008093610A9093620AA093630AB093640A9D
:1045C0008D899E89AF89B88D8093510A9093520A44
:1045D000A093530AB093540A8DA19EA1AFA1B8A590
:1045E0008093710A9093720AA093730AB093740A2D
:1045F00089859A85AB85BC858093650A9093660A08
:10460000A093670AB093680A898D9A8DAB8DBC8D93
:104610008093550A9093560AA093570AB093580A6C
:1046200089A59AA5ABA5BCA58093750A9093760A37
:10463000A093770AB093780A8D859E85AF85B88957
:104640008093690A90936A0AA0936B0AB0936C0AEC
:104650008D8D9E8DAF8DB8A18093590A90935A0A83
:10466000A0935B0AB0935C0A8DA59EA5AFA5B8A9DF
:104670008093790A90937A0AA0937B0AB0937C0A7C
:104680000E94DB5A80E090E8ABE3B5E48093810AB6
:104690009093820AA093830AB093840A8093850A38
:1046A0009093860AA093870AB093880A20E030E0AE
:1046B00040E050E020937D0A30937E0A40937F0AC9
:1046C0005093800A80E29EE4A0E0B0E08093490A23
:1046D00090934A0AA0934B0AB0934C0A2093950AF0
:1046E0003093960A4093970A5093980A80E090E09E
:1046F000A0EAB1E48093890A90938A0AA0938B0A76
:10470000B0938C0A8DEC9CECACECBEE380938D0AEC
:1047100090938E0AA0938F0AB093900A80E090E065
:10472000A0EAB0E48093910A9093920AA093930A2E
:10473000B093940A20933608309337084093380892
:10474000509339082093320830933308409334084B
:104750005093350820932E0830932F08409330084B
:104760005093310884EB90E09093F2128093F11211
:1047700087E390E09093F4128093F3121092F61274
:104780001092F51280EF90E09093F8128093F71258
:1047900084E690E09093FA128093F9121092FC1242
:1047A0001092FB128AE999E9A1EBB1E48093EF033F
:1047B0009093F003A093F103B093F20361E77DE3DC
:1047C0008AE89FE30E94E28A6093F3037093F40304
:1047D0008093F5039093F60360E070E084EE92E43A
:1047E0000E94EE8A6093F7037093F8038093F903B5
:1047F0009093FA030E94ED8980E090E0A0E8BFE387
:104800008093FB039093FC03A093FD03B093FE03FE
:10481000ECE2F3E0949108C08091C00085FFFCCFEA
:104820009093C600319694919923B1F7E2E3F3E0B7
:10483000949108C08091C00085FFFCCF9093C60082
:10484000319694919923B1F78091C00085FFFCCFF8
:104850008AE08093C600E0960FB6F894DEBF0FBEE4
:10486000CDBFCF91DF910895CF93DF93CCE2D3E01A
:10487000FE01949108C08091C00085FFFCCF909309
:10488000C600319694919923B1F7ECE0F5E094914C
:1048900008C08091C00085FFFCCF9093C600319680
:1048A00094919923B1F78091C00085FFFCCF8AE0F5
:1048B0008093C600FE019491ECE2F3E008C0809181
:1048C000C00085FFFCCF9093C60031969491992348
:1048D000B1F740915D0A50915E0A60915F0A709154
:1048E000600A84E095E00E94EA2E4091610A5091AE
:1048F000620A6091630A7091640A81E095E00E9407
:10490000EA2E4091650A5091660A6091670A70919B
:10491000680A8EEF94E00E94EA2E4091690A509155
:104920006A0A60916B0A70916C0A8BEF94E00E94A6
:10493000EA2EE6E1F2E007C08091C00085FFFCCFDF
:1049400031969093C60090819923B1F78091C00071
:1049500085FFFCCF8AE08093C600FE019491ECE2D3
:10496000F3E008C08091C00085FFFCCF9093C600A3
:10497000319694919923B1F7E1EEF4E0949108C057
:104980008091C00085FFFCCF9093C6003196949132
:104990009923B1F78091C00085FFFCCF8AE0809316
:1049A000C600FE019491ECE2F3E008C08091C000E3
:1049B00085FFFCCF9093C600319694919923B1F76F
:1049C00040914D0A50914E0A60914F0A7091500AE1
:1049D00088ED94E00E94EA2E4091510A5091520ACB
:1049E0006091530A7091540A85ED94E00E94EA2E7A
:1049F0004091550A5091560A6091570A7091580A91
:104A000082ED94E00E94EA2E4091590A50915A0A90
:104A100060915B0A70915C0A8FEC94E00E94EA2E30
:104A2000E6E1F2E007C08091C00085FFFCCF31963F
:104A30009093C60090819923B1F78091C00085FFC3
:104A4000FCCF8AE08093C600FE019491ECE2F3E093
:104A500008C08091C00085FFFCCF9093C6003196BE
:104A600094919923B1F7E1EBF4E0949108C080911F
:104A7000C00085FFFCCF9093C60031969491992396
:104A8000B1F78091C00085FFFCCF8AE08093C6001B
:104A9000FE019491ECE2F3E008C08091C00085FF34
:104AA000FCCF9093C600319694919923B1F7409131
:104AB0006D0A50916E0A60916F0A7091700A88EACF
:104AC00094E00E94FC2E4091710A5091720A60910C
:104AD000730A7091740A85EA94E00E94FC2E40915A
:104AE000750A5091760A6091770A7091780A82EA85
:104AF00094E00E94FC2E4091790A50917A0A6091CC
:104B00007B0A70917C0A8FE994E00E94FC2EE6E11A
:104B1000F2E007C08091C00085FFFCCF31969093F2
:104B2000C60090819923B1F78091C00085FFFCCF2A
:104B30008AE08093C600FE019491ECE2F3E008C0A5
:104B40008091C00085FFFCCF9093C6003196949170
:104B50009923B1F7EAE6F4E0949108C08091C0008F
:104B600085FFFCCF9093C600319694919923B1F7BD
:104B70008091C00085FFFCCF8AE08093C600FE01D3
:104B80009491ECE2F3E008C08091C00085FFFCCF77
:104B90009093C600319694919923B1F74091810A80
:104BA0005091820A6091830A7091840A81E694E0B0
:104BB0000E94EA2E4091850A5091860A6091870AE8
:104BC0007091880A8EE594E00E94EA2EE6E1F2E018
:104BD00007C08091C00085FFFCCF31969093C6003E
:104BE00090819923B1F78091C00085FFFCCF8AE0C6
:104BF0008093C600FE019491ECE2F3E008C080913E
:104C0000C00085FFFCCF9093C60031969491992304
:104C1000B1F7EBEAF3E0949108C08091C00085FF02
:104C2000FCCF9093C600319694919923B1F780916F
:104C3000C00085FFFCCF8AE08093C600FE019491FE
:104C4000ECE2F3E008C08091C00085FFFCCF9093B8
:104C5000C600319694919923B1F740917D0A509105
:104C60007E0A60917F0A7091800A82EA93E00E9436
:104C7000EA2E4091950A5091960A6091970A709198
:104C8000980A8FE993E00E94EA2E4091490A5091D8
:104C90004A0A60914B0A70914C0A8CE993E00E9499
:104CA000FC2E4091890A50918A0A60918B0A70917A
:104CB0008C0A89E993E00E94EA2E40918D0A509176
:104CC0008E0A60918F0A7091900A86E993E00E94A3
:104CD000EA2E4091910A5091920A6091930A709144
:104CE000940A83E993E00E94EA2EE6E1F2E007C02D
:104CF0008091C00085FFFCCF31969093C6009081D3
:104D00009923B1F78091C00085FFFCCF8AE08093A2
:104D1000C600FE019491ECE2F3E008C08091C0006F
:104D200085FFFCCF9093C600319694919923B1F7FB
:104D3000E1E8F3E0949108C08091C00085FFFCCFCA
:104D40009093C600319694919923B1F78091C00059
:104D500085FFFCCF8AE08093C600FE019491ECE2CF
:104D6000F3E008C08091C00085FFFCCF9093C6009F
:104D7000319694919923B1F740912E0850912F08C4
:104D8000609130087091310888E793E00E94EA2E24
:104D90004091320850913308609134087091350881
:104DA00085E793E00E94EA2E40913608509137083B
:104DB000609138087091390882E793E00E94EA2EEA
:104DC000E6E1F2E007C08091C00085FFFCCF31969C
:104DD0009093C60090819923B1F78091C00085FF20
:104DE000FCCF8AE08093C600FE019491ECE2F3E0F0
:104DF00008C08091C00085FFFCCF9093C60031961B
:104E000094919923B1F7E4E6F3E0949108C080917E
:104E1000C00085FFFCCF9093C600319694919923F2
:104E2000B1F78091C00085FFFCCF8AE08093C60077
:104E3000FE019491ECE2F3E008C08091C00085FF90
:104E4000FCCF9093C600319694919923B1F740918D
:104E5000EF035091F0036091F1037091F2038AE542
:104E600093E0B8D76091F3037091F4038091F50358
:104E70009091F6030E94E88AAB01BC0187E593E0BC
:104E8000A9D76091F7037091F8038091F90390918D
:104E9000FA030E94F48AAB01BC0184E593E09AD73F
:104EA000E6E1F2E007C08091C00085FFFCCF3196BB
:104EB0009093C60090819923B1F78091C00085FF3F
:104EC000FCCF8AE08093C600DF91CF9108951F92B6
:104ED0000F920FB60F920BB60F9211242F933F93A0
:104EE0004F938F939F93EF93FF934091C600E09170
:104EF0008405F091850531969F012F7730703197A9
:104F000080918605909187052817390739F0EC5F65
:104F1000FA4F40833093850520938405FF91EF91EC
:104F20009F918F914F913F912F910F900BBE0F90BA
:104F30000FBE0F901F9018959A01AB01203081EEA3
:104F4000380780E0480780E0580749F182E0809305
:104F5000C00060E079E08DE390E00E944CEF2150CA
:104F6000304040405040CA01B90122E030E040E00A
:104F700050E00E944CEF3093C5002093C400809114
:104F8000C10080618093C1008091C10088608093DE
:104F9000C1008091C10080688093C1000895109283
:104FA000C00020E130E0E7CF2091860530918705F1
:104FB00080918405909185058217930719F42FEF4E
:104FC0003FEF0EC0F901EC5FFA4F80812F5F3F4F3A
:104FD0002F7730703093870520938605282F30E097
:104FE000C901089580918605909187059093850564
:104FF00080938405089508952F923F924F925F9277
:105000006F927F928F929F92AF92BF92CF92DF92D8
:10501000EF92FF920F931F93DF93CF93CDB7DEB73D
:10502000A0970FB6F894DEBF0FBECDBF1C016A017A
:105030007B01411551056105710541F440E350E0E4
:1050400060E070E020E030E08BD055C088249924E7
:105050005401422E55246624772401E010E00C0F01
:105060001D1F080D191DC701B601A30192010E9461
:105070002AEFF80160830894811C911CA11CB11CCB
:10508000C701B601A30192010E942AEFC901DA010A
:105090006C017D01C114D104E104F104F1F681E059
:1050A000E82EF12CEC0EFD1EE80CF91C3E010894D4
:1050B000611C711CD501C4010197A109B1096C01E2
:1050C000C818D90815C0F601EE0DFF1D40814A3001
:1050D00010F4405D01C0495C552747FD5095652F90
:1050E000752FC10120E030E03BD00894E108F108C1
:1050F0006E147F0441F7A0960FB6F894DEBF0FBE82
:10510000CDBFCF91DF911F910F91FF90EF90DF9076
:10511000CF90BF90AF909F908F907F906F905F9057
:105120004F903F902F9008952115310539F48091CB
:10513000C00085FFFCCF4093C60008955DCFEF927D
:10514000FF920F931F939A01E62EFF2400E010E0D8
:10515000B801A701E9DF1F910F91FF90EF9008952B
:10516000EF92FF920F931F93CF93DF93EC017A019D
:105170008B012115310539F48091C00085FFFCCFEA
:10518000E092C60019C02A303105A9F477FF0FC09C
:105190004DE250E060E070E020E030E0E1DF1095AB
:1051A0000095F094E094E11CF11C011D111DCE014D
:1051B000B801A7012AE020DFDF91CF911F910F9165
:1051C000FF90EF900895EF92FF920F931F937B0152
:1051D0009A010027F7FC0095102FB801A701C0DF46
:1051E0001F910F91FF90EF9008950F931F938C01E3
:1051F0004DE050E060E070E020E030E0B1DFC80159
:105200004AE050E060E070E020E030E0A9DF1F916C
:105210000F910895CF92DF92EF92FF920F931F9319
:105220008C019A016B01EE24FF24B701A6017CDFFB
:10523000C801DBDF1F910F91FF90EF90DF90CF90BF
:1052400008959F92AF92BF92CF92DF92EF92FF921A
:105250000F931F93CF93DF93EC017A018B01922E72
:10526000CB01BA0120E030E040E050E00E9426EBA4
:10527000882364F4CE014DE250E060E070E020E06D
:1052800030E06EDF17FB109517F9109520E030E045
:1052900040E05FE3AA240BC0CA01B90120E030E07E
:1052A00040E251E40E942DEB9B01AC01A394A914B0
:1052B00098F3C801B7010E944DEA7B018C010E945E
:1052C0009AEB5B016C010E94C6EB9B01AC01C8012B
:1052D000B7010E944CEA7B018C01CE01B601A50109
:1052E0002AE030E021DF992099F1E7E1F2E007C000
:1052F0008091C00085FFFCCF31969093C6009081CD
:105300009923B1F725C0C801B70120E030E040E2A1
:1053100051E40E9406EE7B018C010E9495EB5B013B
:105320006C01CC24B7FCC094DC2CCE01B601A501E5
:105330002AE030E015DFC601B5010E94C8EB9B01F1
:10534000AC01C801B7010E944CEA7B018C019A9420
:105350009920C9F6DF91CF911F910F91FF90EF90A7
:10536000DF90CF90BF90AF909F9008956ACF08953F
:10537000EF92FF920F931F93CF93DF93EC01E09096
:105380003A08F0903B0800913C0810913D08688174
:1053900079818A819B81A80197010E9426EB88234D
:1053A00024F4E882F9820A831B83E0903E08F0909F
:1053B0003F0800914008109141086C817D818E81E9
:1053C0009F81A80197010E9426EB882324F4EC8298
:1053D000FD820E831F83E0904208F0904308009105
:1053E000440810914508688579858A859B85A801C0
:1053F00097010E9426EB882324F4E886F9860A8721
:105400001B87E090A103F090A2030091A3031091E9
:10541000A403688179818A819B81A80197010E94F8
:1054200034ED181624F4E882F9820A831B83E09095
:10543000A503F090A6030091A7031091A8036C8127
:105440007D818E819F81A80197010E9434ED1816FD
:1054500024F4EC82FD820E831F83E090A903F09078
:10546000AA030091AB031091AC03688579858A8506
:105470009B85A80197010E9434ED181624F4E88654
:10548000F9860A871B87DF91CF911F910F91FF90BB
:10549000EF9008958091790808950F931F93CF930B
:1054A000DF938130910569F46F5F7F4F09F04AC047
:1054B00089E895E00E94EC218AE798E00E94B67D99
:1054C00041C0892B09F03EC06F5F7F4FD9F58AE953
:1054D00094E0909355078093540780915B0788234D
:1054E00021F088E597E00E940E71C0E1D7E00AE95B
:1054F00014E005C06F9785E0CA3DD80751F01983C5
:1055000008838F818823B1F3CE0104960E940E7127
:10551000F1CF8AE994E0998388838F81882321F0F1
:10552000CE0104960E940E718AE994E09093BA0528
:105530008093B9058091C005882321F08DEB95E01B
:105540000E940E71DF91CF911F910F91089580E01D
:1055500090E06FEF7FEFA1CF81E090E06FEF7FEF02
:105560009CCF0E94CC8A80917908882309F03AC0A8
:1055700081E08093790880917F0890918008A091C4
:105580008108B09182088093830890938408A09347
:105590008508B0938608E2E2F5E0949108C0809116
:1055A000C00085FFFCCF9093C6003196949199235B
:1055B000B1F7E3E3F5E0949108C08091C00085FF66
:1055C000FCCF9093C600319694919923B1F78091C6
:1055D000C00085FFFCCF8AE08093C60089E295E099
:1055E0000C94B59E0895F8940E94CC8A159A109256
:1055F0004608179A10924708429A10924808A09AB3
:105600008FB7F89490910B01926090930B018FBF2C
:105610008CE060E00E94FEE4E2E2F5E0949108C0D4
:105620008091C00085FFFCCF9093C6003196949185
:105630009923B1F7E2EBF5E0949108C08091C000A6
:1056400085FFFCCF9093C600319694919923B1F7D2
:105650008091C00085FFFCCF8AE08093C60089EA74
:1056600095E00E94C49E809A8898FFCF0E944DE3E7
:105670006093890870938A0880938B0890938C08B4
:10568000E091B208F091B308EC54F74F8081882381
:10569000A9F4E1EDF5E0949108C08091C00085FF88
:1056A000FCCF9093C600319694919923B1F78091E5
:1056B000C00085FFFCCF8AE08093C60008950E9459
:1056C0004DE36093890870938A0880938B089093C8
:1056D0008C0808956F927F928F929F92AF92BF92A3
:1056E000CF92DF92EF92FF920F931F93F82E60916B
:1056F000910870919208809193089091940820915C
:1057000095083091960840919708509198080E940A
:1057100041ED3B014C0100D000D00DB71EB70F5F2B
:105720001F4F6091910370919203882777FD8095B8
:10573000982F0E94C8EB2091D5033091D603409159
:10574000D7035091D8030E9406EE20E030E040E7F6
:1057500052E40E942DEB20E030E048EC52E40E943D
:105760002DEB5B016C01F801608271828282938271
:10577000F48280915D0885838EE198E06DE978E0A0
:1057800041E958E020E001E032E0E32E0E9430568B
:1057900080919D0890919E08A0919F08B091A008CB
:1057A00080931E0890931F08A0932008B0932108AF
:1057B0008091A1089091A208A091A308B091A4089B
:1057C0008093220890932308A0932408B09325087F
:1057D0008091A5089091A608A091A708B091A8086B
:1057E0008093260890932708A0932808B09329084F
:1057F0008091A9089091AA08A091AB08B091AC083B
:1058000080932A0890932B08A0932C08B0932D081E
:105810008DB79EB706960FB6F8949EBF0FBE8DBF8C
:105820000E944DE36093890870938A0880938B08E7
:1058300090938C081F910F91FF90EF90DF90CF9085
:10584000BF90AF909F908F907F906F900895CF9270
:10585000DF92EF92FF920F931F938DE998E088DD1E
:105860000E944DE36093890870938A0880938B08A7
:1058700090938C0860911E0870911F0880912008F9
:105880009091210820919D0830919E0840919F0899
:105890005091A0080E9426EB882309F07AC06091FD
:1058A0002208709123088091240890912508209166
:1058B000A1083091A2084091A3085091A4080E9429
:1058C00026EB882309F065C06091D5037091D6035B
:1058D0008091D7039091D80320E030E040E752E474
:1058E0000E942DEB7B018C018DE998E061EA78E064
:1058F00045EA58E029EA38E0EDE5CE2EE8E0DE2E74
:105900000E94666080919D0890919E08A0919F08DA
:10591000B091A00880931E0890931F08A0932008C0
:10592000B09321088091A1089091A208A091A308AA
:10593000B091A4088093220890932308A093240890
:10594000B09325088091A5089091A608A091A7087A
:10595000B091A8088093260890932708A093280860
:10596000B09329088091A9089091AA08A091AB084A
:10597000B091AC0880932A0890932B08A0932C0830
:10598000B0932D081F910F91FF90EF90DF90CF9073
:1059900008956091910370919203882777FD809517
:1059A000982F0E94C8EB2091D5033091D6034091E7
:1059B000D7035091D8030E9406EE20E030E040E784
:1059C00052E40E942DEB20E030E048EC52E488CF16
:1059D00088E895E007DBE4EDF5E0949108C080915C
:1059E000C00085FFFCCF9093C60031969491992317
:1059F000B1F740917F0850918008609181087091C3
:105A000082084F5F5F4F6F4F7F4F88E895E02AE035
:105A100030E0A6DB8091C00085FFFCCF8AE0809358
:105A2000C60024CEDF92EF92FF920F931F93D62EE3
:105A300010915D08882309F4C8C0212F30E0F901D6
:105A4000EF59F74F8081882309F09DC180911E088E
:105A500090911F08A0912008B091210880939D0883
:105A600090939E08A0939F08B093A008809122086D
:105A700090912308A0912408B09125088093A10853
:105A80009093A208A093A308B093A408809126083D
:105A900090912708A0912808B09129088093A50823
:105AA0009093A608A093A708B093A808E0902A08AE
:105AB000F0902B0800912C0810912D08E092A90875
:105AC000F092AA080093AB081093AC08F901EE0F0E
:105AD000FF1FEE0FFF1F662359F0E756FC4F609142
